:100000009CC10000C2C10000C0C10000BEC1000010
:10001000BCC10000BAC10000B8C10000B6C10000F8
:10002000B4C10000B2C100000C94EF100C94101188
:10003000ACC10000AAC10000A8C10000A6C1000018
:10004000A4C10000A2C10000A0C100009EC1000028
:100050009CC100009AC1000098C100000C94B71721
:1000600094C100000C948F140C94B6140C94E314F7
:100070008CC100008AC1000088C1000086C1000058
:1000800084C1000082C1000080C100007EC1000068
:100090007CC100007AC1000078C1000076C1000078
:1000A00074C1000072C1000070C1000082073A04F0
:1000B00076049504D804FE045705B70542074207A5
:1000C0004207420742074207420742071406340626
:1000D0005706A106C4061D072126010700000000DF
:1000E00000010000D1021200020000F801540021BA
:1000F00000000A0209002200004C027000210100E9
:10010000230209002201004C0270002102003C027F
:100110000900220200BC021500030000F4010401E2
:10012000030904E2011002030904BE0122030309CA
:1001300004980124040309047001260503090442FC
:10014000012C2C034A0056005300320058002000B6
:1001500044004500420055004700200049006E0061
:1001600074006500720066006100630065000000B5
:1001700026034A0056005300320058002000430076
:100180006F006E00740072006F006C006C00650000
:1001900072002E002E00000024034A005600530077
:1001A00032005800200043006F006E00740072009F
:1001B0006F006C006C00650072002E0000002203CE
:1001C0004A005600530032005800200043006F00E0
:1001D0006E00740072006F006C006C0065007200AD
:1001E00000001003470065006E00650072006900A2
:1001F00063000000040309040902540002010080A6
:10020000320904000001030000030921110100016B
:100210002270000705810340000109040100010369
:10022000000004092111010001227000070582036A
:10023000400001000000000000000000000000007D
:10024000000000000000000000000000050109059A
:10025000A10115002501350045017501950D050920
:100260001901290D81029503810105012507463BEE
:100270000175049501651409398142650095018174
:100280000126FF0046FF00093009310932093575A2
:1002900008950481020600FF09200921092209238B
:1002A000092409250926092709280929092A092BCA
:1002B000950C81020A21269508B102C00631FF097A
:1002C00074A1537508150026FF0095200975810259
:1002D000C01201100100000040C410C082000101E2
:1002E00002000101C13601C13601C12601230223EA
:1002F00004230823802301290229042908294026F0
:10030000802640298029102320234023802F402F3E
:10031000202F102F022F012F10292029402C0001FF
:10032000040506070D0C0B0A09080A0B0C0D07063D
:10033000050401000800AC13FD1411241FBECFEF0B
:10034000DAE0DEBFCDBF11E0A0E0B1E0E8E9F6E31E
:1003500002C005900D92AC35B107D9F722E0ACE5AB
:10036000B1E001C01D92A532B207E1F711E0CDE97D
:10037000D1E004C02197FE010E944418CB39D10777
:10038000C9F70E9436150C944A1B3ACEFC013296EE
:1003900026E6DF011D922A95E9F7EA59FF4F25E08D
:1003A000DF01322F1D923A95E9F73596DF01322FA2
:1003B0001D923A95E9F73596DF011D922A95E9F7E6
:1003C000359611821082EA5BFF4F118210823296BD
:1003D00011821082349620E4DF011D922A95E9F7FC
:1003E000FC01718360830895CF93DF93EC010E9439
:1003F0000E0E84E291E099838883FE01F99680E4F1
:1004000091E0DF019C011D9221503040E1F7E05C5A
:10041000FE4F1082C658DE4F8EE3DE011D928A9594
:10042000E9F75198599A5098589A27982F9ADF913E
:10043000CF910895CF92DF92EF92FF920F931F9387
:10044000CF93DF9300D0CDB7DEB78C0160ED77E0BE
:1004500080E090E00E94F71780EF898389ED8A831E
:10046000780182E0E80EF11C22E030E0AE014F5F3F
:100470005F4F6FEFC7010E94F20F68EE73E080E0FC
:1004800090E00E94F71722E030E0AE014F5F5F4F2F
:100490006FEFC7010E94F20F68EE73E080E090E01A
:1004A0000E94F7177801E6E8EE1AEEEFFE0A6801FF
:1004B000F8E4CF1AFEEFDF0AF701819191917F01F5
:1004C000009711F00E945F16EC14FD04A9F7F801E3
:1004D000E758FE4F1082F80112820F900F90DF91C3
:1004E000CF911F910F91FF90EF90DF90CF900895E3
:1004F000089508954F925F926F927F928F929F928C
:10050000AF92BF92CF92DF92EF92FF920F931F9321
:10051000CF93DF93CDB7DEB764970FB6F894DEBF05
:100520000FBECDBFFC01E758FE4F208130E06217BF
:1005300073070CF0F4C0FB01E354FF4FEE0FFF1FF5
:10054000E80FF91FE080F180D701A958BF4F2C9127
:1005500020FF1DC020E22983F701E758FF4F2081CB
:100560002A8322E02B8328E2269FF001279FF00DAB
:100570001124F996E80FF91F1182108221E030E072
:100580003383228323E030E041E050E004C020E0E8
:1005900030E040E050E0EC91E1FF36C0E1E0F0E017
:1005A000EC0FFD1FE20FF31F11E21083F9013196EA
:1005B000AA24A394B12CAC0EBD1EAE0EBF1E2E5F9E
:1005C0003F4F870103581F4FF8011081F501108339
:1005D00080900E0190900F01A0901001B090110139
:1005E0001AE0169FF001179FF00D1124E40FF51F7C
:1005F000EE0FFF1FEE0FFF1FE80FF91F81AE92AE47
:10060000A3AEB4AE4F5F5F4FEC91E2FF36C0E1E0C6
:10061000F0E0EC0FFD1FE20FF31F12E21083F9016F
:100620003196AA24A394B12CAC0EBD1EAE0EBF1EF3
:100630002E5F3F4F870101581F4FF8011081F501D0
:1006400010838090120190901301A0901401B0903B
:1006500015011AE0169FF001179FF00D1124E40F09
:10066000F51FEE0FFF1FEE0FFF1FE80FF91F81AE02
:1006700092AEA3AEB4AE4F5F5F4FEC91E5FF3FC0CB
:10068000E1E0F0E0EC0FFD1FE20FF31F1AE0169F10
:10069000D001179FB00D11244A0F5B1F440F551F47
:1006A000440F551F00E010E060E070E05701AFE834
:1006B000AA0EB11CA5E29A2E409016015090170187
:1006C00060901801709019010C5F1F4FD501CD90FB
:1006D000DC906C157D059CF490822E5F3F4F61830A
:1006E000D801A40FB51FA80FB91FD5964D925D92E2
:1006F0006D927C92D8976F5F7F4F3296E5CF8701DE
:1007000009551F4FAE014F5F5F4FF70160810296A1
:100710000E947F0FF701E554FF4F91838083649619
:100720000FB6F894DEBF0FBECDBFDF91CF911F9102
:100730000F91FF90EF90DF90CF90BF90AF909F9080
:100740008F907F906F905F904F90089508952F92B3
:100750003F924F925F926F927F928F929F92BF9241
:10076000CF92DF92EF92FF920F931F93CF93DF937D
:10077000CDB7DEB762970FB6F894DEBF0FBECDBF20
:100780009A8B898B6B018C010E5F1F4FC8010E94F1
:100790006F0FA989BA8951968C935197803D59F46E
:1007A00012968C91811107C0C8010E946F0F8F5F54
:1007B000E989FA89818BA989BA8951966C915197F7
:1007C000CD01FCD7B82E882309F4B1C37601B7E771
:1007D000EB0EF11CF601EB55FF4FFA83E983C601DE
:1007E00081569F4F9C838B83D601AF55BF4FBE83ED
:1007F000AD833297F887EF8302979A878987169798
:10080000BC87AB873A97FE87ED871601F7E92F0E75
:10081000311C260181E9480E511C360193E9690E0D
:10082000711C1697B88BAF874601BBE88B0E911CE5
:10083000C8010E946F0FE989FA89818B803D59F4C4
:100840008281811108C0C8010E946F0F8F5FA98942
:10085000BA8951968C93A989BA895196EC918E2FB9
:1008600090E08631910508F00DC3FC01EA5AFF4F74
:100870000C944418F7018081918181609183808379
:10088000C8010E946F0FA989BA8951968C9351971C
:10089000803D59F412968C91811107C0C8010E94C5
:1008A0006F0F8F5FE989FA89818BF601E758FF4F57
:1008B000A989BA8951968C9190E091838083C8016F
:1008C0000E946F0FE989FA89818B803D59F48281FA
:1008D000811108C0C8010E946F0F8F5FA989BA8972
:1008E00051968C93F601E558FF4F5AC0F70180816D
:1008F0009181826091838083C8010E946F0FA989D2
:10090000BA8951968C935197803D59F412968C91E7
:10091000811107C0C8010E946F0F8F5FE989FA89B2
:10092000818BF601E358FF4F61C0F701808191810F
:10093000846091838083C8010E946F0FA989BA895E
:1009400051968C935197803D59F412968C91811158
:1009500007C0C8010E946F0F8F5FE989FA89818BF8
:10096000F601E158FF4FA989BA8951968C9190E020
:1009700091838083C8010E946F0FE989FA89818B76
:10098000803D59F48281811108C0C8010E946F0F17
:100990008F5FA989BA8951968C93F601EF57FF4F63
:1009A000A989BA8951968C9190E091838083B4C1D2
:1009B000F70180819181886091838083C8010E94C2
:1009C0006F0FA989BA8951968C935197803D59F43C
:1009D00012968C91811107C0C8010E946F0F8F5F22
:1009E000E989FA89818BF601ED57FF4FA989BA8908
:1009F00051968C9190E0918380837BC1F701808137
:100A00009181806191838083C8010E946F0FA989C1
:100A1000BA8951968C935197803D59F412968C91D6
:100A2000811107C0C8010E946F0F8F5FE989FA89A1
:100A3000818BF601EB57FF4FA989BA8951968C91AA
:100A400090E091838083C8010E946F0FE989FA8941
:100A5000818B803D59F48281811108C0C8010E94B8
:100A60006F0F8F5FA989BA8951968C93F601E95768
:100A7000FF4FA989BA8951968C9190E09183808328
:100A8000C8010E946F0FE989FA89818B803D59F472
:100A90008281811108C0C8010E946F0F8F5FA989F0
:100AA000BA8951968C93F601E757FF4F58C0F7016A
:100AB00080819181806291838083C8010E946F0F41
:100AC000A989BA8951968C935197803D59F4129611
:100AD0008C91811107C0C8010E946F0F8F5FE98957
:100AE000FA89818BA989BA8951968C9190E0F40199
:100AF00091838083C8010E946F0FA989BA8951969A
:100B00008C935197803D59F412968C91811107C0B6
:100B1000C8010E946F0F8F5FE989FA89818BF60106
:100B2000E357FF4FA989BA8951968C9190E0918340
:100B30008083C8010E946F0FE989FA89818B803D0B
:100B400059F48281811108C0C8010E946F0F8F5F24
:100B5000A989BA8951968C93F601E157FF4FA9896B
:100B6000BA8951968C9190E09183808361CEF70190
:100B700080819181806491838083C8010E946F0F7E
:100B8000A989BA8951968C935197803D59F4129650
:100B90008C91811107C0C8010E946F0F8F5FE98996
:100BA000FA89818BA989BA8951968C9190E0F201DA
:100BB00091838083C8010E946F0FA989BA895196D9
:100BC0008C935197803D59F412968C91811107C0F6
:100BD000C8010E946F0F8F5FE989FA89818BA9890B
:100BE000BA8951968C9190E0F30191838083C8017A
:100BF0000E946F0FA989BA8951968C935197803DB5
:100C000059F412968C91811107C0C8010E946F0F90
:100C10008F5FE989FA89818BA989BA8951968C916C
:100C200090E0EF85F889A0CFD7018D919C91119725
:100C300080688D939C93C8010E946F0FE989FA899F
:100C4000818B803D59F48281811108C0C8010E94C6
:100C50006F0F8F5FA989BA8951968C93E989FA89B8
:100C6000818990E0D10143C0F70180819181916039
:100C700091838083C8010E946F0FA989BA89519618
:100C80008C935197803D59F412968C91811107C035
:100C9000C8010E946F0F8F5FE989FA89818BA9894A
:100CA000BA8951968C9190E0ED85FE85E8C0D70118
:100CB0008D919C91119792608D939C93C8010E9495
:100CC0006F0FE989FA89818B803D59F48281811106
:100CD00008C0C8010E946F0F8F5FA989BA89519619
:100CE0008C93E989FA89818990E0AB85BC858D93E5
:100CF0009C93C8010E946F0FE989FA89818B803D1E
:100D000059F48281811108C0C8010E946F0F8F5F62
:100D1000A989BA8951968C93C8010E946F0FE989FD
:100D2000FA89818B803D09F083CD8281811180CD4C
:100D3000C8010E946F0F8F5FA989BA8951968C9361
:100D400077CDF70180819181946091838083C80180
:100D50000E946F0FA989BA8951968C935197803D53
:100D600059F412968C91811107C0C8010E946F0F2F
:100D70008F5FE989FA89818BA989BA8951968C910B
:100D800090E0E985FA857BC0D7018D919C91119700
:100D900098608D939C93C8010E946F0FE989FA892E
:100DA000818B803D59F48281811108C0C8010E9465
:100DB0006F0F8F5FA989BA8951968C93E989FA8957
:100DC000818990E0AB81BC818D939C93C8010E9486
:100DD0006F0FE989FA89818B803D59F482818111F5
:100DE00008C0C8010E946F0F8F5FA989BA89519608
:100DF0008C93E989FA89818990E0AD81BE818D93D8
:100E00009C93C8010E946F0FE989FA89818B803D0C
:100E100059F48281811108C0C8010E946F0F8F5F51
:100E2000A989BA8951968C93E989FA89818990E0D8
:100E3000AF81B8858D939C93FBCCF7018081918124
:100E4000906191838083C8010E946F0FA989BA893C
:100E500051968C935197803D59F412968C91811143
:100E600007C0C8010E946F0F8F5FE989FA89818BE3
:100E7000A989BA8951968C9190E0E981FA81918390
:100E8000808315C0C8010E946F0FA989BA89519645
:100E90008C935197803D59F412968C91811107C023
:100EA000C8010E946F0F8F5FE989FA89818BC801A1
:100EB0000E946F0FA989BA8951968C935197803DF2
:100EC00059F412968C91811107C0C8010E946F0FCE
:100ED0008F5FE989FA89818BC8010E946F0FA98908
:100EE000BA8951968C935197803D09F0A1CC129606
:100EF0008C9181119DCCC801F2D78F5FE989FA8965
:100F0000818B96CCC801EBD7A989BA8951968C936D
:100F10005197803D61F412968C91811107C0C801F0
:100F2000DED78F5FE989FA89818B01C0B82E8B2DBE
:100F300062960FB6F894DEBF0FBECDBFDF91CF91A2
:100F40001F910F91FF90EF90DF90CF90BF909F90F7
:100F50008F907F906F905F904F903F902F9008956B
:100F6000EF92FF920F931F93CF93DF93EC010FB695
:100F7000F8948091E2019091E301A091E401B09195
:100F8000E5010FBE8D879E87AF87B88B11E08B81FF
:100F90009C81DC01ED91FC910084F185E02D0995A7
:100FA000892B19F48A81882389F011E08A818111C3
:100FB00042C08B819C81DC01ED91FC910284F38520
:100FC000E02D0995803E9105D9F435C00FB6F8940F
:100FD0008091E2019091E301A091E401B091E501DB
:100FE0000FBE4D855E856F857889841B950BA60B9A
:100FF000B70B88379105A105B10548F21A83C7CF11
:101000000FB6F8948091E2019091E301A091E40180
:10101000B091E5010FBE4D855E856F857889841B93
:10102000950BA60BB70B88379105A105B10508F400
:10103000BDCF1A83BBCF8A81811130C00FB6F8941F
:101040008091E2019091E301A091E401B091E5016A
:101050000FBE8D879E87AF87B88B11E08B819C81F7
:10106000DC01ED91FC910084F185E02D0995892B3F
:1010700019F48A818823A9F011E08A8181110BC0BB
:101080008B819C81DC01ED91FC910284F385E02D44
:101090000995892B01F58A818823C1F180E090E0D0
:1010A00046C00FB6F8948091E2019091E301A091BF
:1010B000E401B091E5010FBE4D855E856F857889AD
:1010C000841B950BA60BB70B88379105A105B105BD
:1010D00028F21A83C3CF0FB6F8948091E201909161
:1010E000E301A091E401B091E5010FBE4D855E855D
:1010F0006F857889841B950BA60BB70B88379105F4
:10110000A105B10508F4B9CF1A83B7CF7E01B2E0CB
:10111000EB0EF11CC701E3D68C01C701E0D6682FA6
:10112000CE014CD3882309F4B9CFC8010197DF91D0
:10113000CF911F910F91FF90EF9008954F925F9282
:101140006F927F928F929F92AF92BF92CF92DF92D7
:10115000EF92FF920F931F93CF93DF9300D0CDB701
:10116000DEB78C01FB01E354FF4FEE0FFF1FE00FD2
:10117000F11F6080718082E2898323018FE7480E2E
:10118000511CF20180818A839EE1C92ED12C580125
:10119000F2E0AF0EB11C62E370E080E090E00E94EC
:1011A000F71722E030E0AE014F5F5F4FF30160813F
:1011B000C50118D7C801D4DE892BB9F17301F3EC4E
:1011C000EF0EF11C812C912CF20180819181881607
:1011D00099065CF5C50183D6F801818B803D41F409
:1011E0008281811105C0C5017AD68F5FF801818B9C
:1011F000F801818990E0F7012081318182179307FE
:1012000024F402979183808309C0F70122813381FE
:10121000281739071CF4029693838283FFEF8F1AF5
:101220009F0A84E0E80EF11CCFCFE1E0CE1AD1088E
:1012300009F0B1CF0F900F90DF91CF911F910F91D7
:10124000FF90EF90DF90CF90BF90AF909F908F90E6
:101250007F906F905F904F9008955F926F927F9212
:101260008F929F92AF92BF92CF92DF92EF92FF92B6
:101270000F931F93CF93DF93EC017C0186E8E81A6C
:101280008EEFF80A5E01C12CD12C552453943E01F7
:10129000A7E86A1AAEEF7A0A4E01B2E08B0E911CF3
:1012A000F301808190E0C816D9060CF05DC055208E
:1012B00009F45AC0D7016D917C91FB01E554FF4FB1
:1012C0004081518169557F4FC4015BD6582ECE01B4
:1012D00047DE892B09F43EC08501D801D996ED91EE
:1012E000FC91DA97309739F4DB968D919C91DC97DD
:1012F00080FD22C023C0552009F1D801DB968D91D5
:101300009C91DC9780FF0CC0DC01B595A795AC0FD4
:10131000BD1F2D913C91E20FF31F0190F081E02D54
:10132000D7016D917C91959587958C0F9D1F09959F
:10133000582E0C5F1F4FD1CF5110E6CFC401CFD52F
:10134000898B803D39F48A81811104C0C401C7D5DD
:101350008F5F898BBFEFCB1ADB0AE2E0EE0EF11C48
:10136000F8E2AF0EB11C9CCF852DDF91CF911F917C
:101370000F91FF90EF90DF90CF90BF90AF909F9034
:101380008F907F906F905F900895EF92FF920F93F0
:101390001F93CF93DF931F92CDB7DEB77C0184E11B
:1013A00089838B01000F111F0E0D1F1D06581E4F44
:1013B000D801ED91FC9121E030E0AE014F5F5F4F2D
:1013C0006081C70102960ED6C701CADD892B31F0B4
:1013D000F80160817181C701BAD901C080E00F9026
:1013E000DF91CF911F910F91FF90EF900895AF92F1
:1013F000BF92CF92DF92EF92FF920F931F93CF9302
:10140000DF937C015C0182E0A80EB11CC501EAD526
:10141000C701A6DDEC01892B09F16801C601801B1B
:10142000910B8C179D07A4F4C50159D5F701818B49
:10143000803D41F48281811105C0C50150D58F5F87
:10144000F701818BF7018189F60181936F01E6CF66
:10145000C00FD11F2197188281E001C080E0DF9189
:10146000CF911F910F91FF90EF90DF90CF90BF90A1
:10147000AF900895AF92BF92CF92DF92EF92FF921A
:101480000F931F93CF93DF93CDB7DEB7C656D10925
:101490000FB6F894DEBF0FBECDBF6C015C0187E8CC
:1014A000A81A8EEFB80AF50190819F3109F442C065
:1014B00081EFA6968FAFA6979F5FA7969FAFA7973E
:1014C000E12CF12C8E010F5F1F4F22E030E0AE01C6
:1014D0004B595F4F6FEFC6018ADF8823D9F083E055
:1014E00091E00E945E168C01F501608170E06F5FF3
:1014F0007F4F0E94C601F50180819601280F311DA2
:10150000280F311DF901E658FE4F118300838F5FCC
:10151000F501808368EE73E080E090E00E94F717A9
:101520008DE00E94B1168739910524F0F601828181
:10153000882311F080E001C081E0CA59DF4F0FB667
:10154000F894DEBF0FBECDBFDF91CF911F910F91F9
:10155000FF90EF90DF90CF90BF90AF9008958F9263
:101560009F92AF92BF92CF92DF92EF92FF920F9332
:101570001F93CF93DF93CDB7DEB7C856D1090FB60F
:10158000F894DEBF0FBECDBF4C0180E1A9968FAFAE
:10159000A9976B01CC0CDD1CC80CD91C26E8C21A1B
:1015A0002EEFD20AD601ED91FC91E12CF12C8E01A7
:1015B0000F5F1F4F21E030E0AE0148595F4F60815F
:1015C000C40115DF811102C0912CABC0F6018081EE
:1015D0009181BE016F5F7F4F02960E946B1881E17F
:1015E000A8968FAFA897D601ED91FC91E12CF12C34
:1015F0008E010F5F1F4F21E030E0AE0149595F4F70
:101600006081C401F4DE8823F9F28A81982F9F70EB
:101610001F929F93082E000C990B807F992744E01E
:10162000959587954A95E1F79F938F935AE1A52E5B
:1016300051E0B52EBF92AF92F6018081918183591E
:101640009F4F9F938F930E94721882E1A7968FAF4E
:10165000A797D601ED91FC9121E030E0AE014A5907
:101660005F4F6081C401C3DE0FB6F894DEBF0FBECA
:10167000CDBF882309F4A8CF8A81982F9F701F922D
:101680009F93082E000C990B807F992734E0959545
:1016900087953A95E1F79F938F93BF92AF92D601CA
:1016A0008D919C9188599F4F9F938F930E947218A0
:1016B00083E1A6968FAFA697D601ED91FC9121E02C
:1016C00030E0AE014B595F4F6081C40190DE982E2F
:1016D0000FB6F894DEBF0FBECDBF882309F474CFD8
:1016E0008A81982F9F701F929F93082E000C990B50
:1016F000807F992724E0959587952A95E1F79F9318
:101700008F93BF92AF92D6018D919C918E589F4F2F
:101710009F938F930E9472180FB6F894DEBF0FBE8E
:10172000CDBF892DC859DF4F0FB6F894DEBF0FBE6D
:10173000CDBFDF91CF911F910F91FF90EF90DF9080
:10174000CF90BF90AF909F908F900895CF93DF93ED
:10175000EC010296BAD382E391E0998388831A8AD6
:10176000DF91CF910895CF92DF92EF92FF920F9386
:101770001F93CF93DF93EC016B0100E010E07C013D
:1017800082E0E80EF11C0C151D057CF4C701A7D3FF
:10179000898B803D39F48A81811104C0C7019FD3B0
:1017A0008F5F898B0F5F1F4FEECFDF91CF911F911E
:1017B0000F91FF90EF90DF90CF90089581E061301E
:1017C00009F080E0089581E0613009F080E008953B
:1017D0000F931F93CF93DF93EC018C010D5E1F4F8E
:1017E00043E150E060E172E0C8010E945E18892B7D
:1017F00049F095D483E1E0E1F2E0D80101900D9247
:101800008A95E1F7A69643E150E06AEE71E0CE01D9
:101810000E945E18892B49F0B2D483E1EAEEF1E030
:10182000DE0101900D928A95E1F7DF91CF911F9132
:101830000F9108958F929F92AF92BF92CF92DF92B5
:10184000EF92FF920F931F93CF93DF93FB01E95821
:10185000FF4F208121FF79C08B01EC017C0182E0E8
:10186000E80EF11CC7013BD3898B803D39F48A8196
:10187000811104C0C70133D38F5F898B6989CE0181
:10188000A2DF882309F462C0C12CD12C4801ADE746
:101890008A0E911C5801B1ECAB0EB11CF401808191
:1018A0009181C816D9060CF050C0D801ED91FC9179
:1018B0003197EE0FFF1FEC0DFD1DEE0FFF1FE050E7
:1018C000FF4F80819181892B29F462E070E0CE0185
:1018D0004ADF37C0C70103D3898B803D39F48A8141
:1018E000811104C0C701FBD28F5F898BC701F7D27A
:1018F000898B803D39F48A81811104C0C701EFD200
:101900008F5F898B898990E0F501208131812817CB
:101910003907BCF4918380831816190694F4D80112
:10192000ED91FC913197EE0FFF1FEC0DFD1DEE0FB9
:10193000FF1FE050FF4F0190F081E02D8181826018
:101940008183BFEFCB1ADB0AA9CF81E0DF91CF9172
:101950001F910F91FF90EF90DF90CF90BF90AF90CD
:101960009F908F9008958F929F92AF92BF92CF9247
:10197000DF92EF92FF920F931F93CF93DF93FB01C0
:10198000E958FF4F208122FFBAC08B01EC017C0196
:1019900082E0E80EF11CC701A2D2898B803D39F4A8
:1019A0008A81811104C0C7019AD28F5F898B6989AE
:1019B000CE0109DF882309F4A3C0680193ECC90EA6
:1019C000D11C812C912C5801AFE7AA0EB11CF50156
:1019D00080819181881699060CF091C0C7017FD251
:1019E000898B803D39F48A81811104C0C70177D287
:1019F0008F5F898B8989282F30E0D60112964D910F
:101A00005C911397241735070CF066C04D915C91DB
:101A1000421753070CF060C0B1E08B16910469F4D3
:101A2000D801ED91FC91EE0FFF1FEE0FFF1FE45068
:101A3000FF4F0190F081E02D21C0B2E08B169104A0
:101A400069F4D801ED91FC91EE0FFF1FEE0FFF1F1F
:101A5000E450FF4F0190F081E02D22C0B3E08B16DF
:101A6000910471F4D801ED91FC91EE0FFF1FEE0F80
:101A7000FF1FE450FF4F0280F381E02D83832CC0D1
:101A8000B4E08B16910471F4D801ED91FC91EE0F46
:101A9000FF1FEE0FFF1FE450FF4F0280F381E02D88
:101AA00084831AC0B5E08B169104A1F0E6E08E168F
:101AB000910481F0F7E08F16910461F098E08916A7
:101AC000910441F0A9E08A16910421F0BAE08B1646
:101AD000910411F480935C01C70101D2898B803D90
:101AE00039F48A81811104C0C701F9D18F5F898BD4
:101AF000EFEF8E1A9E0AF4E0CF0ED11C68CF81E082
:101B0000DF91CF911F910F91FF90EF90DF90CF90D9
:101B1000BF90AF909F908F900895AF92BF92CF9259
:101B2000DF92EF92FF920F931F93CF93DF93FB010E
:101B3000E958FF4F208125FF65C07B01EC018C0136
:101B40000E5F1F4FC801CBD1898B803D39F48A814C
:101B5000811104C0C801C3D18F5F898B6989CE010F
:101B600032DE882309F44FC0C12CD12C57018FE8F5
:101B7000A80EB11CD5018D919C91C816D9060CF008
:101B800041C0C801ACD1898B803D39F48A81811173
:101B900004C0C801A4D18F5F898BB1E0CB16D104FA
:101BA00079F48989D701ED91FC91EE0FFF1FEE0FBB
:101BB000FF1FE450FF4F0190F081E02D838312C09E
:101BC000B2E0CB16D10471F48989D701ED91FC9173
:101BD000EE0FFF1FEE0FFF1FE450FF4F0190F0814B
:101BE000E02D8483C8017BD1898B803D39F48A81C3
:101BF000811104C0C80173D18F5F898BBFEFCB1AED
:101C0000DB0AB8CF81E0DF91CF911F910F91FF9058
:101C1000EF90DF90CF90BF90AF900895CF93DF9378
:101C2000EC0194DD80E491E099838883DF91CF918A
:101C30000895EF92FF920F931F93CF93DF93611557
:101C4000710549F462E070E0DF91CF911F910F912F
:101C5000FF90EF9088CDEB018C0189818E7E8D7F86
:101C60008983780182E0E80EF11CC70138D1F801C0
:101C7000818B803D41F48281811105C0C7012FD144
:101C80008F5FF801818BF8018189982F9170282F3F
:101C9000227081FF0FC0992329F087FF03C081E0E4
:101CA000828B5BC087FF06C088818E7F8883898195
:101CB000806109C0992349F087FF07C088818D7F23
:101CC000888389818160898348C087FF03C08981B7
:101CD0008260F9CF81E0211101C080E0988180FB12
:101CE00090F9988381958E87F801818980FB91F91D
:101CF0009883817081958D8788E08A8380E88B83C3
:101D00008C83818984FF0FC084E08A839FEF9C834A
:101D1000818982FF04C083E08A839B831EC083FF86
:101D20001CC085E018C085FF0CC01A821C82F80117
:101D3000818982FF02C081E007C083FF0EC087E077
:101D40000AC082FF05C082E08A838FEF8B8305C0C3
:101D500083FF03C086E08A831B82C701C0D0F801DD
:101D6000818B803D41F48281811105C0C701B7D0CC
:101D70008F5FF801818BF8018189881F8827881F70
:101D8000988180FB92F9988381958C87818986FB65
:101D9000882780F980FB93F9988381958B878189C7
:101DA00085FB882780F980FB94F9988381958F873C
:101DB00081898295817080FB95F998838195888BC4
:101DC000818983FB882780F980FB96F99883818934
:101DD00082FB882780F980FB97F99883DF91CF9168
:101DE0001F910F91FF90EF900895CF92DF92EF92A5
:101DF000FF920F931F93CF93DF93FB01E958FF4F9F
:101E0000208120FF58C08B01EC017C0182E0E80EAC
:101E1000F11CC70164D0898B803D39F48A8181111E
:101E200004C0C7015CD08F5F898B6989CE01CBDC90
:101E3000882309F441C0C70152D0898B803D39F411
:101E40008A81811104C0C7014AD08F5F898BD80174
:101E5000ED91FC91EE0FFF1FEE0FFF1FE450FF4FBF
:101E60000190F081E02D8989881F8827881F918142
:101E700080FB90F99183C12CD12C7801B9E7EB0E4E
:101E8000F11CF70180819181C816D906A4F4D8010C
:101E9000ED91FC913197EE0FFF1FEC0DFD1DEE0F44
:101EA000FF1FE050FF4F60817181CE01C2DEBFEFA6
:101EB000CB1ADB0AE6CF81E0DF91CF911F910F9122
:101EC000FF90EF90DF90CF900895FC0172836183C3
:101ED00084E690E090878783928781870895E0EE7B
:101EE000F1E03197F1F7DC0111968D919C911297F9
:101EF000DC01ED91FC910284F385E02D0994CF92F1
:101F0000DF92EF92FF920F931F93CF93DF937A01AB
:101F1000F80180EE8083618381E0820F8283860FE7
:101F20000D5F1F4FEA01C12CDD24D394AE014E1981
:101F30005F094217530794F4AE019991D8019D931C
:101F40008D01DA014C91082E000C990B840F911D24
:101F500047FD9A95B6010E943118E8CF37FF02C0BD
:101F600020E030E0E20FF31F83831482C90104965E
:101F7000DF91CF911F910F91FF90EF90DF90CF9065
:101F80000895CF92DF92EF92FF920F931F93CF931A
:101F9000DF937C018B016A01EB01D70111968D91D2
:101FA0009C9112979E01201B310B2C153D054CF482
:101FB0006991DC01ED91FC910190F081E02D099592
:101FC000ECCFDC01ED91FC910680F781E02D0995C5
:101FD00081E0DF91CF911F910F91FF90EF90DF9003
:101FE000CF9008957F928F929F92AF92BF92CF929F
:101FF000DF92EF92FF920F931F93CF93DF93DA015B
:102000007C91772309F45DC069018A01F62EEC0109
:1020100089819A81DC01ED91FC910190F081E02DA4
:1020200060EE099589819A81DC01ED91FC91019026
:10203000F081E02D6F2D099589819A817724739421
:102040007C0CDC01ED91FC910190F081E02D672D7D
:1020500009957F0C7801A12CBB24B39489819A81C6
:102060009701201B310B2C153D05C4F44701DC0101
:10207000ED91FC910190F081E02DD7016D917D01F2
:102080000995F4012081872D770C990B820F911D02
:1020900027FD9A95B501E5D7782EE0CFDC01ED91CB
:1020A000FC910190F081E02D672D099589819A813D
:1020B000DC01ED91FC910680F781E02D099581E02E
:1020C00001C080E0DF91CF911F910F91FF90EF90C1
:1020D000DF90CF90BF90AF909F908F907F900895AA
:1020E0008091E80080FFFCCF089581E08093D700C5
:1020F00080EA8093D80082E189BD09B400FEFDCF5B
:1021000080E98093D8001092E00010925F018CE08B
:102110008093E2007894089580915F010895809102
:102120005F01811102C08FEF08958FB7F89491E09D
:102130009093E9009091E4009E5C21E03091E800EA
:1021400035FD0EC08FBF80915F01882361F38091C0
:10215000E400981741F38FB7F8942093E900EECF8D
:10216000E0E1F2E091919093F10092E0E332F9071F
:10217000C9F79AE39093E8008FBF80E008958091BB
:102180005F01811102C08FEF08958FB7F89492E03C
:102190009093E9009091E4009E5C22E03091E80089
:1021A00035FD0EC08FBF80915F01882361F3809160
:1021B000E400981741F38FB7F8942093E900EECF2D
:1021C000EAEEF1E091919093F10091E0ED3FF90793
:1021D000C9F79AE39093E8008FBF80E008951F92BB
:1021E0000F920FB60F9211248F938091E1001092FD
:1021F000E10083FF0FC01092E90081E08093EB00C3
:102200001092EC0082E38093ED0088E08093F00070
:1022100010925F018F910F900FBE0F901F90189535
:102220001F920F920FB60F921124FF920F931F93DC
:102230002F933F934F935F936F937F938F939F93CE
:10224000AF93BF93CF93DF93EF93FF931092E90087
:102250008091E80083FF54C1F090F1008091F1007B
:10226000C091F1009091F100D0E0D92B0091F100E4
:102270009091F10010E0192B2091F1006091F10094
:1022800092EF9093E800863009F048C080EE90E02D
:10229000FC0145915491C417D507D9F4FC0132963D
:1022A0004591549104171507A1F4FC01349645910A
:1022B0005491FC013696849130E0362B2F3F310546
:1022C00019F010F02FEF30E0281708F4822F3EEFBE
:1022D0000DC0079631E082349307D1F611C1490F42
:1022E000511D891B3093E8008823A9F09091E800E4
:1022F000292F2570D9F392FD06C1982F813408F05B
:1023000090E4FA01292F222351F364916093F100A4
:1023100021503196F8CF903449F3F5C0853041F41F
:102320008EEF8093E800DCDEC068C093E300EBC072
:10233000893039F5F1106AC0C0935F018EEF809348
:10234000E80041E083EE92E04093E9009C012F5FBA
:102350003F4FFC0154915093EB00552359F0F90184
:1023600024912093EC009C012D5F3F4F3196E49126
:10237000E093ED004F5F433011F0C901E5CF8EE1EE
:1023800040C0883039F4F0E8FF1240C0A9DE8091E7
:102390005F0199C0811114C0A3DE32E8F3120AC0B4
:1023A0000093E9008091EB0085FB882780F910926B
:1023B000E90001C080E08093F1001092F1009CC020
:1023C000982F9D7F913011F592E0F9121FC0CD2B0F
:1023D00009F096C00F779FEF900F943008F090C0EF
:1023E0009EEF9093E8000093E900833009F488C0E1
:1023F00089E18093EB0081E090E001C0880F0A95AD
:10240000EAF78093EA001092EA007DC001151105F9
:1024100009F038C0E1EAFE1220C0813089F4C1150C
:10242000D34009F070C05CDEE8EDF0E080EE90E0B3
:1024300024912093F10031968E179F07C9F75CC055
:10244000823021F44DDE80915E013DC0833009F081
:1024500057C046DE8091050136C031E2F31250C00C
:10246000893029F48091E80082FFFCCF38C08A309F
:1024700019F4D0935E0140C08B3009F041C0C09385
:1024800005013AC00130110509F03AC0E1EAFE1237
:102490001DC0813069F424DEE8EDF0E080EE90E0CC
:1024A00024912093F10031968E179F07C9F724C01D
:1024B000823021F415DE80915D0105C0833001F585
:1024C0000FDE809104018093F10016C0F1E2FF124B
:1024D00017C0893041F48091E80082FFFCCF8BEF78
:1024E0008093E80009C08A3019F4D0935D0104C0DC
:1024F0008B3031F4C09304018EEF8093E80003C069
:1025000081E28093EB00FF91EF91DF91CF91BF913A
:10251000AF919F918F917F916F915F914F913F917B
:102520002F911F910F91FF900F900FBE0F901F9052
:1025300018959F92AF92BF92CF92DF92EF92FF9247
:102540000F931F93CF93DF935C01EA01922E5E9865
:1025500000E010E06B01770FEE08FF080A151B057D
:102560005CF4C701B60143D55E9AC701B6013FD5F9
:102570005E980F5F1F4FF2CF992011F05E9A01C055
:102580005E98BE01DD0F880B990BDF91CF911F91F3
:102590000F91FF90EF90DF90CF90BF90AF909F9002
:1025A00026C5CF93DF93A1DDB7DD8823E9F36CED7A
:1025B00075E080E090E01BD5569A20E030E044EFD3
:1025C00051E069E170E081E090E0B3DF41E161E179
:1025D00070E082E691E06AD188EB91E06FD3EC0184
:1025E00062E671E00E94F401D0936101C093600142
:1025F000249A249A2C9ADF91CF910895CF93DF9358
:102600008DE0AFD38538934054F020E030E040E0D7
:1026100050E064EF71E082E090E08BDFF1CF20E0EA
:1026200030E044EF51E069E170E082E090E081DF6A
:1026300080916001909161010E941A028091600175
:10264000909161010E943A0A8111F8CFE0916001F6
:10265000F0916101828181117CC0E758FE4F808139
:10266000882309F476C0C0E0D0E0809160019091A9
:102670006101FC01E758FE4F208130E0C217D3070B
:10268000ACF5BE010E94AF0A882309F462C0BE0106
:1026900080916001909161010E947802BE01809159
:1026A0006001909161010E94C509882309F451C01D
:1026B000BE0180916001909161010E94A603BE015C
:1026C00080916001909161010E947A02BE01809127
:1026D0006001909161010E949E08BE01809160019D
:1026E000909161010E9479022196BFCF21E030E0F4
:1026F00048EE53E069E170E083E090E01ADFC0E06B
:10270000D0E08DE02ED3873991051CF580916001D2
:1027100090916101DC0152962C9121110BD40E9401
:102720002D0981110AC0219668EE73E080E090E0E7
:102730005ED4C330D10529F70CC08091600190911F
:102740006101DC01ED91FC910084F185E02D09959A
:10275000D6CFDF91CF910895E2E6F1E088E0DF0186
:102760001D928A95E9F788EE93E0A0E0B0E08383BC
:102770009483A583B6838EE491E09183808308954A
:1027800050919E0140919D01852F90E0242F30E0D3
:10279000541710F4805C9F4F821B930B0895509147
:1027A0009E0140919D01252F30E0842F90E0821BF7
:1027B000930B541710F08796089501970895809110
:1027C0009E01E0919D018E1751F0EF5FE03408F01B
:1027D000E0E0F0E0E156FE4F808190E008958FEF59
:1027E0009FEF089590919E0180919D01981779F037
:1027F00090919D019F5F903408F090E0E92FF0E008
:10280000E156FE4F808190939D0190E008958FEFF7
:102810009FEF0895809172018111FCCF089520915E
:10282000C90023FD06C021E0FC01228380E090E086
:102830000895809106018F3F21F0809172018823D5
:1028400099F09091740180917301981312C0809156
:10285000C80085FF0EC08FB7F8946093CE0091E05A
:10286000909372018FBF1DC0E0910601F0E0C9D2C4
:10287000E8CF809174018F5F8832B0F4909173013A
:102880009817E1F3E82FF0E0EB58FE4F608391E0FA
:1028900090937201809374018091C900806280934B
:1028A000C90081E090E0089580E0E8CF1F93CF93C6
:1028B000DF93EB01142F409306014F3F29F0842F43
:1028C0008FD2E12FF0E0A3D2C0FF08C0C13080E179
:1028D000D80720F482E08093C80004C01092C8009A
:1028E000D695C7952197D093CD00C093CC00809109
:1028F000C90083FD10C010929E0110929D0110929C
:102900007401109273011092720186E08093CA00E4
:1029100088ED8093C900DF91CF911F9108951F9298
:102920000F920FB60F9211242F938F939F93EF93D3
:10293000FF939091CE0080919E018F5F803408F0CC
:1029400080E020919D01821739F0E82FF0E0E156F8
:10295000FE4F908380939E01FF91EF919F918F9105
:102960002F910F900FBE0F901F9018951F920F92EE
:102970000FB60F9211248F939F93EF93FF93909133
:10298000740180917301981306C08091C9008F7DF6
:102990008093C9000FC0809173018F5F883208F067
:1029A00080E0E82FF0E0EB58FE4F90819093CE004E
:1029B00080937301FF91EF919F918F910F900FBEC4
:1029C0000F901F9018951F920F920FB60F9211241F
:1029D0008F93EF93FF9310927201809106018F3FC6
:1029E00021F0E0910601F0E012D2FF91EF918F917A
:1029F0000F900FBE0F901F901895EAE6F1E012823B
:102A000088EE93E0A0E0B0E083839483A583B6834F
:102A100017828EE491E0918380830895CF92DF92B4
:102A2000EF92FF920F931F93CF93DF936C01EB0113
:102A30007B01E40EF51E00E010E0CE15DF0561F02D
:102A40006991D601ED91FC910190F081E02DC601D4
:102A50000995080F191FF1CFC801DF91CF911F9180
:102A60000F91FF90EF90DF90CF9008954BD199DDBB
:102A7000C5DDFECF0F931F93CF93DF938230910577
:102A800010F482E090E0E0912302F091240220E033
:102A900030E060E070E0A0E0B0E0C0E0D0E030976F
:102AA00001F1408151810281138148175907B0F02B
:102AB0008417950751F4209719F00A831B8329C0C6
:102AC000009323021093240224C02115310519F02C
:102AD0004217530718F49A01BE01DF01EF01F80114
:102AE000DECF2115310509F1281B390B24303105C2
:102AF00090F412968D919C9113976115710521F0B8
:102B0000FB019383828304C0909324028093230269
:102B1000FD01329644C0FD01E20FF31F81939193B2
:102B2000225031092D933C933AC02091DF0130911E
:102B3000E001232B41F42091090130910A013093E7
:102B4000E0012093DF012091070130910801211558
:102B5000310541F42DB73EB740910B0150910C0166
:102B6000241B350BE091DF01F091E001E217F30740
:102B7000A0F42E1B3F0B2817390778F0AC014E5FED
:102B80005F4F2417350748F04E0F5F1F5093E00149
:102B90004093DF018193919302C0E0E0F0E0CF0128
:102BA000DF91CF911F910F910895CF93DF930097FD
:102BB00009F481C0FC01329713821282A091230292
:102BC000B0912402109781F420813181820F931FEC
:102BD0002091DF013091E0012817390751F5F0937A
:102BE000E001E093DF0167C0ED0120E030E0CE17A7
:102BF000DF0740F44A815B819E0141155105F1F0E8
:102C0000EA01F5CFD383C28340815181840F951FA0
:102C1000C817D90759F488819981840F951F0296A6
:102C2000918380838A819B819383828321153105DF
:102C300029F4F0932402E09323023DC0E901FB83D1
:102C4000EA8349915991C40FD51FEC17FD0761F430
:102C500080819181840F951F0296E9019983888371
:102C6000828193819B838A83E0E0F0E012968D91CC
:102C70009C911397009719F0FD01DC01F7CF8D911E
:102C80009C9111979D012E5F3F4F820F931F2091C2
:102C9000DF013091E0012817390769F4309729F4F2
:102CA000109224021092230202C013821282B09367
:102CB000E001A093DF01DF91CF910895DBCE75CFC6
:102CC00008951DBA109268001CBC10BE1FBA109265
:102CD0007A0010926E0010926F00109271001092A4
:102CE00072001092C900ECEBF0E0108214B817B833
:102CF0001AB81DB810BA108215B818B81BB81EB88B
:102D000011BA0895F894E1E6F0E020E820831082FB
:102D100083E084BD85BDEEE6F0E080818160808344
:102D200081E08093800092E09093810080939000F6
:102D3000909391009093C00094E09093C100809391
:102D4000C2008093C3001092C40086E880937A008A
:102D500020937B0010927E0010927D00C6D978945B
:102D600008958731D0F5E82FF0E0E25EFC4FE49162
:102D7000E83070F420917E0081E090E00E2E01C0DA
:102D8000880F0A94EAF7822B80937E0080E80EC0B9
:102D9000E85020917D0081E090E00E2E01C0880F68
:102DA0000A94EAF7822B80937D0080EA80937B006F
:102DB00080910D01E82BE0937C0080917A00806483
:102DC00080937A0080917A0086FDFCCF8091780014
:102DD0002091790090E0922B089580E090E0089592
:102DE000893170F4ECEEF2E0880FE80FF11D2591C7
:102DF000E491F0E09FB7F8948181822B81839FBF9B
:102E00000895E93150F4EE0FE25FF84E0994E9318C
:102E100020F4EE0FE05CF84E09940895289A089586
:102E2000299A08952A9A08952B9A08952F9A6AC08C
:102E3000589A58C0599A08955A9A08955B9A0895D5
:102E4000469A66C0479A6AC05E9A08955F9A6CC0B7
:102E50002C9A08952D9A4AC02E9A4EC08F9A0895A2
:102E60008E9A08958D9A08958C9A0895899A089556
:102E7000889A08955C9A08955D9A0895769A0895BF
:102E800028980895299808952A9808952B980895C8
:102E90002F9838C0589826C0599808955A98089580
:102EA0005B980895469834C0479838C05E98089556
:102EB0005F983AC02C9808952D9818C02E981CC081
:102EC0008F9808958E9808958D9808958C980895F8
:102ED00089980895889808955C9808955D98089554
:102EE00076980895E4B5EF7DE4BD0895E091800003
:102EF000EF77E09380000895E0918000EF7DE0930C
:102F000080000895E0918000E77FE09380000895BD
:102F1000E0919000EF77E09390000895E091C00079
:102F2000EF77E093C0000895E091C200E77FE0935F
:102F3000C2000895F89484B7877F84BF80916000B1
:102F40008061809360001092600080E29EE40197AF
:102F5000F1F781E08093E00080E28093D80080E682
:102F60009AEE0197F1F7ADDE0C94003FFFCF8F93FF
:102F70008FB78F938091E1018D5F8D37D0F480936F
:102F8000E1018091E2018F5F8093E201D8F08091AE
:102F9000E3018F4F8093E301A8F08091E4018F4F0C
:102FA0008093E40178F08091E5018F4F8093E501F3
:102FB00009C08D578093E1018091E2018E5F80937B
:102FC000E20128F78091E6018C5F8093E60158F0DA
:102FD0008091E7018F4F8093E70128F08091E8010D
:102FE0008F4F8093E8018F918FBF8F911895CF926B
:102FF000DF92EF92FF926B017C0119D09B01C1140B
:10300000D104E104F10471F012D0621B730B683E2D
:103010007340A8F381E0C81AD108E108F1082851EB
:103020003C4FEDCFFF90EF90DF90CF9008950FB61B
:10303000F89466B515B27091E6018091E701909120
:10304000E8010FBE10FE05C06F3F19F07C5F8F4F87
:103050009F4F11240024660F001C660F001C70296E
:10306000089597FB072E16F4009406D077FD08D03C
:1030700011D007FC05D03EF4909581959F4F08959F
:10308000709561957F4F0895EE0FFF1F0590F491A5
:10309000E02D0994AA1BBB1B51E107C0AA1FBB1F4F
:1030A000A617B70710F0A61BB70B881F991F5A95D4
:1030B000A9F780959095BC01CD010895FB01DC0135
:1030C00004C08D910190801921F441505040C8F7FF
:1030D000881B990B0895FB01DC0101900D920020E3
:1030E000E1F70895AEE0B0E0E7E7F8E1AAC20D89A4
:1030F0001E8986E08C831A8309838FEF9FE79E8366
:103100008D83AE01475E5F4F6F89788DCE0101964A
:1031100008D0EF81F885E00FF11F10822E96E4E0D1
:10312000ACC2ABE0B0E0E6E9F8E17DC26C017B0146
:103130008A01FC0117821682838181FFBFC1CE0103
:1031400001963C01F6019381F70193FD859193FF70
:1031500081917F01882309F4ADC1853239F493FD53
:10316000859193FF81917F01853221F4B60190E032
:10317000C0D1E8CF912C212C312CFFE1F315D8F0F0
:103180008B3279F038F4803279F08332A1F4232D38
:1031900020611DC08D3261F0803369F4232D2160E0
:1031A00016C0832D8260382EE32DE4603E2E2AC0A7
:1031B000F32DF8601DC037FC2DC020ED280F2A30FC
:1031C00040F08E32B9F436FC75C1232D2064322EC6
:1031D00019C036FE06C08AE0989E200D1124922E5A
:1031E00011C0EAE02E9E200D1124222EF32DF06254
:1031F0003F2E08C08C3621F4832D8068382E02C003
:10320000883641F4F70193FD859193FF81917F0109
:103210008111B3CF982F9F7D9554933028F40C5F84
:103220001F4F9FE399830DC0833631F0833771F0D0
:10323000833509F055C020C0F801808189830E5F75
:103240001F4F88248394912C530112C02801F2E06F
:103250004F0E511CF801A080B18036FE03C0692DCD
:1032600070E002C06FEF7FEFC50138D14C018201E1
:10327000F32DFF773F2E15C0280122E0420E511C8E
:10328000F801A080B18036FE03C0692D70E002C055
:103290006FEF7FEFC50117D14C01F32DF0683F2E82
:1032A000820133FC19C0822D90E088169906A0F4A3
:1032B000B60180E290E01DD12A94F5CFF50137FCEC
:1032C000859137FE81915F01B60190E012D1211006
:1032D0002A9421E0821A91088114910479F7E1C0BF
:1032E000843611F0893639F5F80137FE07C0608160
:1032F0007181828193810C5F1F4F08C06081718151
:10330000072E000C880B990B0E5F1F4FF32DFF76D5
:103310003F2E97FF09C090958095709561957F4FDE
:103320008F4F9F4FF0683F2E2AE030E0A3011DD160
:10333000882E861844C0853731F4232D2F7EB22E77
:103340002AE030E025C0932D997FB92E8F36C1F049
:1033500018F4883579F0AEC0803719F0883721F03D
:10336000A9C0E92FE061BE2EB4FE0DC0FB2DF460B4
:10337000BF2E09C034FE0AC0292F2660B22E06C017
:1033800028E030E005C020E130E002C020E132E07A
:10339000F801B7FE07C060817181828193810C5F63
:1033A0001F4F06C06081718180E090E00E5F1F4F6B
:1033B000A301DBD0882E8618FB2DFF773F2E36FE2B
:1033C0000DC0232D2E7FA22E891458F434FE0BC07D
:1033D00032FC09C0832D8E7EA82E05C0B82CA32CEC
:1033E00003C0B82C01C0B92CA4FE0FC0FE01E80D2B
:1033F000F11D8081803321F49A2D997EA92E09C078
:10340000A2FE06C0B394B39404C08A2D867809F056
:10341000B394A3FC10C0A0FE06C0B21480F4280C24
:10342000922C9B180DC0B21458F4B60180E290E0C3
:1034300060D0B394F8CFB21418F42B1802C0982CB3
:10344000212CA4FE0FC0B60180E390E052D0A2FE72
:1034500016C0A1FC03C088E790E002C088E590E0B8
:10346000B6010CC08A2D867851F0A1FE02C08BE215
:1034700001C080E2A7FC8DE2B60190E03AD0891449
:1034800030F4B60180E390E034D09A94F8CF8A9477
:10349000F301E80DF11D8081B60190E02AD0811082
:1034A000F6CF222009F44ECEB60180E290E021D082
:1034B0002A94F7CFF6018681978102C08FEF9FEFA4
:1034C0002B96E2E1CCC0FC010590615070400110E8
:1034D000D8F7809590958E0F9F1F0895FC0161503D
:1034E000704001900110D8F7809590958E0F9F1F26
:1034F00008950F931F93CF93DF93FB01238121FD49
:1035000003C08FEF9FEF2CC022FF16C0468157816A
:10351000248135814217530744F4A081B1819D0174
:103520002F5F3F4F318320838C93268137812F5F1C
:103530003F4F3783268314C08B01EC01FB010084CD
:10354000F185E02D0995892BE1F6D80116968D912C
:103550009C911797019617969C938E931697CE0180
:10356000DF91CF911F910F910895FA01AA2728307A
:1035700051F1203181F1E8946F936E7F6E5F7F4F40
:103580008F4F9F4FAF4FB1E03ED0B4E03CD0670FBC
:10359000781F891F9A1FA11D680F791F8A1F911D0F
:1035A000A11D6A0F711D811D911DA11D20D009F45F
:1035B00068943F912AE0269F11243019305D3193A1
:1035C000DEF6CF010895462F4770405D4193B3E08A
:1035D0000FD0C9F7F6CF462F4F70405D4A3318F031
:1035E000495D31FD4052419302D0A9F7EACFB4E0E2
:1035F000A6959795879577956795BA95C9F700979A
:103600006105710508959B01AC010A2E069457953A
:10361000479537952795BA95C9F7620F731F841F91
:10362000951FA01D08952F923F924F925F926F9227
:103630007F928F929F92AF92BF92CF92DF92EF9242
:10364000FF920F931F93CF93DF93CDB7DEB7CA1BC3
:10365000DB0B0FB6F894DEBF0FBECDBF09942A88EE
:10366000398848885F846E847D848C849B84AA8496
:10367000B984C884DF80EE80FD800C811B81AA8123
:10368000B981CE0FD11D0FB6F894DEBF0FBECDBFEE
:08369000ED010895F894FFCF4D
:103698001002EA010101FF0000250280004002003B
:1036A8000100040001000600010025642E256400C5
:1036B80000000000F50E1A0CB30C8D0DE80B00008D
:1036C80000006016601660166016601600000000A4
:1036D800F50E1A0CB30C8D0DE80B000000000F144A
:0C36E8000E15CF130A14C013F213DF13E9
:00000001FF
