:1000000011C6000037C6000035C6000033C6000028
:1000100031C600002FC600002DC600002BC6000010
:1000200029C6000027C600000C94B71E0C94D81EE9
:1000300021C600001FC600001DC600001BC6000030
:1000400019C6000017C6000015C6000013C6000040
:1000500011C600000FC600000DC600000C946226F9
:1000600009C600000C943A230C9461230C948E234F
:1000700001C60000FFC50000FDC50000FBC5000073
:10008000F9C50000F7C50000F5C50000F3C5000084
:10009000F1C50000EFC50000EDC50000EBC5000094
:1000A000E9C50000E7C50000E5C50000F6105B0BE0
:1000B000C20BF70B650CA10C3C0DDB0D7110711020
:1000C000711071107110711071107110720EA70EF5
:1000D000DD0E130F490FE50F202D3E20526563659D
:1000E000697665643A20453020303020253032581A
:1000F00000436865636B20696620666F7220486FF5
:100100007374202830783030290A005761697420D0
:10011000554152542073796E632028307845302938
:100120000A00202D204261636B75703A206861736C
:1001300020646174612020202020202020202020A5
:1001400020202020202020202020202020202D3E84
:100150002025640A00202D20446973706C61792089
:100160006F75747075743A20747970652020202042
:10017000202020202020202020202020202020207F
:10018000202D3E2025640A00202D20446973706CC8
:100190006179206F75747075743A20686569676855
:1001A00074202020202020202020202020202020FB
:1001B000202020202D3E2025640A00202D20446987
:1001C00073706C6179206F75747075743A207769FB
:1001D000647468202020202020202020202020203F
:1001E000202020202020202D3E2025640A00202DC4
:1001F00020416E616C6F67206F75747075743A2062
:100200004E756D626572206F66206368616E6E6503
:100210006C7320202020202020202D3E2025640AE1
:1002200000202D2047656E6572616C2070757270BC
:100230006F7365206F75747075743A204E756D62BA
:100240006572206F6620736C6F747320202D3E20C2
:1002500025640A00202D204D6564616C20686F7054
:100260007065723A204E756D626572206F66206D02
:100270006564616C20686F70706572732020202047
:100280002D3E2025640A00202D20436172642053F6
:10029000797374656D3A204E756D626572206F6674
:1002A000206361726420736C6F747320202020209F
:1002B0002020202D3E2025640A00202D204C696737
:1002C000687467756E3A204E756D626572206F6650
:1002D000206566666563746976652062697473205B
:1002E000666F722059202D3E2025640A00202D20A3
:1002F0004C6967687467756E3A204E756D626572F9
:10030000206F66206566666563746976652062693C
:10031000747320666F722058202D3E2025640A00D9
:10032000202D204C6967687467756E3A204E756D94
:10033000626572206F66206368616E6E656C732003
:100340002020202020202020202020202D3E20257D
:10035000640A00202D20526F746172793A4E756DD7
:10036000626572206F6620726F7461727920656EAB
:10037000636F646572732020202020202020202DB0
:100380003E2025640A00202D20416E616C6F67209D
:10039000696E7075743A20426974732070657220BA
:1003A0006368616E6E656C20202020202020202054
:1003B00020202D3E2025640A00202D20416E616CF6
:1003C0006F6720696E7075743A204E756D62657244
:1003D000206F66206368616E6E656C73202020203C
:1003E00020202020202D3E2025640A00202D20439F
:1003F0006F696E733A204E756D626572206F66206C
:10040000736C6F7473202020202020202020202057
:1004100020202020202020202D3E2025640A00209E
:100420002D20506C61796572733A204E756D62654E
:1004300072206F6620627574746F6E7320706572BF
:1004400020706C61796572202020202D3E2025646B
:100450000A00202D20506C61796572733A204E7528
:100460006D626572206F6620506C617965727320D1
:1004700020202020202020202020202020202D3E51
:100480002025640A004552524F5220647572696EED
:10049000672070617273696E672066756E63696F3D
:1004A0006E2069647820256420210A00416E616C09
:1004B0006F672046757A7A20666F7220636C696573
:1004C0006E742025643A2000202D20436F6D6D61ED
:1004D0006E64207265766973696F6E3A2025730ABF
:1004E00000202D20436F6D6D616E64207665727300
:1004F000696F6E3A202025730A00202D204A56533A
:100500002076657273696F6E3A20202020202025A6
:10051000730A00202D20494F206964656E74697448
:10052000793A20202020202025730A0047656E6537
:1005300072616C3A0A0053454E53452070696E2033
:10054000616674657220736574206164647265739A
:10055000733A2025640A005761726E696E672C2019
:100560006E6F6E2D7374616E6461726420696E705B
:1005700075742F6F75747075742066756E63746909
:100580006F6E2072657475726E6564206279207476
:10059000686520494F20426F617264210A0045520C
:1005A000524F522C20736C61766520697320746FF2
:1005B0006F20627573792C2069742063616E2774D3
:1005C0002070726F63657373207468652073756241
:1005D00020636F6D6D616E640A005761726E696EA3
:1005E000672C20636F6D6D616E6420706172616D48
:1005F00065746572206572726F722C207061726111
:100600006D657465722069732069676E6F726564C9
:100610000A005761726E696E672C20636F6D6D61A1
:100620006E6420706172616D6574657220657272AE
:100630006F722C206E6F2072657475726E2064610B
:1006400074610A004552524F522C20736C617665DA
:1006500020697320746F6F20627573792C20697420
:100660002063616E27742070726F636573732074EA
:10067000686520636F6D6D616E640A005761726E0C
:10068000696E672C20736C617665206465746563A0
:1006900074656420612053554D204572726F720A53
:1006A000005761726E696E672C20636F6D6D616EAD
:1006B0006420756E6B6E6F776E0A0053746F72698B
:1006C0006E67206461746120636F6E74726F6C6C0E
:1006D0006572203220666F72206E65787420696EB4
:1006E000746572727570742D696E207265706F72A8
:1006F000740A0053746F72696E67206461746120BC
:10070000636F6E74726F6C6C6572203120666F72ED
:10071000206E65787420696E746572727570742DC0
:10072000696E207265706F72740A000A53544152E8
:1007300054202B20427574746F6E2031202B204280
:100740007574746F6E2032202D3E20526573746173
:100750007274205465656E7379210A000A202D3E5B
:10076000206275696C6420646F6E652C20726571FF
:1007700075657374206C656E6774682025640A0063
:100780002126010700000000000100007909120085
:10079000020000A0085400210000B2080900220055
:1007A00000F4087000210100CB080900220100F4C8
:1007B000087000210200E408090022020064091503
:1007C000000300009C0804010309048A08100203C6
:1007D00009046608220303090440082404030904E9
:1007E00018082605030904EA072C2C034A005600C2
:1007F00053003200580020004400450042005500DC
:100800004700200049006E00740065007200660019
:10081000610063006500000026034A005600530093
:1008200032005800200043006F006E007400720018
:100830006F006C006C00650072002E002E0000003E
:1008400024034A00560053003200580020004300A1
:100850006F006E00740072006F006C006C00650029
:1008600072002E00000022034A005600530032009E
:100870005800200043006F006E00740072006F008B
:100880006C006C00650072000000100347006500FA
:100890006E00650072006900630000000403090433
:1008A0000902540003010080320904000001030022
:1008B0000003092111010001227000070581034096
:1008C00000010904010001030000040921110100D5
:1008D00001227000070582034000010904020001A3
:1008E00003000005092111010001221500070583FD
:1008F0000320000105010905A101150025013500AE
:1009000045017501950D05091901290D8102950310
:10091000810105012507463B017504950165140910
:1009200039814265009501810126FF0046FF0009DB
:10093000300931093209357508950481020600FF36
:100940000920092109220923092409250926092743
:1009500009280929092A092B950C81020A212695C3
:1009600008B102C00631FF0974A1537508150026AD
:10097000FF00952009758102C012011001000000DE
:1009800040C410C08200010102000101C13601C152
:100990003601C1260A546F6F206D616E7920657231
:1009A000726F72732067657474696E67204A56535C
:1009B00020436C69656E74207265706F7274732C5D
:1009C0002077696C6C207265737461727420210ADF
:1009D0000A000A52657175657374207265626F6FE3
:1009E0007420210A0A000A4A565320696E6974204D
:1009F0007375636365737320210A0A000A45727276
:100A00006F7220647572696E6720696E69742070F8
:100A1000686173652C2077696C6C207265737461F2
:100A2000727420210A0A00202D3E20646F6E650A30
:100A3000000A5374617274696E672046757A7A2071
:100A400063616C63756C6174696F6E20666F722090
:100A5000636C69656E743A2025642C206E62722086
:100A60006F66206368616E6E656C733A2025640A58
:100A7000000A73657442756C6B436F6D6D616E64D3
:100A80000A002D2D2D2D2D2D2D2D2D2D2D2D2D2DE6
:100A90002D2D2D2D2D2D0A000A436C69656E7420B5
:100AA000696E666F726D6174696F6E2025640A00ED
:100AB000546F74616C20636C69656E74733A2025A1
:100AC000640A00486F7374207365747320616464F2
:100AD00072657373286573290A0053454E53452088
:100AE00070696E206265666F7265207365747469E3
:100AF0006E672061646472657373286573293A2098
:100B000025640A00202D3E20646F6E650A00486F40
:100B100073742073656E64732072657365742063EB
:100B20006F6D6D616E640A004361626C6520636F76
:100B30006E6E65637465640A0057616974696E67F7
:100B400020666F72204A5653204361626C652063B1
:100B50006F6E6E656374696F6E0A005365742073FF
:100B6000656E7365206C696E6520746F2048494717
:100B7000480A0041637469766174696E6720554163
:100B800052540A0041637469766174696E67204C3F
:100B900045440A0055534220696E697469616C6965
:100BA0007A6174696F6E202D3E20646F6E650A0055
:100BB0003D3D3D3D3D3D3D3D3D3D3D3D3D3D3D3D65
:100BC0000A000A4A565332582025642E25642054C0
:100BD00072616365730A00012302230423082380E2
:100BE000230129022904290829402680264029803A
:100BF00029102320234023802F402F202F102F0245
:100C00002F012F10292029402C0001040506070D73
:100C10000C0B0A09080A0B0C0D0706050401000855
:100C20005722A82311241FBECFEFDAE0DEBFCDBFCD
:100C300012E0A0E0B1E0E0E9F4E502C005900D9219
:100C4000A230B107D9F722E0A2E0B2E001C01D92C4
:100C5000AD3CB207E1F716E0C2E1D6E004C021974F
:100C6000FE010E94EF26C031D107C9F70E94E1239F
:100C70000C94462AC5C9FC01329626E6DF011D9276
:100C80002A95E9F7EA59FF4F25E0DF01322F1D923F
:100C90003A95E9F73596DF01322F1D923A95E9F73B
:100CA0003596DF011D922A95E9F73596118210825B
:100CB000EA5BFF4F118210823296118210823496C5
:100CC00020E4DF011D922A95E9F7FC01718360831E
:100CD0000895CF93DF93EC010E94641987E991E0B6
:100CE00099838883FE01F99680E491E0DF019C01FD
:100CF0001D9221503040E1F7E05CFE4F1082C65853
:100D0000DE4F8EE3DE011D928A95E9F75198599ADC
:100D10005098589A27982F9ADF91CF910895CF92A3
:100D2000DF92EF92FF920F931F93CF93DF9300D048
:100D3000CDB7DEB78C0160ED77E080E090E00E94F7
:100D4000A22680EF898389ED8A83780182E0E80E0C
:100D5000F11C22E030E0AE014F5F5F4F6FEFC70143
:100D60000E94181C68EE73E080E090E00E94A226CA
:100D700022E030E0AE014F5F5F4F6FEFC7010E948E
:100D8000181C68EE73E080E090E00E94A2267801D3
:100D9000E6E8EE1AEEEFFE0A6801F8E4CF1AFEEF7D
:100DA000DF0AF701819191917F01009711F00E9474
:100DB0000A25EC14FD04A9F7F801E758FE4F10824C
:100DC000F80112820F900F90DF91CF911F910F9138
:100DD000FF90EF90DF90CF9008950F931F93CF93E4
:100DE000DF93EC018B016CE275E081E090E00E9402
:100DF000981D000F111FC00FD11FC658DE4F8881EC
:100E0000998102969F938F9383E195E09F938F93AF
:100E10001F9211E01F930E94341D88819981885987
:100E20009F4F9F938F938AEF94E09F938F931F928E
:100E30001F930E94341D8881998183599F4F9F93EE
:100E40008F9381EE94E09F938F931F921F930E9444
:100E5000341D888199818E589F4F9F938F9388EC82
:100E600094E09F938F931F921F930E94341D8DB720
:100E70009EB748960FB6F8949EBF0FBE8DBFDF9108
:100E8000CF911F910F910895DF92EF92FF920F93F0
:100E90001F93CF93DF93660F771F860F971FEC0189
:100EA000C658DE4FE881F98181818F9380818F93CD
:100EB0008CEA94E09F938F931F9282E08F930E941D
:100EC000341D0F900F900F900F900F900F90E12C0A
:100ED000F12C0AE111E042E0D42EC701880F991FDE
:100EE000880F991F8D539F4F28813981820F931F3F
:100EF0009F938F931F930F931F92DF920E94E81C82
:100F00008FEFE81AF80A0F900F900F900F900F9044
:100F10000F9088E0E816F10401F76BE871E082E0D9
:100F200090E0DF91CF911F910F91FF90EF90DF90B4
:100F30000C94801D2F923F924F925F926F927F92FE
:100F40009F92AF92BF92CF92DF92EF92FF920F9358
:100F50001F93CF93DF93CDB7DEB764970FB6F894A6
:100F6000DEBF0FBECDBFFC01E758FE4F208130E051
:100F7000621773070CF007C1FB01E354FF4FEE0F3C
:100F8000FF1FE80FF91FC080D180D601A958BF4FBD
:100F90002C9120FF1EC020E22983F601E758FF4F65
:100FA00020812A8322E02B8328E2269FF001279FBD
:100FB000F00D1124F996E80FF91F1182108221E03B
:100FC00030E03383228343E0E42EF12C01E010E093
:100FD00004C0E12CF12C00E010E02C91AE014F5F39
:100FE0005F4F5A0121FF30C0FA01EE0DFF1D21E2D3
:100FF0002083F7013196AF014A0D5B1DE2E0EE0E52
:10100000F11C960123583F4FF9012081FA012083FA
:1010100040900E0150900F016090100170901101EE
:101020002AE0269FF001279FF00D1124E00FF11F09
:10103000EE0FFF1FEE0FFF1FE80FF91F41AE52AE7C
:1010400063AE74AE0F5F1F4F2C9122FF30C0F501CD
:10105000EE0DFF1D22E22083F7013196AF014A0D0C
:101060005B1DF2E0EF0EF11C960121583F4FF90194
:101070002081FA012083409012015090130160906A
:101080001401709015012AE0269FF001279FF00DB2
:101090001124E00FF11FEE0FFF1FEE0FFF1FE80FEF
:1010A000F91F41AE52AE63AE74AE0F5F1F4F2C916D
:1010B00025FF3CC0F501EE0DFF1D4AE0469F900163
:1010C000479F300D1124020F131F000F111F000F37
:1010D000111F40E050E020E030E0B60161577F4F43
:1010E000A5E29A2E409016015090170160901801C9
:1010F000709019014C5F5F4FDB012D903C902215E1
:101100003305A4F49082B2E0EB0EF11C2183DA01E6
:10111000A00FB11FA80FB91FD5964D925D926D9289
:101120007C92D8972F5F3F4F3296E4CF3C01F50178
:1011300001900020E9F73197EA19FB09FF93EF933B
:101140001F9284E18F93FF92EF9280E291E09F9350
:101150008F931F9282E08F930E94E81C86010955AD
:101160001F4F9701A501F6016081C30102960E94FD
:10117000231BF601E554FF4F918380830FB6F8944B
:10118000DEBF0FBECDBF64960FB6F894DEBF0FBEB4
:10119000CDBFDF91CF911F910F91FF90EF90DF9026
:1011A000CF90BF90AF909F907F906F905F904F9047
:1011B0003F902F900895DF92EF92FF920F931F932D
:1011C000CF93DF93660F771F860F971FEC01C658EA
:1011D000DE4FE880F9806FE771E081E090E00E94E7
:1011E000801D870109581F4FF801808180FF2AC0A8
:1011F000E881F981E758FF4F81818F9380818F9338
:1012000082E594E09F938F931F92DD24D394DF9225
:101210000E94341DE881F981E558FF4F81818F9349
:1012200080818F938FE194E09F938F931F92DF9241
:101230000E94341D8DB79EB70C960FB6F8949EBFD2
:101240000FBE8DBFF801808181FF17C0E881F98151
:10125000E358FF4F81818F9380818F938CEE93E0D1
:101260009F938F931F9281E08F930E94341D0F9064
:101270000F900F900F900F900F90F801808182FFD8
:101280002AC0E881F981E158FF4F81818F938081E5
:101290008F9389EB93E09F938F931F92DD24D394D8
:1012A000DF920E94341DE881F981EF57FF4F818161
:1012B0008F9380818F9386E893E09F938F931F9203
:1012C000DF920E94341D8DB79EB70C960FB6F8942E
:1012D0009EBF0FBE8DBFF801808183FF17C0E881DC
:1012E000F981ED57FF4F81818F9380818F9383E543
:1012F00093E09F938F931F9281E08F930E94341D00
:101300000F900F900F900F900F900F90F801808129
:1013100085FF3AC0E881F981E157FF4F81818F93C2
:1013200080818F9380E293E09F938F931F92DD24BF
:10133000D394DF920E94341DE881F981E557FF4F75
:1013400081818F9380818F938DEE92E09F938F9315
:101350001F92DF920E94341DE881F981E357FF4F0D
:1013600081818F9380818F938AEB92E09F938F93FB
:101370001F92DF920E94341D8DB79EB742960FB622
:10138000F8949EBF0FBE8DBFF801808187FF17C004
:10139000E881F981E956FF4F81818F9380818F9396
:1013A00087E892E09F938F931F9281E08F930E9432
:1013B000341D0F900F900F900F900F900F90F80129
:1013C0008081918190FF17C0E881F981E756FF4F36
:1013D00081818F9380818F9384E592E09F938F9397
:1013E0001F9281E08F930E94341D0F900F900F90F9
:1013F0000F900F900F90F701E958FF4F8081918176
:1014000091FF17C0E881F981E556FF4F81818F93E5
:1014100080818F9381E292E09F938F931F9281E06E
:101420008F930E94341D0F900F900F900F900F908C
:101430000F90F8018081918192FF17C0E881F981B6
:10144000E356FF4F81818F9380818F938EEE91E0E1
:101450009F938F931F9281E08F930E94341D0F9072
:101460000F900F900F900F900F90F8018081918155
:1014700093FF3AC0E881F981E156FF4F81818F9354
:1014800080818F938BEB91E09F938F931F92FF242A
:10149000F394FF920E94341DE881F981EF55FF4FCC
:1014A00081818F9380818F9388E891E09F938F93C0
:1014B0001F92FF920E94341DE881F981ED55FF4F84
:1014C00081818F9380818F9385E591E09F938F93A6
:1014D0001F92FF920E94341D8DB79EB742960FB6A1
:1014E000F8949EBF0FBE8DBFF8018081918194FF5B
:1014F00017C0E881F981EB55FF4F81818F9380817F
:101500008F9382E291E09F938F931F9281E08F935C
:101510000E94341D0F900F900F900F900F900F901E
:1015200064EF71E080E090E0DF91CF911F910F9127
:10153000FF90EF90DF900C94A2262F923F924F9253
:101540005F926F927F928F929F92AF92BF92CF9253
:10155000DF92EF92FF920F931F93CF93DF93CDB75C
:10156000DEB761970FB6F894DEBF0FBECDBF998B83
:10157000888B6B018C010E5F1F4FC8010E94151BE9
:10158000A889B98951968C9399279F938F938AE163
:1015900091E09F938F931F9282E08F930E94E81CAB
:1015A0000F900F900F900F900F900F90E889F9898E
:1015B0008189803D59F48281811108C0C8010E944F
:1015C000151B8F5FA889B98951968C93E889F98991
:1015D0006189CF010E9450168983882309F435C69A
:1015E0007601F7E7EF0EF11CC6018B559F4F9B83E9
:1015F0008A83D601A156BF4FBD83AC83F601EF5558
:10160000FF4FFF83EE830297998788871297BB87E6
:10161000AA873697FD87EC870A979F878E871601E2
:1016200097E9290E311C2601A1E94A0E511C360109
:10163000B3E96B0E711C5601E5E9AE0EB11C460113
:10164000FBE88F0E911CC8010E94151BA889B9895F
:1016500051968C9399279F938F938AE191E09F9362
:101660008F931F9282E08F930E94E81C0F900F903F
:101670000F900F900F900F90E889F9898189803D34
:1016800059F48281811108C0C8010E94151B8F5F27
:10169000A889B98951968C93A889B9895196EC91FA
:1016A0008E2F90E08631910508F01BC5FC01EA5AA7
:1016B000FF4F0C94EF26F701808191818160918327
:1016C0008083C8010E94151BA889B98951968C9303
:1016D00099279F938F938AE191E09F938F931F9215
:1016E00082E08F930E94E81C0F900F900F900F9054
:1016F0000F900F90E889F9898189803D59F48281A2
:10170000811108C0C8010E94151B8F5FA889B98983
:1017100051968C93F601E758FF4FA889B9895196E5
:101720008C9190E091838083C8010E94151BE88909
:10173000F989818B99279F938F938AE191E09F93F9
:101740008F931F9282E08F930E94E81C0F900F905E
:101750000F900F900F900F90A889B98951968C9196
:101760005197803D59F412968C91811107C0C801A0
:101770000E94151B8F5FE889F989818BF601E55876
:10178000FF4F9BC0D7018D919C91119782608D93E3
:101790009C93C8010E94151BE889F989818B9927C0
:1017A0009F938F938AE191E09F938F931F9282E0A2
:1017B0008F930E94E81C0F900F900F900F900F9046
:1017C0000F90A889B98951968C915197803D59F411
:1017D00012968C91811107C0C8010E94151B8F5F62
:1017E000E889F989818BF601E358FF4FA2C0F70120
:1017F00080819181846091838083C8010E94151B40
:10180000A889B98951968C9399279F938F938AE1E0
:1018100091E09F938F931F9282E08F930E94E81C28
:101820000F900F900F900F900F900F90E889F9890B
:101830008189803D59F48281811108C0C8010E94CC
:10184000151B8F5FA889B98951968C93F601E158D1
:10185000FF4FA889B98951968C9190E0918380833C
:10186000C8010E94151BE889F989818B99279F93EC
:101870008F938AE191E09F938F931F9282E08F93E1
:101880000E94E81C0F900F900F900F900F900F90F8
:10189000A889B98951968C915197803D59F4129637
:1018A0008C91811107C0C8010E94151B8F5FE889C8
:1018B000F989818BF601EF57FF4FA889B9895196B5
:1018C0008C9190E09183808365C4D7018D919C9128
:1018D000119788608D939C93C8010E94151BE8891D
:1018E000F989818B99279F938F938AE191E09F9348
:1018F0008F931F9282E08F930E94E81C0F900F90AD
:101900000F900F900F900F90A889B98951968C91E4
:101910005197803D59F412968C91811107C0C801EE
:101920000E94151B8F5FE889F989818BF601ED57BD
:10193000FF4FA889B98951968C9190E0918380835B
:101940007BC3F70180819181806191838083C8018D
:101950000E94151BA889B98951968C9399279F934A
:101960008F938AE191E09F938F931F9282E08F93F0
:101970000E94E81C0F900F900F900F900F900F9007
:10198000E889F9898189803D59F48281811108C0F3
:10199000C8010E94151B8F5FA889B98951968C9345
:1019A000F601EB57FF4FA889B98951968C9190E0C9
:1019B00091838083C8010E94151BE889F989818B76
:1019C00099279F938F938AE191E09F938F931F9222
:1019D00082E08F930E94E81C0F900F900F900F9061
:1019E0000F900F90A889B98951968C915197803D9D
:1019F00059F412968C91811107C0C8010E94151BE1
:101A00008F5FE889F989818BF601E957FF4FA88933
:101A1000B98951968C9190E091838083C8010E948E
:101A2000151BE889F989818B99279F938F938AE108
:101A300091E09F938F931F9282E08F930E94E81C06
:101A40000F900F900F900F900F900F90A889B98969
:101A500051968C915197803D59F412968C91811139
:101A600007C0C8010E94151B8F5FE889F989818B27
:101A7000F601E757FF4F97C0F7018081918180629F
:101A800091838083C8010E94151BA889B98951964A
:101A90008C9399279F938F938AE191E09F938F93E3
:101AA0001F9282E08F930E94E81C0F900F900F907E
:101AB0000F900F900F90E889F9898189803D59F442
:101AC0008281811108C0C8010E94151B8F5FA889FF
:101AD000B98951968C93E889F989818990E0D4017C
:101AE0008D939C93C8010E94151BE889F989818B0D
:101AF00099279F938F938AE191E09F938F931F92F1
:101B000082E08F930E94E81C0F900F900F900F902F
:101B10000F900F90A889B98951968C915197803D6B
:101B200059F412968C91811107C0C8010E94151BAF
:101B30008F5FE889F989818BF601E357FF4FA88908
:101B4000B98951968C9190E091838083C8010E945D
:101B5000151BE889F989818B99279F938F938AE1D7
:101B600091E09F938F931F9282E08F930E94E81CD5
:101B70000F900F900F900F900F900F90A889B98938
:101B800051968C915197803D59F412968C91811108
:101B900007C0C8010E94151B8F5FE889F989818BF6
:101BA000F601E157FF4FA889B98951968C9190E0D1
:101BB0009183808348CDF7018081918180649183F6
:101BC0008083C8010E94151BA889B98951968C93FE
:101BD00099279F938F938AE191E09F938F931F9210
:101BE00082E08F930E94E81C0F900F900F900F904F
:101BF0000F900F90E889F9898189803D59F482819D
:101C0000811108C0C8010E94151B8F5FA889B9897E
:101C100051968C93E889F989818990E0D2018D935E
:101C20009C93C8010E94151BE889F989818B99272B
:101C30009F938F938AE191E09F938F931F9282E00D
:101C40008F930E94E81C0F900F900F900F900F90B1
:101C50000F90A889B98951968C915197803D59F47C
:101C600012968C91811107C0C8010E94151B8F5FCD
:101C7000E889F989818BA889B98951968C9190E07E
:101C8000F30191838083C8010E94151BA889B9893B
:101C900051968C9399279F938F938AE191E09F931C
:101CA0008F931F9282E08F930E94E81C0F900F90F9
:101CB0000F900F900F900F90E889F9898189803DEE
:101CC00059F48281811108C0C8010E94151B8F5FE1
:101CD000A889B98951968C93E889F989818990E01E
:101CE000D50170C1F70180819181806891838083E3
:101CF000C8010E94151BA889B98951968C93992710
:101D00009F938F938AE191E09F938F931F9282E03C
:101D10008F930E94E81C0F900F900F900F900F90E0
:101D20000F90E889F9898189803D59F48281811178
:101D300008C0C8010E94151B8F5FA889B9895196F8
:101D40008C93E889F989818990E0D10173C1F70109
:101D500080819181916091838083C8010E94151BCD
:101D6000A889B98951968C9399279F938F938AE17B
:101D700091E09F938F931F9282E08F930E94E81CC3
:101D80000F900F900F900F900F900F90E889F989A6
:101D90008189803D59F48281811108C0C8010E9467
:101DA000151B8F5FA889B98951968C93E889F989A9
:101DB000818990E0AE85BF853DC1F7018081918129
:101DC000926091838083C8010E94151BA889B989FC
:101DD00051968C9399279F938F938AE191E09F93DB
:101DE0008F931F9282E08F930E94E81C0F900F90B8
:101DF0000F900F900F900F90E889F9898189803DAD
:101E000059F48281811108C0C8010E94151B8F5F9F
:101E1000A889B98951968C93E889F989818990E0DC
:101E2000AC85BD8507C1F701808191819460918364
:101E30008083C8010E94151BA889B98951968C938B
:101E400099279F938F938AE191E09F938F931F929D
:101E500082E08F930E94E81C0F900F900F900F90DC
:101E60000F900F90E889F9898189803D59F482812A
:101E7000811108C0C8010E94151B8F5FA889B9890C
:101E800051968C93E889F989818990E0AA85BB8570
:101E9000D1C0F70180819181986091838083C801CE
:101EA0000E94151BA889B98951968C9399279F93F5
:101EB0008F938AE191E09F938F931F9282E08F939B
:101EC0000E94E81C0F900F900F900F900F900F90B2
:101ED000E889F9898189803D59F48281811108C09E
:101EE000C8010E94151B8F5FA889B98951968C93F0
:101EF000E889F989818990E0AC81BD818D939C93BB
:101F0000C8010E94151BE889F989818B99279F9345
:101F10008F938AE191E09F938F931F9282E08F933A
:101F20000E94E81C0F900F900F900F900F900F9051
:101F3000A889B98951968C915197803D59F4129690
:101F40008C91811107C0C8010E94151B8F5FE88921
:101F5000F989818BA889B98951968C9190E0EE819D
:101F6000FF8191838083C8010E94151BA889B989CC
:101F700051968C9399279F938F938AE191E09F9339
:101F80008F931F9282E08F930E94E81C0F900F9016
:101F90000F900F900F900F90E889F9898189803D0B
:101FA00059F48281811108C0C8010E94151B8F5FFE
:101FB000A889B98951968C93E889F989818990E03B
:101FC000A885B9858D939C933ECBF7018081918143
:101FD000906191838083C8010E94151BA889B989EB
:101FE00051968C9399279F938F938AE191E09F93C9
:101FF0008F931F9282E08F930E94E81C0F900F90A6
:102000000F900F900F900F90E889F9898189803D9A
:1020100059F48281811108C0C8010E94151B8F5F8D
:10202000A889B98951968C93E889F989818990E0CA
:10203000AA81BB818D939C93C8010E94151BE889DE
:10204000F989818B99279F938F938AE191E09F93E0
:102050008F931F9282E08F930E94E81C0F900F9045
:102060000F900F900F900F90A889B98951968C917D
:102070005197803D59F412968C91811107C0C80187
:102080000E94151B8F5FE889F989818BC8010E9426
:10209000151BA889B98951968C9399279F938F9383
:1020A0008AE191E09F938F931F9282E08F930E9429
:1020B000E81C0F900F900F900F900F900F90E889F1
:1020C000F9898189803D09F0BECA82818111BBCA2C
:1020D000C8010E94151B8F5FA889B98951968C93FE
:1020E000B2CAC8010E94151BE889F989818B99271A
:1020F0009F938F938AE191E09F938F931F9282E049
:102100008F930E94E81C0F900F900F900F900F90EC
:102110000F90A889B98951968C915197803D59F4B7
:1021200012968C91811107C0C8010E94151B8F5F08
:10213000E889F989818B67E575E081E090E00E948C
:10214000981DC8010E94151BA889B98951968C93C6
:1021500099279F938F938AE191E09F938F931F928A
:1021600082E08F930E94E81C0F900F900F900F90C9
:102170000F900F90E889F9898189803D59F4828117
:10218000811108C0C8010E94151B8F5FA889B989F9
:1021900051968C93C8010E94151BE889F989818B9F
:1021A00099279F938F938AE191E09F938F931F923A
:1021B00082E08F930E94E81C0F900F900F900F9079
:1021C0000F900F90A889B98951968C915197803DB5
:1021D00009F039CA12968C91811135CAC8010E9442
:1021E000151B8F5FE889F989818B2DCAC8010E9470
:1021F000151BA889B98951968C9399279F938F9322
:102200008AE191E09F938F931F9282E08F930E94C7
:10221000E81C0F900F900F900F900F900F90E8898F
:10222000F9898189803D59F48281811108C0C801F2
:102230000E94151B8F5FA889B98951968C936BE812
:1022400071E082E090E00E94801D898161960FB666
:10225000F894DEBF0FBECDBFDF91CF911F910F91DC
:10226000FF90EF90DF90CF90BF90AF909F908F90B6
:102270007F906F905F904F903F902F900895EF92D6
:10228000FF920F931F93CF93DF93EC016BE071E00C
:1022900082E090E00E94981D0FB6F89480918A0227
:1022A00090918B02A0918C02B0918D020FBE8D8710
:1022B0009E87AF87B88B11E08B819C81DC01ED910B
:1022C000FC910084F185E02D0995892B19F48A8110
:1022D000882389F011E08A81811140C08B819C8123
:1022E000DC01ED91FC910284F385E02D0995803E9F
:1022F0009105D1F433C00FB6F89480918A02909181
:102300008B02A0918C02B0918D020FBE4D855E852F
:102310006F857889841B950BA60BB70BC297A10517
:10232000B10550F21A83C8CF0FB6F89480918A0293
:1023300090918B02A0918C02B0918D020FBE4D85C1
:102340005E856F857889841B950BA60BB70BC297AA
:10235000A105B10508F4BFCF1A83BDCF8A818111D1
:1023600036C061EF70E082E090E00E94981D0FB6E9
:10237000F89480918A0290918B02A0918C02B09186
:102380008D020FBE8D879E87AF87B88B11E08B8142
:102390009C81DC01ED91FC910084F185E02D099593
:1023A000892B19F48A818823A9F011E08A8181118F
:1023B0000BC08B819C81DC01ED91FC910284F38543
:1023C000E02D0995892BF9F48A818823B1F180E009
:1023D00090E057C00FB6F89480918A0290918B02DA
:1023E000A0918C02B0918D020FBE4D855E856F85E8
:1023F0007889841B950BA60BB70BC297A105B10575
:1024000030F21A83C4CF0FB6F89480918A0290916B
:102410008B02A0918C02B0918D020FBE4D855E851E
:102420006F857889841B950BA60BB70BC297A10506
:10243000B10508F4BBCF1A83B9CF7E01B2E0EB0E31
:10244000F11CC7010E94151B8C011F938F9388ED0F
:1024500090E09F938F931F9282E08F930E94341D90
:10246000C7010E94151B682FCE011AD40F900F9040
:102470000F900F900F900F90882309F4A8CFC801F8
:102480000197DF91CF911F910F91FF90EF900895E9
:102490002F923F924F925F926F927F928F929F9274
:1024A000AF92BF92CF92DF92EF92FF920F931F9362
:1024B000CF93DF9300D0CDB7DEB78C01FB01E3549F
:1024C000FF4FEE0FFF1FE00FF11F6080718082E26F
:1024D000898313018FE7280E311CF10180818A83E3
:1024E0009EE1C92ED12C5801F2E0AF0EB11C2AE1B9
:1024F000422E21E0522E62E370E080E090E00E94E4
:10250000A22622E030E0AE014F5F5F4FF301608111
:10251000C5010E94181CC801B2DE892B09F44CC009
:102520007301F3ECEF0EF11C812C912CF1018081F1
:102530009181881699060CF03FC0C5010E94151BB9
:10254000F801818B99279F938F935F924F921F92EF
:10255000F2E0FF930E94E81C0F900F900F900F90F5
:102560000F900F90F8018189803D49F4828181119B
:1025700006C0C5010E94151B8F5FF801818BF80111
:10258000818990E0F701208131818217930724F43B
:1025900002979183808309C0F70122813381281734
:1025A00039071CF4029693838283FFEF8F1A9F0AE8
:1025B00084E0E80EF11CBACFE1E0CE1AD10809F0B0
:1025C0009ACF0F900F90DF91CF911F910F91FF90B5
:1025D000EF90DF90CF90BF90AF909F908F907F90C3
:1025E0006F905F904F903F902F9008952F923F9261
:1025F0004F925F926F927F928F929F92AF92BF9213
:10260000CF92DF92EF92FF920F931F93CF93DF93BE
:1026100000D000D0CDB7DEB79C838B836C0126E859
:10262000C21A2EEFD20A5C01612C712C00E010E07E
:102630003324339487589E4F9A838983450132E02F
:10264000830E911C4AE1442E41E0542E52E0252E87
:10265000A981BA818C9190E0681679060CF086C049
:10266000332009F485C0F60160817181FB01E554D6
:10267000FF4F4081518169557F4FC4010E94E71B84
:10268000382E8B819C81FBDD892B09F465C0750197
:1026900000E010E0D701D996ED91FC91DA973097E0
:1026A00039F4DB968D919C91DC9780FD29C02AC07E
:1026B000332041F1D701DB968D919C91DC9780FF0F
:1026C0000EC0DC01B595A7952B813C81A20FB31FED
:1026D0002D913C91E20FF31F0190F081E02DD60186
:1026E0006D917C91959587952B813C81820F931FED
:1026F0000995382E0F5F1F4F34E0E30EF11CCACF4F
:102700003110DFCFC40191D7AB81BC8151968C933E
:1027100099279F938F935F924F921F922F920E94BF
:10272000E81C0F900F900F900F900F900F90EB817F
:10273000FC818189803D51F48281811107C0C401EF
:1027400074D78F5FAB81BC8151968C936BE871E03D
:1027500082E090E00E94801DBFEF6B1A7B0AE2E0EE
:10276000CE0ED11CF8E2AF0EB11C72CF311012C0E8
:102770001F930F9385E894E09F938F931F9281E0BE
:102780008F930E94341D0F900F900F900F900F9019
:102790000F90312C832D0F900F900F900F90DF91A1
:1027A000CF911F910F91FF90EF90DF90CF90BF904E
:1027B000AF909F908F907F906F905F904F903F90E1
:1027C0002F900895EF92FF920F931F93CF93DF9373
:1027D0001F92CDB7DEB77C0184E189838B01000FA6
:1027E000111F0E0D1F1D06581E4FD801ED91FC91B3
:1027F00021E030E0AE014F5F5F4F6081C70102967C
:102800000E94181CC7013BDD892B39F0F80160815B
:102810007181C7010E949D0A01C080E00F90DF9185
:10282000CF911F910F91FF90EF9008957F928F921B
:102830009F92AF92BF92CF92DF92EF92FF920F934F
:102840001F93CF93DF937C014C0182E0880E911C93
:10285000C401EED7C70113DDEC01892B09F43EC09A
:1028600068018AE1A82E81E0B82E92E0792EC60197
:10287000801B910B8C179D072CF5C401D6D6F70150
:10288000818B99279F938F93BF92AF921F927F92D4
:102890000E94E81C0F900F900F900F900F900F90D8
:1028A000F7018189803D41F48281811105C0C40115
:1028B000BCD68F5FF701818BF7018189F601819387
:1028C0006F01D5CFC00FD11F219718826AE871E040
:1028D00082E090E00E94801D81E001C080E0DF91F5
:1028E000CF911F910F91FF90EF90DF90CF90BF900D
:1028F000AF909F908F907F900895AF92BF92CF92AC
:10290000DF92EF92FF920F931F93CF93DF93CDB798
:10291000DEB7C656D1090FB6F894DEBF0FBECDBFE5
:102920006C015C0187E8A81A8EEFB80AF501908166
:102930009F3109F456C081EFA6968FAFA6979F5F8F
:10294000A7969FAFA797E12CF12C8E010F5F1F4F29
:1029500022E030E0AE014B595F4F6FEFC60166DFFA
:102960008823D9F083E091E00E9409258C01F501CC
:10297000608170E06F5F7F4F0E943B06F5018081B0
:102980009601280F311D280F311DF901E658FE4F21
:10299000118300838F5FF501808368EE73E080E030
:1029A00090E00E94A2268DE00E945C259F938F9369
:1029B00086E395E09F938F931F9282E08F930E940E
:1029C000341D8DE00E945C250F900F900F900F90AA
:1029D0000F900F908739910524F0F60182818823AA
:1029E00011F080E001C081E0CA59DF4F0FB6F894C2
:1029F000DEBF0FBECDBFDF91CF911F910F91FF9032
:102A0000EF90DF90CF90BF90AF9008958F929F92FC
:102A1000AF92BF92CF92DF92EF92FF920F931F93EC
:102A2000CF93DF93CDB7DEB7C856D1090FB6F89470
:102A3000DEBF0FBECDBF4C0180E1A9968FAFA99735
:102A40006B01CC0CDD1CC80CD91C26E8C21A2EEF79
:102A5000D20AD601ED91FC91E12CF12C8E010F5F91
:102A60001F4F21E030E0AE0148595F4F6081C40143
:102A7000DDDE811102C0912CABC0F6018081918115
:102A8000BE016F5F7F4F02960E94162781E1A896D4
:102A90008FAFA897D601ED91FC91E12CF12C8E011E
:102AA0000F5F1F4F21E030E0AE0149595F4F608159
:102AB000C401BCDE8823F9F28A81982F9F701F928F
:102AC0009F93082E000C990B807F992744E09595E1
:102AD00087954A95E1F79F938F935DE8A52E51E086
:102AE000B52EBF92AF92F6018081918183599F4F9D
:102AF0009F938F930E941D2782E1A7968FAFA79780
:102B0000D601ED91FC9121E030E0AE014A595F4FD2
:102B10006081C4018BDE0FB6F894DEBF0FBECDBF5F
:102B2000882309F4A8CF8A81982F9F701F929F93C2
:102B3000082E000C990B807F992734E09595879596
:102B40003A95E1F79F938F93BF92AF92D6018D9103
:102B50009C9188599F4F9F938F930E941D2783E1DB
:102B6000A6968FAFA697D601ED91FC9121E030E0BB
:102B7000AE014B595F4F6081C40158DE982E0FB6ED
:102B8000F894DEBF0FBECDBF882309F474CF8A81CD
:102B9000982F9F701F929F93082E000C990B807F97
:102BA000992724E0959587952A95E1F79F938F9330
:102BB000BF92AF92D6018D919C918E589F4F9F935B
:102BC0008F930E941D270FB6F894DEBF0FBECDBFB6
:102BD000892DC859DF4F0FB6F894DEBF0FBECDBFA9
:102BE000DF91CF911F910F91FF90EF90DF90CF90E9
:102BF000BF90AF909F908F900895CF93DF93EC019B
:102C0000029609D585EA91E0998388831A8ADF9133
:102C1000CF9108959F92AF92BF92CF92DF92EF92A1
:102C2000FF920F931F93CF93DF93EC015B0100E0C2
:102C300010E07C0182E0E80EF11C8AE1C82E81E000
:102C4000D82E92E0992E0A151B05F4F4C701EDD495
:102C5000898B99279F938F93DF92CF921F929F9298
:102C6000B7D60F900F900F900F900F900F9089890B
:102C7000803D39F48A81811104C0C701D6D48F5FA9
:102C8000898B0F5F1F4FDFCFDF91CF911F910F9186
:102C9000FF90EF90DF90CF90BF90AF909F900895FE
:102CA000613091F0623019F461EA76E009C0633076
:102CB00019F46CE776E004C0643041F464E476E033
:102CC00081E090E035D702C081E0089580E008956A
:102CD000613091F0623019F462E176E009C063304E
:102CE00019F46AED75E004C0643041F46EE975E0F2
:102CF00081E090E01DD702C081E0089580E0089552
:102D00000F931F93CF93DF93EC018C010D5E1F4F48
:102D100043E150E068EB72E0C8010E940927892B6B
:102D200071F063EF76E082E090E002D767D783E14D
:102D3000E8EBF2E0D80101900D928A95E1F7A696B2
:102D400043E150E062E972E0CE010E940927892B3D
:102D500071F06BEB76E082E090E0EAD67FD783E11A
:102D6000E2E9F2E0DE0101900D928A95E1F7DF9150
:102D7000CF911F910F9108955F926F927F928F92E2
:102D80009F92AF92BF92CF92DF92EF92FF920F93FA
:102D90001F93CF93DF93FB01E958FF4F208121FF61
:102DA000AFC08B01EC017C0182E0E80EF11CC70191
:102DB0003CD4898B99279F938F938AE191E09F93CD
:102DC0008F931F9282E08F9303D60F900F900F90F6
:102DD0000F900F900F908989803D39F48A8181117D
:102DE00004C0C70122D48F5F898B6989CE0170DF4F
:102DF000882309F486C0C12CD12C3801ADE76A0EB6
:102E0000711C4AE1842E41E0942E52E0552E580167
:102E1000B1ECAB0EB11CF30180819181C816D906CB
:102E20000CF06EC0D801ED91FC913197EE0FFF1FB1
:102E3000EC0DFD1DEE0FFF1FE050FF4F80819181D3
:102E4000892B29F462E070E0CE01E4DE55C0C701B1
:102E5000ECD3898B99279F938F939F928F921F9288
:102E60005F92B6D50F900F900F900F900F900F902C
:102E70008989803D39F48A81811104C0C701D5D385
:102E80008F5F898BC701D1D3898B99279F938F93AC
:102E90009F928F921F925F929BD50F900F900F90F1
:102EA0000F900F900F908989803D39F48A818111AC
:102EB00004C0C701BAD38F5F898B898990E0F5017F
:102EC0002081318128173907BCF49183808318163B
:102ED000190694F4D801ED91FC913197EE0FFF1F84
:102EE000EC0DFD1DEE0FFF1FE050FF4F0190F08134
:102EF000E02D818182608183BFEFCB1ADB0A8BCF0B
:102F000081E0DF91CF911F910F91FF90EF90DF90C3
:102F1000CF90BF90AF909F908F907F906F905F9079
:102F200008955F926F927F928F929F92AF92BF921D
:102F3000CF92DF92EF92FF920F931F93CF93DF9385
:102F4000FB01E958FF4F208122FFF0C08B01EC010B
:102F50007C0182E0E80EF11CC70167D3898B9927B9
:102F60009F938F938AE191E09F938F931F9282E0CA
:102F70008F932ED50F900F900F900F900F900F9072
:102F80008989803D39F48A81811104C0C7014DD3FC
:102F90008F5F898B6989CE019BDE882309F4C7C0C6
:102FA000680193ECC90ED11C612C712C4801AFE76C
:102FB0008A0E911C5AE1A52E51E0B52E62E0562EE4
:102FC000F40180819181681679060CF0AFC0C701C9
:102FD0002CD3898B99279F938F93BF92AF921F9287
:102FE0005F92F6D40F900F900F900F900F900F906C
:102FF0008989803D39F48A81811104C0C70115D3C4
:103000008F5F898B8989282F30E0D60112964D91E8
:103010005C911397241735070CF066C04D915C91B5
:10302000421753070CF060C0B1E06B16710469F4ED
:10303000D801ED91FC91EE0FFF1FEE0FFF1FE45042
:10304000FF4F0190F081E02D21C0B2E06B167104BA
:1030500069F4D801ED91FC91EE0FFF1FEE0FFF1FF9
:10306000E450FF4F0190F081E02D22C0B3E06B16D9
:10307000710471F4D801ED91FC91EE0FFF1FEE0F7A
:10308000FF1FE450FF4F0280F381E02D83832CC0AB
:10309000B4E06B16710471F4D801ED91FC91EE0F60
:1030A000FF1FEE0FFF1FE450FF4F0280F381E02D62
:1030B00084831AC0B5E06B167104A1F0E6E06E16C9
:1030C000710481F0F7E06F16710461F098E0691601
:1030D000710441F0A9E06A16710421F0BAE06B16A0
:1030E000710411F480930202C7019FD2898B992742
:1030F0009F938F93BF92AF921F925F9269D40F906C
:103100000F900F900F900F900F908989803D39F4A8
:103110008A81811104C0C70188D28F5F898BEFEF4C
:103120006E1A7E0AF4E0CF0ED11C4ACF81E0DF9107
:10313000CF911F910F91FF90EF90DF90CF90BF90B4
:10314000AF909F908F907F906F905F9008957F9247
:103150008F929F92AF92BF92CF92DF92EF92FF92A7
:103160000F931F93CF93DF93FB01E958FF4F20810B
:1031700025FF9BC07B01EC018C010E5F1F4FC80136
:1031800054D2898B99279F938F938AE191E09F93E3
:103190008F931F9282E08F931BD40F900F900F900C
:1031A0000F900F900F908989803D39F48A818111A9
:1031B00004C0C8013AD28F5F898B6989CE0188DD4E
:1031C000882309F473C0C12CD12C47018FE8880EE5
:1031D000911C3AE1A32E31E0B32E42E0742ED401CB
:1031E0008D919C91C816D9060CF05FC0C8011DD204
:1031F000898B99279F938F93BF92AF921F927F9253
:10320000E7D30F900F900F900F900F900F90898938
:10321000803D39F48A81811104C0C80106D28F5FD4
:10322000898BB1E0CB16D10479F48989D701ED916E
:10323000FC91EE0FFF1FEE0FFF1FE450FF4F0190B8
:10324000F081E02D838312C0B2E0CB16D10471F47B
:103250008989D701ED91FC91EE0FFF1FEE0FFF1F43
:10326000E450FF4F0190F081E02D8483C801DDD14F
:10327000898B99279F938F93BF92AF921F927F92D2
:10328000A7D30F900F900F900F900F900F908989F8
:10329000803D39F48A81811104C0C801C6D18F5F95
:1032A000898BBFEFCB1ADB0A9ACF81E0DF91CF91F8
:1032B0001F910F91FF90EF90DF90CF90BF90AF9054
:1032C0009F908F907F900895CF93DF93EC0195DCD2
:1032D00083EB91E099838883DF91CF910895EF92FA
:1032E000FF920F931F93CF93DF936115710549F4FC
:1032F00062E070E0DF91CF911F910F91FF90EF900E
:1033000089CCEB018C0189818E7E8D7F8983780148
:1033100082E0E80EF11CC70188D1F801818B992762
:103320009F938F938AE191E09F938F931F9282E006
:103330008F934ED30F900F900F900F900F900F9090
:10334000F8018189803D41F48281811105C0C70166
:103350006CD18F5FF801818BF8018189982F917072
:10336000282F227081FF15C0992359F087FF09C0CB
:103370006BE277E081E090E0DBD381E0F801828BC3
:103380005BC087FF06C088818E7F888389818061CA
:1033900009C0992349F087FF07C088818D7F888302
:1033A00089818160898348C087FF03C089818260E9
:1033B000F9CF81E0211101C080E0988180FB90F974
:1033C000988381958E87F801818980FB91F9988394
:1033D000817081958D8788E08A8380E88B838C83D8
:1033E000818984FF0FC084E08A839FEF9C83818959
:1033F00082FF04C083E08A839B831EC083FF1CC0BE
:1034000085E018C085FF0CC01A821C82F8018189F2
:1034100082FF02C081E007C083FF0EC087E00AC0C0
:1034200082FF05C082E08A838FEF8B8305C083FF14
:1034300003C086E08A831B82C701F7D0F801818B25
:1034400099279F938F938AE191E09F938F931F9287
:1034500082E08F93BDD20F900F900F900F900F903E
:103460000F90F8018189803D41F48281811105C06E
:10347000C701DBD08F5FF801818BF8019189991F1B
:103480009927991F888190FB82F9888391959C8761
:10349000918996FB992790F990FB83F98883919500
:1034A0009B87918995FB992790F990FB84F98883F4
:1034B00091959F8791899295917090FB85F988836A
:1034C0009195988B918993FB992790F990FB86F9B8
:1034D0008883918992FB992790F990FB87F98883DB
:1034E000DF91CF911F910F91FF90EF900895CF92B0
:1034F000DF92EF92FF920F931F93CF93DF93FB0125
:10350000E958FF4F208120FF7CC08B01EC017C013A
:1035100082E0E80EF11CC70188D0898B99279F9320
:103520008F938AE191E09F938F931F9282E08F9314
:103530004FD20F900F900F900F900F900F9089899E
:10354000803D39F48A81811104C0C7016ED08F5F3C
:10355000898B6989CE01BCDB882309F453C0C7017C
:1035600064D0898B99279F938F938AE191E09F93F1
:103570008F931F9282E08F932BD20F900F900F901A
:103580000F900F900F908989803D39F48A818111C5
:1035900004C0C7014AD08F5F898BD801ED91FC919F
:1035A000EE0FFF1FEE0FFF1FE450FF4F0190F08161
:1035B000E02D8989881F8827881F918180FB90F9D9
:1035C0009183C12CD12C7801B9E7EB0EF11CF701E6
:1035D00080819181C816D906A4F4D801ED91FC919F
:1035E0003197EE0FFF1FEC0DFD1DEE0FFF1FE0509A
:1035F000FF4F60817181CE0172DEBFEFCB1ADB0A13
:10360000E6CF81E0DF91CF911F910F91FF90EF9076
:10361000DF90CF900895FC017283618384E690E08F
:1036200090878783928781870895FC0198EC915059
:103630000000E9F781819281DC01ED91FC91028427
:10364000F385E02D09942F923F924F925F926F92F3
:103650007F928F929F92AF92BF92CF92DF92EF9222
:10366000FF920F931F93CF93DF93E62E5A01E90148
:103670006DEB71E082E090E043D280EEF801808350
:103680006EEC71E082E090E03BD2F801E1828E2D99
:103690000E2C000C990B9F93EF929AE1C92E91E0AA
:1036A000D92EDF92CF921F9222E0922E9F9290D13C
:1036B000FC2EF394F801F282CE0101969F938F9332
:1036C000DF92CF921F929F9283D18E2D8F0D480152
:1036D000F3E08F0E911C2DB73EB7245F3F4F0FB61E
:1036E000F8943EBF0FBE2DBF75013601212C332447
:1036F0003394C82E082E000CDD0897012A193B09C7
:103700002C173D071CF52701F7018081F4018193F7
:103710004F01F70181917F011F928F937F926F92EA
:103720001F92F2E0FF9354D1F20180819601280F9D
:10373000311D87FD3A95C901B1010E94DC260F9029
:103740000F900F900F900F900F90D3CFD7FF02C024
:10375000C0E0D0E00C0F1D1FF8018383C60160E0BC
:1037600071E00E94DC2699279F938F938AE191E074
:103770009F938F931F9282E0F82EFF9229D1F80138
:1037800014822496DF93CF938CE597E09F938F93D9
:103790001F92FF9269D18DB79EB70C960FB6F89421
:1037A0009EBF0FBE8DBFCE01DF91CF911F910F91B4
:1037B000FF90EF90DF90CF90BF90AF909F908F9051
:1037C0007F906F905F904F903F902F900895CF9291
:1037D000DF92EF92FF920F931F93CF93DF937C01C1
:1037E0008B016A01EB01D70111968D919C91129783
:1037F0009E01201B310B2C153D054CF46991DC0119
:10380000ED91FC910190F081E02D0995ECCFDC0168
:10381000ED91FC910680F781E02D099581E0DF9123
:10382000CF911F910F91FF90EF90DF90CF9008956F
:103830004F925F926F927F928F929F92AF92BF92C0
:10384000CF92DF92EF92FF920F931F93CF93DF936C
:10385000DA017C91772309F4A9C069017A01162F56
:10386000EC0162ED71E082E090E04AD189819A81B9
:10387000DC01ED91FC910190F081E02D60EE099565
:103880006EEC71E082E090E03BD189819A81DC01AD
:10389000ED91FC910190F081E02D612F09951F922F
:1038A0001F938AE1A82E81E0B82EBF92AF921F929B
:1038B00002E00F938DD089819A81442443944C0C6B
:1038C000DC01ED91FC910190F081E02D642D0995D2
:1038D0001F921F93BF92AF921F920F9379D0410E08
:1038E000EDB7FEB73C960FB6F894FEBF0FBEEDBF26
:1038F000870192E0592E612C7724739489819A81F3
:1039000098012E193F092C153D0544F54801DC01AD
:10391000ED91FC910190F081E02DD8016C91099519
:10392000F80181918F011F928F93BF92AF921F92E6
:103930005F924ED0D4012C91842D440C990B820FB0
:10394000911D27FD9A95B3010E94DC26482E0F9009
:103950000F900F900F900F900F90D0CFDC01ED9152
:10396000FC910190F081E02D642D09951F924F92FA
:103970008AE191E09F938F931F9282E08F9328D0EA
:1039800089819A81DC01ED91FC910680F781E02D1F
:10399000099562EE71E082E090E0B2D00F900F9056
:1039A0000F900F900F900F9081E001C080E0DF91A9
:1039B000CF911F910F91FF90EF90DF90CF90BF902C
:1039C000AF909F908F907F906F905F904F900895F1
:1039D000CF92DF92EF92FF920F931F93CF93DF93DB
:1039E000CDB7DEB7C456D1090FB6F894DEBF0FBE0F
:1039F000CDBFE1968EAD9FADE19703972CF5AE015B
:103A00004D585F4FE3966EAD7FADE397CE010196C3
:103A10000E945B278E010F5F1F4F7E0185E6E80E37
:103A2000F11C0E151F0579F06801F80180818823CB
:103A300051F08A3011F48DE041D10F5F1F4FF60134
:103A400080813CD1EECF7CD1CC59DF4F0FB6F894BA
:103A5000DEBF0FBECDBFDF91CF911F910F91FF90C1
:103A6000EF90DF90CF900895CF92DF92EF92FF9288
:103A70000F931F93CF93DF93CDB7DEB7C456D10911
:103A80000FB6F894DEBF0FBECDBFE1968EAD9FADF1
:103A9000E19703972CF5AE014D585F4FE3966EAD5D
:103AA0007FADE397CE0101960E9474278E010F5FD0
:103AB0001F4F7E0185E6E80EF11C0E151F0579F0FB
:103AC0006801F8018081882351F08A3011F48DE07B
:103AD000F5D00F5F1F4FF6018081F0D0EECF30D1CF
:103AE000CC59DF4F0FB6F894DEBF0FBECDBFDF91CC
:103AF000CF911F910F91FF90EF90DF90CF9008959D
:103B00001F93CF93DF9303977CF4EB01199111235B
:103B100039F01A3011F48DE0D1D0812FCFD0F6CF0B
:103B2000DF91CF911F910CC1DF91CF911F9108952B
:103B3000CF92DF92EF92FF920F931F93CF93DF9379
:103B4000CDB7DEB7C456D1090FB6F894DEBF0FBEAD
:103B5000CDBF039724F57F936F938E010F5F1F4FA7
:103B60001F930F930E943C277E0185E6E80EF11C0F
:103B70000F900F900F900F900E151F0579F06801B0
:103B8000F8018081882351F08A3011F48DE096D0BD
:103B90000F5F1F4FF601808191D0EECFD1D0CC596D
:103BA000DF4F0FB6F894DEBF0FBECDBFDF91CF91D0
:103BB0001F910F91FF90EF90DF90CF90089580912B
:103BC000E80080FFFCCF089581E08093D70080EA71
:103BD0008093D80082E189BD09B400FEFDCF80E961
:103BE0008093D8001092E000109207028CE080933E
:103BF000E200789408958091070208958091070269
:103C0000811102C08FEF08958FB7F89491E09093DF
:103C1000E9009091E4009E5C21E03091E80035FDE0
:103C20000EC08FBF80910702882361F38091E4006A
:103C3000981741F38FB7F8942093E900EECFE8EBA3
:103C4000F2E091919093F10092E0EB3CF907C9F713
:103C50009AE39093E8008FBF80E008958091070277
:103C6000811102C08FEF08958FB7F89492E090937E
:103C7000E9009091E4009E5C22E03091E80035FD7F
:103C80000EC08FBF80910702882361F38091E4000A
:103C9000981741F38FB7F8942093E900EECFE2E94B
:103CA000F2E091919093F10092E0E53AF907C9F7BB
:103CB0009AE39093E8008FBF80E008959091070207
:103CC000992371F09FB7F89423E02093E9002091A5
:103CD0000302222349F02091E80025FD03C09FBF85
:103CE0008FEF0895109203022091E4002C5F33E0DF
:103CF0004091E80045FD12C09FBF9091E400291358
:103D000004C081E080930302EBCF909107029923D6
:103D100039F39FB7F8943093E900EACF8093F1002C
:103D20008091E80085FD06C08AE38093E800109248
:103D3000040203C082E0809304029FBF80E00895E4
:103D40008FB7F89490910402992379F093E09093BF
:103D5000E9009091E80095FF03C01092F100F9CFBF
:103D60009AE39093E800109204028FBF08951F9287
:103D70000F920FB60F9211248F938091E100109251
:103D8000E10083FF0FC01092E90081E08093EB0017
:103D90001092EC0082E38093ED0088E08093F000C5
:103DA000109207028F910F900FBE0F901F901895E1
:103DB0001F920F920FB60F921124FF920F931F9331
:103DC0002F933F934F935F936F937F938F939F9323
:103DD000AF93BF93CF93DF93EF93FF931092E900DC
:103DE0008091E80083FF54C1F090F1008091F100D0
:103DF000C091F1009091F100D0E0D92B0091F10039
:103E00009091F10010E0192B2091F1006091F100E8
:103E100092EF9093E800863009F048C088E897E078
:103E2000FC0145915491C417D507D9F4FC01329691
:103E30004591549104171507A1F4FC01349645915E
:103E40005491FC013696849130E0362B2F3F31059A
:103E500019F010F02FEF30E0281708F4822F3EEF12
:103E60000DC0079637E08A3E9307D1F611C1490F7E
:103E7000511D891B3093E8008823A9F09091E80038
:103E8000292F2570D9F392FD06C1982F813408F0AF
:103E900090E4FA01292F222351F364916093F100F9
:103EA00021503196F8CF903449F3F5C0853041F474
:103EB0008EEF8093E80083DEC068C093E300EBC020
:103EC000893039F5F1106AC0C09307028EEF8093F4
:103ED000E80041E08BE899E04093E9009C012F5F06
:103EE0003F4FFC0154915093EB00552359F0F901D9
:103EF00024912093EC009C012D5F3F4F3196E4917B
:103F0000E093ED004F5F443011F0C901E5CF8EE141
:103F100040C0883039F4F0E8FF1240C050DE809194
:103F2000070299C0811114C04ADE32E8F3120AC0B8
:103F30000093E9008091EB0085FB882780F91092BF
:103F4000E90001C080E08093F1001092F1009CC074
:103F5000982F9D7F913011F592E0F9121FC0CD2B63
:103F600009F096C00F779FEF900F943008F090C043
:103F70009EEF9093E8000093E900833009F488C035
:103F800089E18093EB0081E090E001C0880F0A9501
:103F9000EAF78093EA001092EA007DC0011511054E
:103FA00009F038C0E1EAFE1220C0813089F4C11561
:103FB000D34009F070C003DEE0E8F7E088E897E05E
:103FC00024912093F10031968E179F07C9F75CC0AA
:103FD000823021F4F4DD809106023DC0833009F087
:103FE00057C0EDDD8091050136C031E2F31250C0BB
:103FF000893029F48091E80082FFFCCF38C08A30F4
:1040000019F4D093060240C08B3009F041C0C09330
:1040100005013AC00130110509F03AC0E1EAFE128B
:104020001DC0813069F4CBDDE0E8F7E088E897E077
:1040300024912093F10031968E179F07C9F724C071
:10404000823021F4BCDD8091050205C0833001F58A
:10405000B6DD809104018093F10016C0F1E2FF12F9
:1040600017C0893041F48091E80082FFFCCF8BEFCC
:104070008093E80009C08A3019F4D093050204C087
:104080008B3031F4C09304018EEF8093E80003C0BD
:1040900081E28093EB00FF91EF91DF91CF91BF918F
:1040A000AF919F918F917F916F915F914F913F91D0
:1040B0002F911F910F91FF900F900FBE0F901F90A7
:1040C00018959F92AF92BF92CF92DF92EF92FF929C
:1040D0000F931F93CF93DF935C01EA01922E5E98BA
:1040E00000E010E06B01770FEE08FF080A151B05D2
:1040F0005CF4C701B60126D65E9AC701B60122D686
:104100005E980F5F1F4FF2CF992011F05E9A01C0A9
:104110005E98BE01DD0F880B990BDF91CF911F9147
:104120000F91FF90EF90DF90CF90BF90AF909F9056
:1041300009C6CF93DF9348DD5EDD8823E9F36CED9C
:1041400075E080E090E0FED51F9281E08F931F9292
:104150008F9322EC3BE03F932F931F928F9384DC4D
:1041600060EB7BE081E090E0E3DC64E97BE081E010
:1041700090E0DEDC64E87BE081E090E0D9DC569AF8
:1041800063E77BE081E090E0D3DC20E030E044EFC7
:1041900051E069E170E081E090E093DF41E161E1AD
:1041A00070E08AE092E02DD288EB91E032D4EC010D
:1041B0006AE072E00E946906D0930902C093080287
:1041C0006BE57BE081E090E0B3DC249A249A2C9AA2
:1041D0008DB79EB708960FB6F8949EBF0FBE8DBFE1
:1041E000DF91CF910895BF92CF92DF92EF92FF922D
:1041F0000F931F93CF93DF9369E37BE081E090E01F
:1042000097DC8DE059D48538934054F020E030E0BD
:1042100040E050E064EF71E082E090E052DFF1CFE7
:1042200068E27BE081E090E083DC6EE07BE081E0AF
:1042300090E07EDC20E030E044EF51E069E170E0A6
:1042400082E090E03EDF80910802909109020E9496
:104250008F0664E07BE081E090E06ADC8DE02CD4A6
:104260009F938F938AED9AE09F938F931F9282E0A2
:104270008F93FADB63EC7AE081E090E059DC0F90F9
:104280000F900F900F900F900F90809108029091D7
:1042900009020E947D148111F8CFE0910802F0918B
:1042A000090282818111F9C0E758FE4F808188237D
:1042B00009F4F3C01F928F9380EB9AE09F938F9342
:1042C0001F9281E08F93D0DB0F900F900F900F9093
:1042D0000F900F90C0E0D0E038E9C32E3AE0D32E23
:1042E000BB24B39441E3E42E4AE0F42EE0910802AB
:1042F000F0910902E758FE4F808190E0C817D90776
:104300000CF089C08E010F5F1F4F1F930F93DF9238
:10431000CF921F92BF92A8DB62E87AE081E090E042
:1043200007DCBE0180910802909109020E940615E7
:104330000F900F900F900F900F900F90882309F41B
:104340005CC0BE0180910802909109020E94ED06B6
:10435000BE0180910802909109020E94E213882315
:1043600009F44BC0BE0180910802909109020E949D
:10437000DB0861E77AE082E090E0DADBBE01809161
:104380000802909109020E949A0780910802909178
:104390000902FE01E354FF4FEE0FFF1FE80FF91F64
:1043A0000190F081E02DE158FF4F81818F93808152
:1043B0008F931F930F93FF92EF921F92BF9254DB44
:1043C000BE0180910802909109020E944812BE012C
:1043D00080910802909109020E94440767E27AE006
:1043E00081E090E0A5DB8DB79EB708960FB6F894F4
:1043F0009EBF0FBE8DBFE80179CF6CEF79E081E001
:1044000090E0DF91CF911F910F91FF90EF90DF909F
:10441000CF90BF908DCB66EE79E081E090E088DBB5
:1044200021E030E048EE53E069E170E083E090E0A5
:1044300048DEC0E0D0E08DE03FD3873991056CF5D0
:104440008091080290910902DC0152962C9122235E
:1044500031F062ED79E081E090E06ADB16D40E94F1
:10446000F61281110EC0219668EE73E080E090E0B4
:1044700069D4C330D105F9F664E979E082E090E0CF
:10448000C0CF8091080290910902DC01ED91FC916E
:104490000084F185E02D0995CCCFDF91CF911F915C
:1044A0000F91FF90EF90DF90CF90BF900895EAE0DA
:1044B000F2E088E0DF011D928A95E9F788EE93E04B
:1044C000A0E0B0E083839483A583B68384EF91E07A
:1044D0009183808308955091460240914502852F33
:1044E00090E0242F30E0541710F4805C9F4F821B23
:1044F000930B08955091460240914502252F30E0DC
:10450000842F90E0821B930B541710F08796089528
:104510000197089580914602E09145028E1751F06F
:10452000EF5FE03408F0E0E0F0E0E95BFD4F808110
:1045300090E008958FEF9FEF08959091460280914B
:104540004502981779F0909145029F5F903408F0EA
:1045500090E0E92FF0E0E95BFD4F80819093450208
:1045600090E008958FEF9FEF089580911A028111D6
:10457000FCCF08952091C90023FD06C021E0FC0175
:10458000228380E090E00895809106018F3F21F022
:1045900080911A02882399F090911C0280911B024D
:1045A000981312C08091C80085FF0EC08FB7F89491
:1045B0006093CE0091E090931A028FBF1DC0E091EE
:1045C0000601F0E0C9D2E8CF80911C028F5F8832EB
:1045D000B0F490911B029817E1F3E82FF0E0E35E4E
:1045E000FD4F608391E090931A0280931C028091AA
:1045F000C90080628093C90081E090E0089580E066
:10460000E8CF1F93CF93DF93EB01142F4093060164
:104610004F3F29F0842F8FD2E12FF0E0A3D2C0FFCB
:1046200008C0C13080E1D80720F482E08093C80040
:1046300004C01092C800D695C7952197D093CD009D
:10464000C093CC008091C90083FD10C01092460237
:104650001092450210921C0210921B0210921A0234
:1046600086E08093CA0088ED8093C900DF91CF91E6
:104670001F9108951F920F920FB60F9211242F933E
:104680008F939F93EF93FF939091CE00809146027A
:104690008F5F803408F080E020914502821739F066
:1046A000E82FF0E0E95BFD4F908380934602FF9195
:1046B000EF919F918F912F910F900FBE0F901F90B0
:1046C00018951F920F920FB60F9211248F939F93FC
:1046D000EF93FF9390911C0280911B02981306C0E8
:1046E0008091C9008F7D8093C9000FC080911B020B
:1046F0008F5F883208F080E0E82FF0E0E35EFD4F46
:1047000090819093CE0080931B02FF91EF919F9137
:104710008F910F900FBE0F901F9018951F920F92C0
:104720000FB60F9211248F93EF93FF9310921A02FA
:10473000809106018F3F21F0E0910601F0E012D256
:10474000FF91EF918F910F900FBE0F901F901895D2
:10475000E2E1F2E0128288EE93E0A0E0B0E0838331
:104760009483A583B683178284EF91E0918380833D
:104770000895CF92DF92EF92FF920F931F93CF9302
:10478000DF936C01EB017B01E40EF51E00E010E00D
:10479000CE15DF0561F06991D601ED91FC91019094
:1047A000F081E02DC6010995080F191FF1CFC8014E
:1047B000DF91CF911F910F91FF90EF90DF90CF90FD
:1047C00008954BD1B6DC0FDDFECF0F931F93CF932F
:1047D000DF938230910510F482E090E0E091CB020B
:1047E000F091CC0220E030E060E070E0A0E0B0E0CA
:1047F000C0E0D0E0309701F1408151810281138106
:1048000048175907B0F08417950751F4209719F00D
:104810000A831B8329C00093CB021093CC0224C0CF
:104820002115310519F04217530718F49A01BE01FA
:10483000DF01EF01F801DECF2115310509F1281B59
:10484000390B2430310590F412968D919C91139779
:104850006115710521F0FB019383828304C090935D
:10486000CC028093CB02FD01329644C0FD01E20FE1
:10487000F31F81939193225031092D933C933AC0B9
:104880002091870230918802232B41F42091090165
:1048900030910A013093880220938702209107010A
:1048A000309108012115310541F42DB73EB74091F3
:1048B0000B0150910C01241B350BE0918702F09104
:1048C0008802E217F307A0F42E1B3F0B28173907C5
:1048D00078F0AC014E5F5F4F2417350748F04E0F5C
:1048E0005F1F50938802409387028193919302C087
:1048F000E0E0F0E0CF01DF91CF911F910F9108959B
:10490000CF93DF93009709F481C0FC0132971382A3
:104910001282A091CB02B091CC02109781F4208139
:104920003181820F931F20918702309188022817CE
:10493000390751F5F0938802E093870267C0ED01D3
:1049400020E030E0CE17DF0740F44A815B819E0112
:1049500041155105F1F0EA01F5CFD383C2834081BF
:104960005181840F951FC817D90759F488819981FF
:10497000840F951F0296918380838A819B81938304
:1049800082832115310529F4F093CC02E093CB0208
:104990003DC0E901FB83EA8349915991C40FD51FBA
:1049A000EC17FD0761F480819181840F951F0296B9
:1049B000E90199838883828193819B838A83E0E0E4
:1049C000F0E012968D919C911397009719F0FD01DC
:1049D000DC01F7CF8D919C9111979D012E5F3F4F88
:1049E000820F931F20918702309188022817390780
:1049F00069F4309729F41092CC021092CB0202C0D5
:104A000013821282B0938802A0938702DF91CF9124
:104A10000895DBCE75CF08951DBA109268001CBCB6
:104A200010BE1FBA10927A0010926E0010926F00A2
:104A300010927100109272001092C900ECEBF0E03D
:104A4000108214B817B81AB81DB810BA108215B869
:104A500018B81BB81EB811BA0895F894E1E6F0E052
:104A600020E82083108283E084BD85BDEEE6F0E07F
:104A700080818160808381E08093800092E09093C8
:104A8000810080939000909391009093C00094E0F7
:104A90009093C1008093C2008093C3001092C40021
:104AA00086E880937A0020937B0010927E0010921B
:104AB0007D008AD8789408958731D0F5E82FF0E00A
:104AC000E75FF34FE491E83070F420917E0081E0DD
:104AD00090E00E2E01C0880F0A94EAF7822B809393
:104AE0007E0080E80EC0E85020917D0081E090E0DB
:104AF0000E2E01C0880F0A94EAF7822B80937D0066
:104B000080EA80937B0080910D01E82BE0937C008C
:104B100080917A00806480937A0080917A0086FD8B
:104B2000FCCF809178002091790090E0922B08953D
:104B300080E090E00895893170F4E7EDFBE0880FA4
:104B4000E80FF11D2591E491F0E09FB7F894818181
:104B5000822B81839FBF0895E93150F4EE0FE75413
:104B6000FA4D0994E93120F4EE0FE551FA4D09941C
:104B70000895289A0895299A08952A9A08952B9AB3
:104B800008952F9A6AC0589A58C0599A08955A9A07
:104B900008955B9A0895469A66C0479A6AC05E9ADD
:104BA00008955F9A6CC02C9A08952D9A4AC02E9A47
:104BB0004EC08F9A08958E9A08958D9A08958C9A72
:104BC0000895899A0895889A08955C9A08955D9A3F
:104BD0000895769A089528980895299808952A980E
:104BE00008952B9808952F9838C0589826C0599842
:104BF00008955A9808955B980895469834C0479848
:104C000038C05E9808955F983AC02C9808952D9802
:104C100018C02E981CC08F9808958E9808958D986E
:104C200008958C98089589980895889808955C98B7
:104C300008955D98089576980895E4B5EF7DE4BDF4
:104C40000895E0918000EF77E09380000895E0916F
:104C50008000EF7DE09380000895E0918000E77F81
:104C6000E09380000895E0919000EF77E09390004A
:104C70000895E091C000EF77E093C0000895E091BF
:104C8000C200E77FE093C2000895F89484B7877F5D
:104C900084BF80916000806180936000109260000A
:104CA00080E29EE40197F1F781E08093E00080E2EA
:104CB0008093D80080E69AEE0197F1F7ADDE0C9470
:104CC000003FFFCF8F938FB78F93809189028D5FC5
:104CD0008D37D0F48093890280918A028F5F809310
:104CE0008A02D8F080918B028F4F80938B02A8F0BC
:104CF00080918C028F4F80938C0278F080918D028E
:104D00008F4F80938D0209C08D57809389028091C7
:104D10008A028E5F80938A0228F780918E028C5FD0
:104D200080938E0258F080918F028F4F80938F0274
:104D300028F0809190028F4F809390028F918FBFC7
:104D40008F911895CF92DF92EF92FF926B017C01C9
:104D500019D09B01C114D104E104F10471F012D007
:104D6000621B730B683E7340A8F381E0C81AD10838
:104D7000E108F10828513C4FEDCFFF90EF90DF9014
:104D8000CF9008950FB6F89466B515B270918E0263
:104D900080918F02909190020FBE10FE05C06F3F70
:104DA00019F07C5F8F4F9F4F11240024660F001C69
:104DB000660F001C7029089597FB072E16F40094C7
:104DC00006D077FD08D011D007FC05D03EF49095B1
:104DD00081959F4F0895709561957F4F0895EE0FCF
:104DE000FF1F0590F491E02D0994AA1BBB1B51E114
:104DF00007C0AA1FBB1FA617B70710F0A61BB70B4B
:104E0000881F991F5A95A9F780959095BC01CD01EF
:104E10000895FB01DC0104C08D910190801921F4FB
:104E200041505040C8F7881B990B0895FB01DC01E5
:104E300001900D920020E1F70895AEE0B0E0E2E2CB
:104E4000F7E2FBC20D891E8986E08C831A830983F1
:104E50008FEF9FE79E838D83AE01475E5F4F6F8923
:104E6000788DCE01019659D0EF81F885E00FF11FC2
:104E700010822E96E4E0FDC2AEE0B0E0E1E4F7E29D
:104E8000DCC20D891E898EE08C831A8309838FEF23
:104E90009FE79E838D83AE01475E5F4F6F89788D5C
:104EA000CE0101963AD0EF81F885E00FF11F108214
:104EB0002E96E4E0DEC2AEE0B0E0E0E6F7E2BDC28E
:104EC0008C0186E08C831A8309838FEF9FE79E8392
:104ED0008D83CE01019621D0EF81F885E00FF11F7F
:104EE00010822E96E4E0C5C2AEE0B0E0E9E7F7E25A
:104EF000A4C28C018EE08C831A8309838FEF9FE715
:104F00009E838D83CE01019608D0EF81F885E00F56
:104F1000F11F10822E96E4E0ACC2ABE0B0E0E2E913
:104F2000F7E27DC26C017B018A01FC0117821682C7
:104F3000838181FFBFC1CE0101963C01F6019381BF
:104F4000F70193FD859193FF81917F01882309F4F7
:104F5000ADC1853239F493FD859193FF81917F0135
:104F6000853221F4B60190E0C0D1E8CF912C212CFC
:104F7000312CFFE1F315D8F08B3279F038F4803220
:104F800079F08332A1F4232D20611DC08D3261F0B0
:104F9000803369F4232D216016C0832D8260382E62
:104FA000E32DE4603E2E2AC0F32DF8601DC037FCCF
:104FB0002DC020ED280F2A3040F08E32B9F436FC97
:104FC00075C1232D2064322E19C036FE06C08AE03A
:104FD000989E200D1124922E11C0EAE02E9E200DE5
:104FE0001124222EF32DF0623F2E08C08C3621F4BE
:104FF000832D8068382E02C0883641F4F70193FD76
:10500000859193FF81917F018111B3CF982F9F7D6F
:105010009554933028F40C5F1F4F9FE399830DC084
:10502000833631F0833771F0833509F055C020C0E5
:10503000F801808189830E5F1F4F88248394912C0F
:10504000530112C02801F2E04F0E511CF801A0805C
:10505000B18036FE03C0692D70E002C06FEF7FEFB4
:10506000C50138D14C018201F32DFF773F2E15C0C9
:10507000280122E0420E511CF801A080B18036FECA
:1050800003C0692D70E002C06FEF7FEFC50117D13B
:105090004C01F32DF0683F2E820133FC19C0822DA4
:1050A00090E088169906A0F4B60180E290E01DD148
:1050B0002A94F5CFF50137FC859137FE81915F0188
:1050C000B60190E012D121102A9421E0821A9108B1
:1050D0008114910479F7E1C0843611F0893639F5ED
:1050E000F80137FE07C060817181828193810C5F76
:1050F0001F4F08C060817181072E000C880B990B2F
:105100000E5F1F4FF32DFF763F2E97FF09C090953E
:105110008095709561957F4F8F4F9F4FF0683F2E20
:105120002AE030E0A3011DD1882E861844C08537BF
:1051300031F4232D2F7EB22E2AE030E025C0932DAE
:10514000997FB92E8F36C1F018F4883579F0AEC04A
:10515000803719F0883721F0A9C0E92FE061BE2E11
:10516000B4FE0DC0FB2DF460BF2E09C034FE0AC092
:10517000292F2660B22E06C028E030E005C020E1CD
:1051800030E002C020E132E0F801B7FE07C06081E4
:105190007181828193810C5F1F4F06C06081718194
:1051A00080E090E00E5F1F4FA301DBD0882E8618B1
:1051B000FB2DFF773F2E36FE0DC0232D2E7FA22E16
:1051C000891458F434FE0BC032FC09C0832D8E7E46
:1051D000A82E05C0B82CA32C03C0B82C01C0B92C34
:1051E000A4FE0FC0FE01E80DF11D8081803321F483
:1051F0009A2D997EA92E09C0A2FE06C0B394B3943D
:1052000004C08A2D867809F0B394A3FC10C0A0FED8
:1052100006C0B21480F4280C922C9B180DC0B21456
:1052200058F4B60180E290E060D0B394F8CFB214A5
:1052300018F42B1802C0982C212CA4FE0FC0B60124
:1052400080E390E052D0A2FE16C0A1FC03C088E724
:1052500090E002C088E590E0B6010CC08A2D867807
:1052600051F0A1FE02C08BE201C080E2A7FC8DE2FA
:10527000B60190E03AD0891430F4B60180E390E0B2
:1052800034D09A94F8CF8A94F301E80DF11D80810F
:10529000B60190E02AD08110F6CF222009F44ECE3C
:1052A000B60180E290E021D02A94F7CFF601868102
:1052B000978102C08FEF9FEF2B96E2E1CCC0FC01FB
:1052C0000590615070400110D8F7809590958E0F31
:1052D0009F1F0895FC016150704001900110D8F7A4
:1052E000809590958E0F9F1F08950F931F93CF93D6
:1052F000DF93FB01238121FD03C08FEF9FEF2CC0C3
:1053000022FF16C0468157812481358142175307F9
:1053100044F4A081B1819D012F5F3F4F31832083F1
:105320008C93268137812F5F3F4F3783268314C0AC
:105330008B01EC01FB010084F185E02D0995892B9F
:10534000E1F6D80116968D919C91179701961796C4
:105350009C938E931697CE01DF91CF911F910F9161
:105360000895FA01AA27283051F1203181F1E894FB
:105370006F936E7F6E5F7F4F8F4F9F4FAF4FB1E048
:105380003ED0B4E03CD0670F781F891F9A1FA11D43
:10539000680F791F8A1F911DA11D6A0F711D811D44
:1053A000911DA11D20D009F468943F912AE0269F09
:1053B00011243019305D3193DEF6CF010895462F68
:1053C0004770405D4193B3E00FD0C9F7F6CF462F49
:1053D0004F70405D4A3318F0495D31FD40524193B2
:1053E00002D0A9F7EACFB4E0A6959795879577956F
:1053F0006795BA95C9F700976105710508959B01F6
:10540000AC010A2E06945795479537952795BA957E
:10541000C9F7620F731F841F951FA01D08952F9257
:105420003F924F925F926F927F928F929F92AF9234
:10543000BF92CF92DF92EF92FF920F931F93CF9381
:10544000DF93CDB7DEB7CA1BDB0B0FB6F894DEBF18
:105450000FBECDBF09942A88398848885F846E843E
:105460007D848C849B84AA84B984C884DF80EE8088
:10547000FD800C811B81AA81B981CE0FD11D0FB691
:10548000F894DEBF0FBECDBFED010895F894FFCFB5
:10549000B80292020101FF0000CD0280004002002C
:1054A00001000400010006000100202530325800F0
:1054B0006265666F7265206275696C6452617752CD
:1054C0006571756573745061636B65742C206964D4
:1054D00078436F6D6D616E643A25642C2073697A30
:1054E000656F662862756C6B436F6D6D616E64737A
:1054F000293A25642C207374726C656E2862756C71
:105500006B436F6D6D616E6473293A25640A0046C2
:10551000656174757265733A0A000A0A0025642E83
:1055200025640000000000771ABC169117A71880A8
:1055300016000000000B250B250B250B250B250065
:10554000000000771ABC169117A7188016427569DB
:105550006C64696E67205061636B65743A00204526
:10556000300053656E64696E67205061636B6574CB
:105570003A000A5061636B65742073656E740A00AB
:1055800000000000BA22B9237A22B5226B229D22A4
:025590008A226D
:00000001FF
