:100000000BC6000031C600002FC600002DC6000040
:100010002BC6000029C6000027C6000025C6000028
:1000200023C6000021C600000C94CE1E0C94EF1EC7
:100030001BC6000019C6000017C6000015C6000048
:1000400013C6000011C600000FC600000DC6000058
:100050000BC6000009C6000007C600000C94AB27C1
:1000600003C600000C9482240C94A9240C94D6247A
:10007000FBC50000F9C50000F7C50000F5C500008C
:10008000F3C50000F1C50000EFC50000EDC500009C
:10009000EBC50000E9C50000E7C50000E5C50000AC
:1000A000E3C50000E1C50000DFC500004911AE0B4B
:1000B000150C4A0CB80CF40C8F0D2E0EC410C41085
:1000C000C410C410C410C410C410C410C50EFA0E5D
:1000D000300F660F9C0F3810202D3E20526563654F
:1000E000697665643A20453020303020253032581A
:1000F00000436865636B20696620666F7220486FF5
:100100007374202830783030290A005761697420D0
:10011000554152542073796E632028307845302938
:100120000A00202D204261636B75703A206861736C
:1001300020646174612020202020202020202020A5
:1001400020202020202020202020202020202D3E84
:100150002025640A00202D20446973706C61792089
:100160006F75747075743A20747970652020202042
:10017000202020202020202020202020202020207F
:10018000202D3E2025640A00202D20446973706CC8
:100190006179206F75747075743A20686569676855
:1001A00074202020202020202020202020202020FB
:1001B000202020202D3E2025640A00202D20446987
:1001C00073706C6179206F75747075743A207769FB
:1001D000647468202020202020202020202020203F
:1001E000202020202020202D3E2025640A00202DC4
:1001F00020416E616C6F67206F75747075743A2062
:100200004E756D626572206F66206368616E6E6503
:100210006C7320202020202020202D3E2025640AE1
:1002200000202D2047656E6572616C2070757270BC
:100230006F7365206F75747075743A204E756D62BA
:100240006572206F6620736C6F747320202D3E20C2
:1002500025640A00202D204D6564616C20686F7054
:100260007065723A204E756D626572206F66206D02
:100270006564616C20686F70706572732020202047
:100280002D3E2025640A00202D20436172642053F6
:10029000797374656D3A204E756D626572206F6674
:1002A000206361726420736C6F747320202020209F
:1002B0002020202D3E2025640A00202D204C696737
:1002C000687467756E3A204E756D626572206F6650
:1002D000206566666563746976652062697473205B
:1002E000666F722059202D3E2025640A00202D20A3
:1002F0004C6967687467756E3A204E756D626572F9
:10030000206F66206566666563746976652062693C
:10031000747320666F722058202D3E2025640A00D9
:10032000202D204C6967687467756E3A204E756D94
:10033000626572206F66206368616E6E656C732003
:100340002020202020202020202020202D3E20257D
:10035000640A00202D20526F746172793A4E756DD7
:10036000626572206F6620726F7461727920656EAB
:10037000636F646572732020202020202020202DB0
:100380003E2025640A00202D20416E616C6F67209D
:10039000696E7075743A20426974732070657220BA
:1003A0006368616E6E656C20202020202020202054
:1003B00020202D3E2025640A00202D20416E616CF6
:1003C0006F6720696E7075743A204E756D62657244
:1003D000206F66206368616E6E656C73202020203C
:1003E00020202020202D3E2025640A00202D20439F
:1003F0006F696E733A204E756D626572206F66206C
:10040000736C6F7473202020202020202020202057
:1004100020202020202020202D3E2025640A00209E
:100420002D20506C61796572733A204E756D62654E
:1004300072206F6620627574746F6E7320706572BF
:1004400020706C61796572202020202D3E2025646B
:100450000A00202D20506C61796572733A204E7528
:100460006D626572206F6620506C617965727320D1
:1004700020202020202020202020202020202D3E51
:100480002025640A004552524F5220647572696EED
:10049000672070617273696E672066756E63696F3D
:1004A0006E2069647820256420210A00416E616C09
:1004B0006F672046757A7A20666F7220636C696573
:1004C0006E742025643A2000202D20436F6D6D61ED
:1004D0006E64207265766973696F6E3A2025730ABF
:1004E00000202D20436F6D6D616E64207665727300
:1004F000696F6E3A202025730A00202D204A56533A
:100500002076657273696F6E3A20202020202025A6
:10051000730A00202D20494F206964656E74697448
:10052000793A20202020202025730A0047656E6537
:1005300072616C3A0A0053454E53452070696E2033
:10054000616674657220736574206164647265739A
:10055000733A2025640A005761726E696E672C2019
:100560006E6F6E2D7374616E6461726420696E705B
:1005700075742F6F75747075742066756E63746909
:100580006F6E2072657475726E6564206279207476
:10059000686520494F20426F617264210A0045520C
:1005A000524F522C20736C61766520697320746FF2
:1005B0006F20627573792C2069742063616E2774D3
:1005C0002070726F63657373207468652073756241
:1005D00020636F6D6D616E640A005761726E696EA3
:1005E000672C20636F6D6D616E6420706172616D48
:1005F00065746572206572726F722C207061726111
:100600006D657465722069732069676E6F726564C9
:100610000A005761726E696E672C20636F6D6D61A1
:100620006E6420706172616D6574657220657272AE
:100630006F722C206E6F2072657475726E2064610B
:1006400074610A004552524F522C20736C617665DA
:1006500020697320746F6F20627573792C20697420
:100660002063616E27742070726F636573732074EA
:10067000686520636F6D6D616E640A005761726E0C
:10068000696E672C20736C617665206465746563A0
:1006900074656420612053554D204572726F720A53
:1006A000005761726E696E672C20636F6D6D616EAD
:1006B0006420756E6B6E6F776E0A000A5354415258
:1006C00054202B20427574746F6E2031202B2042F1
:1006D0007574746F6E2032202D3E205265737461E4
:1006E0007274205465656E7379210A000A5354416F
:1006F0005254202B20427574746F6E2031202B20B1
:10070000427574746F6E2032202D3E2052657374D2
:10071000617274205465656E7379210A000A202D78
:100720003E206275696C6420646F6E652C20726572
:100730007175657374206C656E6774682025640A32
:1007400000000100000B0912000200004D085400D7
:100750002100005F080900220000A10855002101C6
:100760000078080900220100A1085500210200912B
:10077000080900220200F6081500030000490804D9
:10078000010309043708100203090417081E0303B4
:100790000904F5072004030904D10722050309040D
:1007A000A3072C2C034A00560053003200580020A7
:1007B0000044004500420055004700200049006EFB
:1007C000007400650072006600610063006500004F
:1007D0000022034A00560053003200580020004B0C
:1007E000006500790062006F006100720064002EF5
:1007F000002E00000020034A00560053003200582B
:100800000020004B006500790062006F00610072FB
:100810000064002E0000001E034A00560053003200
:1008200000580020004B006500790062006F0061F5
:10083000007200640000001003470065006E006550
:1008400000720069006300000004030904090254F7
:1008500000030100803209040000010301010309C3
:100860002111011301225500070581030800010928
:1008700004010001030101040921110113012255A2
:1008800000070582030800010904020001030000BB
:10089000050921110100012215000705830320002D
:1008A0000105010906A10175019508050719E0294F
:1008B000E715002501810295087501150025010540
:1008C0000C09E909EA09E209CD09B509B609B70930
:1008D000B881029505750105081901290591029550
:1008E0000175039103950675081500257F05071905
:1008F00000297F8100C00631FF0974A153750815D6
:100900000026FF00952009758102C0120110010028
:10091000000040C016870400010102000101C10669
:1009200001C10601C1260A546F6F206D616E7920E6
:100930006572726F72732067657474696E67204A9E
:10094000565320436C69656E74207265706F7274C3
:10095000732C2077696C6C207265737461727420DB
:10096000210A0A000A526571756573742072656206
:100970006F6F7420210A0A000A4A565320696E6973
:1009800074207375636365737320210A0A000A4536
:1009900072726F7220647572696E6720696E697415
:1009A0002070686173652C2077696C6C20726573A8
:1009B0007461727420210A0A00202D3E20646F6E3B
:1009C000650A000A5374617274696E672046757A0D
:1009D0007A2063616C63756C6174696F6E20666FF9
:1009E0007220636C69656E743A2025642C206E62F7
:1009F00072206F66206368616E6E656C733A2025A5
:100A0000640A000A73657442756C6B436F6D6D61A7
:100A10006E640A002D2D2D2D2D2D2D2D2D2D2D2DDE
:100A20002D2D2D2D2D2D2D2D0A000A436C69656E5F
:100A30007420696E666F726D6174696F6E202564D3
:100A40000A00546F74616C20636C69656E74733A4C
:100A50002025640A00486F737420736574732061E5
:100A6000646472657373286573290A0053454E5395
:100A7000452070696E206265666F726520736574CB
:100A800074696E6720616464726573732865732985
:100A90003A2025640A00202D3E20646F6E650A000E
:100AA000486F73742073656E647320726573657428
:100AB00020636F6D6D616E640A004361626C652036
:100AC000636F6E6E65637465640A0057616974696B
:100AD0006E6720666F72204A5653204361626C65D0
:100AE00020636F6E6E656374696F6E0A0053657480
:100AF0002073656E7365206C696E6520746F204885
:100B00004947480A0041637469766174696E6720D9
:100B1000554152540A0041637469766174696E6785
:100B2000204C45440A0055534220696E697469613E
:100B30006C697A6174696F6E202D3E20646F6E65FA
:100B40000A003D3D3D3D3D3D3D3D3D3D3D3D3D3D45
:100B50003D3D0A000A4A565332582025642E25642A
:100B6000205472616365730A002C5E746061626474
:100B7000346667656E362D3738271E1F20212223E5
:100B80002425267333762E77785F444546474849B7
:100B90004A4B4C4D4E4F505152535455565758593D
:100BA0005A5B5C5D2F3130636D350405060708091B
:100BB0000A0B0C0D0E0F101112131415161718191D
:100BC0001A1B1C1D6F7170752A0123022304230850
:100BD0002380230129022904290829402680264050
:100BE000298029102320234023802F402F202F10DD
:100BF0002F022F012F10292029402C000104050667
:100C0000070D0C0B0A09080A0B0C0D070605040159
:100C1000000892219F23F02411241FBECFEFDAE0B9
:100C2000DEBFCDBF12E0A0E0B1E0E2E2F7E502C036
:100C300005900D92A833B107D9F722E0A8E3B2E0FE
:100C400001C01D92AE3CB207E1F716E0CCE0D6E061
:100C500004C02197FE010E943828C930D107C9F786
:100C60000E9429250C948F2BCBC9FC01329626E6D5
:100C7000DF011D922A95E9F7EA59FF4F25E0DF01D0
:100C8000322F1D923A95E9F73596DF01322F1D92EA
:100C90003A95E9F73596DF011D922A95E9F73596E1
:100CA00011821082EA5BFF4F11821082329611820C
:100CB0001082349620E4DF011D922A95E9F7FC01A9
:100CC000718360830895CF93DF93EC010E941E1B14
:100CD0008DEC91E099838883FE01EE5AFF4F80E40A
:100CE00091E0DF019C011D9221503040E1F7E05C72
:100CF000FE4F1082CD56DE4F8EE3DE011D928A95A7
:100D0000E9F75198599A5098589A27982F9ADF9155
:100D1000CF910895CF92DF92EF92FF920F931F939E
:100D2000CF93DF9300D0CDB7DEB78C0160ED77E0D5
:100D300080E090E00E94EB2780EF898389ED8A8331
:100D4000780182E0E80EF11C22E030E0AE014F5F56
:100D50005F4F6FEFC7010E945D1C68EE73E080E09B
:100D600090E00E94EB2722E030E0AE014F5F5F4F42
:100D70006FEFC7010E945D1C68EE73E080E090E0B9
:100D80000E94EB277801EDE6EE1AEEEFFE0A68010D
:100D9000FFE2CF1AFEEFDF0AF701819191917F0107
:100DA000009711F00E945226EC14FD04A9F7F801F7
:100DB000EE56FE4F1082F80112820F900F90DF91D5
:100DC000CF911F910F91FF90EF90DF90CF900895FA
:100DD0000F931F93CF93DF93EC018B016CE275E0CF
:100DE00081E090E00E94DD1D000F111FC00FD11F98
:100DF000CD56DE4F8881998102969F938F9383E130
:100E000095E09F938F931F9211E01F930E94791D8D
:100E10008881998188599F4F9F938F938AEF94E09F
:100E20009F938F931F921F930E94791D88819981B0
:100E300083599F4F9F938F9381EE94E09F938F935D
:100E40001F921F930E94791D888199818E589F4F10
:100E50009F938F9388EC94E09F938F931F921F939F
:100E60000E94791D8DB79EB748960FB6F8949EBF25
:100E70000FBE8DBFDF91CF911F910F910895DF922B
:100E8000EF92FF920F931F93CF93DF93660F771F1D
:100E9000860F971FEC01CD56DE4FE881F9818181E5
:100EA0008F9380818F938CEA94E09F938F931F920E
:100EB00082E08F930E94791D0F900F900F900F90FA
:100EC0000F900F9000E010E040E5E42E41E0F42E9A
:100ED00052E0D52EC801880F991F880F991F8D5396
:100EE0009F4F28813981820F931F9F938F93FF9289
:100EF000EF921F92DF920E942D1D0F5F1F4F0F90E8
:100F00000F900F900F900F900F900830110511F770
:100F100061EC71E082E090E0DF91CF911F910F9141
:100F2000FF90EF90DF900C94C51D3F924F925F921F
:100F30006F927F928F929F92AF92BF92CF92DF92E9
:100F4000EF92FF920F931F93CF93DF93CDB7DEB74E
:100F500064970FB6F894DEBF0FBECDBFFC01EE560E
:100F6000FE4F208130E0621773070CF012C1FB01C5
:100F7000EE0FFF1FE80FF91FED56FE4FC080D18026
:100F8000F601E958FF4F208120FF20C020E229838D
:100F9000D601A758BF4F2C912A8322E02B8328E249
:100FA000269FD001279FB00D1124AE5ABF4FA80F26
:100FB000B91F11961C921E9221E030E013963C93CB
:100FC0002E93129713E0E12EF12C04C0E12CF12CAA
:100FD00020E030E04081DE0111965D0141FF33C029
:100FE000AE0DBF1D41E24C93D70111968D010A0D44
:100FF0001B1DB2E0EB0EF11CA60143585F4FDA0156
:101000004C91D8014C934090440150904501609020
:10101000460170904701AAE0A69FA001A79F500D2E
:101020001124420F531F440F551F440F551F480FE3
:10103000591FDA01AE5ABF4F4D925D926D927C926C
:1010400013972F5F3F4F408142FF34C0D501AE0D53
:10105000BF1D42E24C93D70111968D010A0D1B1D55
:10106000B2E0EB0EF11CA60141585F4FDA014C9142
:10107000D8014C93409048015090490160904A013A
:1010800070904B01AAE0A69FA001A79F500D1124CC
:10109000420F531F440F551F440F551F480F591F30
:1010A000DA01AE5ABF4F4D925D926D927C921397CA
:1010B0002F5F3F4F408145FF3FC0D501AE0DBF1DA3
:1010C0004AE0469F4001479F900C1124280D391D8E
:1010D0004901880C991C880C991C40E050E020E0E4
:1010E00030E0860101571F4F65E2362E40904C01DB
:1010F00050904D0160904E0170904F014C5F5F4FDA
:10110000F8016081718126173707B4F43C92F2E050
:10111000EF0EF11C11962C931197FA01E80DF91DB1
:10112000E25BFF4FE80FF91F4082518262827382B7
:101130002F5F3F4F1296E2CF4C01F5010190002046
:10114000E9F73197EA19FB09FF93EF931F9284E1C6
:101150008F93FF92EF9286E591E09F938F931F927A
:1011600082E08F930E942D1D860109551F4F970124
:10117000A501D6016C91C40102960E94681BF6017C
:10118000E554FF4F918380830FB6F894DEBF0FBE06
:10119000CDBF64960FB6F894DEBF0FBECDBFDF9112
:1011A000CF911F910F91FF90EF90DF90CF90BF9064
:1011B000AF909F908F907F906F905F904F903F90F7
:1011C0000895BF92CF92DF92EF92FF920F931F93F9
:1011D000CF93DF937C01EB01CC0FDD1F6701CC0EB9
:1011E000DD1E8DE6C81A8EEFD80AD6010D911C912E
:1011F00065EB71E081E090E00E94C51D09581F4F2A
:10120000F801808180FF2CC0D601ED91FC91E75858
:10121000FF4F81818F9380818F9382E594E09F932C
:101220008F931F92BB24B394BF920E94791DD60165
:10123000ED91FC91E558FF4F81818F9380818F93D1
:101240008FE194E09F938F931F92BF920E94791D2C
:10125000EDB7FEB73C960FB6F894FEBF0FBEEDBFDC
:10126000D8018C9181FF1DC0F701EC0FFD1FED56D9
:10127000FE4F0190F081E02DE358FF4F81818F9365
:1012800080818F938CEE93E09F938F931F9281E0E8
:101290008F930E94791D0F900F900F900F900F90D9
:1012A0000F90F801808182FF33C06701CC0EDD1EF4
:1012B000FDE6CF1AFEEFDF0AD601ED91FC91E15871
:1012C000FF4F81818F9380818F9389EB93E09F9370
:1012D0008F931F92BB24B394BF920E94791DD601B5
:1012E000ED91FC91EF57FF4F81818F9380818F9318
:1012F00086E893E09F938F931F92BF920E94791D7F
:10130000EDB7FEB73C960FB6F894FEBF0FBEEDBF2B
:10131000D8018C9183FF1DC0F701EC0FFD1FED5626
:10132000FE4F0190F081E02DED57FF4F81818F93AB
:1013300080818F9383E593E09F938F931F9281E049
:101340008F930E94791D0F900F900F900F900F9028
:101350000F90F801808185FF44C06701CC0EDD1E2F
:10136000FDE6CF1AFEEFDF0AD601ED91FC91E157C1
:10137000FF4F81818F9380818F9380E293E09F93D1
:101380008F931F92BB24B394BF920E94791DD60104
:10139000ED91FC91E557FF4F81818F9380818F9371
:1013A0008DEE92E09F938F931F92BF920E94791DC2
:1013B000D601ED91FC91E357FF4F81818F9380819E
:1013C0008F938AEB92E09F938F931F92BF920E941C
:1013D000791DEDB7FEB772960FB6F894FEBF0FBE3B
:1013E000EDBFD8018C9187FF1DC0F701EC0FFD1FE9
:1013F000ED56FE4F0190F081E02DE956FF4F8181BF
:101400008F9380818F9387E892E09F938F931F92B1
:1014100081E08F930E94791D0F900F900F900F9095
:101420000F900F90F8018081918190FF1DC0F7010E
:10143000EC0FFD1FED56FE4F0190F081E02DE756B9
:10144000FF4F81818F9380818F9384E592E09F93FA
:101450008F931F9281E08F930E94791D0F900F90C0
:101460000F900F900F900F90D8018D919C9191FF4C
:101470001DC0F701EC0FFD1FED56FE4F0190F081EE
:10148000E02DE556FF4F81818F9380818F9381E21C
:1014900092E09F938F931F9281E08F930E94791D1A
:1014A0000F900F900F900F900F900F90F801808188
:1014B000918192FF1DC0F701EC0FFD1FED56FE4F0D
:1014C0000190F081E02DE356FF4F81818F93808161
:1014D0008F938EEE91E09F938F931F9281E08F9375
:1014E0000E94791D0F900F900F900F900F900F900A
:1014F000D8018D919C9193FF44C06701CC0EDD1EF5
:10150000BDE6CB1ABEEFDB0AD601ED91FC91E156A8
:10151000FF4F81818F9380818F938BEB91E09F931D
:101520008F931F92BB24B394BF920E94791DD60162
:10153000ED91FC91EF55FF4F81818F9380818F93C7
:1015400088E891E09F938F931F92BF920E94791D2C
:10155000D601ED91FC91ED55FF4F81818F938081F4
:101560008F9385E591E09F938F931F92BF920E9486
:10157000791DEDB7FEB772960FB6F894FEBF0FBE99
:10158000EDBFD8018D919C9194FF1BC0CE0DDF1D46
:10159000CD56DE4FE881F981EB55FF4F81818F9366
:1015A00080818F9382E291E09F938F931F9281E0DD
:1015B0008F930E94791D0F900F900F900F900F90B6
:1015C0000F9064EF71E080E090E0DF91CF911F9188
:1015D0000F91FF90EF90DF90CF90BF900C94EB278E
:1015E0002F923F924F925F926F927F928F929F9233
:1015F000AF92BF92CF92DF92EF92FF920F931F9321
:10160000CF93DF93CDB7DEB761970FB6F894DEBF07
:101610000FBECDBF998B888B6B018C010E5F1F4F66
:10162000C8010E94581BA889B98951968C939927A3
:101630009F938F9380E591E09F938F931F9282E019
:101640008F930E942D1D0F900F900F900F900F9071
:101650000F90E889F9898189803D59F4828181114F
:1016600008C0C8010E94581B8F5FA889B98951968C
:101670008C93E889F9896189CF010E94AA16898330
:10168000882309F435C67601F7E7EF0EF11CC60191
:101690008B559F4F9B838A83D601A156BF4FBD8335
:1016A000AC83F601EF55FF4FFF83EE8302979987D6
:1016B00088871297BB87AA873697FD87EC870A979A
:1016C0009F878E87160197E9290E311C2601A1E913
:1016D0004A0E511C3601B3E96B0E711C5601E5E947
:1016E000AE0EB11C4601FBE88F0E911CC8010E9492
:1016F000581BA889B98951968C9399279F938F93EA
:1017000080E591E09F938F931F9282E08F930E94D8
:101710002D1D0F900F900F900F900F900F90E88954
:10172000F9898189803D59F48281811108C0C801FD
:101730000E94581B8F5FA889B98951968C93A889FC
:10174000B9895196EC918E2F90E08631910508F081
:101750001BC5FC01EA5AFF4F0C943828F701808121
:101760009181816091838083C8010E94581BA88960
:10177000B98951968C9399279F938F9380E591E037
:101780009F938F931F9282E08F930E942D1D0F9045
:101790000F900F900F900F900F90E889F989818931
:1017A000803D59F48281811108C0C8010E94581BF4
:1017B0008F5FA889B98951968C93F601E758FF4F3E
:1017C000A889B98951968C9190E091838083C80152
:1017D0000E94581BE889F989818B99279F938F93E1
:1017E00080E591E09F938F931F9282E08F930E94F8
:1017F0002D1D0F900F900F900F900F900F90A889B4
:10180000B98951968C915197803D59F412968C91DB
:10181000811107C0C8010E94581B8F5FE889F989B0
:10182000818BF601E558FF4F9BC0D7018D919C91AC
:10183000119782608D939C93C8010E94581BE88980
:10184000F989818B99279F938F9380E591E09F93EE
:101850008F931F9282E08F930E942D1D0F900F9007
:101860000F900F900F900F90A889B98951968C9185
:101870005197803D59F412968C91811107C0C8018F
:101880000E94581B8F5FE889F989818BF601E35824
:10189000FF4FA2C0F7018081918184609183808392
:1018A000C8010E94581BA889B98951968C93992721
:1018B0009F938F9380E591E09F938F931F9282E097
:1018C0008F930E942D1D0F900F900F900F900F90EF
:1018D0000F90E889F9898189803D59F482818111CD
:1018E00008C0C8010E94581B8F5FA889B98951960A
:1018F0008C93F601E158FF4FA889B98951968C91D4
:1019000090E091838083C8010E94581BE889F9897F
:10191000818B99279F938F9380E591E09F938F937D
:101920001F9282E08F930E942D1D0F900F900F90B9
:101930000F900F900F90A889B98951968C9151976B
:10194000803D59F412968C91811107C0C8010E9404
:10195000581B8F5FE889F989818BF601EF57FF4F9C
:10196000A889B98951968C9190E09183808365C450
:10197000D7018D919C91119788608D939C93C8019C
:101980000E94581BE889F989818B99279F938F932F
:1019900080E591E09F938F931F9282E08F930E9446
:1019A0002D1D0F900F900F900F900F900F90A88902
:1019B000B98951968C915197803D59F412968C912A
:1019C000811107C0C8010E94581B8F5FE889F989FF
:1019D000818BF601ED57FF4FA889B98951968C91FB
:1019E00090E0918380837BC3F70180819181806146
:1019F00091838083C8010E94581BA889B989519698
:101A00008C9399279F938F9380E591E09F938F9379
:101A10001F9282E08F930E942D1D0F900F900F90C8
:101A20000F900F900F90E889F9898189803D59F4D2
:101A30008281811108C0C8010E94581B8F5FA8894C
:101A4000B98951968C93F601EB57FF4FA889B98954
:101A500051968C9190E091838083C8010E94581B1D
:101A6000E889F989818B99279F938F9380E591E08D
:101A70009F938F931F9282E08F930E942D1D0F9052
:101A80000F900F900F900F900F90A889B9895196E1
:101A90008C915197803D59F412968C91811107C019
:101AA000C8010E94581B8F5FE889F989818BF60174
:101AB000E957FF4FA889B98951968C9190E091839D
:101AC0008083C8010E94581BE889F989818B992776
:101AD0009F938F9380E591E09F938F931F9282E075
:101AE0008F930E942D1D0F900F900F900F900F90CD
:101AF0000F90A889B98951968C915197803D59F4DE
:101B000012968C91811107C0C8010E94581B8F5FEB
:101B1000E889F989818BF601E757FF4F97C0F701F4
:101B200080819181806291838083C8010E94581BCB
:101B3000A889B98951968C9399279F938F9380E5B3
:101B400091E09F938F931F9282E08F930E942D1DAF
:101B50000F900F900F900F900F900F90E889F989D8
:101B60008189803D59F48281811108C0C8010E9499
:101B7000581B8F5FA889B98951968C93E889F98998
:101B8000818990E0D4018D939C93C8010E94581BD9
:101B9000E889F989818B99279F938F9380E591E05C
:101BA0009F938F931F9282E08F930E942D1D0F9021
:101BB0000F900F900F900F900F90A889B9895196B0
:101BC0008C915197803D59F412968C91811107C0E8
:101BD000C8010E94581B8F5FE889F989818BF60143
:101BE000E357FF4FA889B98951968C9190E0918372
:101BF0008083C8010E94581BE889F989818B992745
:101C00009F938F9380E591E09F938F931F9282E043
:101C10008F930E942D1D0F900F900F900F900F909B
:101C20000F90A889B98951968C915197803D59F4AC
:101C300012968C91811107C0C8010E94581B8F5FBA
:101C4000E889F989818BF601E157FF4FA889B989A5
:101C500051968C9190E09183808348CDF7018081EB
:101C60009181806491838083C8010E94581BA88958
:101C7000B98951968C9399279F938F9380E591E032
:101C80009F938F931F9282E08F930E942D1D0F9040
:101C90000F900F900F900F900F90E889F98981892C
:101CA000803D59F48281811108C0C8010E94581BEF
:101CB0008F5FA889B98951968C93E889F9898189C0
:101CC00090E0D2018D939C93C8010E94581BE88933
:101CD000F989818B99279F938F9380E591E09F935A
:101CE0008F931F9282E08F930E942D1D0F900F9073
:101CF0000F900F900F900F90A889B98951968C91F1
:101D00005197803D59F412968C91811107C0C801FA
:101D10000E94581B8F5FE889F989818BA889B9894E
:101D200051968C9190E0F30191838083C8010E94C9
:101D3000581BA889B98951968C9399279F938F93A3
:101D400080E591E09F938F931F9282E08F930E9492
:101D50002D1D0F900F900F900F900F900F90E8890E
:101D6000F9898189803D59F48281811108C0C801B7
:101D70000E94581B8F5FA889B98951968C93E88976
:101D8000F989818990E0D50170C1F7018081918145
:101D9000806891838083C8010E94581BA889B989F3
:101DA00051968C9399279F938F9380E591E09F9311
:101DB0008F931F9282E08F930E942D1D0F900F90A2
:101DC0000F900F900F900F90E889F9898189803DDD
:101DD00059F48281811108C0C8010E94581B8F5F8D
:101DE000A889B98951968C93E889F989818990E00D
:101DF000D10173C1F70180819181916091838083CA
:101E0000C8010E94581BA889B98951968C939927BB
:101E10009F938F9380E591E09F938F931F9282E031
:101E20008F930E942D1D0F900F900F900F900F9089
:101E30000F90E889F9898189803D59F48281811167
:101E400008C0C8010E94581B8F5FA889B9895196A4
:101E50008C93E889F989818990E0AE85BF853DC181
:101E6000F70180819181926091838083C8010E94F3
:101E7000581BA889B98951968C9399279F938F9362
:101E800080E591E09F938F931F9282E08F930E9451
:101E90002D1D0F900F900F900F900F900F90E889CD
:101EA000F9898189803D59F48281811108C0C80176
:101EB0000E94581B8F5FA889B98951968C93E88935
:101EC000F989818990E0AC85BD8507C1F7018081E2
:101ED0009181946091838083C8010E94581BA889D6
:101EE000B98951968C9399279F938F9380E591E0C0
:101EF0009F938F931F9282E08F930E942D1D0F90CE
:101F00000F900F900F900F900F90E889F9898189B9
:101F1000803D59F48281811108C0C8010E94581B7C
:101F20008F5FA889B98951968C93E889F98981894D
:101F300090E0AA85BB85D1C0F7018081918198602E
:101F400091838083C8010E94581BA889B989519642
:101F50008C9399279F938F9380E591E09F938F9324
:101F60001F9282E08F930E942D1D0F900F900F9073
:101F70000F900F900F90E889F9898189803D59F47D
:101F80008281811108C0C8010E94581B8F5FA889F7
:101F9000B98951968C93E889F989818990E0AC815F
:101FA000BD818D939C93C8010E94581BE889F989D3
:101FB000818B99279F938F9380E591E09F938F93D7
:101FC0001F9282E08F930E942D1D0F900F900F9013
:101FD0000F900F900F90A889B98951968C915197C5
:101FE000803D59F412968C91811107C0C8010E945E
:101FF000581B8F5FE889F989818BA889B989519627
:102000008C9190E0EE81FF8191838083C8010E94D2
:10201000581BA889B98951968C9399279F938F93C0
:1020200080E591E09F938F931F9282E08F930E94AF
:102030002D1D0F900F900F900F900F900F90E8892B
:10204000F9898189803D59F48281811108C0C801D4
:102050000E94581B8F5FA889B98951968C93E88993
:10206000F989818990E0A885B9858D939C933ECBB1
:10207000F70180819181906191838083C8010E94E2
:10208000581BA889B98951968C9399279F938F9350
:1020900080E591E09F938F931F9282E08F930E943F
:1020A0002D1D0F900F900F900F900F900F90E889BB
:1020B000F9898189803D59F48281811108C0C80164
:1020C0000E94581B8F5FA889B98951968C93E88923
:1020D000F989818990E0AA81BB818D939C93C80185
:1020E0000E94581BE889F989818B99279F938F93C8
:1020F00080E591E09F938F931F9282E08F930E94DF
:102100002D1D0F900F900F900F900F900F90A8899A
:10211000B98951968C915197803D59F412968C91C2
:10212000811107C0C8010E94581B8F5FE889F98997
:10213000818BC8010E94581BA889B98951968C933C
:1021400099279F938F9380E591E09F938F931F92A0
:1021500082E08F930E942D1D0F900F900F900F9093
:102160000F900F90E889F9898189803D09F0BECAF6
:1021700082818111BBCAC8010E94581B8F5FA88948
:10218000B98951968C93B2CAC8010E94581BE8893C
:10219000F989818B99279F938F9380E591E09F9395
:1021A0008F931F9282E08F930E942D1D0F900F90AE
:1021B0000F900F900F900F90A889B98951968C912C
:1021C0005197803D59F412968C91811107C0C80136
:1021D0000E94581B8F5FE889F989818B67E575E05C
:1021E00081E090E00E94DD1DC8010E94581BA88973
:1021F000B98951968C9399279F938F9380E591E0AD
:102200009F938F931F9282E08F930E942D1D0F90BA
:102210000F900F900F900F900F90E889F9898189A6
:10222000803D59F48281811108C0C8010E94581B69
:102230008F5FA889B98951968C93C8010E94581B59
:10224000E889F989818B99279F938F9380E591E0A5
:102250009F938F931F9282E08F930E942D1D0F906A
:102260000F900F900F900F900F90A889B9895196F9
:102270008C915197803D09F039CA12968C91811149
:1022800035CAC8010E94581B8F5FE889F989818B84
:102290002DCAC8010E94581BA889B98951968C93F0
:1022A00099279F938F9380E591E09F938F931F923F
:1022B00082E08F930E942D1D0F900F900F900F9032
:1022C0000F900F90E889F9898189803D59F48281C6
:1022D000811108C0C8010E94581B8F5FA889B98965
:1022E00051968C9361EC71E082E090E00E94C51DF4
:1022F000898161960FB6F894DEBF0FBECDBFDF9126
:10230000CF911F910F91FF90EF90DF90CF90BF90F2
:10231000AF909F908F907F906F905F904F903F9085
:102320002F900895EF92FF920F931F93CF93DF9317
:10233000EC016BE071E082E090E00E94DD1D0FB6E1
:10234000F8948091C4029091C502A091C602B09108
:10235000C7020FBE8D879E87AF87B88B11E08B8138
:102360009C81DC01ED91FC910084F185E02D0995C3
:10237000892B19F48A81882389F011E08A818111DF
:1023800042C08B819C81DC01ED91FC910284F3853C
:10239000E02D0995803E9105D9F435C00FB6F8942B
:1023A0008091C4029091C502A091C602B091C7026B
:1023B0000FBE4D855E856F857889841B950BA60BB6
:1023C000B70B88379105A105B10548F21A83C7CF2D
:1023D0000FB6F8948091C4029091C502A091C602F4
:1023E000B091C7020FBE4D855E856F857889841BCD
:1023F000950BA60BB70B88379105A105B10508F41D
:10240000BDCF1A83BBCF8A81811136C061EF70E0E6
:1024100082E090E00E94DD1D0FB6F8948091C40226
:102420009091C502A091C602B091C7020FBE8D87E0
:102430009E87AF87B88B11E08B819C81DC01ED9189
:10244000FC910084F185E02D0995892B19F48A818E
:102450008823A9F011E08A8181110BC08B819C81B6
:10246000DC01ED91FC910284F385E02D0995892B27
:1024700001F58A818823C1F180E090E059C00FB650
:10248000F8948091C4029091C502A091C602B091C7
:10249000C7020FBE4D855E856F857889841B950BBD
:1024A000A60BB70B88379105A105B10528F21A8351
:1024B000C3CF0FB6F8948091C4029091C502A09149
:1024C000C602B091C7020FBE4D855E856F857889C3
:1024D000841B950BA60BB70B88379105A105B10599
:1024E00008F4B9CF1A83B7CF7E01B2E0EB0EF11C2E
:1024F000C7010E94581B8C011F938F9388ED90E0B9
:102500009F938F931F9282E08F930E94791DC70142
:102510000E94581B682FCE011DD40F900F900F9072
:102520000F900F900F90882309F4A6CFC801019750
:10253000DF91CF911F910F91FF90EF9008952F920F
:102540003F924F925F926F927F928F929F92AF9243
:10255000BF92CF92DF92EF92FF920F931F93CF9390
:10256000DF9300D0CDB7DEB78C01FB01EE0FFF1F6C
:10257000E00FF11FED56FE4F6080718082E289838B
:1025800013018FE7280E311CF10180818A839EE1BF
:10259000C92ED12C5801F2E0AF0EB11C20E5422E1D
:1025A00021E0522E62E370E080E090E00E94EB2791
:1025B00022E030E0AE014F5F5F4FF3016081C50163
:1025C0000E945D1CC801AEDE892B09F44CC073016A
:1025D000F3ECEF0EF11C812C912CF10180819181A3
:1025E000881699060CF03FC0C5010E94581BF801DF
:1025F000818B99279F938F935F924F921F92F2E066
:10260000FF930E942D1D0F900F900F900F900F9031
:102610000F90F8018189803D49F48281811106C0C3
:10262000C5010E94581B8F5FF801818BF8018189D9
:1026300090E0F701208131818217930724F40297FB
:102640009183808309C0F7012281338128173907DC
:102650001CF4029693838283FFEF8F1A9F0A84E013
:10266000E80EF11CBACFE1E0CE1AD10809F09ACFFA
:102670000F900F90DF91CF911F910F91FF90EF90EE
:10268000DF90CF90BF90AF909F908F907F906F9092
:102690005F904F903F902F9008952F923F924F92CE
:1026A0005F926F927F928F929F92AF92BF92CF92E2
:1026B000DF92EF92FF920F931F93CF93DF9300D09F
:1026C00000D0CDB7DEB79C838B836C012DE6C21A98
:1026D0002EEFD20A5C0132E5A30EB11C612C712CE5
:1026E00000E010E0332433948E569E4F9A83898302
:1026F0008B809C8082E0880E911C40E5442E41E056
:10270000542E52E0252EA981BA818C9190E0681652
:1027100079060CF085C0332009F484C0F60160818D
:102720007181FB01E554FF4F4081518169557F4F15
:10273000C4010E942C1C382E8B819C81F3DD892BD7
:1027400009F464C0750100E010E0D701ED91FC913F
:102750001197309739F412968D919C91139780FDC3
:1027600029C02AC0332041F1D70112968D919C9146
:10277000139780FF0EC0DC01B595A7952B813C8196
:10278000A20FB31F2D913C91E20FF31F0190F08136
:10279000E02DD6016D917C91959587952B813C819B
:1027A000820F931F0995382E0F5F1F4F34E0E30E01
:1027B000F11CCBCF3110DFCFC4017AD7AB81BC8104
:1027C00051968C9399279F938F935F924F921F926C
:1027D0002F920E942D1D0F900F900F900F900F9031
:1027E0000F90EB81FC818189803D51F482818111C0
:1027F00007C0C4015DD78F5FAB81BC8151968C93BC
:1028000061EC71E082E090E00E94C51DBFEF6B1AA1
:102810007B0AE2E0CE0ED11CF8E2AF0EB11C73CF02
:10282000311012C01F930F9385E894E09F938F930C
:102830001F9281E08F930E94791D0F900F900F904F
:102840000F900F900F90312C832D0F900F900F90C1
:102850000F90DF91CF911F910F91FF90EF90DF903C
:10286000CF90BF90AF909F908F907F906F905F9030
:102870004F903F902F900895EF92FF920F931F93E8
:10288000CF93DF931F92CDB7DEB77C0184E18983BC
:102890008B01000F111F0E0D1F1D0D561E4FD8016D
:1028A000ED91FC9121E030E0AE014F5F5F4F608120
:1028B000C70102960E945D1CC70134DD892B39F0E7
:1028C000F80160817181C7010E94F00A01C080E0B7
:1028D0000F90DF91CF911F910F91FF90EF9008958E
:1028E0007F928F929F92AF92BF92CF92DF92EF92A0
:1028F000FF920F931F93CF93DF937C014C0182E0F3
:10290000880E911CC401D9D7C7010CDDEC01892BBD
:1029100009F43EC0680180E5A82E81E0B82E92E05F
:10292000792EC601801B910B8C179D072CF5C401D5
:10293000BFD6F701818B99279F938F93BF92AF9258
:102940001F927F920E942D1D0F900F900F900F905D
:102950000F900F90F7018189803D41F482818111B0
:1029600005C0C401A5D68F5FF701818BF70181896E
:10297000F60181936F01D5CFC00FD11F2197188227
:1029800060EC71E082E090E00E94C51D81E001C032
:1029900080E0DF91CF911F910F91FF90EF90DF903A
:1029A000CF90BF90AF909F908F907F900895AF92FF
:1029B000BF92CF92DF92EF92FF920F931F93CF932C
:1029C000DF93CDB7DEB7C656D1090FB6F894DEBF98
:1029D0000FBECDBF6C015C018EE6A81A8EEFB80A5F
:1029E000F50190819F3109F456C081EFA6968FAF13
:1029F000A6979F5FA7969FAFA797E12CF12C8E011A
:102A00000F5F1F4F22E030E0AE014B595F4F6FEF79
:102A1000C60166DF8823D9F083E091E00E94512649
:102A20008C01F501608170E06F5F7F4F0E94350679
:102A3000F50180819601280F311D280F311DF90104
:102A4000ED56FE4F118300838F5FF501808368EEA2
:102A500073E080E090E00E94EB278DE00E94A526C5
:102A60009F938F9386E395E09F938F931F9282E0CD
:102A70008F930E94791D8DE00E94A5260F900F90E4
:102A80000F900F900F900F908739910524F0F60169
:102A90008281882311F080E001C081E0CA59DF4FB4
:102AA0000FB6F894DEBF0FBECDBFDF91CF911F915F
:102AB0000F91FF90EF90DF90CF90BF90AF9008956F
:102AC0008F929F92AF92BF92CF92DF92EF92FF923E
:102AD0000F931F93CF93DF93CDB7DEB7C856D109BD
:102AE0000FB6F894DEBF0FBECDBF4C0180E1A996B2
:102AF0008FAFA9976B01CC0CDD1CC80CD91C2DE63F
:102B0000C21A2EEFD20AD601ED91FC91E12CF12CE4
:102B10008E010F5F1F4F21E030E0AE0148595F4F3B
:102B20006081C401DDDE811102C0912CABC0F601D1
:102B300080819181BE016F5F7F4F02960E945F2866
:102B400081E1A8968FAFA897D601ED91FC91E12C79
:102B5000F12C8E010F5F1F4F21E030E0AE0149598B
:102B60005F4F6081C401BCDE8823F9F28A81982F0F
:102B70009F701F929F93082E000C990B807F9927BE
:102B800044E0959587954A95E1F79F938F9353EC91
:102B9000A52E51E0B52EBF92AF92F60180819181B2
:102BA00083599F4F9F938F930E94662882E1A79637
:102BB0008FAFA797D601ED91FC9121E030E0AE01F7
:102BC0004A595F4F6081C4018BDE0FB6F894DEBFB7
:102BD0000FBECDBF882309F4A8CF8A81982F9F709C
:102BE0001F929F93082E000C990B807F992734E049
:102BF000959587953A95E1F79F938F93BF92AF9202
:102C0000D6018D919C9188599F4F9F938F930E94DD
:102C1000662883E1A6968FAFA697D601ED91FC9129
:102C200021E030E0AE014B595F4F6081C40158DEB6
:102C3000982E0FB6F894DEBF0FBECDBF882309F4DF
:102C400074CF8A81982F9F701F929F93082E000C3B
:102C5000990B807F992724E0959587952A95E1F730
:102C60009F938F93BF92AF92D6018D919C918E5876
:102C70009F4F9F938F930E9466280FB6F894DEBFF4
:102C80000FBECDBF892DC859DF4F0FB6F894DEBFF8
:102C90000FBECDBFDF91CF911F910F91FF90EF90AD
:102CA000DF90CF90BF90AF909F908F900895CF937B
:102CB000DF93EC010296F2D48BED91E09983888347
:102CC0001A8ADF91CF9108959F92AF92BF92CF92CF
:102CD000DF92EF92FF920F931F93CF93DF93EC015C
:102CE0005B0100E010E07C0182E0E80EF11C80E571
:102CF000C82E81E0D82E92E0992E0A151B05F4F417
:102D0000C701D6D4898B99279F938F93DF92CF9257
:102D10001F929F92A2D60F900F900F900F900F903E
:102D20000F908989803D39F48A81811104C0C701DF
:102D3000BFD48F5F898B0F5F1F4FDFCFDF91CF91A4
:102D40001F910F91FF90EF90DF90CF90BF90AF90C9
:102D50009F900895613091F0623019F461EA76E055
:102D600009C0633019F46CE776E004C0643041F4C4
:102D700064E476E081E090E020D702C081E008952D
:102D800080E00895613091F0623019F462E176E0FC
:102D900009C0633019F46AED75E004C0643041F491
:102DA0006EE975E081E090E008D702C081E0089507
:102DB00080E0089581E00895009719F041110C9486
:102DC00012210C9462210F931F93CF93DF93EC0198
:102DD0008B010E941221CE010E947D2064E170E0EF
:102DE00080E090E00E94EB27B801CE010E946221B2
:102DF000CE01DF91CF911F910F910C947D203F92D6
:102E00004F925F926F927F928F929F92AF92BF92FA
:102E1000CF92DF92EF92FF920F931F93CF93DF93A6
:102E2000FB01E958FF4F208120FD02C081E093C2E1
:102E30006B01EC017C0182E0E80EF11CC70138D483
:102E4000898B99279F938F9380E591E09F938F9330
:102E50001F9282E08F9301D60F900F900F900F90EA
:102E60000F900F908989803D39F48A81811104C0C7
:102E7000C7011ED48F5F898B6989CE0183DF8823C8
:102E800009F469C21B8A1C8A1D8A1E8AC70110D4D4
:102E9000898B99279F938F9380E591E09F938F93E0
:102EA0001F9282E08F93D9D50F900F900F900F90C3
:102EB0000F900F908989803D39F48A81811104C077
:102EC000C701F6D38F5F898BD601ED91FC91EE0F90
:102ED000FF1FEE0FFF1FEC5CFE4F8081918100977A
:102EE00039F04989441F4427441F6BE370EF64DFC6
:102EF000D601ED91FC91EE0FFF1FEE0FFF1FEC5C72
:102F0000FE4F008111810115110529F462E070E086
:102F1000CE01DADEDAC0C701CBD3898B99279F9324
:102F20008F9380E591E09F938F931F9282E08F9320
:102F300094D50F900F900F900F900F900F9089895C
:102F4000803D39F48A81811104C0C701B1D38F5FFC
:102F5000898B4989842F90E0A0E0B0E08B8B9C8B1B
:102F6000AD8BBE8B842F8370833051F447FF08C034
:102F70006CEE76E081E090E020D681E08A8B4FC055
:102F80008FAD882371F047FD0CC01FAEFE01EF5BD3
:102F9000FF4F8081811143C06EE170EFC80113DFE4
:102FA0003EC047FF09C081113AC081E08FAFFE01EA
:102FB000EF5BFF4F108233C04695417061E070EEC9
:102FC000C801FADE4989417064E070EEC801F4DEA0
:102FD000498946FB442740F966E270EFC801ECDE00
:102FE00049894295417061E570EFC801E5DE498984
:102FF00042FB442740F96FE470EFC801DDDE4989E8
:1030000043FB442740F960E570EFC801D5DE4989EC
:1030100045FB442740F962E570EFC801CDDEC701EA
:1030200047D3898B99279F938F9380E591E09F9356
:103030008F931F9282E08F9310D50F900F900F9077
:103040000F900F900F908989803D39F48A8181110A
:1030500004C0C7012DD38F5F898B49898B899C89D7
:10306000AD89BE89942B8B8B9C8BAD8BBE8B441F03
:103070004427441F6CE270EFC8019EDE498946FB7D
:10308000442740F962E070EEC80196DE498945FBAD
:10309000442740F96DE170EFC8018EDE4989429501
:1030A00041706BE170EFC80187DE498943FB44271B
:1030B00040F966E070EFC8017FDE498942FB442792
:1030C00040F969E170EFC80177DED601ED91FC911E
:1030D000EE0FFF1FEE0FFF1FEC5CFE4F028113810E
:1030E0000115110539F0F601E758FF4F80819181F4
:1030F000019729F462E070E0CE01E6DDDCC0C70193
:10310000D7D2898B99279F938F9380E591E09F93E6
:103110008F931F9282E08F93A0D40F900F900F9007
:103120000F900F900F908989803D39F48A81811129
:1031300004C0C701BDD28F5F898B49898B899C8967
:10314000AD89BE89A42B8B8B9C8BAD8BBE8B842FC2
:103150008370833051F447FF08C06BEB76E081E069
:1031600090E02BD581E08A8B50C0FE01E05CFF4FE0
:103170008081882361F047FD0AC0108231968081EA
:10318000811143C06FE170EFC8011DDE3EC047FFF3
:1031900009C081113AC081E08083FE01EF5BFF4FDF
:1031A000108233C04695417064E070EFC80104DEC0
:1031B0004989417066E170EFC801FEDD498946FB2F
:1031C000442740F966E270EFC801F6DD498942956F
:1031D000417069E070EFC801EFDD498942FB442787
:1031E00040F96AE070EFC801E7DD498943FB4427F5
:1031F00040F967E070EFC801DFDD498945FB4427EE
:1032000040F965E170EFC801D7DDC70151D2898B64
:1032100099279F938F9380E591E09F938F931F92BF
:1032200082E08F931AD40F900F900F900F900F9011
:103230000F908989803D39F48A81811104C0C701CA
:1032400037D28F5F898B49898B899C89AD89BE89EB
:10325000B42B8B8B9C8BAD8BBE8B441F4427441FA0
:1032600064E170EFC801A8DD498946FB442740F9B5
:103270006AE170EFC801A0DD498945FB442740F9A8
:103280006CE070EFC80198DD4989429541706EE0AD
:1032900070EFC80191DD498943FB442740F96DE097
:1032A00070EFC80189DD498942FB442740F96FE08E
:1032B00070EFC80181DD61E070E080E090E00E9485
:1032C000EB2780E0882E81E0982E7E016E01BEE023
:1032D000CB0ED11C5E01E1E4AE0EB11C332433945D
:1032E000D4014D905D906D907C90139714966D91E4
:1032F0007C9115978B899C89AD89BE898421952104
:10330000A621B721481659066A067B0679F4F7010B
:103310008789908D009721F441E0C8014DDD03C0FD
:103320000197908F878BF50130820BC040E0C80178
:1033300043DDD40116968D919C911797F701908FDC
:10334000878BF8E08F0E911C82E0E80EF11CCE1402
:10335000DF0431F66BCDDF91CF911F910F91FF907C
:10336000EF90DF90CF90BF90AF909F908F907F9025
:103370006F905F904F903F900895AF92BF92DF9211
:10338000EF92FF920F931F93CF93DF93FB01E958C6
:10339000FF4F208121FD03C0DD24D3940DC18B019B
:1033A000EC017C0122E0E20EF11CC70181D1898B86
:1033B00099279F938F9380E591E09F938F931F921E
:1033C00082E08F934AD30F900F900F900F900F9041
:1033D0000F908989803D39F48A81811104C0C70129
:1033E00067D18F5F898B6989CE01CCDCD82E882389
:1033F00009F4E2C0D801ED91FC91EE0FFF1FEE0F32
:10340000FF1FEC5CFE4F80819181892B29F462E0E3
:1034100070E0CE0159DC5BC0C7014AD1898B992786
:103420009F938F9380E591E09F938F931F9282E00B
:103430008F9313D30F900F900F900F900F900F90CA
:103440008989803D39F48A81811104C0C70130D156
:103450008F5F898BC7012CD1898B99279F938F937D
:1034600080E591E09F938F931F9282E08F93F5D236
:103470000F900F900F900F900F900F908989803DC3
:1034800039F48A81811104C0C70112D18F5F898B01
:10349000898990E05801BDEBAB0EB11CF50120818C
:1034A0003181281739079CF4D801ED91FC91EE0F7A
:1034B000FF1FEE0FFF1FEC5CFE4F62E270EF80819A
:1034C000918181DC898990E0F50191838083D80125
:1034D000ED91FC91EE0FFF1FEE0FFF1FEC5CFE4F16
:1034E00082819381892B39F0F801E358FF4F808165
:1034F0009181019729F462E070E0CE01E5DB5CC0C8
:10350000C701D6D0898B99279F938F9380E591E04F
:103510009F938F931F9282E08F939FD20F900F9073
:103520000F900F900F900F908989803D39F48A8118
:10353000811104C0C701BCD08F5F898BC701B8D08F
:10354000898B99279F938F9380E591E09F938F9329
:103550001F9282E08F9381D20F900F900F900F9067
:103560000F900F908989803D39F48A81811104C0C0
:10357000C7019ED08F5F898B898990E07801BFEB6E
:10358000EB0EF11CF70120813181281739070CF06F
:1035900003CFD801ED91FC91EE0FFF1FEE0FFF1F3F
:1035A000EC5CFE4F63E270EF828193810CDC8989D1
:1035B00090E0F701918380838D2DDF91CF911F9152
:1035C0000F91FF90EF90DF90BF90AF9008950F9311
:1035D0001F93CF93DF93EC018C010E5B1F4F48E0EC
:1035E00050E06EED72E0C8010E945228892B59F01C
:1035F0008EE392E082D588E0EEEDF2E0D801019012
:103600000D928A95E1F7C65BDF4F48E050E066ED2A
:1036100072E0CE010E945228892B59F08AE392E091
:103620006CD588E0E6EDF2E0DE0101900D928A951E
:10363000E1F7DF91CF911F910F910895CF93DF9321
:10364000EC0135DB89EE91E0998388831B8A1C8A23
:103650001D8A1E8A1FAEFE01E05CFF4F108231966C
:103660001082319688E0DF01982F1D929A95E9F734
:103670003896DF011D928A95E9F7A0E0B1E0F39753
:10368000A59616968D919C91179781939193189674
:10369000EC17FD07B1F7DF91CF910895FC0172831C
:1036A000618384E690E0908787839287818708957D
:1036B000E0EEF1E03197F1F7DC0111968D919C91EC
:1036C0001297DC01ED91FC910284F385E02D0994C1
:1036D0002F923F924F925F926F927F928F929F9222
:1036E000AF92BF92CF92DF92EF92FF920F931F9310
:1036F000CF93DF93E62E5A01E90163EF71E082E098
:1037000090E043D280EEF801808364E072E082E0D2
:1037100090E03BD2F801E1828E2D0E2C000C990B2B
:103720009F93EF9290E5C92E91E0D92EDF92CF9230
:103730001F9222E0922E9F9290D1FC2EF394F801DA
:10374000F282CE0101969F938F93DF92CF921F92C8
:103750009F9283D18E2D8F0D4801F3E08F0E911C27
:103760002DB73EB7245F3F4F0FB6F8943EBF0FBE54
:103770002DBF75013601212C33243394C82E082E19
:10378000000CDD0897012A193B092C173D071CF591
:103790002701F7018081F40181934F01F7018191A5
:1037A0007F011F928F937F926F921F92F2E0FF939F
:1037B00054D1F20180819601280F311D87FD3A9581
:1037C000C901B1010E9425280F900F900F900F9012
:1037D0000F900F90D3CFD7FF02C0C0E0D0E00C0F06
:1037E0001D1FF8018383C60160E071E00E94252857
:1037F00099279F938F9380E591E09F938F931F92DA
:1038000082E0F82EFF9229D1F80114822496DF93EA
:10381000CF938DE197E09F938F931F92FF9269D191
:103820008DB79EB70C960FB6F8949EBF0FBE8DBF96
:10383000CE01DF91CF911F910F91FF90EF90DF901C
:10384000CF90BF90AF909F908F907F906F905F9040
:103850004F903F902F900895CF92DF92EF92FF927A
:103860000F931F93CF93DF937C018B016A01EB01D0
:10387000D70111968D919C9112979E01201B310BBF
:103880002C153D054CF46991DC01ED91FC91019002
:10389000F081E02D0995ECCFDC01ED91FC910680E3
:1038A000F781E02D099581E0DF91CF911F910F9174
:1038B000FF90EF90DF90CF9008954F925F926F92BC
:1038C0007F928F929F92AF92BF92CF92DF92EF92B0
:1038D000FF920F931F93CF93DF93DA017C917723AD
:1038E00009F4A9C069017A01162FEC0168E072E0C1
:1038F00082E090E04AD189819A81DC01ED91FC91CE
:103900000190F081E02D60EE099564E072E082E0C4
:1039100090E03BD189819A81DC01ED91FC9101908D
:10392000F081E02D612F09951F921F9380E5A82E4D
:1039300081E0B82EBF92AF921F9202E00F938DD01C
:1039400089819A81442443944C0CDC01ED91FC91D3
:103950000190F081E02D642D09951F921F93BF9275
:10396000AF921F920F9379D0410EEDB7FEB73C9600
:103970000FB6F894FEBF0FBEEDBF870192E0592E3F
:10398000612C7724739489819A8198012E193F09BB
:103990002C153D0544F54801DC01ED91FC910190A9
:1039A000F081E02DD8016C910995F80181918F018A
:1039B0001F928F93BF92AF921F925F924ED0D4010D
:1039C0002C91842D440C990B820F911D27FD9A9503
:1039D000B3010E942528482E0F900F900F900F9052
:1039E0000F900F90D0CFDC01ED91FC910190F08110
:1039F000E02D642D09951F924F9280E591E09F93F1
:103A00008F931F9282E08F9328D089819A81DC0165
:103A1000ED91FC910680F781E02D099568E172E057
:103A200082E090E0B2D00F900F900F900F900F9027
:103A30000F9081E001C080E0DF91CF911F910F9145
:103A4000FF90EF90DF90CF90BF90AF909F908F90BE
:103A50007F906F905F904F900895CF92DF92EF929A
:103A6000FF920F931F93CF93DF93CDB7DEB7C4566A
:103A7000D1090FB6F894DEBF0FBECDBFE1968EAD73
:103A80009FADE19702972CF5AE014D585F4FE3963D
:103A90006EAD7FADE397CE0101960E94A4288E0102
:103AA0000F5F1F4F7E0185E6E80EF11C0E151F0506
:103AB00079F06801F8018081882351F08A3011F48F
:103AC0008DE013D10F5F1F4FF60180810ED1EECF35
:103AD0004ED1CC59DF4F0FB6F894DEBF0FBECDBF2D
:103AE000DF91CF911F910F91FF90EF90DF90CF90DA
:103AF0000895CF92DF92EF92FF920F931F93CF938F
:103B0000DF93CDB7DEB7C456D1090FB6F894DEBF48
:103B10000FBECDBFE1968EAD9FADE19702972CF51C
:103B2000AE014D585F4FE3966EAD7FADE397CE018A
:103B300001960E94BD288E010F5F1F4F7E0185E612
:103B4000E80EF11C0E151F0579F06801F80180815F
:103B5000882351F08A3011F48DE0C7D00F5F1F4FDA
:103B6000F6018081C2D0EECF02D1CC59DF4F0FB623
:103B7000F894DEBF0FBECDBFDF91CF911F910F91A3
:103B8000FF90EF90DF90CF9008951F93CF93DF9336
:103B900002977CF4EB011991112339F01A3011F4DA
:103BA0008DE0A3D0812FA1D0F6CFDF91CF911F91CF
:103BB000DEC0DF91CF911F910895CF92DF92EF92F7
:103BC000FF920F931F93CF93DF93CDB7DEB7C45609
:103BD000D1090FB6F894DEBF0FBECDBF029724F512
:103BE0007F936F938E010F5F1F4F1F930F930E9460
:103BF00085287E0185E6E80EF11C0F900F900F904E
:103C00000F900E151F0579F06801F8018081882357
:103C100051F08A3011F48DE068D00F5F1F4FF6012C
:103C2000808163D0EECFA3D0CC59DF4F0FB6F8948C
:103C3000DEBF0FBECDBFDF91CF911F910F91FF90DF
:103C4000EF90DF90CF9008958091E80080FFFCCF47
:103C5000089581E08093D70080EA8093D80082E1C4
:103C600089BD09B400FEFDCF80E98093D800109291
:103C7000E0001092E7021092DE021092DF02109232
:103C8000E0021092E1021092E2021092E30210921E
:103C9000E4021092E50291E09093D5028DE78093C3
:103CA000D3021092D1021092CF021092D60210923B
:103CB000D7021092D8021092D9021092DA02109212
:103CC000DB021092DC021092DD029093D40280930A
:103CD000D2021092D0021092CE028CE08093E200C9
:103CE000789408958091E70208959091E7029923CE
:103CF00071F09FB7F89423E02093E90020913802F7
:103D0000222349F02091E80025FD03C09FBF8FEFDB
:103D10000895109238022091E4002C5F33E0409126
:103D2000E80045FD12C09FBF9091E400291304C034
:103D300081E080933802EBCF9091E702992339F329
:103D40009FB7F8943093E900EACF8093F100809117
:103D5000E80085FD06C08AE38093E80010923902EE
:103D600003C082E0809339029FBF80E008958FB73F
:103D7000F89490913902992379F093E09093E900B7
:103D80009091E80095FF03C01092F100F9CF9AE3FB
:103D90009093E800109239028FBF08951F920F92FE
:103DA0000FB60F9211248F938091E1001092E100E1
:103DB00083FF0FC01092E90081E08093EB00109226
:103DC000EC0082E38093ED0088E08093F000109295
:103DD000E7028F910F900FBE0F901F9018951F92C2
:103DE0000F920FB60F921124FF920F931F932F93F0
:103DF0003F934F935F936F937F938F939F93AF9373
:103E0000BF93CF93DF93EF93FF931092E9008091DC
:103E1000E80083FF59C1F090F1008091F100C0915A
:103E2000F1009091F100D0E0D92B0091F100909138
:103E3000F10010E0192B2091F1006091F10092EF58
:103E40009093E800863009F048C081E497E0FC01D7
:103E500045915491C417D507D9F4FC013296459188
:103E6000549104171507A1F4FC013496459154911F
:103E7000FC013696849130E0362B2F3F310519F046
:103E800010F02FEF30E0281708F4822F3EEF0DC01E
:103E9000079637E0833A9307D1F616C1490F511DB3
:103EA000891B3093E8008823A9F09091E800292F1E
:103EB0002570D9F392FD0BC1982F813408F090E45E
:103EC000FA01292F222351F364916093F1002150CC
:103ED0003196F8CF903449F3FAC0853041F48EEF33
:103EE0008093E800B1DEC068C093E300F0C0893081
:103EF00039F5F1106AC0C093E7028EEF8093E800B5
:103F000041E08DE199E04093E9009C012F5F3F4F34
:103F1000FC0154915093EB00552359F0F901249181
:103F20002093EC009C012D5F3F4F3196E491E0938C
:103F3000ED004F5F443011F0C901E5CF8EE140C084
:103F4000883039F4F0E8FF1240C07EDE8091E7024D
:103F500098C0811114C078DE32E8F3120AC00093D1
:103F6000E9008091EB0085FB882780F91092E90039
:103F700001C080E08093F1001092F100A1C0982F61
:103F80009D7F913011F592E0F9121FC0CD2B09F001
:103F90009BC00F779FEF900F943008F095C09EEF75
:103FA0009093E8000093E900833009F48DC089E123
:103FB0008093EB0081E090E001C0880F0A95EAF75A
:103FC0008093EA001092EA0082C001151105C9F53C
:103FD000E1EAFE121BC0813061F436DEEEEDF2E064
:103FE00086EE92E021912093F1008E179F07D1F782
:103FF00067C0823021F428DE8091D30242C0833032
:1040000009F062C021DE8091D5023BC0F1E2FF12CF
:104010005BC0893049F48091E80082FFFCCF809139
:10402000F1008093CF023DC08A3029F4D093D302AF
:104030001092D10245C08B3009F046C0C093D50222
:104040003FC00130110509F03FC091EAF9121CC0D0
:10405000813061F4F9DDE6EDF2E08EED92E0219140
:104060002093F1008E179F07D1F72AC0823021F4E8
:10407000EBDD8091D20205C0833031F5E5DD809122
:10408000D4028093F1001CC0E1E2FE121DC0893011
:1040900061F48091E80082FFFCCF8091F100809371
:1040A000CE028BEF8093E8000BC08A3029F4D093C6
:1040B000D2021092D00204C08B3031F4C093D402EB
:1040C0008EEF8093E80003C081E28093EB00FF91C4
:1040D000EF91DF91CF91BF91AF919F918F917F91A0
:1040E0006F915F914F913F912F911F910F91FF9091
:1040F0000F900FBE0F901F901895FC018091E70262
:10410000882309F450C08FB7F89492819093E90006
:104110009091E4009E5C2091E80025FD10C08FBFC7
:104120008091E702882309F43EC08091E40098174B
:10413000D1F18FB7F89422812093E900ECCFA081D0
:10414000B1819C919093F100A081B18111969C91D5
:104150009093F100A081B18112969C919093F1000F
:10416000A081B18113969C919093F100A081B181BF
:1041700014969C919093F100A081B18115969C9129
:104180009093F100A081B18116969C919093F100DB
:10419000A081B18117969C919093F1009AE390933E
:1041A000E80013828FBF08956032710540F46A30D1
:1041B000710569F06B30710561F48BE20895603828
:1041C000710538F4FB01E75BF44F8491089588E2B0
:1041D000089580E00895FC01442349F0A081B18155
:1041E0009C91842F8923481711F0942B9C9366236C
:1041F000C1F0808191819C012E5F3F4F0896F901AB
:104200004191641771F0E817F907D1F7F9012F5FB1
:104210003F4F4081411102C060830895281739073C
:10422000A9F70895CF93DF93EC01872F9927823C5C
:10423000B8F0803E60F46F7377278F71992726E07E
:10424000880F991F2A95E1F7682B792B09C0803FC9
:1042500011F440E010C0803E91F4462F60E00BC0A6
:10426000CE01A2DF882359F086FF02C042E001C0E0
:1042700040E0682F6F73CE01DF91CF91ACCFDF911B
:10428000CF910895DC01442351F0ED91FC911197F9
:104290009081842F892319F0409549234083662318
:1042A00081F022E030E0ED91FC911197E20FF31FD5
:1042B0008081681301C010822F5F3F4F2830310585
:1042C00091F70895CF93DF93EC01872F9927823CD4
:1042D000B8F0803E60F46F7377278F71992726E0DE
:1042E000880F991F2A95E1F7682B792B09C0803F29
:1042F00011F440E010C0803E91F4462F60E00BC006
:10430000CE0152DF882359F086FF02C042E001C08F
:1043100040E0682F6F73CE01DF91CF91B3CFDF9173
:10432000CF9108958091D102EEE3F2E02EED32E0DC
:104330003183208391E0928383838091D002EAE3EA
:10434000F2E026ED32E03183208392E09283838392
:1043500008959F92AF92BF92CF92DF92EF92FF9219
:104360000F931F93CF93DF935C01EA01922E5E9827
:1043700000E010E06B01770FEE08FF080A151B053F
:104380005CF4C701B60127D65E9AC701B60123D6F1
:104390005E980F5F1F4FF2CF992011F05E9A01C017
:1043A0005E98BE01DD0F880B990BDF91CF911F91B5
:1043B0000F91FF90EF90DF90CF90BF90AF909F90C4
:1043C0000AC6CF93DF9345DC8DDC8823E9F36CEDDF
:1043D00075E080E090E0FFD51F9281E08F931F92FF
:1043E0008F9324E53BE03F932F931F928F9381DBC4
:1043F00062E47BE081E090E0E0DB66E27BE081E08C
:1044000090E0DBDB66E17BE081E090E0D6DB569A72
:1044100065E07BE081E090E0D0DB20E030E044EF3D
:1044200051E069E170E081E090E093DF41E161E11A
:1044300070E084E492E02DD281ED91E032D4EC0181
:1044400064E472E00E946306D0934302C093420288
:104450006DEE7AE081E090E0B0DB249A249A2C9A09
:104460008DB79EB708960FB6F8949EBF0FBE8DBF4E
:10447000DF91CF910895BF92CF92DF92EF92FF929A
:104480000F931F93CF93DF936BEC7AE081E090E082
:1044900094DB8DE05AD48538934054F020E030E02E
:1044A00040E050E064EF71E082E090E052DFF1CF55
:1044B0006AEB7AE081E090E080DB60EA7AE081E01C
:1044C00090E07BDB20E030E044EF51E069E170E018
:1044D00082E090E03EDF80914202909143020E9490
:1044E0008A0666E97AE081E090E067DB8DE02DD412
:1044F0009F938F938CE69AE09F938F931F9282E015
:104500008F93F7DA65E57AE081E090E056DB0F9073
:104510000F900F900F900F900F908091420290910A
:1045200043020E94D7148111F8CFE0914202F0912A
:10453000430282818111F9C0EE56FE4F80818823AB
:1045400009F4F3C01F928F9382E49AE09F938F93B4
:104550001F9281E08F93CDDA0F900F900F900F9004
:104560000F900F90C0E0D0E03AE2C32E3AE0D32E95
:10457000BB24B39443ECE42E49E0F42EE0914202D4
:10458000F0914302EE56FE4F808190E0C817D907A4
:104590000CF089C08E010F5F1F4F1F930F93DF92A6
:1045A000CF921F92BF92A5DA64E17AE081E090E0B9
:1045B00004DBBE0180914202909143020E9460158B
:1045C0000F900F900F900F900F900F90882309F489
:1045D0005CC0BE0180914202909143020E94E806B5
:1045E000BE0180914202909143020E943C148823B4
:1045F00009F44BC0BE0180914202909143020E9497
:10460000E10863E07AE082E090E0D7DABE018091D1
:104610004202909143020E949507E0914202F0917C
:104620004302CE01880F991FE80FF91FED56FE4F88
:104630000190F081E02DE158FF4F81818F938081BF
:104640008F931F930F93FF92EF921F92BF9251DAB5
:10465000BE0180914202909143020E949F12BE01CE
:1046600080914202909143020E943F0769EB79E0FA
:1046700081E090E0A2DA8DB79EB708960FB6F89465
:104680009EBF0FBE8DBFE80179CF6EE879E081E073
:1046900090E0DF91CF911F910F91FF90EF90DF900D
:1046A000CF90BF908ACA68E779E081E090E085DA30
:1046B00021E030E048EE53E069E170E083E090E013
:1046C00048DEC0E0D0E08DE040D3873991056CF53D
:1046D0008091420290914302DC0152962C91222358
:1046E00031F064E679E081E090E067DA17D40E9467
:1046F0004D1381110EC0219668EE73E080E090E0CA
:104700006AD4C330D105F9F666E279E082E090E040
:10471000C0CF8091420290914302DC01ED91FC9167
:104720000084F185E02D0995CCCFDF91CF911F91C9
:104730000F91FF90EF90DF90CF90BF900895E4E449
:10474000F2E088E0DF011D928A95E9F788EE93E0B8
:10475000A0E0B0E083839483A583B6838AE292E0ED
:104760009183808308955091800240917F02852F2C
:1047700090E0242F30E0541710F4805C9F4F821B90
:10478000930B08955091800240917F02252F30E0D5
:10479000842F90E0821B930B541710F08796089596
:1047A0000197089580918002E0917F028E1751F069
:1047B000EF5FE03408F0E0E0F0E0EF57FD4F80817C
:1047C00090E008958FEF9FEF08959091800280917F
:1047D0007F02981779F090917F029F5F903408F0E4
:1047E00090E0E92FF0E0EF57FD4F808190937F023A
:1047F00090E008958FEF9FEF08958091540281110A
:10480000FCCF08952091C90023FD06C021E0FC01E2
:10481000228380E090E0089580913C018F3F21F059
:1048200080915402882399F090915602809155020C
:10483000981312C08091C80085FF0EC08FB7F894FE
:104840006093CE0091E0909354028FBF1DC0E09121
:104850003C01F0E0CAD2E8CF809156028F5F8832E7
:10486000B0F4909155029817E1F3E82FF0E0E95A7F
:10487000FD4F608391E090935402809356028091A3
:10488000C90080628093C90081E090E0089580E0D3
:10489000E8CF1F93CF93DF93EB01142F40933C019C
:1048A0004F3F29F0842F90D2E12FF0E0A4D2C0FF37
:1048B00008C0C13080E1D80720F482E08093C800AE
:1048C00004C01092C800D695C7952197D093CD000B
:1048D000C093CC008091C90083FD10C0109280026B
:1048E00010927F02109256021092550210925402BA
:1048F00086E08093CA0088ED8093C900DF91CF9154
:104900001F9108951F920F920FB60F9211242F93AB
:104910008F939F93EF93FF939091CE0080918002AD
:104920008F5F803408F080E020917F02821739F099
:10493000E82FF0E0EF57FD4F908380938002FF91C6
:10494000EF919F918F912F910F900FBE0F901F901D
:1049500018951F920F920FB60F9211248F939F9369
:10496000EF93FF939091560280915502981306C0E1
:104970008091C9008F7D8093C9000FC0809155023E
:104980008F5F883208F080E0E82FF0E0E95AFD4FB1
:1049900090819093CE0080935502FF91EF919F916B
:1049A0008F910F900FBE0F901F9018951F920F922E
:1049B0000FB60F9211248F93EF93FF93109254022E
:1049C00080913C018F3F21F0E0913C01F0E013D257
:1049D000FF91EF918F910F900FBE0F901F90189540
:1049E000ECE4F2E0128288EE93E0A0E0B0E0838392
:1049F0009483A583B68317828AE292E091838083B1
:104A00000895CF92DF92EF92FF920F931F93CF936F
:104A1000DF936C01EB017B01E40EF51E00E010E07A
:104A2000CE15DF0561F06991D601ED91FC91019001
:104A3000F081E02DC6010995080F191FF1CFC801BB
:104A4000DF91CF911F910F91FF90EF90DF90CF906A
:104A500008954BD1B6DC0FDDFECF0F931F93CF939C
:104A6000DF938230910510F482E090E0E091CC0277
:104A7000F091CD0220E030E060E070E0A0E0B0E036
:104A8000C0E0D0E0309701F1408151810281138173
:104A900048175907B0F08417950751F4209719F07B
:104AA0000A831B8329C00093CC021093CD0224C03B
:104AB0002115310519F04217530718F49A01BE0168
:104AC000DF01EF01F801DECF2115310509F1281BC7
:104AD000390B2430310590F412968D919C911397E7
:104AE0006115710521F0FB019383828304C09093CB
:104AF000CD028093CC02FD01329644C0FD01E20F4D
:104B0000F31F81939193225031092D933C933AC026
:104B10002091C1023091C202232B41F420913F0128
:104B2000309140013093C2022093C10220913D0197
:104B300030913E012115310541F42DB73EB740912A
:104B4000410150914201241B350BE091C102F091CB
:104B5000C202E217F307A0F42E1B3F0B28173907F8
:104B600078F0AC014E5F5F4F2417350748F04E0FC9
:104B70005F1F5093C2024093C1028193919302C080
:104B8000E0E0F0E0CF01DF91CF911F910F91089508
:104B9000CF93DF93009709F481C0FC013297138211
:104BA0001282A091CC02B091CD02109781F42081A5
:104BB0003181820F931F2091C1023091C2022817C8
:104BC000390751F5F093C202E093C10267C0ED01CD
:104BD00020E030E0CE17DF0740F44A815B819E0180
:104BE00041155105F1F0EA01F5CFD383C28340812D
:104BF0005181840F951FC817D90759F4888199816D
:104C0000840F951F0296918380838A819B81938371
:104C100082832115310529F4F093CD02E093CC0273
:104C20003DC0E901FB83EA8349915991C40FD51F27
:104C3000EC17FD0761F480819181840F951F029626
:104C4000E90199838883828193819B838A83E0E051
:104C5000F0E012968D919C911397009719F0FD0149
:104C6000DC01F7CF8D919C9111979D012E5F3F4FF5
:104C7000820F931F2091C1023091C2022817390779
:104C800069F4309729F41092CD021092CC0202C040
:104C900013821282B093C202A093C102DF91CF911E
:104CA0000895DBCE75CF08951DBA109268001CBC24
:104CB00010BE1FBA10927A0010926E0010926F0010
:104CC00010927100109272001092C900ECEBF0E0AB
:104CD000108214B817B81AB81DB810BA108215B8D7
:104CE00018B81BB81EB811BA0895F894E1E6F0E0C0
:104CF00020E82083108283E084BD85BDEEE6F0E0ED
:104D000080818160808381E08093800092E0909335
:104D1000810080939000909391009093C00094E064
:104D20009093C1008093C2008093C3001092C4008E
:104D300086E880937A0020937B0010927E00109288
:104D40007D000E94291E789408958731D0F5E82FC0
:104D5000F0E0E550F44FE491E83070F420917E00EB
:104D600081E090E00E2E01C0880F0A94EAF7822BB2
:104D700080937E0080E80EC0E85020917D0081E0A5
:104D800090E00E2E01C0880F0A94EAF7822B8093E0
:104D90007D0080EA80937B0080914301E82BE093C3
:104DA0007C0080917A00806480937A0080917A0000
:104DB00086FDFCCF809178002091790090E0922BC5
:104DC000089580E090E00895893170F4E9ECFBE00B
:104DD000880FE80FF11D2591E491F0E09FB7F8945A
:104DE0008181822B81839FBF0895E93150F4EE0FBA
:104DF000EE5FF84D0994E93120F4EE0FEC5CF84DCC
:104E000009940895289A0895299A08952A9A089548
:104E10002B9A08952F9A6AC0589A58C0599A0895A3
:104E20005A9A08955B9A0895469A66C0479A6AC04E
:104E30005E9A08955F9A6CC02C9A08952D9A4AC084
:104E40002E9A4EC08F9A08958E9A08958D9A08953D
:104E50008C9A0895899A0895889A08955C9A08957D
:104E60005D9A0895769A0895289808952998089546
:104E70002A9808952B9808952F9838C0589826C0DE
:104E8000599808955A9808955B980895469834C0A3
:104E9000479838C05E9808955F983AC02C98089556
:104EA0002D9818C02E981CC08F9808958E9808953C
:104EB0008D9808958C9808958998089588980895F4
:104EC0005C9808955D98089576980895E4B5EF7D0F
:104ED000E4BD0895E0918000EF77E09380000895AD
:104EE000E0918000EF7DE09380000895E0918000E4
:104EF000E77FE09380000895E0919000EF77E093E2
:104F000090000895E091C000EF77E093C00008950D
:104F1000E091C200E77FE093C2000895F89484B75F
:104F2000877F84BF809160008061809360001092D1
:104F3000600080E29EE40197F1F781E08093E00059
:104F400080E28093D80080E69AEE0197F1F7ACDE1C
:104F50000C94003FFFCF8F938FB78F938091C30244
:104F60008D5F8D37D0F48093C3028091C4028F5F30
:104F70008093C402D8F08091C5028F4F8093C50200
:104F8000A8F08091C6028F4F8093C60278F080917E
:104F9000C7028F4F8093C70209C08D578093C30209
:104FA0008091C4028E5F8093C40228F78091C8026A
:104FB0008C5F8093C80258F08091C9028F4F809314
:104FC000C90228F08091CA028F4F8093CA028F9144
:104FD0008FBF8F911895CF92DF92EF92FF926B0166
:104FE0007C0119D09B01C114D104E104F10471F0DA
:104FF00012D0621B730B683E7340A8F381E0C81A9D
:10500000D108E108F10828513C4FEDCFFF90EF9017
:10501000DF90CF9008950FB6F89466B515B27091F1
:10502000C8028091C9029091CA020FBE10FE05C04D
:105030006F3F19F07C5F8F4F9F4F11240024660F44
:10504000001C660F001C7029089597FB072E16F4AC
:10505000009406D077FD08D011D007FC05D03EF4AF
:10506000909581959F4F0895709561957F4F089514
:10507000EE0FFF1F0590F491E02D0994AA1BBB1BB6
:1050800051E107C0AA1FBB1FA617B70710F0A61B48
:10509000B70B881F991F5A95A9F780959095BC0169
:1050A000CD010895FB01DC0104C08D9101908019B0
:1050B00021F441505040C8F7881B990B0895FB011B
:1050C000DC0101900D920020E1F70895AEE0B0E020
:1050D000EBE6F8E2FBC20D891E8986E08C831A8319
:1050E00009838FEF9FE79E838D83AE01475E5F4FFD
:1050F0006F89788DCE01019659D0EF81F885E00F48
:10510000F11F10822E96E4E0FDC2AEE0B0E0EAE8C6
:10511000F8E2DCC20D891E898EE08C831A83098334
:105120008FEF9FE79E838D83AE01475E5F4F6F8950
:10513000788DCE0101963AD0EF81F885E00FF11F0E
:1051400010822E96E4E0DEC2AEE0B0E0E9EAF8E2DA
:10515000BDC28C0186E08C831A8309838FEF9FE7A1
:105160009E838D83CE01019621D0EF81F885E00FDB
:10517000F11F10822E96E4E0C5C2AEE0B0E0E2EC92
:10518000F8E2A4C28C018EE08C831A8309838FEF2E
:105190009FE79E838D83CE01019608D0EF81F8852D
:1051A000E00FF11F10822E96E4E0ACC2ABE0B0E05D
:1051B000EBEDF8E27DC26C017B018A01FC011782F4
:1051C0001682838181FFBFC1CE0101963C01F601A9
:1051D0009381F70193FD859193FF81917F0188234E
:1051E00009F4ADC1853239F493FD859193FF819126
:1051F0007F01853221F4B60190E0C0D1E8CF912C37
:10520000212C312CFFE1F315D8F08B3279F038F4F2
:10521000803279F08332A1F4232D20611DC08D32BC
:1052200061F0803369F4232D216016C0832D8260E4
:10523000382EE32DE4603E2E2AC0F32DF8601DC009
:1052400037FC2DC020ED280F2A3040F08E32B9F403
:1052500036FC75C1232D2064322E19C036FE06C0DF
:105260008AE0989E200D1124922E11C0EAE02E9E15
:10527000200D1124222EF32DF0623F2E08C08C3613
:1052800021F4832D8068382E02C0883641F4F7015E
:1052900093FD859193FF81917F018111B3CF982F69
:1052A0009F7D9554933028F40C5F1F4F9FE39983A3
:1052B0000DC0833631F0833771F0833509F055C066
:1052C00020C0F801808189830E5F1F4F882483945A
:1052D000912C530112C02801F2E04F0E511CF8012D
:1052E000A080B18036FE03C0692D70E002C06FEF70
:1052F0007FEFC50138D14C018201F32DFF773F2E9E
:1053000015C0280122E0420E511CF801A080B18096
:1053100036FE03C0692D70E002C06FEF7FEFC5015C
:1053200017D14C01F32DF0683F2E820133FC19C0D8
:10533000822D90E088169906A0F4B60180E290E0F4
:105340001DD12A94F5CFF50137FC859137FE819167
:105350005F01B60190E012D121102A9421E0821A57
:1053600091088114910479F7E1C0843611F08936EF
:1053700039F5F80137FE07C0608171818281938120
:105380000C5F1F4F08C060817181072E000C880BD5
:10539000990B0E5F1F4FF32DFF763F2E97FF09C02D
:1053A00090958095709561957F4F8F4F9F4FF068D6
:1053B0003F2E2AE030E0A3011DD1882E861844C07C
:1053C000853731F4232D2F7EB22E2AE030E025C020
:1053D000932D997FB92E8F36C1F018F4883579F066
:1053E000AEC0803719F0883721F0A9C0E92FE061FD
:1053F000BE2EB4FE0DC0FB2DF460BF2E09C034FEDE
:105400000AC0292F2660B22E06C028E030E005C071
:1054100020E130E002C020E132E0F801B7FE07C031
:1054200060817181828193810C5F1F4F06C0608112
:10543000718180E090E00E5F1F4FA301DBD0882ECA
:105440008618FB2DFF773F2E36FE0DC0232D2E7FB5
:10545000A22E891458F434FE0BC032FC09C0832DEF
:105460008E7EA82E05C0B82CA32C03C0B82C01C07A
:10547000B92CA4FE0FC0FE01E80DF11D8081803320
:1054800021F49A2D997EA92E09C0A2FE06C0B394DC
:10549000B39404C08A2D867809F0B394A3FC10C09D
:1054A000A0FE06C0B21480F4280C922C9B180DC0EC
:1054B000B21458F4B60180E290E060D0B394F8CF13
:1054C000B21418F42B1802C0982C212CA4FE0FC083
:1054D000B60180E390E052D0A2FE16C0A1FC03C04A
:1054E00088E790E002C088E590E0B6010CC08A2D04
:1054F000867851F0A1FE02C08BE201C080E2A7FCD9
:105500008DE2B60190E03AD0891430F4B60180E320
:1055100090E034D09A94F8CF8A94F301E80DF11D0D
:105520008081B60190E02AD08110F6CF222009F4C4
:105530004ECEB60180E290E021D02A94F7CFF6015A
:105540008681978102C08FEF9FEF2B96E2E1CCC05E
:10555000FC010590615070400110D8F7809590953E
:105560008E0F9F1F0895FC01615070400190011043
:10557000D8F7809590958E0F9F1F08950F931F93D6
:10558000CF93DF93FB01238121FD03C08FEF9FEFBA
:105590002CC022FF16C046815781248135814217D5
:1055A000530744F4A081B1819D012F5F3F4F3183A8
:1055B00020838C93268137812F5F3F4F378326834B
:1055C00014C08B01EC01FB010084F185E02D0995ED
:1055D000892BE1F6D80116968D919C91179701962B
:1055E00017969C938E931697CE01DF91CF911F91C2
:1055F0000F910895FA01AA27283051F1203181F145
:10560000E8946F936E7F6E5F7F4F8F4F9F4FAF4FCA
:10561000B1E03ED0B4E03CD0670F781F891F9A1FDD
:10562000A11D680F791F8A1F911DA11D6A0F711D91
:10563000811D911DA11D20D009F468943F912AE09D
:10564000269F11243019305D3193DEF6CF01089585
:10565000462F4770405D4193B3E00FD0C9F7F6CFB6
:10566000462F4F70405D4A3318F0495D31FD40527E
:10567000419302D0A9F7EACFB4E0A6959795879514
:1056800077956795BA95C9F70097610571050895F3
:105690009B01AC010A2E069457954795379527959F
:1056A000BA95C9F7620F731F841F951FA01D089537
:1056B0002F923F924F925F926F927F928F929F9222
:1056C000AF92BF92CF92DF92EF92FF920F931F9310
:1056D000CF93DF93CDB7DEB7CA1BDB0B0FB6F894C1
:1056E000DEBF0FBECDBF09942A88398848885F8401
:1056F0006E847D848C849B84AA84B984C884DF8072
:10570000EE80FD800C811B81AA81B981CE0FD11D55
:105710000FB6F894DEBF0FBECDBFED010895F8942B
:02572000FFCFB9
:105722008200000022F00A008100000029F0F4014A
:10573200808000003BF0F4018800000028F0F401B2
:10574200840000002BF0F4019000000013F0F4013B
:105752000000820023F00A003E023A02FF0000E845
:105762000280004002000100040001000600010066
:105772002025303258006265666F72652062756955
:105782006C64526177526571756573745061636BB5
:1057920065742C20696478436F6D6D616E643A257F
:1057A200642C2073697A656F662862756C6B436F2F
:1057B2006D6D616E6473293A25642C207374726C6A
:1057C200656E2862756C6B436F6D6D616E647329D3
:1057D2003A25640A0046656174757265733A0A0077
:1057E2000A0A0025642E25640000000000FF16BD91
:1057F20019DA16DA16E71A00000000532653265368
:10580200265326532600000000FF16BD19DA16DAC9
:1058120016E71A4275696C64696E67205061636BA2
:1058220065743A002045300053656E64696E6720E6
:105832005061636B65743A000A5061636B65742052
:1058420073656E740A000000000002240125C22361
:08585200FD23B323E523D2235B
:00000001FF
