:10000000D2C10000F8C10000F6C10000F4C1000038
:10001000F2C10000F0C10000EEC10000ECC1000020
:10002000EAC10000E8C100000C9453110C94741153
:10003000E2C10000E0C10000DEC10000DCC1000040
:10004000DAC10000D8C10000D6C10000D4C1000050
:10005000D2C10000D0C10000CEC100000C94131921
:10006000CAC100000C94EB150C9412160C943F16A8
:10007000C2C10000C0C10000BEC10000BCC1000080
:10008000BAC10000B8C10000B6C10000B4C1000090
:10009000B2C10000B0C10000AEC10000ACC10000A0
:1000A000AAC10000A8C10000A6C10000EA077904A7
:1000B000B704D6041D054505A2050806A907A9072A
:1000C000A907A907A907A907A907A9076B068D060C
:1000D000B206FE0623078207000100007F0212001D
:1000E000020000D6015400210000E80109002200AE
:1000F000002A025500210100010209002201002A04
:10010000025500030000D2010401030904C00110DC
:1001100002030904A0011E030309047E0120040355
:1001200009045A0122050309042C012C2C034A005E
:1001300056005300320058002000440045004200A1
:1001400055004700200049006E00740065007200F1
:100150006600610063006500000022034A0056004B
:1001600053003200580020004B0065007900620007
:100170006F006100720064002E002E00000020035A
:100180004A00560053003200580020004B00650022
:10019000790062006F006100720064002E000000B0
:1001A0001E034A00560053003200580020004B0046
:1001B0006500790062006F00610072006400000059
:1001C0001003470065006E0065007200690063005F
:1001D00000000403090409025400020100803209EE
:1001E000040000010301010309211101130122553B
:1001F0000007058103080001090401000103010152
:10020000040921110113012255000705820308008A
:1002100001000000000000000000000000000000DD
:100220000000000000000000000005010906A10117
:1002300075019508050719E029E7150025018102D8
:100240009508750115002501050C09E909EA09E27F
:1002500009CD09B509B609B709B881029505750137
:100260000508190129059102950175039103950669
:1002700075081500257F05071900297F8100C01228
:1002800001100100000040C01687040001010200B7
:100290000101C10601C1062C0000600000007100D0
:1002A00000000000000000740000000000000000DA
:1002B000000000000000000000000000000000003E
:1002C000000000000000000000000000000000002E
:1002D0000000000000000034000000000000732F48
:1002E0006F00002E0000000000330000000000003E
:1002F000310000000000002C5E5FB46162632D6578
:1003000066703036383764271E1F202122232425AB
:100310002677763F677F6DB34445464748494A4B49
:100320004C4D4E4F505152535455565758595A5B95
:100330005C5DAF35B06E78000405060708090A0B4E
:100340000C0D0E0F101112131415161718191A1B75
:100350001C1DEF75F0002A012302230423082380CB
:1003600023012902290429082940268026402980C2
:1003700029102320234023802F402F202F102F02CD
:100380002F012F10292029402C0001040506070DFC
:100390000C0B0A09080A0B0C0D07060504010008DE
:1003A000DF130815591611241FBECFEFDAE0DEBFA8
:1003B000CDBF11E0A0E0B1E0E0E5F9E302C00590B7
:1003C0000D92AA38B107D9F722E0AAE8B1E001C03E
:1003D0001D92A632B207E1F711E0C3EDD1E004C0EF
:1003E0002197FE010E94A019C03DD107C9F70E94C4
:1003F00092160C94A61C04CEFC01329626E6DF0170
:100400001D922A95E9F7EA59FF4F25E0DF01322FC7
:100410001D923A95E9F73596DF01322F1D923A95F4
:10042000E9F73596DF011D922A95E9F73596118295
:100430001082EA5BFF4F1182108232961182108285
:10044000329620E4DF011D922A95E9F7FC017183C1
:1004500060830895CF93DF93EC010E94CC0F82E577
:1004600091E099838883FE01E15BFF4F80E491E096
:10047000DF019C011D9221503040E1F7E05CFE4F0E
:100480001082C057DE4F8EE3DE011D928A95E9F798
:100490005198599A5098589A27982F9ADF91CF914E
:1004A0000895CF92DF92EF92FF920F931F93CF9315
:1004B000DF9300D0CDB7DEB78C0160ED77E080E050
:1004C00090E00E94531980EF898389ED8A83780137
:1004D00082E0E80EF11C22E030E0AE014F5F5F4F9A
:1004E0006FEFC7010E94831068EE73E080E090E038
:1004F0000E94531922E030E0AE014F5F5F4F6FEF73
:10050000C7010E94831068EE73E080E090E00E94D3
:1005100053197801E0E7EE1AEEEFFE0A6801F2E304
:10052000CF1AFEEFDF0AF701819191917F010097C9
:1005300011F00E94BB17EC14FD04A9F7F801E15774
:10054000FE4F1082F80112820F900F90DF91CF9131
:100550001F910F91FF90EF90DF90CF900895089535
:1005600008954F925F927F928F929F92AF92BF9227
:10057000CF92DF92EF92FF920F931F93CF93DF936F
:10058000CDB7DEB764970FB6F894DEBF0FBECDBF10
:10059000FC01E157FE4F208130E0621773070CF039
:1005A000FAC0FB01E853FF4FEE0FFF1FE80FF91FE2
:1005B000E080F180D701A958BF4F2C9120FF1EC0C9
:1005C00020E22983F701E758FF4F20812A8322E0A8
:1005D0002B8328E2269FF001279FF00D1124E15B79
:1005E000FF4FE80FF91F1182108221E030E03383C2
:1005F000228323E030E041E050E004C020E030E01E
:1006000040E050E0EC91E1FF38C0E1E0F0E0EC0FB9
:10061000FD1FE20FF31F11E21083F9013196CC2484
:10062000C394D12CCC0EDD1ECE0EDF1E2E5F3F4FAD
:10063000870103581F4FF8011081F6011083809045
:100640003C0190903D01A0903E01B0903F011AE026
:10065000169FF001179FF00D1124E40FF51FEE0F08
:10066000FF1FEE0FFF1FE80FF91FE15BFF4F8082B6
:100670009182A282B3824F5F5F4FEC91E2FF38C05C
:10068000E1E0F0E0EC0FFD1FE20FF31F12E2108338
:10069000F9013196CC24C394D12CCC0EDD1ECE0EA4
:1006A000DF1E2E5F3F4F870101581F4FF801108159
:1006B000F60110838090400190904101A09042018A
:1006C000B09043011AE0169FF001179FF00D11241E
:1006D000E40FF51FEE0FFF1FEE0FFF1FE80FF91FCE
:1006E000E15BFF4F80829182A282B3824F5F5F4FB6
:1006F000EC91E5FF40C0A1E0B0E0AC0FBD1FA20F40
:10070000B31FEAE0E69F6001E79FD00C1124C40EFE
:10071000D51ECC0CDD1CCC0CDD1C60E070E040E094
:1007200050E0870101571F4FE5E27E2E8090440183
:1007300090904501A0904601B09047016C5F7F4FBB
:10074000F8014080518044155505ACF47C922E5F31
:100750003F4F11964C931197FB01EC0DFD1DE55B8E
:10076000FF4FE80FF91F80829182A282B3824F5F10
:100770005F4F1296E3CF870109551F4FAE014F5FC0
:100780005F4FF701608102960E941010F701E55457
:10079000FF4F9183808364960FB6F894DEBF0FBE3F
:1007A000CDBFDF91CF911F910F91FF90EF90DF9020
:1007B000CF90BF90AF909F908F907F905F904F9021
:1007C000089508952F923F924F925F926F927F9279
:1007D0008F929F92BF92CF92DF92EF92FF920F93F0
:1007E0001F93CF93DF93CDB7DEB762970FB6F89420
:1007F000DEBF0FBECDBF9A8B898B6B018C010E5F64
:100800001F4FC8010E940010A989BA8951968C9384
:100810005197803D59F412968C91811107C0C801FF
:100820000E9400108F5FE989FA89818BA989BA89B2
:1008300051966C915197CD010E944B0CB82E882394
:1008400009F4DFC37601B7E7EB0EF11CF601EB55B7
:10085000FF4FFA83E983C60181569F4F9C838B83A8
:10086000D601AF55BF4FBE83AD833297F887EF8374
:1008700002979A8789871697BC87AB873A97FE8736
:10088000ED871601F7E92F0E311C260181E9480E8C
:10089000511C360193E9690E711C1697B88BAF870E
:1008A0004601BBE88B0E911CC8010E940010E9892B
:1008B000FA89818B803D59F48281811108C0C80179
:1008C0000E9400108F5FA989BA8951968C93A989DB
:1008D000BA895196EC918E2FEE0F990BAA0BBB0B98
:1008E0008631910508F035C3FC01EA5AFF4F0C949C
:1008F000A019F70180819181816091838083C80173
:100900000E940010A989BA8951968C935197803D15
:1009100059F412968C91811107C0C8010E940010F1
:100920008F5FE989FA89818BF601E758FF4FA98922
:10093000BA8951968C91082E000C990B9183808373
:10094000C8010E940010E989FA89818B803D59F421
:100950008281811108C0C8010E9400108F5FA9899F
:10096000BA8951968C93F601E558FF4F5CC0F701A8
:1009700080819181826091838083C8010E940010F0
:10098000A989BA8951968C935197803D59F4129652
:100990008C91811107C0C8010E9400108F5FE98906
:1009A000FA89818BF601E358FF4F65C0F70180811A
:1009B0009181846091838083C8010E940010A9897D
:1009C000BA8951968C935197803D59F412968C9127
:1009D000811107C0C8010E9400108F5FE989FA8960
:1009E000818BF601E158FF4FA989BA8951968C9104
:1009F000082E000C990B91838083C8010E9400107F
:100A0000E989FA89818B803D59F48281811108C07E
:100A1000C8010E9400108F5FA989BA8951968C93F2
:100A2000F601EF57FF4FA989BA8951968C91082E8C
:100A3000000C990B91838083CCC1F7018081918157
:100A4000886091838083C8010E940010A989BA89B7
:100A500051968C935197803D59F412968C91811147
:100A600007C0C8010E9400108F5FE989FA89818B55
:100A7000F601ED57FF4FA989BA8951968C91082E3E
:100A8000000C990B9183808391C1F7018081918142
:100A9000806191838083C8010E940010A989BA896E
:100AA00051968C935197803D59F412968C918111F7
:100AB00007C0C8010E9400108F5FE989FA89818B05
:100AC000F601EB57FF4FA989BA8951968C91082EF0
:100AD000000C990B91838083C8010E940010E98962
:100AE000FA89818B803D59F48281811108C0C80147
:100AF0000E9400108F5FA989BA8951968C93F601E4
:100B0000E957FF4FA989BA8951968C91082E000C9C
:100B1000990B91838083C8010E940010E989FA89AA
:100B2000818B803D59F48281811108C0C8010E94E7
:100B300000108F5FA989BA8951968C93F601E75707
:100B4000FF4F5CC0F7018081918180629183808337
:100B5000C8010E940010A989BA8951968C935197B7
:100B6000803D59F412968C91811107C0C8010E94F2
:100B700000108F5FE989FA89818BA989BA8951961A
:100B80008C91082E000C990BF40191838083C8018D
:100B90000E940010A989BA8951968C935197803D83
:100BA00059F412968C91811107C0C8010E9400105F
:100BB0008F5FE989FA89818BF601E357FF4FA98995
:100BC000BA8951968C91082E000C990B91838083E1
:100BD000C8010E940010E989FA89818B803D59F48F
:100BE0008281811108C0C8010E9400108F5FA9890D
:100BF000BA8951968C93F601E157FF4FA989BA89BA
:100C000051968C91082E000C990B918380834CCEC9
:100C1000F70180819181806491838083C8010E9463
:100C20000010A989BA8951968C935197803D59F447
:100C300012968C91811107C0C8010E9400108F5F2D
:100C4000E989FA89818BA989BA8951968C91082EF4
:100C5000000C990BF20191838083C8010E9400105F
:100C6000A989BA8951968C935197803D59F412966F
:100C70008C91811107C0C8010E9400108F5FE98923
:100C8000FA89818BA989BA8951968C91082E000C1A
:100C9000990BF30191838083C8010E940010A989F8
:100CA000BA8951968C935197803D59F412968C9144
:100CB000811107C0C8010E9400108F5FE989FA897D
:100CC000818BA989BA8951968C91082E000C990BB9
:100CD000EF85F8899ACFD7018D919C911197806803
:100CE0008D939C93C8010E940010E989FA89818B39
:100CF000803D59F48281811108C0C8010E94001012
:100D00008F5FA989BA8951968C93E989FA8981897B
:100D1000082E000C990BD10147C0F7018081918109
:100D2000916091838083C8010E940010A989BA89CB
:100D300051968C935197803D59F412968C91811164
:100D400007C0C8010E9400108F5FE989FA89818B72
:100D5000A989BA8951968C91082E000C990BED85C2
:100D6000FE85F4C0D7018D919C91119792608D936F
:100D70009C93C8010E940010E989FA89818B803D0B
:100D800059F48281811108C0C8010E9400108F5F50
:100D9000A989BA8951968C93E989FA898189082EA3
:100DA000000C990BAB85BC858D939C93C8010E9468
:100DB0000010E989FA89818B803D59F48281811183
:100DC00008C0C8010E9400108F5FA989BA89519696
:100DD0008C93C8010E940010E989FA89818B803DBB
:100DE00009F062CD828181115FCDC8010E9400109F
:100DF0008F5FA989BA8951968C9356CDF70180816E
:100E00009181946091838083C8010E940010A98918
:100E1000BA8951968C935197803D59F412968C91D2
:100E2000811107C0C8010E9400108F5FE989FA890B
:100E3000818BA989BA8951968C91082E000C990B47
:100E4000E985FA8583C0D7018D919C9111979860AF
:100E50008D939C93C8010E940010E989FA89818BC7
:100E6000803D59F48281811108C0C8010E940010A0
:100E70008F5FA989BA8951968C93E989FA8981890A
:100E8000082E000C990BAB81BC818D939C93C801FB
:100E90000E940010E989FA89818B803D59F4828192
:100EA000811108C0C8010E9400108F5FA989BA890A
:100EB00051968C93E989FA898189082E000C990B47
:100EC000AD81BE818D939C93C8010E940010E98979
:100ED000FA89818B803D59F48281811108C0C80153
:100EE0000E9400108F5FA989BA8951968C93E98975
:100EF000FA898189082E000C990BAF81B8858D93F2
:100F00009C93D2CCF7018081918190619183808301
:100F1000C8010E940010A989BA8951968C935197F3
:100F2000803D59F412968C91811107C0C8010E942E
:100F300000108F5FE989FA89818BA989BA89519656
:100F40008C91082E000C990BE981FA8191838083A2
:100F500015C0C8010E940010A989BA8951968C93C6
:100F60005197803D59F412968C91811107C0C801A8
:100F70000E9400108F5FE989FA89818BC8010E9465
:100F80000010A989BA8951968C935197803D59F4E4
:100F900012968C91811107C0C8010E9400108F5FCA
:100FA000E989FA89818BC8010E940010A989BA8950
:100FB00051968C935197803D09F076CC12968C9186
:100FC000811172CCC8010E9400108F5FE989FA89F3
:100FD000818B6ACCC8010E940010A989BA895196F8
:100FE0008C935197803D69F412968C91811108C0C1
:100FF000C8010E9400108F5FE989FA89818B01C0C6
:10100000B82E8B2D62960FB6F894DEBF0FBECDBF03
:10101000DF91CF911F910F91FF90EF90DF90CF90D4
:10102000BF909F908F907F906F905F904F903F9078
:101030002F900895EF92FF920F931F93CF93DF931A
:10104000EC010FB6F89480911C0290911D02A091C2
:101050001E02B0911F020FBE8D879E87AF87B88B8F
:1010600011E08B819C81DC01ED91FC910084F18584
:10107000E02D0995892B19F48A81882389F011E0E4
:101080008A81811142C08B819C81DC01ED91FC91B0
:101090000284F385E02D0995803E9105D9F435C091
:1010A0000FB6F89480911C0290911D02A0911E022F
:1010B000B0911F020FBE4D855E856F857889841BB8
:1010C000950BA60BB70B88379105A105B10548F222
:1010D0001A83C7CF0FB6F89480911C0290911D021D
:1010E000A0911E02B0911F020FBE4D855E856F85D7
:1010F0007889841B950BA60BB70B88379105A10542
:10110000B10508F4BDCF1A83BBCF8A81811130C0ED
:101110000FB6F89480911C0290911D02A0911E02BE
:10112000B0911F020FBE8D879E87AF87B88B11E0ED
:101130008B819C81DC01ED91FC910084F185E02D97
:101140000995892B19F48A818823A9F011E08A81F5
:1011500081110BC08B819C81DC01ED91FC9102849B
:10116000F385E02D0995892B01F58A818823C1F14A
:1011700080E090E046C00FB6F89480911C029091F8
:101180001D02A0911E02B0911F020FBE4D855E850B
:101190006F857889841B950BA60BB70B8837910553
:1011A000A105B10528F21A83C3CF0FB6F894809138
:1011B0001C0290911D02A0911E02B0911F020FBE51
:1011C0004D855E856F857889841B950BA60BB70BC3
:1011D00088379105A105B10508F4B9CF1A83B7CFB7
:1011E0007E01B2E0EB0EF11CC7010AD78C01C701EA
:1011F00007D7682FCE014FD3882309F4B9CFC80190
:101200000197DF91CF911F910F91FF90EF9008957B
:101210004F925F926F927F928F929F92AF92BF9206
:10122000CF92DF92EF92FF920F931F93CF93DF93B2
:1012300000D0CDB7DEB78C01FB01E853FF4FEE0FB6
:10124000FF1FE00FF11F6080718082E2898323011C
:101250008FE7480E511CF20180818A839EE1C92EDE
:10126000D12C5801F2E0AF0EB11C62E370E080E0D7
:1012700090E00E94531922E030E0AE014F5F5F4FD3
:10128000F3016081C5013FD7C801D4DE892BC9F1C4
:101290007301F1ECEF0EF11C812C912CF201808195
:1012A0009181881699066CF5C501AAD6F801818B43
:1012B000803D41F48281811105C0C501A1D68F5FB7
:1012C000F801818BF8018189082E000C990BF70138
:1012D000208131818217930724F4029791838083C0
:1012E00009C0F70122813381281739071CF40296BF
:1012F00093838283FFEF8F1A9F0A84E0E80EF11C2C
:10130000CDCFE1E0CE1AD10809F0AFCF0F900F900A
:10131000DF91CF911F910F91FF90EF90DF90CF90D1
:10132000BF90AF909F908F907F906F905F904F9005
:1013300008955F926F927F928F929F92AF92BF9229
:10134000CF92DF92EF92FF920F931F93CF93DF9391
:10135000EC017C0180E7E81A8EEFF80A5E01AFE449
:10136000AA0EB11CC12CD12C552453943E01B1E7D7
:101370006B1ABEEF7B0A4E01E2E08E0E911CD30188
:101380008C9190E0C816D9060CF05CC0552009F489
:1013900059C0F70160817181FB01E554FF4F408125
:1013A000518169557F4FC4017DD6582ECE0142DE52
:1013B000892B09F43DC08501D801ED91FC9111976D
:1013C000309739F412968D919C91139780FD22C02D
:1013D00023C0552009F1D80112968D919C91139745
:1013E00080FF0CC0DC01B595A795AC0FBD1F2D91FA
:1013F0003C91E20FF31F0190F081E02DD7016D9138
:101400007C91959587958C0F9D1F0995582E0C5FA3
:101410001F4FD2CF5110E6CFC401F2D5898B803D4A
:1014200039F48A81811104C0C401EAD58F5F898BA8
:10143000BFEFCB1ADB0AE2E0EE0EF11CF8E2AF0ED2
:10144000B11C9DCF852DDF91CF911F910F91FF9002
:10145000EF90DF90CF90BF90AF909F908F907F9054
:101460006F905F900895EF92FF920F931F93CF9329
:10147000DF931F92CDB7DEB77C0184E189838B01B6
:10148000000F111F0E0D1F1D00571E4FD801ED91AB
:10149000FC9121E030E0AE014F5F5F4F6081C701FA
:1014A000029631D6C701C6DD892B31F0F801608183
:1014B0007181C70187D901C080E00F90DF91CF9182
:1014C0001F910F91FF90EF900895AF92BF92CF922E
:1014D000DF92EF92FF920F931F93CF93DF937C01E4
:1014E0005C0182E0A80EB11CC5010DD6C701A2DDCA
:1014F000EC01892B09F16801C601801B910B8C1747
:101500009D07A4F4C5017CD5F701818B803D41F492
:101510008281811105C0C50173D58F5FF701818B71
:10152000F7018189F60181936F01E6CFC00FD11FCA
:101530002197188281E001C080E0DF91CF911F9157
:101540000F91FF90EF90DF90CF90BF90AF900895F4
:10155000AF92BF92CF92DF92EF92FF920F931F93C1
:10156000CF93DF93CDB7DEB7C656D1090FB6F89447
:10157000DEBF0FBECDBF6C015C0181E7A81A8EEF04
:10158000B80AF50190819F3109F441C081EFA69618
:101590008FAFA6979F5FA7969FAFA797E12CF12CDF
:1015A0008E010F5F1F4F22E030E0AE014B595F4FBD
:1015B0006FEFC6018ADF8823D9F081E091E00E94B5
:1015C000BA178C01F501608170E06F5F7F4F0E9458
:1015D000FC01F50180819601280F311D280F311D76
:1015E000F901E057FE4F118300838F5FF50180837F
:1015F00068EE73E080E090E00E9453198DE00E9455
:101600000D18C39724F0F6018281882311F080E041
:1016100001C081E0CA59DF4F0FB6F894DEBF0FBE9C
:10162000CDBFDF91CF911F910F91FF90EF90DF9091
:10163000CF90BF90AF9008958F929F92AF92BF923C
:10164000CF92DF92EF92FF920F931F93CF93DF938E
:10165000CDB7DEB7C856D1090FB6F894DEBF0FBEBE
:10166000CDBF4C0180E1A9968FAFA9976B01CC0C3F
:10167000DD1CC80CD91C20E7C21A2EEFD20AD601F5
:10168000ED91FC91E12CF12C8E010F5F1F4F21E0B9
:1016900030E0AE0148595F4F6081C40116DF81110F
:1016A00002C0912CABC0F60180819181BE016F5FB9
:1016B0007F4F02960E94C71981E1A8968FAFA89725
:1016C000D601ED91FC91E12CF12C8E010F5F1F4FA3
:1016D00021E030E0AE0149595F4F6081C401F5DE81
:1016E0008823F9F28A81982F9F701F929F93082E6A
:1016F000000C990B807F992744E0959587954A9532
:10170000E1F79F938F9358E4A52E51E0B52EBF9239
:10171000AF92F6018081918183599F4F9F938F9360
:101720000E94CE1982E1A7968FAFA797D601ED91BF
:10173000FC9121E030E0AE014A595F4F6081C40165
:10174000C4DE0FB6F894DEBF0FBECDBF882309F408
:10175000A8CF8A81982F9F701F929F93082E000C0C
:10176000990B807F992734E0959587953A95E1F715
:101770009F938F93BF92AF92D6018D919C91885980
:101780009F4F9F938F930E94CE1983E1A6968FAFB0
:10179000A697D601ED91FC9121E030E0AE014B59C6
:1017A0005F4F6081C40191DE982E0FB6F894DEBFC2
:1017B0000FBECDBF882309F474CF8A81982F9F7004
:1017C0001F929F93082E000C990B807F992724E08D
:1017D000959587952A95E1F79F938F93BF92AF9246
:1017E000D6018D919C918E589F4F9F938F930E940D
:1017F000CE190FB6F894DEBF0FBECDBF892DC859E4
:10180000DF4F0FB6F894DEBF0FBECDBFDF91CF9193
:101810001F910F91FF90EF90DF90CF90BF90AF900E
:101820009F908F900895CF93DF93EC010296DED3C3
:1018300080E691E0998388831A8ADF91CF91089599
:10184000CF92DF92EF92FF920F931F93CF93DF938C
:10185000EC016B0100E010E07C0182E0E80EF11C7D
:101860000C151D057CF4C701CBD3898B803D39F461
:101870008A81811104C0C701C3D38F5F898B0F5F39
:101880001F4FEECFDF91CF911F910F91FF90EF90FF
:10189000DF90CF90089581E0613009F080E00895F5
:1018A00081E0613009F080E0089581E008950097BB
:1018B00011F041114EC708958F929F92AF92BF923F
:1018C000CF92DF92EF92FF920F931F93CF93DF930C
:1018D000FB01E958FF4F208120FD02C081E026C2B4
:1018E0006B01EC017C0182E0E80EF11CC70188D39A
:1018F000898B803D39F48A81811104C0C70180D36E
:101900008F5F898B6989CE01CBDF882309F40EC2F2
:101910001B8A1C8A1D8A1E8AC70172D3898B803D4F
:1019200039F48A81811104C0C7016AD38F5F898B22
:10193000D601ED91FC91EE0FFF1FEE0FFF1FE45D4E
:10194000FE4F80819181009739F04989441F4427D7
:10195000441F6BE370EFABDFD601ED91FC91EE0F0E
:10196000FF1FEE0FFF1FE45DFE4F00811181011587
:10197000110529F462E070E0CE0162DFAAC0C70160
:101980003FD3898B803D39F48A81811104C0C7011E
:1019900037D38F5F898B4989842F90E0A0E0B0E036
:1019A0008B8B9C8BAD8BBE8B842F8170942F93700F
:1019B000933029F447FF0BC081E08A8B3BC088231A
:1019C00041F047FF0CC041E06BE370EF31C0811183
:1019D00006C047FF04C041E061E370E029C04695BE
:1019E000417061E070EEC80162DF4989417064E0D6
:1019F00070EEC8015CDF49894295417061E570EF86
:101A0000C80155DF498942FB442740F96FE470EF74
:101A1000C8014DDF498943FB442740F960E570EF79
:101A2000C80145DF498945FB442740F962E570EF6D
:101A3000C8013DDFC701E4D2898B803D39F48A813A
:101A4000811104C0C701DCD28F5F898B4989842F43
:101A500090E0982F8827092E000CAA0BBB0B8B88CF
:101A60009C88AD88BE8888299929AA29BB298B8B97
:101A70009C8BAD8BBE8B441F4427441F6CE270EFE0
:101A8000C80115DF498946FB442740F962E070EE42
:101A9000C8010DDF498945FB442740F96AE770E03A
:101AA000C80105DF49894295417068E770E0C801C7
:101AB000FEDE498943FB442740F963E670E0C80134
:101AC000F6DE498942FB442740F966E770E0C80129
:101AD000EEDED601ED91FC91EE0FFF1FEE0FFF1F22
:101AE000E45DFE4F028113810115110539F0F60105
:101AF000E758FF4F80819181019729F462E070E0FF
:101B0000CE019EDEB9C0C7017BD2898B803D39F4FE
:101B10008A81811104C0C70173D28F5F898B498983
:101B2000842F042E000C990BAA0BBB0BDC01992708
:101B300088278B889C88AD88BE8888299929AA29FE
:101B4000BB298B8B9C8BAD8BBE8B842F8170942F8C
:101B50009370933029F447FF0BC081E08A8B3BC020
:101B6000882341F047FF0CC041E06BE370EF31C0C8
:101B7000811106C047FF04C041E062E370E029C064
:101B80004695417061E670E0C80191DE4989417077
:101B900063E770E0C8018BDE49894295417066E6D3
:101BA00070E0C80184DE498942FB442740F967E6BA
:101BB00070E0C8017CDE498943FB442740F964E6B4
:101BC00070E0C80174DE498945FB442740F962E7AB
:101BD00070E0C8016CDEC70113D2898B803D39F4F7
:101BE0008A81811104C0C7010BD28F5F898B49891B
:101BF000842F042E000C990BAA0BBB0BB82FAA271D
:101C000099278827CB88DC88ED88FE888C299D2938
:101C1000AE29BF298B8B9C8BAD8BBE8B441F442779
:101C2000441F61E770E0C80142DE498946FB442752
:101C300040F967E770E0C8013ADE498945FB44276F
:101C400040F969E670E0C80132DE49894295417089
:101C50006BE670E0C8012BDE498943FB442740F95D
:101C60006AE670E0C80123DE498942FB442740F957
:101C70006CE670E0C8011BDE61E070E080E090E09F
:101C80000E94531980E0C82E81E0D82E7E015E01AB
:101C9000BCE0AB0EB11CF6014081518162817381C1
:101CA0008B899C89AD89BE8984239523A623B7237C
:101CB000481759076A077B0749F5D70157968D9151
:101CC0009C915897009701F56481758188E0EAE856
:101CD000F1E0A6E3B2E001900D928A95E1F788E089
:101CE000EAE8F1E0AEE2B2E001900D928A95E1F708
:101CF00041E0C801DCDDF60186819781D701589665
:101D00009C938E93579707C0019702C08681978155
:101D1000F701908F878BF8E0CF0ED11C82E0E80EA0
:101D2000F11CAE14BF0409F0B6CFD8CDDF91CF912E
:101D30001F910F91FF90EF90DF90CF90BF90AF90E9
:101D40009F908F900895AF92BF92DF92EF92FF9293
:101D50000F931F93CF93DF93FB01E958FF4F20812F
:101D600021FD03C0DD24D394BDC08B01EC017C01B7
:101D700022E0E20EF11CC70143D1898B803D39F48A
:101D80008A81811104C0C7013BD18F5F898B69892A
:101D9000CE0186DDD82E882309F4A4C0D801ED91A8
:101DA000FC91EE0FFF1FEE0FFF1FE45DFE4F8081E1
:101DB0009181892B29F462E070E0CE0141DD3CC0C5
:101DC000C7011ED1898B803D39F48A81811104C0FD
:101DD000C70116D18F5F898BC70112D1898B803DD6
:101DE00039F48A81811104C0C7010AD18F5F898BC0
:101DF0008989082E000C990B5801BDEBAB0EB11C64
:101E0000F5012081318128173907B4F4D801ED910B
:101E1000FC91EE0FFF1FEE0FFF1FE45DFE4F41E050
:101E200065E370E08081918142DD8989082E000C94
:101E3000990BF50191838083D801ED91FC91EE0F10
:101E4000FF1FEE0FFF1FE45DFE4F82819381892B00
:101E500039F0F801E358FF4F80819181019729F40F
:101E600062E070E0CE01ECDC3DC0C701C9D0898BD7
:101E7000803D39F48A81811104C0C701C1D08F5FD0
:101E8000898BC701BDD0898B803D39F48A8181114E
:101E900004C0C701B5D08F5F898B8989082E000CDB
:101EA000990B7801BFEBEB0EF11CF701208131811A
:101EB000281739070CF056CFD801ED91FC91EE0FA1
:101EC000FF1FEE0FFF1FE45DFE4F41E066E370E091
:101ED00082819381ECDC8989082E000C990BF70133
:101EE000918380838D2DDF91CF911F910F91FF9072
:101EF000EF90DF90BF90AF9008950F931F93CF9313
:101F0000DF93EC018C01015C1F4F48E050E066E379
:101F100072E0C8010E94BA19892BB9F086E991E0F4
:101F200079D388E0EAE8F1E0A6E3B2E001900D920F
:101F30008A95E1F786E991E06DD388E0E6E3F2E087
:101F4000D80101900D928A95E1F7C95BDF4F48E017
:101F500050E06EE272E0CE010E94BA19892BB9F00E
:101F600082E991E057D388E0EAE8F1E0AEE2B2E03E
:101F700001900D928A95E1F782E991E04BD388E0D8
:101F8000EEE2F2E0DE0101900D928A95E1F7DF9139
:101F9000CF911F910F910895CF93DF93EC0143DC14
:101FA0008EE691E0998388831B8A1C8A1D8A1E8A8B
:101FB00088E0FE01FF96DF01982F1D929A95E9F7C0
:101FC0003896DF011D928A95E9F7A0E0B1E0F0971D
:101FD000A39616968D919C9117978193919318963D
:101FE000EC17FD07B1F7DF91CF910895FC017283E3
:101FF000618384E690E09087878392878187089544
:10200000E0EEF1E03197F1F7DC0111968D919C91B2
:102010001297DC01ED91FC910284F385E02D099487
:10202000CF92DF92EF92FF920F931F93CF93DF93A4
:102030007A01F80180EE8083618381E0820F8283E0
:10204000860F0D5F1F4FEA01C12CDD24D394AE0132
:102050004E195F094217530794F4AE019991D801C4
:102060009D938D01DA014C91082E000C990B840F81
:10207000911D47FD9A95B6010E948D19E8CF37FF53
:1020800002C020E030E0E20FF31F83831482C90115
:102090000496DF91CF911F910F91FF90EF90DF9009
:1020A000CF900895CF92DF92EF92FF920F931F93FC
:1020B000CF93DF937C018B016A01EB01D70111966D
:1020C0008D919C9112979E01201B310B2C153D0583
:1020D0004CF46991DC01ED91FC910190F081E02DCF
:1020E0000995ECCFDC01ED91FC910680F781E02DA4
:1020F000099581E0DF91CF911F910F91FF90EF90B3
:10210000DF90CF9008957F928F929F92AF92BF926F
:10211000CF92DF92EF92FF920F931F93CF93DF93B3
:10212000DA017C91772309F45EC069018A01F62EF9
:10213000EC0189819A81DC01ED91FC910190F081A3
:10214000E02D60EE099589819A81DC01ED91FC9189
:102150000190F081E02D6F2D099589819A81772476
:1021600073947C0CDC01ED91FC910190F081E02DE9
:10217000672D09957F0C7801A12CBB24B39489812C
:102180009A819701201B310B2C153D05CCF447019A
:10219000DC01ED91FC910190F081E02DD7016D9172
:1021A0007D010995F4012081872D770C990B820F11
:1021B000911D27FD9A95B5010E948D19782EDFCFCC
:1021C000DC01ED91FC910190F081E02D672D0995E6
:1021D00089819A81DC01ED91FC910680F781E02DE7
:1021E000099581E001C080E0DF91CF911F910F91AF
:1021F000FF90EF90DF90CF90BF90AF909F908F9027
:102200007F9008958091E80080FFFCCF089581E0E1
:102210008093D70080EA8093D80082E189BD09B419
:1022200000FEFDCF80E98093D8001092E00010926C
:102230003F0210923602109237021092380210922A
:10224000390210923A0210923B0210923C02109214
:102250003D0291E090932D028DE780932B02109226
:1022600029021092270210922E0210922F02109231
:102270003002109231021092320210923302109208
:1022800034021092350290932C0280932A0210920D
:102290002802109226028CE08093E2007894089540
:1022A00080913F0208951F920F920FB60F92112452
:1022B0008F938091E1001092E10083FF0FC0109294
:1022C000E90081E08093EB001092EC0082E38093C0
:1022D000ED0088E08093F00010923F028F910F9004
:1022E0000FBE0F901F9018951F920F920FB60F926E
:1022F0001124FF920F931F932F933F934F935F935C
:102300006F937F938F939F93AF93BF93CF93DF93FD
:10231000EF93FF931092E9008091E80083FF59C189
:10232000F090F1008091F100C091F1009091F100E6
:10233000D0E0D92B0091F1009091F10010E0192B21
:102340002091F1006091F10092EF9093E8008630C7
:1023500009F048C088ED90E0FC0145915491C41704
:10236000D507D9F4FC01329645915491041715070D
:10237000A1F4FC01349645915491FC013696849168
:1023800030E0362B2F3F310519F010F02FEF30E001
:10239000281708F4822F3EEF0DC0079631E08C32EB
:1023A0009307D1F616C1490F511D891B3093E800E0
:1023B0008823A9F09091E800292F2570D9F392FD88
:1023C0000BC1982F813408F090E4FA01292F2223C1
:1023D00051F364916093F10021503196F8CF90341D
:1023E00049F3FAC0853041F48EEF8093E8000ADFAC
:1023F000C068C093E300F0C0893039F5F1106AC0BD
:10240000C0933F028EEF8093E80041E081E992E0C3
:102410004093E9009C012F5F3F4FFC015491509382
:10242000EB00552359F0F90124912093EC009C0115
:102430002D5F3F4F3196E491E093ED004F5F4330C5
:1024400011F0C901E5CF8EE140C0883039F4F0E8E1
:10245000FF1240C0D7DE80913F0298C0811114C0A6
:10246000D1DE32E8F3120AC00093E9008091EB005C
:1024700085FB882780F91092E90001C080E08093F5
:10248000F1001092F100A1C0982F9D7F913011F5BD
:1024900092E0F9121FC0CD2B09F09BC00F779FEF80
:1024A000900F943008F095C09EEF9093E800009351
:1024B000E900833009F48DC089E18093EB0081E06D
:1024C00090E001C0880F0A95EAF78093EA00109225
:1024D000EA0082C001151105C9F5E1EAFE121BC030
:1024E000813061F48FDEE6E3F2E08EE392E0219149
:1024F0002093F1008E179F07D1F767C0823021F437
:1025000081DE80912B0242C0833009F062C07ADE06
:1025100080912D023BC0F1E2FF125BC0893049F48B
:102520008091E80082FFFCCF8091F1008093270228
:102530003DC08A3029F4D0932B021092290245C065
:102540008B3009F046C0C0932D023FC00130110509
:1025500009F03FC091EAF9121CC0813061F452DEEB
:10256000EEE2F2E086E392E021912093F1008E17F3
:102570009F07D1F72AC0823021F444DE80912A02DD
:1025800005C0833031F53EDE80912C028093F1004E
:102590001CC0E1E2FE121DC0893061F48091E800A8
:1025A00082FFFCCF8091F100809326028BEF809315
:1025B000E8000BC08A3029F4D0932A021092280236
:1025C00004C08B3031F4C0932C028EEF8093E8006E
:1025D00003C081E28093EB00FF91EF91DF91CF91F7
:1025E000BF91AF919F918F917F916F915F914F912B
:1025F0003F912F911F910F91FF900F900FBE0F9061
:102600001F90189566FF02C082E001C080E067FD60
:1026100080640895FC0180913F02882309F450C032
:102620008FB7F89492819093E9009091E4009E5CBA
:102630002091E80025FD10C08FBF80913F028823C4
:1026400009F43EC08091E4009817D1F18FB7F89457
:1026500022812093E900ECCFA081B1819C919093DD
:10266000F100A081B18111969C919093F100A0811D
:10267000B18112969C919093F100A081B181139643
:102680009C919093F100A081B18114969C919093BC
:10269000F100A081B18115969C919093F100A081E9
:1026A000B18116969C919093F100A081B18117960B
:1026B0009C919093F1009AE39093E80013828FBF6E
:1026C00008956032710540F46A307105B9F06B30DD
:1026D0007105B1F48BE208956038710520F4FB01B7
:1026E000E952FD4F09C0CB01815A91098F359105FF
:1026F00038F4FB01E950FE4F8491089588E2089573
:1027000080E00895FC01442349F0A081B1819C91AF
:10271000842F8923481711F0942B9C936623C1F0D2
:10272000808191819C012E5F3F4F0896F901419174
:10273000641771F0E817F907D1F7F9012F5F3F4FE0
:102740004081411102C06083089528173907A9F715
:1027500008950F931F93CF938C01872F9927823C65
:10276000B8F0803E60F46F7377278F71992726E069
:10277000880F991F2A95E1F7682B792B09C0803FB4
:1027800011F440E013C0803EB1F4462F60E00EC06B
:10279000C80197DFC82F882371F0682FC80132DF86
:1027A0006C2F6F736F3309F464E6482FC801CF9123
:1027B0001F910F91A7CFCF911F910F9108958091F5
:1027C0002902E6E9F1E026E332E03183208391E05B
:1027D0009283838380912802E2E9F1E02EE232E0E5
:1027E0003183208392E09283838308959F92AF92F6
:1027F000BF92CF92DF92EF92FF920F931F93CF93EE
:10280000DF935C01EA01922E5E9800E010E06B011C
:10281000770FEE08FF080A151B055CF4C701B60127
:1028200042D55E9AC701B6013ED55E980F5F1F4F35
:10283000F2CF992011F05E9A01C05E98BE01DD0FC3
:10284000880B990BDF91CF911F910F91FF90EF9023
:10285000DF90CF90BF90AF909F9025C5CF93DF932F
:10286000D6DC1EDD8823E9F36CED75E080E090E0B6
:102870001AD5569A20E030E044EF51E069E170E06B
:1028800081E090E0B3DF41E161E170E08CE991E04B
:1028900069D18EEC91E06ED3EC016CE971E00E949D
:1028A0002A02D0939B01C0939A01249A249A2C9ACD
:1028B000DF91CF910895CF93DF938DE0AED385382C
:1028C000934054F020E030E040E050E064EF71E0ED
:1028D00082E090E08BDFF1CF20E030E044EF51E088
:1028E00069E170E082E090E081DF80919A0190914F
:1028F0009B010E94510280919A0190919B010E943C
:10290000A80A8111F8CFE0919A01F0919B01828190
:1029100081117BC0E157FE4F8081882309F475C087
:10292000C0E0D0E080919A0190919B01FC01E157B9
:10293000FE4F208130E0C217D307ACF5BE010E94E4
:102940001C0B882309F461C0BE0180919A0190910B
:102950009B010E94AF02BE0180919A0190919B0160
:102960000E94330A882309F450C0BE0180919A0165
:1029700090919B010E94E103BE0180919A01909188
:102980009B010E94B102BE0180919A0190919B012E
:102990000E940809BE0180919A0190919B010E94BA
:1029A000B0022196BFCF21E030E048EE53E069E16C
:1029B00070E083E090E01ADFC0E0D0E08DE02DD33E
:1029C000C3971CF580919A0190919B01DC0152966E
:1029D0002C9121110BD40E94990981110AC02196D2
:1029E00068EE73E080E090E05ED4C330D10531F74B
:1029F0000CC080919A0190919B01DC01ED91FC91BA
:102A00000084F185E02D0995D7CFDF91CF9108950E
:102A1000ECE9F1E088E0DF011D928A95E9F788EEA4
:102A200093E0A0E0B0E083839483A583B6838CE732
:102A300091E09183808308955091D8014091D7010E
:102A4000852F90E0242F30E0541710F4805C9F4FC6
:102A5000821B930B08955091D8014091D701252FE7
:102A600030E0842F90E0821B930B541710F0879670
:102A70000895019708958091D801E091D7018E17AC
:102A800051F0EF5FE03408F0E0E0F0E0E752FE4F95
:102A9000808190E008958FEF9FEF08959091D80185
:102AA0008091D701981779F09091D7019F5F90346A
:102AB00008F090E0E92FF0E0E752FE4F808190931C
:102AC000D70190E008958FEF9FEF08958091AC01BA
:102AD0008111FCCF08952091C90023FD06C021E09B
:102AE000FC01228380E090E00895809134018F3FC3
:102AF00021F08091AC01882399F09091AE018091F2
:102B0000AD01981312C08091C80085FF0EC08FB729
:102B1000F8946093CE0091E09093AC018FBF1DC0FC
:102B2000E0913401F0E0C9D2E8CF8091AE018F5F2F
:102B30008832B0F49091AD019817E1F3E82FF0E0FE
:102B4000E155FE4F608391E09093AC018093AE011C
:102B50008091C90080628093C90081E090E008956F
:102B600080E0E8CF1F93CF93DF93EB01142F4093C6
:102B700034014F3F29F0842F8FD2E12FF0E0A3D210
:102B8000C0FF08C0C13080E1D80720F482E0809304
:102B9000C80004C01092C800D695C7952197D0935D
:102BA000CD00C093CC008091C90083FD10C010926D
:102BB000D8011092D7011092AE011092AD0110927F
:102BC000AC0186E08093CA0088ED8093C900DF9154
:102BD000CF911F9108951F920F920FB60F9211245B
:102BE0002F938F939F93EF93FF939091CE008091BB
:102BF000D8018F5F803408F080E02091D7018217E0
:102C000039F0E82FF0E0E752FE4F90838093D8012F
:102C1000FF91EF919F918F912F910F900FBE0F9089
:102C20001F9018951F920F920FB60F9211248F9339
:102C30009F93EF93FF939091AE018091AD01981314
:102C400006C08091C9008F7D8093C9000FC080911C
:102C5000AD018F5F883208F080E0E82FF0E0E155A9
:102C6000FE4F90819093CE008093AD01FF91EF9144
:102C70009F918F910F900FBE0F901F9018951F92EC
:102C80000F920FB60F9211248F93EF93FF93109230
:102C9000AC01809134018F3F21F0E0913401F0E0EC
:102CA00012D2FF91EF918F910F900FBE0F901F9056
:102CB0001895E4EAF1E0128288EE93E0A0E0B0E03B
:102CC00083839483A583B68317828CE791E09183F5
:102CD00080830895CF92DF92EF92FF920F931F931C
:102CE000CF93DF936C01EB017B01E40EF51E00E056
:102CF00010E0CE15DF0561F06991D601ED91FC91F0
:102D00000190F081E02DC6010995080F191FF1CF40
:102D1000C801DF91CF911F910F91FF90EF90DF904D
:102D2000CF9008954BD19ADDC6DDFECF0F931F9350
:102D3000CF93DF938230910510F482E090E0E09130
:102D40002402F091250220E030E060E070E0A0E095
:102D5000B0E0C0E0D0E0309701F1408151810281C4
:102D6000138148175907B0F08417950751F420973D
:102D700019F00A831B8329C00093240210932502B3
:102D800024C02115310519F04217530718F49A0190
:102D9000BE01DF01EF01F801DECF2115310509F198
:102DA000281B390B2430310590F412968D919C919B
:102DB00013976115710521F0FB019383828304C091
:102DC0009093250280932402FD01329644C0FD01B8
:102DD000E20FF31F81939193225031092D933C937D
:102DE0003AC02091190230911A02232B41F420910C
:102DF00037013091380130931A0220931902209143
:102E00003501309136012115310541F42DB73EB71A
:102E10004091390150913A01241B350BE091190280
:102E2000F0911A02E217F307A0F42E1B3F0B2817AC
:102E3000390778F0AC014E5F5F4F2417350748F033
:102E40004E0F5F1F50931A02409319028193919382
:102E500002C0E0E0F0E0CF01DF91CF911F910F9130
:102E60000895CF93DF93009709F481C0FC01329756
:102E700013821282A0912402B0912502109781F44E
:102E800020813181820F931F2091190230911A0203
:102E90002817390751F5F0931A02E093190267C019
:102EA000ED0120E030E0CE17DF0740F44A815B817E
:102EB0009E0141155105F1F0EA01F5CFD383C2839C
:102EC00040815181840F951FC817D90759F4888113
:102ED0009981840F951F0296918380838A819B81BB
:102EE000938382832115310529F4F0932502E09321
:102EF00024023DC0E901FB83EA8349915991C40F43
:102F0000D51FEC17FD0761F480819181840F951F17
:102F10000296E90199838883828193819B838A83C6
:102F2000E0E0F0E012968D919C911397009719F0D4
:102F3000FD01DC01F7CF8D919C9111979D012E5FD2
:102F40003F4F820F931F2091190230911A022817C8
:102F5000390769F4309729F410922502109224025F
:102F600002C013821282B0931A02A0931902DF9159
:102F7000CF910895DBCE75CF08951DBA10926800E9
:102F80001CBC10BE1FBA10927A0010926E001092F4
:102F90006F0010927100109272001092C900ECEB59
:102FA000F0E0108214B817B81AB81DB810BA108221
:102FB00015B818B81BB81EB811BA0895F894E1E610
:102FC000F0E020E82083108283E084BD85BDEEE63A
:102FD000F0E080818160808381E08093800092E0D6
:102FE0009093810080939000909391009093C00003
:102FF00094E09093C1008093C2008093C30010922C
:10300000C40086E880937A0020937B0010927E00B3
:1030100010927D00FCD8789408958731D0F5E82F80
:10302000F0E0E757FC4FE491E83070F420917E0027
:1030300081E090E00E2E01C0880F0A94EAF7822BFF
:1030400080937E0080E80EC0E85020917D0081E0F2
:1030500090E00E2E01C0880F0A94EAF7822B80932D
:103060007D0080EA80937B0080913B01E82BE09318
:103070007C0080917A00806480937A0080917A004D
:1030800086FDFCCF809178002091790090E0922B12
:10309000089580E090E00895893170F4E7E5F3E069
:1030A000880FE80FF11D2591E491F0E09FB7F894A7
:1030B0008181822B81839FBF0895E93150F4EE0F07
:1030C000E659F74E0994E93120F4EE0FE456F74E35
:1030D00009940895289A0895299A08952A9A089596
:1030E0002B9A08952F9A6AC0589A58C0599A0895F1
:1030F0005A9A08955B9A0895469A66C0479A6AC09C
:103100005E9A08955F9A6CC02C9A08952D9A4AC0D1
:103110002E9A4EC08F9A08958E9A08958D9A08958A
:103120008C9A0895899A0895889A08955C9A0895CA
:103130005D9A0895769A0895289808952998089593
:103140002A9808952B9808952F9838C0589826C02B
:10315000599808955A9808955B980895469834C0F0
:10316000479838C05E9808955F983AC02C980895A3
:103170002D9818C02E981CC08F9808958E98089589
:103180008D9808958C980895899808958898089541
:103190005C9808955D98089576980895E4B5EF7D5C
:1031A000E4BD0895E0918000EF77E09380000895FA
:1031B000E0918000EF7DE09380000895E091800031
:1031C000E77FE09380000895E0919000EF77E0932F
:1031D00090000895E091C000EF77E093C00008955B
:1031E000E091C200E77FE093C2000895F89484B7AD
:1031F000877F84BF8091600080618093600010921F
:10320000600080E29EE40197F1F781E08093E000A6
:1032100080E28093D80080E69AEE0197F1F7ADDE68
:103220000C94003FFFCF8F938FB78F9380911B0239
:103230008D5F8D37D0F480931B0280911C028F5FCD
:1032400080931C02D8F080911D028F4F80931D0245
:10325000A8F080911E028F4F80931E0278F080911B
:103260001F028F4F80931F0209C08D5780931B024E
:1032700080911C028E5F80931C0228F780912002AF
:103280008C5F8093200258F0809121028F4F8093B1
:10329000210228F0809122028F4F809322028F9189
:1032A0008FBF8F911895CF92DF92EF92FF926B01B3
:1032B0007C0119D09B01C114D104E104F10471F027
:1032C00012D0621B730B683E7340A8F381E0C81AEA
:1032D000D108E108F10828513C4FEDCFFF90EF9065
:1032E000DF90CF9008950FB6F89466B515B270913F
:1032F000200280912102909122020FBE10FE05C093
:103300006F3F19F07C5F8F4F9F4F11240024660F91
:10331000001C660F001C7029089597FB072E16F4F9
:10332000009406D077FD08D011D007FC05D03EF4FC
:10333000909581959F4F0895709561957F4F089561
:10334000EE0FFF1F0590F491E02D0994AA1BBB1B03
:1033500051E107C0AA1FBB1FA617B70710F0A61B95
:10336000B70B881F991F5A95A9F780959095BC01B6
:10337000CD010895FB01DC0104C08D9101908019FD
:1033800021F441505040C8F7881B990B0895FB0168
:10339000DC0101900D920020E1F70895AEE0B0E06D
:1033A000E3EDF9E1AAC20D891E8986E08C831A83B8
:1033B00009838FEF9FE79E838D83AE01475E5F4F4A
:1033C0006F89788DCE01019608D0EF81F885E00FE6
:1033D000F11F10822E96E4E0ACC2ABE0B0E0E2EF69
:1033E000F9E17DC26C017B018A01FC011782168222
:1033F000838181FFBFC1CE0101963C01F60193811B
:10340000F70193FD859193FF81917F01882309F452
:10341000ADC1853239F493FD859193FF81917F0190
:10342000853221F4B60190E0C0D1E8CF912C212C57
:10343000312CFFE1F315D8F08B3279F038F480327B
:1034400079F08332A1F4232D20611DC08D3261F00B
:10345000803369F4232D216016C0832D8260382EBD
:10346000E32DE4603E2E2AC0F32DF8601DC037FC2A
:103470002DC020ED280F2A3040F08E32B9F436FCF2
:1034800075C1232D2064322E19C036FE06C08AE095
:10349000989E200D1124922E11C0EAE02E9E200D40
:1034A0001124222EF32DF0623F2E08C08C3621F419
:1034B000832D8068382E02C0883641F4F70193FDD1
:1034C000859193FF81917F018111B3CF982F9F7DCB
:1034D0009554933028F40C5F1F4F9FE399830DC0E0
:1034E000833631F0833771F0833509F055C020C041
:1034F000F801808189830E5F1F4F88248394912C6B
:10350000530112C02801F2E04F0E511CF801A080B7
:10351000B18036FE03C0692D70E002C06FEF7FEF0F
:10352000C50138D14C018201F32DFF773F2E15C024
:10353000280122E0420E511CF801A080B18036FE25
:1035400003C0692D70E002C06FEF7FEFC50117D196
:103550004C01F32DF0683F2E820133FC19C0822DFF
:1035600090E088169906A0F4B60180E290E01DD1A3
:103570002A94F5CFF50137FC859137FE81915F01E3
:10358000B60190E012D121102A9421E0821A91080C
:103590008114910479F7E1C0843611F0893639F548
:1035A000F80137FE07C060817181828193810C5FD1
:1035B0001F4F08C060817181072E000C880B990B8A
:1035C0000E5F1F4FF32DFF763F2E97FF09C090959A
:1035D0008095709561957F4F8F4F9F4FF0683F2E7C
:1035E0002AE030E0A3011DD1882E861844C085371B
:1035F00031F4232D2F7EB22E2AE030E025C0932D0A
:10360000997FB92E8F36C1F018F4883579F0AEC0A5
:10361000803719F0883721F0A9C0E92FE061BE2E6C
:10362000B4FE0DC0FB2DF460BF2E09C034FE0AC0ED
:10363000292F2660B22E06C028E030E005C020E128
:1036400030E002C020E132E0F801B7FE07C060813F
:103650007181828193810C5F1F4F06C060817181EF
:1036600080E090E00E5F1F4FA301DBD0882E86180C
:10367000FB2DFF773F2E36FE0DC0232D2E7FA22E71
:10368000891458F434FE0BC032FC09C0832D8E7EA1
:10369000A82E05C0B82CA32C03C0B82C01C0B92C8F
:1036A000A4FE0FC0FE01E80DF11D8081803321F4DE
:1036B0009A2D997EA92E09C0A2FE06C0B394B39498
:1036C00004C08A2D867809F0B394A3FC10C0A0FE34
:1036D00006C0B21480F4280C922C9B180DC0B214B2
:1036E00058F4B60180E290E060D0B394F8CFB21401
:1036F00018F42B1802C0982C212CA4FE0FC0B60180
:1037000080E390E052D0A2FE16C0A1FC03C088E77F
:1037100090E002C088E590E0B6010CC08A2D867862
:1037200051F0A1FE02C08BE201C080E2A7FC8DE255
:10373000B60190E03AD0891430F4B60180E390E00D
:1037400034D09A94F8CF8A94F301E80DF11D80816A
:10375000B60190E02AD08110F6CF222009F44ECE97
:10376000B60180E290E021D02A94F7CFF60186815D
:10377000978102C08FEF9FEF2B96E2E1CCC0FC0156
:103780000590615070400110D8F7809590958E0F8C
:103790009F1F0895FC016150704001900110D8F7FF
:1037A000809590958E0F9F1F08950F931F93CF9331
:1037B000DF93FB01238121FD03C08FEF9FEF2CC01E
:1037C00022FF16C046815781248135814217530755
:1037D00044F4A081B1819D012F5F3F4F318320834D
:1037E0008C93268137812F5F3F4F3783268314C008
:1037F0008B01EC01FB010084F185E02D0995892BFB
:10380000E1F6D80116968D919C911797019617961F
:103810009C938E931697CE01DF91CF911F910F91BC
:103820000895FA01AA27283051F1203181F1E89456
:103830006F936E7F6E5F7F4F8F4F9F4FAF4FB1E0A3
:103840003ED0B4E03CD0670F781F891F9A1FA11D9E
:10385000680F791F8A1F911DA11D6A0F711D811D9F
:10386000911DA11D20D009F468943F912AE0269F64
:1038700011243019305D3193DEF6CF010895462FC3
:103880004770405D4193B3E00FD0C9F7F6CF462FA4
:103890004F70405D4A3318F0495D31FD405241930D
:1038A00002D0A9F7EACFB4E0A695979587957795CA
:1038B0006795BA95C9F700976105710508959B0151
:1038C000AC010A2E06945795479537952795BA95DA
:1038D000C9F7620F731F841F951FA01D08952F92B3
:1038E0003F924F925F926F927F928F929F92AF9290
:1038F000BF92CF92DF92EF92FF920F931F93CF93DD
:10390000DF93CDB7DEB7CA1BDB0B0FB6F894DEBF73
:103910000FBECDBF09942A88398848885F846E8499
:103920007D848C849B84AA84B984C884DF80EE80E3
:10393000FD800C811B81AA81B981CE0FD11D0FB6EC
:10394000F894DEBF0FBECDBFED010895F894FFCF10
:1039500082000000350014008100000029F02C01D5
:103960008800000028F02C01840000002BF02C01BE
:103970009000000070002C0102008000360014004E
:1039800096019201FF000040028000400200010009
:10399000040001000600010025642E2564000000DB
:1039A00000005C0CA30E550C550C7D0F00000000B0
:1039B000BC17BC17BC17BC17BC17000000005C0C80
:1039C000A30E550C550C7D0F000000006B156A16F8
:0A39D0002B1566151C154E153B154E
:00000001FF
