:10000000A2C10000C8C10000C6C10000C4C10000F8
:10001000C2C10000C0C10000BEC10000BCC10000E0
:10002000BAC10000B8C100000C9412110C94331135
:10003000B2C10000B0C10000AEC10000ACC1000000
:10004000AAC10000A8C10000A6C10000A4C1000010
:10005000A2C10000A0C100009EC100000C940A19BA
:100060009AC100000C94E2150C9409160C943616F3
:1000700092C1000090C100008EC100008CC1000040
:100080008AC1000088C1000086C1000084C1000050
:1000900082C1000080C100007EC100007CC1000060
:1000A0007AC1000078C1000076C10000BC074B0493
:1000B0008904A804EF0417057405DA057B077B079C
:1000C0007B077B077B077B077B077B073D065F067C
:1000D0008406D006F5065407000100007F021200D6
:1000E000020000D6015400210000E80109002200AE
:1000F000002A025500210100010209002201002A04
:10010000025500030000D2010401030904C00110DC
:1001100002030904A0011E030309047E0120040355
:1001200009045A0122050309042C012C2C034A005E
:1001300056005300320058002000440045004200A1
:1001400055004700200049006E00740065007200F1
:100150006600610063006500000022034A0056004B
:1001600053003200580020004B0065007900620007
:100170006F006100720064002E002E00000020035A
:100180004A00560053003200580020004B00650022
:10019000790062006F006100720064002E000000B0
:1001A0001E034A00560053003200580020004B0046
:1001B0006500790062006F00610072006400000059
:1001C0001003470065006E0065007200690063005F
:1001D00000000403090409025400020100803209EE
:1001E000040000010301010309211101130122553B
:1001F0000007058103080001090401000103010152
:10020000040921110113012255000705820308008A
:1002100001000000000000000000000000000000DD
:100220000000000000000000000005010906A10117
:1002300075019508050719E029E7150025018102D8
:100240009508750115002501050C09E909EA09E27F
:1002500009CD09B509B609B709B881029505750137
:100260000508190129059102950175039103950669
:1002700075081500257F05071900297F8100C01228
:1002800001100100000040C01687040001010200B7
:100290000101C10601C1062C5E74606162643466AE
:1002A00067656E362D3738271E1F2021222324250F
:1002B000267333762E77785F4445464748494A4B44
:1002C0004C4D4E4F505152535455565758595A5BF6
:1002D0005C5D2F3130636D350405060708090A0B94
:1002E0000C0D0E0F101112131415161718191A1BD6
:1002F0001C1D6F7170752A012302230423082380BB
:100300002301290229042908294026802640298022
:1003100029102320234023802F402F202F102F022D
:100320002F012F10292029402C0001040506070D5C
:100330000C0B0A09080A0B0C0D070605040100083E
:10034000D613FF14501611241FBECFEFDAE0DEBF24
:10035000CDBF11E0A0E0B1E0EEE3F9E302C005900B
:100360000D92AA38B107D9F722E0AAE8B1E001C09E
:100370001D92AE31B207E1F711E0C3EAD1E004C04B
:100380002197FE010E949719C03AD107C9F70E9430
:1003900089160C949D1C34CEFC01329626E6DF01B2
:1003A0001D922A95E9F7EA59FF4F25E0DF01322F28
:1003B0001D923A95E9F73596DF01322F1D923A9555
:1003C000E9F73596DF011D922A95E9F735961182F6
:1003D0001082EA5BFF4F2FEF3FEF3183208332968D
:1003E00031832083329620E4DF011D922A95E9F7BC
:1003F000FC01718360830895CF93DF93EC010E9429
:100400008B0F82E591E099838883FE01E15BFF4FCA
:1004100080E491E0DF019C011D9221503040E1F722
:10042000E05CFE4F1082C057DE4F8EE3DE011D926E
:100430008A95E9F75198599A5098589A27982F9A7F
:10044000DF91CF910895CF92DF92EF92FF920F93B9
:100450001F93CF93DF9300D0CDB7DEB78C0160ED53
:1004600077E080E090E00E944A1980EF898389ED6F
:100470008A83780182E0E80EF11C22E030E0AE01D0
:100480004F5F5F4F6FEFC7010E94421068EE73E04D
:1004900080E090E00E944A1922E030E0AE014F5F18
:1004A0005F4F6FEFC7010E94421068EE73E080E07B
:1004B00090E00E944A197801E0E7EE1AEEEFFE0A9A
:1004C0006801F2E3CF1AFEEFDF0AF7018191919103
:1004D0007F01009711F00E94B217EC14FD04A9F7F8
:1004E000F801E157FE4F1082F80112820F900F9031
:1004F000DF91CF911F910F91FF90EF90DF90CF9000
:100500000895089508954F925F927F928F929F92DF
:10051000AF92BF92CF92DF92EF92FF920F931F9311
:10052000CF93DF93CDB7DEB764970FB6F894DEBFF5
:100530000FBECDBFFC01E157FE4F208130E06217B6
:1005400073070CF0FAC0FB01E853FF4FEE0FFF1FDB
:10055000E80FF91FE080F180D701A958BF4F2C9117
:1005600020FF1EC020E22983F701E758FF4F2081BA
:100570002A8322E02B8328E2269FF001279FF00D9B
:100580001124E15BFF4FE80FF91F1182108221E077
:1005900030E03383228323E030E041E050E004C0C8
:1005A00020E030E040E050E0EC91E1FF38C0E1E0D5
:1005B000F0E0EC0FFD1FE20FF31F11E21083F901D1
:1005C0003196CC24C394D12CCC0EDD1ECE0EDF1E72
:1005D0002E5F3F4F870103581F4FF8011081F6012E
:1005E000108380903C0190903D01A0903E01B0901E
:1005F0003F011AE0169FF001179FF00D1124E40F40
:10060000F51FEE0FFF1FEE0FFF1FE80FF91FE15B55
:10061000FF4F80829182A282B3824F5F5F4FEC9145
:10062000E2FF38C0E1E0F0E0EC0FFD1FE20FF31F46
:1006300012E21083F9013196CC24C394D12CCC0E54
:10064000DD1ECE0EDF1E2E5F3F4F870101581F4F6C
:10065000F8011081F60110838090400190904101D3
:10066000A0904201B09043011AE0169FF001179F3D
:10067000F00D1124E40FF51FEE0FFF1FEE0FFF1F0B
:10068000E80FF91FE15BFF4F80829182A282B38263
:100690004F5F5F4FEC91E5FF40C0A1E0B0E0AC0FD1
:1006A000BD1FA20FB31FEAE0E69F6001E79FD00CD9
:1006B0001124C40ED51ECC0CDD1CCC0CDD1C60E05E
:1006C00070E040E050E0870101571F4FE5E27E2EC9
:1006D0008090440190904501A0904601B090470160
:1006E0006C5F7F4FF8014080518044155505ACF494
:1006F0007C922E5F3F4F11964C931197FB01EC0DAE
:10070000FD1DE55BFF4FE80FF91F80829182A282F9
:10071000B3824F5F5F4F1296E3CF870109551F4F9A
:10072000AE014F5F5F4FF701608102960E94CF0FCD
:10073000F701E554FF4F9183808364960FB6F894D8
:10074000DEBF0FBECDBFDF91CF911F910F91FF9004
:10075000EF90DF90CF90BF90AF909F908F907F9061
:100760005F904F90089508952F923F924F925F921D
:100770006F927F928F929F92BF92CF92DF92EF9271
:10078000FF920F931F93CF93DF93CDB7DEB762979E
:100790000FB6F894DEBF0FBECDBF9A8B898B6B016D
:1007A0008C010E5F1F4FC8010E94BF0FA989BA8933
:1007B00051968C935197803D59F412968C918111EA
:1007C00007C0C8010E94BF0F8F5FE989FA89818B3A
:1007D000A989BA8951966C915197CD010E941C0C40
:1007E000B82E882309F4DEC37601B7E7EB0EF11CBF
:1007F000F601EB55FF4FFA83E983C60181569F4FFF
:100800009C838B83D601AF55BF4FBE83AD83329798
:10081000F887EF8302979A8789871697BC87AB87FB
:100820003A97FE87ED871601F7E92F0E311C260156
:1008300081E9480E511C360193E9690E711C169727
:10084000B88BAF874601BBE88B0E911CC8010E9494
:10085000BF0FE989FA89818B803D59F4828181112A
:1008600008C0C8010E94BF0F8F5FA989BA8951963D
:100870008C93A989BA895196EC918E2FEE0F990B22
:10088000AA0BBB0B8631910508F035C3FC01EA5A6F
:10089000FF4F0C949719F7018081918181609183BA
:1008A0008083C8010E94BF0FA989BA8951968C9391
:1008B0005197803D59F412968C91811107C0C8015F
:1008C0000E94BF0F8F5FE989FA89818BF601E75893
:1008D000FF4FA989BA8951968C91082E000C990B6B
:1008E00091838083C8010E94BF0FE989FA89818BB7
:1008F000803D59F48281811108C0C8010E94BF0F58
:100900008F5FA989BA8951968C93F601E558FF4FFC
:100910005CC0F70180819181826091838083C801EE
:100920000E94BF0FA989BA8951968C935197803D37
:1009300059F412968C91811107C0C8010E94BF0F13
:100940008F5FE989FA89818BF601E358FF4F65C013
:10095000F70180819181846091838083C8010E9426
:10096000BF0FA989BA8951968C935197803D59F44C
:1009700012968C91811107C0C8010E94BF0F8F5F32
:10098000E989FA89818BF601E158FF4FA989BA8973
:1009900051968C91082E000C990B91838083C8018D
:1009A0000E94BF0FE989FA89818B803D59F48281C9
:1009B000811108C0C8010E94BF0F8F5FA989BA8941
:1009C00051968C93F601EF57FF4FA989BA8951963A
:1009D0008C91082E000C990B91838083CCC1F70178
:1009E00080819181886091838083C8010E94BF0FBC
:1009F000A989BA8951968C935197803D59F41296E2
:100A00008C91811107C0C8010E94BF0F8F5FE989D7
:100A1000FA89818BF601ED57FF4FA989BA89519662
:100A20008C91082E000C990B9183808391C1F70162
:100A300080819181806191838083C8010E94BF0F72
:100A4000A989BA8951968C935197803D59F4129691
:100A50008C91811107C0C8010E94BF0F8F5FE98987
:100A6000FA89818BF601EB57FF4FA989BA89519614
:100A70008C91082E000C990B91838083C8010E94F1
:100A8000BF0FE989FA89818B803D59F482818111F8
:100A900008C0C8010E94BF0F8F5FA989BA8951960B
:100AA0008C93F601E957FF4FA989BA8951968C9129
:100AB000082E000C990B91838083C8010E94BF0F00
:100AC000E989FA89818B803D59F48281811108C0BE
:100AD000C8010E94BF0F8F5FA989BA8951968C9374
:100AE000F601E757FF4F5CC0F7018081918180627A
:100AF00091838083C8010E94BF0FA989BA8951964A
:100B00008C935197803D59F412968C91811107C0B6
:100B1000C8010E94BF0F8F5FE989FA89818BA9897B
:100B2000BA8951968C91082E000C990BF40191838F
:100B30008083C8010E94BF0FA989BA8951968C93FE
:100B40005197803D59F412968C91811107C0C801CC
:100B50000E94BF0F8F5FE989FA89818BF601E35705
:100B6000FF4FA989BA8951968C91082E000C990BD8
:100B700091838083C8010E94BF0FE989FA89818B24
:100B8000803D59F48281811108C0C8010E94BF0FC5
:100B90008F5FA989BA8951968C93F601E157FF4F6F
:100BA000A989BA8951968C91082E000C990B9183D2
:100BB00080834CCEF7018081918180649183808312
:100BC000C8010E94BF0FA989BA8951968C93519789
:100BD000803D59F412968C91811107C0C8010E9482
:100BE000BF0F8F5FE989FA89818BA989BA895196EC
:100BF0008C91082E000C990BF20191838083C8011F
:100C00000E94BF0FA989BA8951968C935197803D54
:100C100059F412968C91811107C0C8010E94BF0F30
:100C20008F5FE989FA89818BA989BA8951968C915C
:100C3000082E000C990BF30191838083C8010E9458
:100C4000BF0FA989BA8951968C935197803D59F469
:100C500012968C91811107C0C8010E94BF0F8F5F4F
:100C6000E989FA89818BA989BA8951968C91082ED4
:100C7000000C990BEF85F8899ACFD7018D919C9143
:100C8000119780688D939C93C8010E94BF0FE989DA
:100C9000FA89818B803D59F48281811108C0C80195
:100CA0000E94BF0F8F5FA989BA8951968C93E989F9
:100CB000FA898189082E000C990BD10147C0F701F0
:100CC00080819181916091838083C8010E94BF0FD0
:100CD000A989BA8951968C935197803D59F41296FF
:100CE0008C91811107C0C8010E94BF0F8F5FE989F5
:100CF000FA89818BA989BA8951968C91082E000CAA
:100D0000990BED85FE85F4C0D7018D919C911197CB
:100D100092608D939C93C8010E94BF0FE989FA8964
:100D2000818B803D59F48281811108C0C8010E94E5
:100D3000BF0F8F5FA989BA8951968C93E989FA8987
:100D40008189082E000C990BAB85BC858D939C93F3
:100D5000C8010E94BF0FE989FA89818B803D59F44F
:100D60008281811108C0C8010E94BF0F8F5FA989CD
:100D7000BA8951968C93C8010E94BF0FE989FA89FC
:100D8000818B803D09F062CD828181115FCDC801E8
:100D90000E94BF0F8F5FA989BA8951968C9356CD57
:100DA000F70180819181946091838083C8010E94C2
:100DB000BF0FA989BA8951968C935197803D59F4F8
:100DC00012968C91811107C0C8010E94BF0F8F5FDE
:100DD000E989FA89818BA989BA8951968C91082E63
:100DE000000C990BE985FA8583C0D7018D919C9100
:100DF000119798608D939C93C8010E94BF0FE98959
:100E0000FA89818B803D59F48281811108C0C80123
:100E10000E94BF0F8F5FA989BA8951968C93E98987
:100E2000FA898189082E000C990BAB81BC818D93C6
:100E30009C93C8010E94BF0FE989FA89818B803D8C
:100E400059F48281811108C0C8010E94BF0F8F5FD1
:100E5000A989BA8951968C93E989FA898189082EE2
:100E6000000C990BAD81BE818D939C93C8010E94AB
:100E7000BF0FE989FA89818B803D59F48281811104
:100E800008C0C8010E94BF0F8F5FA989BA89519617
:100E90008C93E989FA898189082E000C990BAF811E
:100EA000B8858D939C93D2CCF7018081918190611C
:100EB00091838083C8010E94BF0FA989BA89519686
:100EC0008C935197803D59F412968C91811107C0F3
:100ED000C8010E94BF0F8F5FE989FA89818BA989B8
:100EE000BA8951968C91082E000C990BE981FA81F0
:100EF0009183808315C0C8010E94BF0FA989BA8958
:100F000051968C935197803D59F412968C91811192
:100F100007C0C8010E94BF0F8F5FE989FA89818BE2
:100F2000C8010E94BF0FA989BA8951968C93519725
:100F3000803D59F412968C91811107C0C8010E941E
:100F4000BF0F8F5FE989FA89818BC8010E94BF0FAB
:100F5000A989BA8951968C935197803D09F076CC36
:100F600012968C91811172CCC8010E94BF0F8F5FC5
:100F7000E989FA89818B6ACCC8010E94BF0FA989CF
:100F8000BA8951968C935197803D61F412968C9159
:100F9000811107C0C801F3D78F5FE989FA89818B76
:100FA00001C0B82E8B2D62960FB6F894DEBF0FBE2F
:100FB000CDBFDF91CF911F910F91FF90EF90DF9008
:100FC000CF90BF909F908F907F906F905F904F9049
:100FD0003F902F900895EF92FF920F931F93CF931E
:100FE000DF93EC010FB6F8948091140290911502F2
:100FF000A0911602B09117020FBE8D879E87AF8712
:10100000B88B11E08B819C81DC01ED91FC91008417
:10101000F185E02D0995892B19F48A81882389F0BF
:1010200011E08A81811142C08B819C81DC01ED91AC
:10103000FC910284F385E02D0995803E9105D9F459
:1010400035C00FB6F8948091140290911502A091CA
:101050001602B09117020FBE4D855E856F857889A7
:10106000841B950BA60BB70B88379105A105B1051D
:1010700048F21A83C7CF0FB6F8948091140290916A
:101080001502A0911602B09117020FBE4D855E8524
:101090006F857889841B950BA60BB70B8837910554
:1010A000A105B10508F4BDCF1A83BBCF8A81811198
:1010B00030C00FB6F8948091140290911502A0915F
:1010C0001602B09117020FBE8D879E87AF87B88B2F
:1010D00011E08B819C81DC01ED91FC910084F18514
:1010E000E02D0995892B19F48A818823A9F011E054
:1010F0008A8181110BC08B819C81DC01ED91FC9177
:101100000284F385E02D0995892B01F58A818823D6
:10111000C1F180E090E046C00FB6F89480911402CF
:1011200090911502A0911602B09117020FBE4D8545
:101130005E856F857889841B950BA60BB70B883766
:101140009105A105B10528F21A83C3CF0FB6F89413
:101150008091140290911502A0911602B09117028D
:101160000FBE4D855E856F857889841B950BA60B18
:10117000B70B88379105A105B10508F4B9CF1A83DB
:10118000B7CF7E01B2E0EB0EF11CC701F8D68C019F
:10119000C701F5D6682FCE014FD3882309F4B9CF04
:1011A000C8010197DF91CF911F910F91FF90EF90B0
:1011B00008954F925F926F927F928F929F92AF921B
:1011C000BF92CF92DF92EF92FF920F931F93CF9334
:1011D000DF9300D0CDB7DEB78C01FB01E853FF4FA2
:1011E000EE0FFF1FE00FF11F6080718082E28983A4
:1011F00023018FE7480E511CF20180818A839EE112
:10120000C92ED12C5801F2E0AF0EB11C62E370E0A0
:1012100080E090E00E944A1922E030E0AE014F5F8A
:101220005F4FF3016081C5012DD7C801D4DE892B42
:10123000C9F17301F1ECEF0EF11C812C912CF2013C
:1012400080819181881699066CF5C50198D6F801C0
:10125000818B803D41F48281811105C0C5018FD60B
:101260008F5FF801818BF8018189082E000C990BA2
:10127000F701208131818217930724F4029791832B
:10128000808309C0F70122813381281739071CF4B4
:10129000029693838283FFEF8F1A9F0A84E0E80E01
:1012A000F11CCDCFE1E0CE1AD10809F0AFCF0F90FD
:1012B0000F90DF91CF911F910F91FF90EF90DF90F2
:1012C000CF90BF90AF909F908F907F906F905F90E6
:1012D0004F9008955F926F927F928F929F92AF92FC
:1012E000BF92CF92DF92EF92FF920F931F93CF9313
:1012F000DF93EC017C0180E7E81A8EEFF80A5E01CB
:10130000AFE4AA0EB11CC12CD12C552453943E013C
:10131000B1E76B1ABEEF7B0A4E01E2E08E0E911C24
:10132000D3018C9190E0C816D9060CF05CC0552012
:1013300009F459C0F70160817181FB01E554FF4F49
:101340004081518169557F4FC4016BD6582ECE0123
:1013500042DE892B09F43DC08501D801ED91FC9155
:101360001197309739F412968D919C91139780FDC7
:1013700022C023C0552009F1D80112968D919C916D
:10138000139780FF0CC0DC01B595A795AC0FBD1F6E
:101390002D913C91E20FF31F0190F081E02DD701D8
:1013A0006D917C91959587958C0F9D1F0995582E71
:1013B0000C5F1F4FD2CF5110E6CFC401E0D5898B0F
:1013C000803D39F48A81811104C0C401D8D58F5F72
:1013D000898BBFEFCB1ADB0AE2E0EE0EF11CF8E2DC
:1013E000AF0EB11C9DCF852DDF91CF911F910F9135
:1013F000FF90EF90DF90CF90BF90AF909F908F9035
:101400007F906F905F900895EF92FF920F931F93DC
:10141000CF93DF931F92CDB7DEB77C0184E1898340
:101420008B01000F111F0E0D1F1D00571E4FD801FD
:10143000ED91FC9121E030E0AE014F5F5F4F6081A4
:10144000C70102961FD6C701C6DD892B31F0F8010E
:1014500060817181C70188D901C080E00F90DF9160
:10146000CF911F910F91FF90EF900895AF92BF928F
:10147000CF92DF92EF92FF920F931F93CF93DF9360
:101480007C015C0182E0A80EB11CC501FBD5C7013F
:10149000A2DDEC01892B09F16801C601801B910BCB
:1014A0008C179D07A4F4C5016AD5F701818B803D97
:1014B00041F48281811105C0C50161D58F5FF701BB
:1014C000818BF7018189F60181936F01E6CFC00F0F
:1014D000D11F2197188281E001C080E0DF91CF9178
:1014E0001F910F91FF90EF90DF90CF90BF90AF9042
:1014F0000895AF92BF92CF92DF92EF92FF920F9337
:101500001F93CF93DF93CDB7DEB7C656D1090FB681
:10151000F894DEBF0FBECDBF6C015C0181E7A81A55
:101520008EEFB80AF50190819F3109F441C081EF37
:10153000A6968FAFA6979F5FA7969FAFA797E12C20
:10154000F12C8E010F5F1F4F22E030E0AE014B59AE
:101550005F4F6FEFC6018ADF8823D9F081E091E009
:101560000E94B1178C01F501608170E06F5F7F4FC1
:101570000E94CC01F50180819601280F311D280FB2
:10158000311DF901E057FE4F118300838F5FF50194
:10159000808368EE73E080E090E00E944A198DE05D
:1015A0000E940418C39724F0F6018281882311F069
:1015B00080E001C081E0CA59DF4F0FB6F894DEBF6A
:1015C0000FBECDBFDF91CF911F910F91FF90EF9094
:1015D000DF90CF90BF90AF9008958F929F92AF927F
:1015E000BF92CF92DF92EF92FF920F931F93CF9310
:1015F000DF93CDB7DEB7C856D1090FB6F894DEBF7A
:101600000FBECDBF4C0180E1A9968FAFA9976B01AA
:10161000CC0CDD1CC80CD91C20E7C21A2EEFD20A54
:10162000D601ED91FC91E12CF12C8E010F5F1F4F43
:1016300021E030E0AE0148595F4F6081C40116DF00
:10164000811102C0912CABC0F60180819181BE0155
:101650006F5F7F4F02960E94BE1981E1A8968FAFFF
:10166000A897D601ED91FC91E12CF12C8E010F5F32
:101670001F4F21E030E0AE0149595F4F6081C40146
:10168000F5DE8823F9F28A81982F9F701F929F932D
:10169000082E000C990B807F992744E0959587953B
:1016A0004A95E1F79F938F9358E4A52E51E0B52E0C
:1016B000BF92AF92F6018081918183599F4F9F9392
:1016C0008F930E94C51982E1A7968FAFA797D60185
:1016D000ED91FC9121E030E0AE014A595F4F60810D
:1016E000C401C4DE0FB6F894DEBF0FBECDBF8823A1
:1016F00009F4A8CF8A81982F9F701F929F93082E7C
:10170000000C990B807F992734E0959587953A9541
:10171000E1F79F938F93BF92AF92D6018D919C91E9
:1017200088599F4F9F938F930E94C51983E1A69676
:101730008FAFA697D601ED91FC9121E030E0AE018C
:101740004B595F4F6081C40191DE982E0FB6F8941B
:10175000DEBF0FBECDBF882309F474CF8A81982FD6
:101760009F701F929F93082E000C990B807F9927E2
:1017700024E0959587952A95E1F79F938F93BF92E3
:10178000AF92D6018D919C918E589F4F9F938F93CE
:101790000E94C5190FB6F894DEBF0FBECDBF892DCC
:1017A000C859DF4F0FB6F894DEBF0FBECDBFDF9133
:1017B000CF911F910F91FF90EF90DF90CF90BF904E
:1017C000AF909F908F900895CF93DF93EC01029696
:1017D000CCD380E691E0998388831A8ADF91CF91F8
:1017E0000895CF92DF92EF92FF920F931F93CF93C2
:1017F000DF93EC016B0100E010E07C0182E0E80E79
:10180000F11C0C151D057CF4C701B9D3898B803DF3
:1018100039F48A81811104C0C701B1D38F5F898BEC
:101820000F5F1F4FEECFDF91CF911F910F91FF9070
:10183000EF90DF90CF90089581E0613009F080E073
:10184000089581E0613009F080E0089581E0089515
:10185000009719F041112AC779C708954F925F92F6
:101860006F927F92AF92BF92CF92DF92EF92FF92F0
:101870000F931F93CF93DF93FB01E958FF4F208114
:1018800020FD02C081E031C26B01EC017C0182E0ED
:10189000E80EF11CC70173D3898B803D39F48A812E
:1018A000811104C0C7016BD38F5F898B6989CE0119
:1018B000C8DF882309F419C2C70161D3898B803D31
:1018C00039F48A81811104C0C70159D38F5F898B94
:1018D000D601ED91FC91EE0FFF1FEE0FFF1FE45DAF
:1018E000FE4F80819181009739F04989441F442738
:1018F000441F6BE370EFACDFD601ED91FC91EE0F6E
:10190000FF1FEE0FFF1FE45DFE4F008111810115E7
:10191000110529F462E070E0CE0163DFC5C040E04C
:101920006BE370EFC80194DF40E061E370E0C80151
:101930008FDFC70124D3898B803D39F48A818111DF
:1019400004C0C7011CD38F5F898B4989842F042E63
:10195000000C990BAA0BBB0B4B885C886D887E88AA
:1019600084299529A629B7298B8B9C8BAD8BBE8B9F
:10197000842F8170942F9370933029F447FF10C007
:1019800081E08A8B40C0882369F047FF11C040E0A6
:1019900064E070EEC8015CDF41E06BE370EF31C0E2
:1019A000811106C047FF04C041E061E370E029C037
:1019B0004695417061E070EEC8014ADF4989417087
:1019C00064E070EEC80144DF49894295417061E5E9
:1019D00070EFC8013DDF498942FB442740F96FE4BD
:1019E00070EFC80135DF498943FB442740F960E5C2
:1019F00070EFC8012DDF498945FB442740F962E5B6
:101A000070EFC80125DFC701BAD2898B803D39F458
:101A10008A81811104C0C701B2D28F5F898B498945
:101A2000842F042E000C990B982F8827092E000C68
:101A3000AA0BBB0B4B885C886D887E88842995290E
:101A4000A629B7298B8B9C8BAD8BBE8B441F44275B
:101A5000441F6CE270EFC801FBDE498946FB442756
:101A600040F962E070EEC801F3DE498945FB442786
:101A700040F96AE770E0C801EBDE498942954170A0
:101A800068E770E0C801E4DE498943FB442740F978
:101A900063E670E0C801DCDE498942FB442740F977
:101AA00066E770E0C801D4DED601ED91FC91EE0F3F
:101AB000FF1FEE0FFF1FE45DFE4F02811381011532
:101AC000110539F0F601E758FF4F808191810197A8
:101AD00071F462E070E0CE0184DE40E0C42E41E0AB
:101AE000D42E7E015E01BCE0AB0EB11CD7C040E03D
:101AF0006BE370EFC801ACDE40E062E370E0C80168
:101B0000A7DEC7013CD2898B803D39F48A818111DF
:101B100004C0C70134D28F5F898B4989842F042E7A
:101B2000000C990BAA0BBB0BDC01992788274B886B
:101B30005C886D887E8884299529A629B7298B8B96
:101B40009C8BAD8BBE8B842F8170942F93709330C0
:101B500029F447FF10C081E08A8B40C0882369F0D8
:101B600047FF11C040E063E770E0C80171DE41E06B
:101B70006BE370EF31C0811106C047FF04C041E044
:101B800062E370E029C04695417061E670E0C801EB
:101B90005FDE4989417063E770E0C80159DE498919
:101BA0004295417066E670E0C80152DE498942FB09
:101BB000442740F967E670E0C8014ADE498943FBE3
:101BC000442740F964E670E0C80142DE498945FBDC
:101BD000442740F962E770E0C8013ADEC701CFD17F
:101BE000898B803D39F48A81811104C0C701C7D136
:101BF0008F5F898B4989842F042E000C990BAA0BC7
:101C0000BB0BB82FAA2799278827CB88DC88ED88BB
:101C1000FE888C299D29AE29BF298B8B9C8BAD8B8F
:101C2000BE8B441F4427441F61E770E0C80110DEEB
:101C3000498946FB442740F967E770E0C80108DEA0
:101C4000498945FB442740F969E670E0C80100DE98
:101C50004989429541706BE670E0C801F9DD498918
:101C600043FB442740F96AE670E0C801F1DD498989
:101C700042FB442740F96CE670E0C801E9DD2DCF56
:101C80000197F701908F878BF8E0CF0ED11C82E08F
:101C9000E80EF11CAE14BF0409F4F4CDF601408047
:101CA000518062807380648175818B899C89AD8944
:101CB000BE8984219521A621B721481659066A06B6
:101CC0007B0679F4D70157968D919C915897009790
:101CD000B9F68681978158969C938E93579741E0E9
:101CE00001C040E0C801B4DDCFCFDF91CF911F919B
:101CF0000F91FF90EF90DF90CF90BF90AF907F90CB
:101D00006F905F904F900895DF92EF92FF920F9344
:101D10001F93CF93DF93FB01E958FF4F208121FDF3
:101D200003C0DD24D394B6C08B01EC017C0182E0BA
:101D3000E80EF11CC70123D1898B803D39F48A81DB
:101D4000811104C0C7011BD18F5F898B6989CE01C6
:101D500078DDD82E882309F49DC0D801ED91FC913F
:101D6000EE0FFF1FEE0FFF1FE45DFE4F808191819C
:101D7000892B29F462E070E0CE0133DD38C0C70161
:101D8000FED0898B803D39F48A81811104C0C7015E
:101D9000F6D08F5F898BC701F2D0898B803D39F4F3
:101DA0008A81811104C0C701EAD08F5F898B89893C
:101DB000082E000C990BF801E354FF4F208131816C
:101DC00028173907A4F491838083181619067CF428
:101DD000D801ED91FC91EE0FFF1FEE0FFF1FE45DA8
:101DE000FE4F41E065E370E08081918131DDD801F3
:101DF000ED91FC91EE0FFF1FEE0FFF1FE45DFE4F14
:101E000082819381892B39F0F801E358FF4F80815B
:101E10009181019729F462E070E0CE01E2DC3AC0E2
:101E2000C701ADD0898B803D39F48A81811104C00E
:101E3000C701A5D08F5F898BC701A1D0898B803D59
:101E400039F48A81811104C0C70199D08F5F898BD1
:101E50008989082E000C990BF801E154FF4F20816D
:101E60003181281739070CF05CCF918380831816D5
:101E700019060CF056CFD801ED91FC91EE0FFF1F23
:101E8000EE0FFF1FE45DFE4F41E066E370E08281EC
:101E90009381DEDC8D2DDF91CF911F910F91FF900B
:101EA000EF90DF9008950F931F93CF93DF93EC0192
:101EB0008C01015C1F4F48E050E06EE272E0C80107
:101EC0000E94B119892B59F08EE891E05AD388E02D
:101ED000EEE2F2E0D80101900D928A95E1F7C95B3C
:101EE000DF4F48E050E066E272E0CE010E94B11997
:101EF000892B59F08AE891E044D388E0E6E2F2E0E9
:101F0000DE0101900D928A95E1F781E0DF91CF919A
:101F10001F910F910895CF93DF93EC0155DC8EE66E
:101F200091E0998388831B8A1C8A1D8A1E8A88E017
:101F3000FE01FF96DF01982F1D929A95E9F73896DA
:101F4000DF011D928A95E9F7A0E0B1E0F097A39632
:101F500016968D919C911797819391931896EC17F3
:101F6000FD07B1F7DF91CF910895FC017283618382
:101F700084E690E090878783928781870895E0EEDA
:101F8000F1E03197F1F7DC0111968D919C91129758
:101F9000DC01ED91FC910284F385E02D0994CF9250
:101FA000DF92EF92FF920F931F93CF93DF937A010B
:101FB000F80180EE8083618381E0820F8283860F47
:101FC0000D5F1F4FEA01C12CDD24D394AE014E19E1
:101FD0005F094217530794F4AE019991D8019D937C
:101FE0008D01DA014C91082E000C990B840F911D84
:101FF00047FD9A95B6010E948419E8CF37FF02C0C9
:1020000020E030E0E20FF31F83831482C9010496BD
:10201000DF91CF911F910F91FF90EF90DF90CF90C4
:102020000895CF92DF92EF92FF920F931F93CF9379
:10203000DF937C018B016A01EB01D70111968D9131
:102040009C9112979E01201B310B2C153D054CF4E1
:102050006991DC01ED91FC910190F081E02D0995F1
:10206000ECCFDC01ED91FC910680F781E02D099524
:1020700081E0DF91CF911F910F91FF90EF90DF9062
:10208000CF9008957F928F929F92AF92BF92CF92FE
:10209000DF92EF92FF920F931F93CF93DF93DA01BA
:1020A0007C91772309F45EC069018A01F62EEC0168
:1020B00089819A81DC01ED91FC910190F081E02D04
:1020C00060EE099589819A81DC01ED91FC91019086
:1020D000F081E02D6F2D099589819A817724739481
:1020E0007C0CDC01ED91FC910190F081E02D672DDD
:1020F00009957F0C7801A12CBB24B39489819A8126
:102100009701201B310B2C153D05CCF44701DC0158
:10211000ED91FC910190F081E02DD7016D917D0151
:102120000995F4012081872D770C990B820F911D61
:1021300027FD9A95B5010E948419782EDFCFDC0126
:10214000ED91FC910190F081E02D672D0995898139
:102150009A81DC01ED91FC910680F781E02D0995D3
:1021600081E001C080E0DF91CF911F910F91FF903E
:10217000EF90DF90CF90BF90AF909F908F907F9027
:1021800008958091E80080FFFCCF089581E080935E
:10219000D70080EA8093D80082E189BD09B400FEAF
:1021A000FDCF80E98093D8001092E00010923702B2
:1021B00010922E0210922F021092300210923102D1
:1021C00010923202109233021092340210923502B1
:1021D00091E0909325028DE78093230210922102D3
:1021E00010921F02109226021092270210922802CB
:1021F0001092290210922A0210922B0210922C02A5
:1022000010922D02909324028093220210922002B9
:1022100010921E028CE08093E200789408958091E1
:10222000370208951F920F920FB60F9211248F93C9
:102230008091E1001092E10083FF0FC01092E9004D
:1022400081E08093EB001092EC0082E38093ED003C
:1022500088E08093F000109237028F910F900FBEAC
:102260000F901F9018951F920F920FB60F92112486
:10227000FF920F931F932F933F934F935F936F930F
:102280007F938F939F93AF93BF93CF93DF93EF93FE
:10229000FF931092E9008091E80083FF59C1F0900C
:1022A000F1008091F100C091F1009091F100D0E037
:1022B000D92B0091F1009091F10010E0192B2091A1
:1022C000F1006091F10092EF9093E800863009F000
:1022D00048C088ED90E0FC0145915491C417D507A2
:1022E000D9F4FC0132964591549104171507A1F4D5
:1022F000FC01349645915491FC013696849130E06E
:10230000362B2F3F310519F010F02FEF30E0281752
:1023100008F4822F3EEF0DC0079631E08C32930710
:10232000D1F616C1490F511D891B3093E80088234F
:10233000A9F09091E800292F2570D9F392FD0BC1E7
:10234000982F813408F090E4FA01292F222351F3C9
:1023500064916093F10021503196F8CF903449F3A5
:10236000FAC0853041F48EEF8093E8000ADFC06840
:10237000C093E300F0C0893039F5F1106AC0C09312
:1023800037028EEF8093E80041E081E992E04093CC
:10239000E9009C012F5F3F4FFC0154915093EB00EB
:1023A000552359F0F90124912093EC009C012D5FF5
:1023B0003F4F3196E491E093ED004F5F433011F0D1
:1023C000C901E5CF8EE140C0883039F4F0E8FF1252
:1023D00040C0D7DE8091370298C0811114C0D1DE91
:1023E00032E8F3120AC00093E9008091EB0085FB0C
:1023F000882780F91092E90001C080E08093F10005
:102400001092F100A1C0982F9D7F913011F592E0BC
:10241000F9121FC0CD2B09F09BC00F779FEF900FD3
:10242000943008F095C09EEF9093E8000093E90087
:10243000833009F48DC089E18093EB0081E090E066
:1024400001C0880F0A95EAF78093EA001092EA002B
:1024500082C001151105C9F5E1EAFE121BC08130E9
:1024600061F48FDEEEE2F2E086E392E021912093C8
:10247000F1008E179F07D1F767C0823021F481DE0B
:102480008091230242C0833009F062C07ADE8091DD
:1024900025023BC0F1E2FF125BC0893049F4809114
:1024A000E80082FFFCCF8091F10080931F023DC0C5
:1024B0008A3029F4D09323021092210245C08B3038
:1024C00009F046C0C09325023FC00130110509F054
:1024D0003FC091EAF9121CC0813061F452DEE6E29D
:1024E000F2E08EE292E021912093F1008E179F0797
:1024F000D1F72AC0823021F444DE8091220205C047
:10250000833031F53EDE809124028093F1001CC0BF
:10251000E1E2FE121DC0893061F48091E80082FF83
:10252000FCCF8091F10080931E028BEF8093E80036
:102530000BC08A3029F4D09322021092200204C0EA
:102540008B3031F4C09324028EEF8093E80003C0F7
:1025500081E28093EB00FF91EF91DF91CF91BF91EA
:10256000AF919F918F917F916F915F914F913F912B
:102570002F911F910F91FF900F900FBE0F901F9002
:102580001895FC0180913702882309F450C08FB759
:10259000F89492819093E9009091E4009E5C2091E0
:1025A000E80025FD10C08FBF80913702882309F411
:1025B0003EC08091E4009817D1F18FB7F894228142
:1025C0002093E900ECCFA081B1819C919093F10020
:1025D000A081B18111969C919093F100A081B1816D
:1025E00012969C919093F100A081B18113969C91D9
:1025F0009093F100A081B18114969C919093F10089
:10260000A081B18115969C919093F100A081B18138
:1026100016969C919093F100A081B18117969C91A0
:102620009093F1009AE39093E80013828FBF08958E
:102630006032710540F46A30710569F06B307105E4
:1026400061F48BE208956038710538F4FB01E958B4
:10265000FD4F8491089588E2089580E00895FC017B
:10266000442349F0A081B1819C91842F892348178C
:1026700011F0942B9C936623C1F0808191819C0181
:102680002E5F3F4F0896F9014191641771F0E817EA
:10269000F907D1F7F9012F5F3F4F4081411102C087
:1026A0006083089528173907A9F70895CF93DF931A
:1026B000EC01872F9927823CB8F0803E60F46F735D
:1026C00077278F71992726E0880F991F2A95E1F7C0
:1026D000682B792B09C0803F11F440E010C0803E88
:1026E00091F4462F60E00BC0CE01A2DF882359F0A1
:1026F00086FF02C042E001C040E0682F6F73CE0148
:10270000DF91CF91ACCFDF91CF910895DC014423CD
:1027100051F0ED91FC9111979081842F892319F04C
:10272000409549234083662381F022E030E0ED911B
:10273000FC911197E20FF31F8081681301C0108292
:102740002F5F3F4F2830310591F70895CF93DF93E6
:10275000EC01872F9927823CB8F0803E60F46F73BC
:1027600077278F71992726E0880F991F2A95E1F71F
:10277000682B792B09C0803F11F440E010C0803EE7
:1027800091F4462F60E00BC0CE0152DF882359F050
:1027900086FF02C042E001C040E0682F6F73CE01A7
:1027A000DF91CF91B3CFDF91CF9108958091210236
:1027B000EEE8F1E02EE232E03183208391E0928373
:1027C000838380912002EAE8F1E026E232E031835F
:1027D000208392E09283838308959F92AF92BF9269
:1027E000CF92DF92EF92FF920F931F93CF93DF93DD
:1027F0005C01EA01922E5E9800E010E06B01770F19
:10280000EE08FF080A151B055CF4C701B60142D5A6
:102810005E9AC701B6013ED55E980F5F1F4FF2CF9B
:10282000992011F05E9A01C05E98BE01DD0F880B01
:10283000990BDF91CF911F910F91FF90EF90DF9057
:10284000CF90BF90AF909F9025C5CF93DF939EDC34
:10285000E6DC8823E9F36CED75E080E090E01AD5C2
:10286000569A20E030E044EF51E069E170E081E009
:1028700090E0B3DF41E161E170E084E991E069D18A
:102880008EEC91E06ED3EC0164E971E00E94FC01F2
:10289000D0939301C0939201249A249A2C9ADF91A9
:1028A000CF910895CF93DF938DE0AED385389340D9
:1028B00054F020E030E040E050E064EF71E082E06E
:1028C00090E08BDFF1CF20E030E044EF51E069E1B0
:1028D00070E082E090E081DF80919201909193011D
:1028E0000E94230280919201909193010E94790AA3
:1028F0008111F8CFE0919201F091930182818111D1
:102900007BC0E157FE4F8081882309F475C0C0E089
:10291000D0E08091920190919301FC01E157FE4F2C
:10292000208130E0C217D307ACF5BE010E94ED0A4A
:10293000882309F461C0BE018091920190919301B6
:102940000E948102BE0180919201909193010E94A8
:10295000040A882309F450C0BE018091920190912D
:1029600093010E94B303BE01809192019091930163
:102970000E948302BE0180919201909193010E9476
:10298000D908BE0180919201909193010E94820228
:102990002196BFCF21E030E048EE53E069E170E0DE
:1029A00083E090E01ADFC0E0D0E08DE02DD3C39744
:1029B0001CF58091920190919301DC0152962C912B
:1029C00021110BD40E946A0981110AC0219668EE78
:1029D00073E080E090E05ED4C330D10531F70CC0E5
:1029E0008091920190919301DC01ED91FC91008422
:1029F000F185E02D0995D7CFDF91CF910895E4E9D6
:102A0000F1E088E0DF011D928A95E9F788EE93E016
:102A1000A0E0B0E083839483A583B6838CE791E044
:102A20009183808308955091D0014091CF01852FEB
:102A300090E0242F30E0541710F4805C9F4F821BED
:102A4000930B08955091D0014091CF01252F30E094
:102A5000842F90E0821B930B541710F087960895F3
:102A6000019708958091D001E091CF018E1751F028
:102A7000EF5FE03408F0E0E0F0E0EF52FE4F8081DD
:102A800090E008958FEF9FEF08959091D00180918D
:102A9000CF01981779F09091CF019F5F903408F0A3
:102AA00090E0E92FF0E0EF52FE4F80819093CF014C
:102AB00090E008958FEF9FEF08958091A401811118
:102AC000FCCF08952091C90023FD06C021E0FC0140
:102AD000228380E090E00895809134018F3F21F0BF
:102AE0008091A401882399F09091A6018091A5017D
:102AF000981312C08091C80085FF0EC08FB7F8945C
:102B00006093CE0091E09093A4018FBF1DC0E0912F
:102B10003401F0E0C9D2E8CF8091A6018F5F8832FE
:102B2000B0F49091A5019817E1F3E82FF0E0E95592
:102B3000FE4F608391E09093A4018093A601809161
:102B4000C90080628093C90081E090E0089580E030
:102B5000E8CF1F93CF93DF93EB01142F4093340101
:102B60004F3F29F0842F8FD2E12FF0E0A3D2C0FF96
:102B700008C0C13080E1D80720F482E08093C8000B
:102B800004C01092C800D695C7952197D093CD0068
:102B9000C093CC008091C90083FD10C01092D00179
:102BA0001092CF011092A6011092A5011092A401DB
:102BB00086E08093CA0088ED8093C900DF91CF91B1
:102BC0001F9108951F920F920FB60F9211242F9309
:102BD0008F939F93EF93FF939091CE008091D001BC
:102BE0008F5F803408F080E02091CF01821739F0A8
:102BF000E82FF0E0EF52FE4F90838093D001FF91D9
:102C0000EF919F918F912F910F900FBE0F901F907A
:102C100018951F920F920FB60F9211248F939F93C6
:102C2000EF93FF939091A6018091A501981306C0A0
:102C30008091C9008F7D8093C9000FC08091A5014C
:102C40008F5F883208F080E0E82FF0E0E955FE4F12
:102C500090819093CE008093A501FF91EF919F9179
:102C60008F910F900FBE0F901F9018951F920F928B
:102C70000FB60F9211248F93EF93FF931092A4013C
:102C8000809134018F3F21F0E0913401F0E012D2C5
:102C9000FF91EF918F910F900FBE0F901F9018959D
:102CA000ECE9F1E0128288EE93E0A0E0B0E08383EB
:102CB0009483A583B68317828CE791E09183808308
:102CC0000895CF92DF92EF92FF920F931F93CF93CD
:102CD000DF936C01EB017B01E40EF51E00E010E0D8
:102CE000CE15DF0561F06991D601ED91FC9101905F
:102CF000F081E02DC6010995080F191FF1CFC80119
:102D0000DF91CF911F910F91FF90EF90DF90CF90C7
:102D100008954BD19ADDC6DDFECF0F931F93CF935D
:102D2000DF938230910510F482E090E0E0911C0284
:102D3000F0911D0220E030E060E070E0A0E0B0E043
:102D4000C0E0D0E0309701F14081518102811381D0
:102D500048175907B0F08417950751F4209719F0D8
:102D60000A831B8329C000931C0210931D0224C0F8
:102D70002115310519F04217530718F49A01BE01C5
:102D8000DF01EF01F801DECF2115310509F1281B24
:102D9000390B2430310590F412968D919C91139744
:102DA0006115710521F0FB019383828304C0909328
:102DB0001D0280931C02FD01329644C0FD01E20F0A
:102DC000F31F81939193225031092D933C933AC084
:102DD0002091110230911202232B41F420913701EE
:102DE0003091380130931202209311022091350165
:102DF000309136012115310541F42DB73EB7409190
:102E0000390150913A01241B350BE0911102F091E8
:102E10001202E217F307A0F42E1B3F0B2817390705
:102E200078F0AC014E5F5F4F2417350748F04E0F26
:102E30005F1F50931202409311028193919302C03D
:102E4000E0E0F0E0CF01DF91CF911F910F91089565
:102E5000CF93DF93009709F481C0FC01329713826E
:102E60001282A0911C02B0911D02109781F4208162
:102E70003181820F931F2091110230911202281785
:102E8000390751F5F0931202E093110267C0ED018A
:102E900020E030E0CE17DF0740F44A815B819E01DD
:102EA00041155105F1F0EA01F5CFD383C28340818A
:102EB0005181840F951FC817D90759F488819981CA
:102EC000840F951F0296918380838A819B819383CF
:102ED00082832115310529F4F0931D02E0931C0231
:102EE0003DC0E901FB83EA8349915991C40FD51F85
:102EF000EC17FD0761F480819181840F951F029684
:102F0000E90199838883828193819B838A83E0E0AE
:102F1000F0E012968D919C911397009719F0FD01A6
:102F2000DC01F7CF8D919C9111979D012E5F3F4F52
:102F3000820F931F20911102309112022817390736
:102F400069F4309729F410921D0210921C0202C0FD
:102F500013821282B0931202A0931102DF91CF91DB
:102F60000895DBCE75CF08951DBA109268001CBC81
:102F700010BE1FBA10927A0010926E0010926F006D
:102F800010927100109272001092C900ECEBF0E008
:102F9000108214B817B81AB81DB810BA108215B834
:102FA00018B81BB81EB811BA0895F894E1E6F0E01D
:102FB00020E82083108283E084BD85BDEEE6F0E04A
:102FC00080818160808381E08093800092E0909393
:102FD000810080939000909391009093C00094E0C2
:102FE0009093C1008093C2008093C3001092C400EC
:102FF00086E880937A0020937B0010927E001092E6
:103000007D00C4D8789408958731D0F5E82FF0E09A
:10301000E75DFC4FE491E83070F420917E0081E0A0
:1030200090E00E2E01C0880F0A94EAF7822B80935D
:103030007E0080E80EC0E85020917D0081E090E0A5
:103040000E2E01C0880F0A94EAF7822B80937D0030
:1030500080EA80937B0080913B01E82BE0937C0029
:1030600080917A00806480937A0080917A0086FD56
:10307000FCCF809178002091790090E0922B089508
:1030800080E090E00895893170F4E7EFF2E0880F76
:10309000E80FF11D2591E491F0E09FB7F89481814C
:1030A000822B81839FBF0895E93150F4EE0FEF59D1
:1030B000F74E0994E93120F4EE0FED56F74E0994DE
:1030C0000895289A0895299A08952A9A08952B9A7E
:1030D00008952F9A6AC0589A58C0599A08955A9AD2
:1030E00008955B9A0895469A66C0479A6AC05E9AA8
:1030F00008955F9A6CC02C9A08952D9A4AC02E9A12
:103100004EC08F9A08958E9A08958D9A08958C9A3C
:103110000895899A0895889A08955C9A08955D9A09
:103120000895769A089528980895299808952A98D8
:1031300008952B9808952F9838C0589826C059980C
:1031400008955A9808955B980895469834C0479812
:1031500038C05E9808955F983AC02C9808952D98CD
:1031600018C02E981CC08F9808958E9808958D9839
:1031700008958C98089589980895889808955C9882
:1031800008955D98089576980895E4B5EF7DE4BDBF
:103190000895E0918000EF77E09380000895E0913A
:1031A0008000EF7DE09380000895E0918000E77F4C
:1031B000E09380000895E0919000EF77E093900015
:1031C0000895E091C000EF77E093C0000895E0918A
:1031D000C200E77FE093C2000895F89484B7877F28
:1031E00084BF8091600080618093600010926000D5
:1031F00080E29EE40197F1F781E08093E00080E2B5
:103200008093D80080E69AEE0197F1F7ADDE0C943A
:10321000003FFFCF8F938FB78F93809113028D5F05
:103220008D37D0F480931302809114028F5F8093C6
:103230001402D8F0809115028F4F80931502A8F0E8
:10324000809116028F4F8093160278F080911702BA
:103250008F4F8093170209C08D578093130280917E
:1032600014028E5F8093140228F7809118028C5FFD
:103270008093180258F0809119028F4F80931902A1
:1032800028F080911A028F4F80931A028F918FBF7E
:103290008F911895CF92DF92EF92FF926B017C0194
:1032A00019D09B01C114D104E104F10471F012D0D2
:1032B000621B730B683E7340A8F381E0C81AD10803
:1032C000E108F10828513C4FEDCFFF90EF90DF90DF
:1032D000CF9008950FB6F89466B515B270911802A4
:1032E0008091190290911A020FBE10FE05C06F3F27
:1032F00019F07C5F8F4F9F4F11240024660F001C34
:10330000660F001C7029089597FB072E16F4009491
:1033100006D077FD08D011D007FC05D03EF490957B
:1033200081959F4F0895709561957F4F0895EE0F99
:10333000FF1F0590F491E02D0994AA1BBB1B51E1DE
:1033400007C0AA1FBB1FA617B70710F0A61BB70B15
:10335000881F991F5A95A9F780959095BC01CD01BA
:103360000895FB01DC0104C08D910190801921F4C6
:1033700041505040C8F7881B990B0895FB01DC01B0
:1033800001900D920020E1F70895AEE0B0E0EAEC84
:10339000F9E1AAC20D891E8986E08C831A8309830C
:1033A0008FEF9FE79E838D83AE01475E5F4F6F89EE
:1033B000788DCE01019608D0EF81F885E00FF11FDE
:1033C00010822E96E4E0ACC2ABE0B0E0E9EEF9E1A9
:1033D0007DC26C017B018A01FC0117821682838108
:1033E00081FFBFC1CE0101963C01F6019381F70137
:1033F00093FD859193FF81917F01882309F4ADC1ED
:10340000853239F493FD859193FF81917F01853257
:1034100021F4B60190E0C0D1E8CF912C212C312CC1
:10342000FFE1F315D8F08B3279F038F4803279F07F
:103430008332A1F4232D20611DC08D3261F08033D1
:1034400069F4232D216016C0832D8260382EE32D70
:10345000E4603E2E2AC0F32DF8601DC037FC2DC05D
:1034600020ED280F2A3040F08E32B9F436FC75C1B9
:10347000232D2064322E19C036FE06C08AE0989EA5
:10348000200D1124922E11C0EAE02E9E200D112451
:10349000222EF32DF0623F2E08C08C3621F4832DAE
:1034A0008068382E02C0883641F4F70193FD85917B
:1034B00093FF81917F018111B3CF982F9F7D955408
:1034C000933028F40C5F1F4F9FE399830DC0833620
:1034D00031F0833771F0833509F055C020C0F80111
:1034E000808189830E5F1F4F88248394912C530120
:1034F00012C02801F2E04F0E511CF801A080B180EB
:1035000036FE03C0692D70E002C06FEF7FEFC5018A
:1035100038D14C018201F32DFF773F2E15C02801D1
:1035200022E0420E511CF801A080B18036FE03C09B
:10353000692D70E002C06FEF7FEFC50117D14C011C
:10354000F32DF0683F2E820133FC19C0822D90E0EC
:1035500088169906A0F4B60180E290E01DD12A9465
:10356000F5CFF50137FC859137FE81915F01B601FA
:1035700090E012D121102A9421E0821A910881143E
:10358000910479F7E1C0843611F0893639F5F801F4
:1035900037FE07C060817181828193810C5F1F4F6C
:1035A00008C060817181072E000C880B990B0E5F9B
:1035B0001F4FF32DFF763F2E97FF09C09095809502
:1035C000709561957F4F8F4F9F4FF0683F2E2AE097
:1035D00030E0A3011DD1882E861844C0853731F410
:1035E000232D2F7EB22E2AE030E025C0932D997F27
:1035F000B92E8F36C1F018F4883579F0AEC0803717
:1036000019F0883721F0A9C0E92FE061BE2EB4FE81
:103610000DC0FB2DF460BF2E09C034FE0AC0292F57
:103620002660B22E06C028E030E005C020E130E080
:1036300002C020E132E0F801B7FE07C0608171816D
:10364000828193810C5F1F4F06C06081718180E091
:1036500090E00E5F1F4FA301DBD0882E8618FB2D54
:10366000FF773F2E36FE0DC0232D2E7FA22E89140C
:1036700058F434FE0BC032FC09C0832D8E7EA82E78
:1036800005C0B82CA32C03C0B82C01C0B92CA4FED3
:103690000FC0FE01E80DF11D8081803321F49A2DC9
:1036A000997EA92E09C0A2FE06C0B394B39404C0AB
:1036B0008A2D867809F0B394A3FC10C0A0FE06C042
:1036C000B21480F4280C922C9B180DC0B21458F43C
:1036D000B60180E290E060D0B394F8CFB21418F451
:1036E0002B1802C0982C212CA4FE0FC0B60180E339
:1036F00090E052D0A2FE16C0A1FC03C088E790E083
:1037000002C088E590E0B6010CC08A2D867851F0A1
:10371000A1FE02C08BE201C080E2A7FC8DE2B601EF
:1037200090E03AD0891430F4B60180E390E034D0D0
:103730009A94F8CF8A94F301E80DF11D8081B601C7
:1037400090E02AD08110F6CF222009F44ECEB601A7
:1037500080E290E021D02A94F7CFF601868197810C
:1037600002C08FEF9FEF2B96E2E1CCC0FC010590E9
:10377000615070400110D8F7809590958E0F9F1F73
:103780000895FC016150704001900110D8F78095B8
:1037900090958E0F9F1F08950F931F93CF93DF93E4
:1037A000FB01238121FD03C08FEF9FEF2CC022FF7F
:1037B00016C046815781248135814217530744F44E
:1037C000A081B1819D012F5F3F4F318320838C9376
:1037D000268137812F5F3F4F3783268314C08B01AB
:1037E000EC01FB010084F185E02D0995892BE1F6C0
:1037F000D80116968D919C911797019617969C93D8
:103800008E931697CE01DF91CF911F910F9108955E
:10381000FA01AA27283051F1203181F1E8946F9301
:103820006E7F6E5F7F4F8F4F9F4FAF4FB1E03ED0A7
:10383000B4E03CD0670F781F891F9A1FA11D680F45
:10384000791F8A1F911DA11D6A0F711D811D911D78
:10385000A11D20D009F468943F912AE0269F1124ED
:103860003019305D3193DEF6CF010895462F477051
:10387000405D4193B3E00FD0C9F7F6CF462F4F70AC
:10388000405D4A3318F0495D31FD4052419302D00A
:10389000A9F7EACFB4E0A6959795879577956795B0
:1038A000BA95C9F700976105710508959B01AC01B0
:1038B0000A2E06945795479537952795BA95C9F7D7
:1038C000620F731F841F951FA01D08952F923F92B2
:1038D0004F925F926F927F928F929F92AF92BF9220
:1038E000CF92DF92EF92FF920F931F93CF93DF93CC
:1038F000CDB7DEB7CA1BDB0B0FB6F894DEBF0FBE29
:10390000CDBF09942A88398848885F846E847D8475
:103910008C849B84AA84B984C884DF80EE80FD8077
:103920000C811B81AA81B981CE0FD11D0FB6F894ED
:0E393000DEBF0FBECDBFED010895F894FFCFAE
:10393E0000000000350000000000000029F0D00754
:10394E000000000028F0D007000000002BF0D00788
:10395E00000000007000D0070000000036000000DC
:10396E008E010000FF0000380280004002000100BE
:10397E00040001000600010025642E2564000000ED
:10398E0000002E0C840E260C260C530F0000000097
:10399E00B317B317B317B317B317000000002E0CED
:1039AE00840E260C260C530F0000000062156116C3
:0A39BE0022155D151315451532158D
:00000001FF
