:1000000092C60000B8C60000B6C60000B4C6000024
:10001000B2C60000B0C60000AEC60000ACC600000C
:10002000AAC60000A8C600000C94201F0C94411F13
:10003000A2C60000A0C600009EC600009CC600002C
:100040009AC6000098C6000096C6000094C600003C
:1000500092C6000090C600008EC600000C94E827EF
:100060008AC600000C94BF240C94E6240C9413253B
:1000700082C6000080C600007EC600007CC600006C
:100080007AC6000078C6000076C6000074C600007C
:1000900072C6000070C600006EC600006CC600008C
:1000A0006AC6000068C6000066C60000B711F40BFF
:1000B0005D0C920C040D420DE10D860E32113211D1
:1000C000321132113211321132113211230F5A0F03
:1000D000920FCA0F0210A410202D3E2052656365B6
:1000E000697665643A20453020303020253032581A
:1000F00000436865636B20696620666F7220486FF5
:100100007374202830783030290A005761697420D0
:10011000554152542073796E632028307845302938
:100120000A00202D204261636B75703A206861736C
:1001300020646174612020202020202020202020A5
:1001400020202020202020202020202020202D3E84
:100150002025640A00202D20446973706C61792089
:100160006F75747075743A20747970652020202042
:10017000202020202020202020202020202020207F
:10018000202D3E2025640A00202D20446973706CC8
:100190006179206F75747075743A20686569676855
:1001A00074202020202020202020202020202020FB
:1001B000202020202D3E2025640A00202D20446987
:1001C00073706C6179206F75747075743A207769FB
:1001D000647468202020202020202020202020203F
:1001E000202020202020202D3E2025640A00202DC4
:1001F00020416E616C6F67206F75747075743A2062
:100200004E756D626572206F66206368616E6E6503
:100210006C7320202020202020202D3E2025640AE1
:1002200000202D2047656E6572616C2070757270BC
:100230006F7365206F75747075743A204E756D62BA
:100240006572206F6620736C6F747320202D3E20C2
:1002500025640A00202D204D6564616C20686F7054
:100260007065723A204E756D626572206F66206D02
:100270006564616C20686F70706572732020202047
:100280002D3E2025640A00202D20436172642053F6
:10029000797374656D3A204E756D626572206F6674
:1002A000206361726420736C6F747320202020209F
:1002B0002020202D3E2025640A00202D204C696737
:1002C000687467756E3A204E756D626572206F6650
:1002D000206566666563746976652062697473205B
:1002E000666F722059202D3E2025640A00202D20A3
:1002F0004C6967687467756E3A204E756D626572F9
:10030000206F66206566666563746976652062693C
:10031000747320666F722058202D3E2025640A00D9
:10032000202D204C6967687467756E3A204E756D94
:10033000626572206F66206368616E6E656C732003
:100340002020202020202020202020202D3E20257D
:10035000640A00202D20526F746172793A4E756DD7
:10036000626572206F6620726F7461727920656EAB
:10037000636F646572732020202020202020202DB0
:100380003E2025640A00202D20416E616C6F67209D
:10039000696E7075743A20426974732070657220BA
:1003A0006368616E6E656C20202020202020202054
:1003B00020202D3E2025640A00202D20416E616CF6
:1003C0006F6720696E7075743A204E756D62657244
:1003D000206F66206368616E6E656C73202020203C
:1003E00020202020202D3E2025640A00202D20439F
:1003F0006F696E733A204E756D626572206F66206C
:10040000736C6F7473202020202020202020202057
:1004100020202020202020202D3E2025640A00209E
:100420002D20506C61796572733A204E756D62654E
:1004300072206F6620627574746F6E7320706572BF
:1004400020706C61796572202020202D3E2025646B
:100450000A00202D20506C61796572733A204E7528
:100460006D626572206F6620506C617965727320D1
:1004700020202020202020202020202020202D3E51
:100480002025640A004552524F5220647572696EED
:10049000672070617273696E672066756E63696F3D
:1004A0006E2069647820256420210A00416E616C09
:1004B0006F672046757A7A20666F7220636C696573
:1004C0006E742025643A2000202D20436F6D6D61ED
:1004D0006E64207265766973696F6E3A2025730ABF
:1004E00000202D20436F6D6D616E64207665727300
:1004F000696F6E3A202025730A00202D204A56533A
:100500002076657273696F6E3A20202020202025A6
:10051000730A00202D20494F206964656E74697448
:10052000793A20202020202025730A0047656E6537
:1005300072616C3A0A005761726E696E672C206EA8
:100540006F6E2D7374616E6461726420696E707574
:10055000742F6F75747075742066756E6374696F2F
:100560006E2072657475726E65642062792074689D
:100570006520494F20426F617264210A0045525242
:100580004F522C20736C61766520697320746F6FF5
:1005900020627573792C2069742063616E27742042
:1005A00070726F6365737320746865207375622061
:1005B000636F6D6D616E640A005761726E696E677C
:1005C0002C20636F6D6D616E6420706172616D656A
:1005D000746572206572726F722C20706172616D29
:1005E000657465722069732069676E6F7265640A4D
:1005F000005761726E696E672C20636F6D6D616E5E
:100600006420706172616D65746572206572726FCD
:10061000722C206E6F2072657475726E2064617426
:10062000610A004552524F522C20736C617665204E
:10063000697320746F6F20627573792C2069742040
:1006400063616E27742070726F63657373207468C2
:100650006520636F6D6D616E640A005761726E692B
:100660006E672C20736C61766520646574656374B5
:10067000656420612053554D204572726F720A00E7
:100680005761726E696E672C20636F6D6D616E6469
:1006900020756E6B6E6F776E0A000A535441525488
:1006A000202B20427574746F6E2031202B204275F0
:1006B00074746F6E2032202D3E2052657374617207
:1006C00074205465656E7379210A000A53544152AF
:1006D00054202B20427574746F6E2031202B2042E1
:1006E0007574746F6E2032202D3E205265737461D4
:1006F0007274205465656E7379210A000A202D3EBC
:10070000206275696C6420646F6E652C207265715F
:1007100075657374206C656E6774682025640A00C3
:1007200000010000EA0812000200002C0854002119
:1007300000003E0809002200008008550021010049
:1007400057080900220100800855002102007008A6
:100750000900220200D50815000300002808040142
:1007600003090416081002030904F6071E0303090F
:1007700004D4072004030904B007220503090482F6
:10078000072C2C034A00560053003200580020006A
:1007900044004500420055004700200049006E001B
:1007A000740065007200660061006300650000006F
:1007B00022034A00560053003200580020004B002C
:1007C0006500790062006F006100720064002E0015
:1007D0002E00000020034A0056005300320058004B
:1007E00020004B006500790062006F00610072001C
:1007F00064002E0000001E034A0056005300320021
:10080000580020004B006500790062006F00610015
:100810007200640000001003470065006E00650070
:100820007200690063000000040309040902540017
:1008300003010080320904000001030101030921C2
:100840001101130122550007058103080001090465
:1008500001000103010104092111011301225500C6
:1008600007058203080001090402000103000005D6
:100870000921110100012215000705830320000151
:1008800005010906A10175019508050719E029E789
:100890001500250181029508750115002501050C3B
:1008A00009E909EA09E209CD09B509B609B709B8A4
:1008B0008102950575010508190129059102950127
:1008C00075039103950675081500257F0507190026
:1008D000297F8100C00631FF0974A15375081500F6
:1008E00026FF00952009758102C012011001000049
:1008F0000040C016870400010102000101C1060189
:10090000C10601C1260A546F6F206D616E792065A2
:1009100072726F72732067657474696E67204A56CD
:100920005320436C69656E74207265706F727473C6
:100930002C2077696C6C207265737461727420214D
:100940000A0A000A52657175657374207265626FD8
:100950006F7420210A0A000A4A565320696E69748E
:10096000207375636365737320210A0A000A457258
:10097000726F7220647572696E6720696E69742087
:1009800070686173652C2077696C6C207265737474
:1009900061727420210A0A00202D3E20646F6E656A
:1009A0000A000A5374617274696E672046757A7A18
:1009B0002063616C63756C6174696F6E20666F7221
:1009C00020636C69656E743A2025642C206E627217
:1009D000206F66206368616E6E656C733A202564D3
:1009E0000A000A73657442756C6B436F6D6D616EBE
:1009F000640A002D2D2D2D2D2D2D2D2D2D2D2D2D40
:100A00002D2D2D2D2D2D2D0A000A436C69656E7438
:100A100020696E666F726D6174696F6E2025640A5D
:100A200000546F74616C20636C69656E74733A2056
:100A300025640A0053454E53452070696E3A2025BF
:100A4000640A00486F737420736574732061646472
:100A500072657373286573290A0053454E53452008
:100A600070696E206265666F726520736574746963
:100A70006E672061646472657373286573293A2018
:100A800025640A00202D3E20646F6E650A00486FC1
:100A900073742073656E647320726573657420636C
:100AA0006F6D6D616E640A004361626C6520636FF7
:100AB0006E6E65637465640A0057616974696E6778
:100AC00020666F72204A5653204361626C65206332
:100AD0006F6E6E656374696F6E0A00536574207380
:100AE000656E7365206C696E6520746F2048494798
:100AF000480A0041637469766174696E67205541E4
:100B000052540A0041637469766174696E67204CBF
:100B100045440A0055534220696E697469616C69E5
:100B20007A6174696F6E202D3E20646F6E650A00D5
:100B30003D3D3D3D3D3D3D3D3D3D3D3D3D3D3D3DE5
:100B40000A000A4A565332582025642E2564205440
:100B500072616365730A002C0000000000710000E0
:100B6000000000000023002C030000000000000033
:100B7000000000000000006D000000350075002C32
:100B8000053100000000000000000000000000002F
:100B900000000000000000540254055401540454A5
:100BA0000300000000000048024805480148034CCB
:100BB000024C054C014C03000051045202520552F4
:100BC0000152045203000000005802580558011851
:100BD000035C050000000027001405140114041430
:100BE0000300000000260024001F00080108030C79
:100BF000020C050C010C0300001104120212051274
:100C00000112041203000000003400180518011836
:100C1000031C0500001C032C0025002000A0003050
:100C20000074001E00210022002D007000780010CA
:100C3000002E007600770067005E005F00600061B4
:100C40000062006300640065006600370036003F04
:100C50000038007F0050009F0054004500460047C8
:100C600000480049004A004B004C004D004E004F28
:100C700000730051005200530044005500560057C5
:100C800000580059005D005B005C005A00B000BFD6
:100C900000AF00A3006E002C021400050006000740
:100CA00000080009000A000B000C000D000E000FE8
:100CB0000033001100120013000400150016001785
:100CC00000180019001D001B001C001A00A6009E41
:100CD00000A7002C042A00012302230423082380F8
:100CE0002301290229042908294026802640298039
:100CF00029102320234023802F402F202F102F0244
:100D00002F012F10292029402C0001040506070D72
:100D10000C0B0A09080A0B0C0D0706050401000854
:100D2000BC21DC232D2511241FBECFEFDAE0DEBF6E
:100D3000CDBF12E0A0E0B1E0ECE9F7E502C005901C
:100D40000D92A033B107D9F722E0A0E3B2E001C0D1
:100D50001D92AE3CB207E1F716E0C3E9D6E004C04D
:100D60002197FE010E947528C039D107C9F70E945A
:100D700066250C94CC2B44C9FC01329626E6DF0193
:100D80001D922A95E9F7EA59FF4F25E0DF01322F3E
:100D90001D923A95E9F73596DF01322F1D923A956B
:100DA000E9F73596DF011D922A95E9F7359611820C
:100DB0001082EA5BFF4F11821082329611821082FC
:100DC000329620E4DF011D922A95E9F7FC01718338
:100DD00060830895CF93DF93EC010E94781B85EC2C
:100DE00091E099838883FE01E15BFF4F80E491E00D
:100DF000DF019C011D9221503040E1F7E05CFE4F85
:100E00001082C057DE4F8EE3DE011D928A95E9F70E
:100E10005198599A5098589A27982F9ADF91CF91C4
:100E20000895CF92DF92EF92FF920F931F93CF938B
:100E3000DF9300D0CDB7DEB78C0160ED77E080E0C6
:100E400090E00E94282880EF898389ED8A837801C9
:100E500082E0E80EF11C22E030E0AE014F5F5F4F10
:100E60006FEFC7010E94AF1C68EE73E080E090E076
:100E70000E94282822E030E0AE014F5F5F4F6FEF05
:100E8000C7010E94AF1C68EE73E080E090E00E9412
:100E900028287801E0E7EE1AEEEFFE0A6801F2E397
:100EA000CF1AFEEFDF0AF701819191917F01009740
:100EB00011F00E948F26EC14FD04A9F7F801E15708
:100EC000FE4F1082F80112820F900F90DF91CF91A8
:100ED0001F910F91FF90EF90DF90CF9008950F93A7
:100EE0001F93CF93DF93EC018B016CE275E081E0FF
:100EF00090E00E942F1E000F111FC00FD11FC0577E
:100F0000DE4F8881998102969F938F9383E195E0CC
:100F10009F938F931F9211E01F930E94CB1D888196
:100F2000998188599F4F9F938F938AEF94E09F9365
:100F30008F931F921F930E94CB1D888199818359A3
:100F40009F4F9F938F9381EE94E09F938F931F9277
:100F50001F930E94CB1D888199818E589F4F9F932C
:100F60008F9388EC94E09F938F931F921F930E941E
:100F7000CB1D8DB79EB748960FB6F8949EBF0FBE97
:100F80008DBFDF91CF911F910F910895DF92EF9266
:100F9000FF920F931F93CF93DF93660F771F860FF8
:100FA000971FEC01C057DE4FE881F98181818F9353
:100FB00080818F938CEA94E09F938F931F9282E0BD
:100FC0008F930E94CB1D0F900F900F900F900F905A
:100FD0000F90E12CF12C08E411E042E0D42EC7017F
:100FE000880F991F880F991F8F539F4F2881398130
:100FF000820F931F9F938F931F930F931F92DF92E4
:101000000E947F1D8FEFE81AF80A0F900F900F9043
:101010000F900F900F9088E0E816F10401F769EB4C
:1010200071E082E090E0DF91CF911F910F91FF90EE
:10103000EF90DF900C94171E3F924F925F926F9249
:101040007F928F929F92AF92BF92CF92DF92EF9258
:10105000FF920F931F93CF93DF93CDB7DEB76497C3
:101060000FB6F894DEBF0FBECDBFFC01E157FE4FB7
:10107000208130E0621773070CF012C1FB01E853C6
:10108000FF4FEE0FFF1FE80FF91FC080D180F60160
:10109000E958FF4F208120FF20C020E22983D6019C
:1010A000A758BF4F2C912A8322E02B8328E2269F4A
:1010B000D001279FB00D1124A15BBF4FA80FB91F0E
:1010C00011961C921E9221E030E013963C932E93D1
:1010D000129713E0E12EF12C04C0E12CF12C20E05A
:1010E00030E04081DE0111965D0141FF33C0AE0D5D
:1010F000BF1D41E24C93D70111968D010A0D1B1DB6
:10110000B2E0EB0EF11CA60143585F4FDA014C919F
:10111000D8014C9340903C0150903D0160903E01BD
:1011200070903F01AAE0A69FA001A79F500D112437
:10113000420F531F440F551F440F551F480F591F8F
:10114000DA01A15BBF4F4D925D926D927C92139735
:101150002F5F3F4F408142FF34C0D501AE0DBF1D10
:1011600042E24C93D70111968D010A0D1B1DB2E08E
:10117000EB0EF11CA60141585F4FDA014C91D801EA
:101180004C9340904001509041016090420170901A
:101190004301AAE0A69FA001A79F500D1124420F72
:1011A000531F440F551F440F551F480F591FDA0195
:1011B000A15BBF4F4D925D926D927C9213972F5F12
:1011C0003F4F408145FF3FC0D501AE0DBF1D4AE0F6
:1011D000469F4001479F900C1124280D391D49015D
:1011E000880C991C880C991C40E050E020E030E00D
:1011F000860101571F4F65E2362E40904401509002
:10120000450160904601709047014C5F5F4FF801C7
:101210006081718126173707B4F43C92F2E0EF0E3B
:10122000F11C11962C931197FA01E80DF91DE55B5D
:10123000FF4FE80FF91F40825182628273822F5F55
:101240003F4F1296E2CF4C01F50101900020E9F7E3
:101250003197EA19FB09FF93EF931F9284E18F9373
:10126000FF92EF928EE491E09F938F931F9282E022
:101270008F930E947F1D860109551F4F9701A5017D
:10128000D6016C91C40102960E94BA1BF601E55486
:10129000FF4F918380830FB6F894DEBF0FBECDBFA2
:1012A00064960FB6F894DEBF0FBECDBFDF91CF912D
:1012B0001F910F91FF90EF90DF90CF90BF90AF9074
:1012C0009F908F907F906F905F904F903F90089588
:1012D000BF92CF92DF92EF92FF920F931F93CF9323
:1012E000DF937B01EE0CFF1CE80EF91EE701C057EF
:1012F000DE4FC880D9806DEA71E081E090E00E9405
:10130000171E860109581F4FF801808180FF2AC0EF
:10131000E881F981E758FF4F81818F9380818F9316
:1013200082E594E09F938F931F92BB24B394BF9266
:101330000E94CB1DE881F981E558FF4F81818F9391
:1013400080818F938FE194E09F938F931F92BF9240
:101350000E94CB1D8DB79EB70C960FB6F8949EBF1A
:101360000FBE8DBFF801808181FF17C0E881F98130
:10137000E358FF4F81818F9380818F938CEE93E0B0
:101380009F938F931F9281E08F930E94CB1D0F90AC
:101390000F900F900F900F900F90F801808182FFB7
:1013A0002AC0E881F981E158FF4F81818F938081C4
:1013B0008F9389EB93E09F938F931F92BB24B394F9
:1013C000BF920E94CB1DE881F981EF57FF4F8181C9
:1013D0008F9380818F9386E893E09F938F931F92E2
:1013E000BF920E94CB1D8DB79EB70C960FB6F89496
:1013F0009EBF0FBE8DBFF801808183FF17C0E881BB
:10140000F981ED57FF4F81818F9380818F9383E521
:1014100093E09F938F931F9281E08F930E94CB1D47
:101420000F900F900F900F900F900F90F801808108
:1014300085FF3AC0E881F981E157FF4F81818F93A1
:1014400080818F9380E293E09F938F931F92BB24C0
:10145000B394BF920E94CB1DE881F981E557FF4FFD
:1014600081818F9380818F938DEE92E09F938F93F4
:101470001F92BF920E94CB1DE881F981E357FF4F75
:1014800081818F9380818F938AEB92E09F938F93DA
:101490001F92BF920E94CB1D8DB79EB742960FB68A
:1014A000F8949EBF0FBE8DBFF801808187FF17C0E3
:1014B000E881F981E956FF4F81818F9380818F9375
:1014C00087E892E09F938F931F9281E08F930E9411
:1014D000CB1D0F900F900F900F900F900F90F80171
:1014E0008081918190FF17C0E881F981E756FF4F15
:1014F00081818F9380818F9384E592E09F938F9376
:101500001F9281E08F930E94CB1D0F900F900F9040
:101510000F900F900F90F601E958FF4F8081918155
:1015200091FF1BC0F701E057FE4F0190F081E02DC5
:10153000E556FF4F81818F9380818F9381E292E006
:101540009F938F931F9281E08F930E94CB1D0F90EA
:101550000F900F900F900F900F90F8018081918164
:1015600092FF17C0E881F981E356FF4F81818F9385
:1015700080818F938EEE91E09F938F931F9281E0F5
:101580008F930E94CB1D0F900F900F900F900F9094
:101590000F90F8018081918193FF3AC0E881F98131
:1015A000E156FF4F81818F9380818F938BEB91E088
:1015B0009F938F931F92FF24F394FF920E94CB1D61
:1015C000E881F981EF55FF4F81818F9380818F935F
:1015D00088E891E09F938F931F92FF920E94CB1D0A
:1015E000E881F981ED55FF4F81818F9380818F9341
:1015F00085E591E09F938F931F92FF920E94CB1DF0
:101600008DB79EB742960FB6F8949EBF0FBE8DBFA2
:10161000F8018081918194FF17C0E881F981EB5531
:10162000FF4F81818F9380818F9382E291E09F931E
:101630008F931F9281E08F930E94CB1D0F900F908C
:101640000F900F900F900F9064EF71E080E090E0AA
:10165000DF91CF911F910F91FF90EF90DF90CF908E
:10166000BF900C9428282F923F924F925F926F92D6
:101670007F928F929F92AF92BF92CF92DF92EF9222
:10168000FF920F931F93CF93DF93CDB7DEB7619790
:101690000FB6F894DEBF0FBECDBF998B888B6B0160
:1016A0008C010E5F1F4FC8010E94AC1BA889B9892D
:1016B00051968C9399279F938F9388E491E09F9301
:1016C0008F931F9282E08F930E947F1D0F900F9047
:1016D0000F900F900F900F90E889F9898189803DD4
:1016E00059F48281811108C0C8010E94AC1B8F5F30
:1016F000A889B98951968C93E889F9896189CF01C4
:101700000E9400178983882309F460C67601F7E7F1
:10171000EF0EF11CC6018B559F4F9B838A83D60128
:10172000A156BF4FBD83AC83F601EF55FF4FFF833A
:10173000EE830297998788871297BB87AA87369787
:10174000FD87EC870A979F878E87160197E9290EF8
:10175000311C2601A1E94A0E511C3601B3E96B0E7A
:10176000711C5601E5E9AE0EB11C4601FBE88F0E77
:10177000911CC8010E94AC1BA889B98951968C9311
:1017800099279F938F9388E491E09F938F931F9263
:1017900082E08F930E947F1D0F900F900F900F900B
:1017A0000F900F90E889F9898189803D59F48281F1
:1017B000811108C0C8010E94AC1B8F5FA889B9893C
:1017C00051968C93A889B9895196EC918E2FEE0F82
:1017D000990BAA0BBB0B8631910508F043C5FC01A0
:1017E000EA5AFF4F0C947528F7018081918181603E
:1017F00091838083C8010E94AC1BA889B989519646
:101800008C9399279F938F9388E491E09F938F9374
:101810001F9282E08F930E947F1D0F900F900F9078
:101820000F900F900F90E889F9898189803D59F4D4
:101830008281811108C0C8010E94AC1B8F5FA889FA
:10184000B98951968C93F601E758FF4FA889B98959
:1018500051968C91082E000C990B91838083C801BE
:101860000E94AC1BE889F989818B99279F938F93FC
:1018700088E491E09F938F931F9282E08F930E9460
:101880007F1D0F900F900F900F900F900F90A889D1
:10189000B98951968C915197803D59F412968C914B
:1018A000811107C0C8010E94AC1B8F5FE889F989CC
:1018B000818BF601E558FF4F9DC0D7018D919C911A
:1018C000119782608D939C93C8010E94AC1BE8899C
:1018D000F989818B99279F938F9388E491E09F9357
:1018E0008F931F9282E08F930E947F1D0F900F9025
:1018F0000F900F900F900F90A889B98951968C91F5
:101900005197803D59F412968C91811107C0C801FE
:101910000E94AC1B8F5FE889F989818BF601E3583F
:10192000FF4FA6C0F70180819181846091838083FD
:10193000C8010E94AC1BA889B98951968C9399273C
:101940009F938F9388E491E09F938F931F9282E0FF
:101950008F930E947F1D0F900F900F900F900F900C
:101960000F90E889F9898189803D59F4828181113C
:1019700008C0C8010E94AC1B8F5FA889B989519625
:101980008C93F601E158FF4FA889B98951968C9143
:10199000082E000C990B91838083C8010E94AC1B18
:1019A000E889F989818B99279F938F9388E491E047
:1019B0009F938F931F9282E08F930E947F1D0F90C1
:1019C0000F900F900F900F900F90A889B9895196A2
:1019D0008C915197803D59F412968C91811107C0DA
:1019E000C8010E94AC1B8F5FE889F989818BF601E1
:1019F000EF57FF4FA889B98951968C91082E000C9A
:101A0000990B9183808387C4D7018D919C91119705
:101A100088608D939C93C8010E94AC1BE889F9896A
:101A2000818B99279F938F9388E491E09F938F9365
:101A30001F9282E08F930E947F1D0F900F900F9056
:101A40000F900F900F90A889B98951968C9151975A
:101A5000803D59F412968C91811107C0C8010E94F3
:101A6000AC1B8F5FE889F989818BF601ED57FF4F39
:101A7000A889B98951968C91082E000C990B9183F5
:101A800080839BC3F70180819181806191838083F2
:101A9000C8010E94AC1BA889B98951968C939927DB
:101AA0009F938F9388E491E09F938F931F9282E09E
:101AB0008F930E947F1D0F900F900F900F900F90AB
:101AC0000F90E889F9898189803D59F482818111DB
:101AD00008C0C8010E94AC1B8F5FA889B9895196C4
:101AE0008C93F601EB57FF4FA889B98951968C91D9
:101AF000082E000C990B91838083C8010E94AC1BB7
:101B0000E889F989818B99279F938F9388E491E0E5
:101B10009F938F931F9282E08F930E947F1D0F905F
:101B20000F900F900F900F900F90A889B989519640
:101B30008C915197803D59F412968C91811107C078
:101B4000C8010E94AC1B8F5FE889F989818BF6017F
:101B5000E957FF4FA889B98951968C91082E000C3E
:101B6000990B91838083C8010E94AC1BE889F98995
:101B7000818B99279F938F9388E491E09F938F9314
:101B80001F9282E08F930E947F1D0F900F900F9005
:101B90000F900F900F90A889B98951968C91519709
:101BA000803D59F412968C91811107C0C8010E94A2
:101BB000AC1B8F5FE889F989818BF601E757FF4FEE
:101BC0009BC0F70180819181806291838083C801ED
:101BD0000E94AC1BA889B98951968C9399279F9331
:101BE0008F9388E491E09F938F931F9282E08F936D
:101BF0000E947F1D0F900F900F900F900F900F90ED
:101C0000E889F9898189803D59F48281811108C070
:101C1000C8010E94AC1B8F5FA889B98951968C932B
:101C2000E889F9898189082E000C990BD4018D93DC
:101C30009C93C8010E94AC1BE889F989818B992784
:101C40009F938F9388E491E09F938F931F9282E0FC
:101C50008F930E947F1D0F900F900F900F900F9009
:101C60000F90A889B98951968C915197803D59F46C
:101C700012968C91811107C0C8010E94AC1B8F5F26
:101C8000E889F989818BF601E357FF4FA889B98963
:101C900051968C91082E000C990B91838083C8017A
:101CA0000E94AC1BE889F989818B99279F938F93B8
:101CB00088E491E09F938F931F9282E08F930E941C
:101CC0007F1D0F900F900F900F900F900F90A8898D
:101CD000B98951968C915197803D59F412968C9107
:101CE000811107C0C8010E94AC1B8F5FE889F98988
:101CF000818BF601E157FF4FA889B98951968C91E4
:101D0000082E000C990B9183808333CDF7018081DD
:101D10009181806491838083C8010E94AC1BA88953
:101D2000B98951968C9399279F938F9388E491E07A
:101D30009F938F931F9282E08F930E947F1D0F903D
:101D40000F900F900F900F900F90E889F98981897B
:101D5000803D59F48281811108C0C8010E94AC1BEA
:101D60008F5FA889B98951968C93E889F98981890F
:101D7000082E000C990BD2018D939C93C8010E94F0
:101D8000AC1BE889F989818B99279F938F9388E40D
:101D900091E09F938F931F9282E08F930E947F1D0B
:101DA0000F900F900F900F900F900F90A889B98906
:101DB00051968C915197803D59F412968C918111D6
:101DC00007C0C8010E94AC1B8F5FE889F989818B2D
:101DD000A889B98951968C91082E000C990BF301B2
:101DE00091838083C8010E94AC1BA889B989519650
:101DF0008C9399279F938F9388E491E09F938F937F
:101E00001F9282E08F930E947F1D0F900F900F9082
:101E10000F900F900F90E889F9898189803D59F4DE
:101E20008281811108C0C8010E94AC1B8F5FA88904
:101E3000B98951968C93E889F9898189082E000C1B
:101E4000990BD5017EC1F7018081918180689183D2
:101E50008083C8010E94AC1BA889B98951968C93D4
:101E600099279F938F9388E491E09F938F931F927C
:101E700082E08F930E947F1D0F900F900F900F9024
:101E80000F900F90E889F9898189803D59F482810A
:101E9000811108C0C8010E94AC1B8F5FA889B98955
:101EA00051968C93E889F9898189082E000C990B49
:101EB000D10181C1F70180819181916091838083FB
:101EC000C8010E94AC1BA889B98951968C939927A7
:101ED0009F938F9388E491E09F938F931F9282E06A
:101EE0008F930E947F1D0F900F900F900F900F9077
:101EF0000F90E889F9898189803D59F482818111A7
:101F000008C0C8010E94AC1B8F5FA889B98951968F
:101F10008C93E889F9898189082E000C990BAE858C
:101F2000BF8549C1F701808191819260918380834F
:101F3000C8010E94AC1BA889B98951968C93992736
:101F40009F938F9388E491E09F938F931F9282E0F9
:101F50008F930E947F1D0F900F900F900F900F9006
:101F60000F90E889F9898189803D59F48281811136
:101F700008C0C8010E94AC1B8F5FA889B98951961F
:101F80008C93E889F9898189082E000C990BAC851E
:101F9000BD8511C1F7018081918194609183808317
:101FA000C8010E94AC1BA889B98951968C939927C6
:101FB0009F938F9388E491E09F938F931F9282E089
:101FC0008F930E947F1D0F900F900F900F900F9096
:101FD0000F90E889F9898189803D59F482818111C6
:101FE00008C0C8010E94AC1B8F5FA889B9895196AF
:101FF0008C93E889F9898189082E000C990BAA85B0
:10200000BB85D9C0F70180819181986091838083DD
:10201000C8010E94AC1BA889B98951968C93992755
:102020009F938F9388E491E09F938F931F9282E018
:102030008F930E947F1D0F900F900F900F900F9025
:102040000F90E889F9898189803D59F48281811155
:1020500008C0C8010E94AC1B8F5FA889B98951963E
:102060008C93E889F9898189082E000C990BAC8141
:10207000BD818D939C93C8010E94AC1BE889F989AE
:10208000818B99279F938F9388E491E09F938F93FF
:102090001F9282E08F930E947F1D0F900F900F90F0
:1020A0000F900F900F90A889B98951968C915197F4
:1020B000803D59F412968C91811107C0C8010E948D
:1020C000AC1B8F5FE889F989818BA889B989519602
:1020D0008C91082E000C990BEE81FF8191838083F7
:1020E000C8010E94AC1BA889B98951968C93992785
:1020F0009F938F9388E491E09F938F931F9282E048
:102100008F930E947F1D0F900F900F900F900F9054
:102110000F90E889F9898189803D59F48281811184
:1021200008C0C8010E94AC1B8F5FA889B98951966D
:102130008C93E889F9898189082E000C990BA88570
:10214000B9858D939C9315CBF70180819181906126
:1021500091838083C8010E94AC1BA889B9895196DC
:102160008C9399279F938F9388E491E09F938F930B
:102170001F9282E08F930E947F1D0F900F900F900F
:102180000F900F900F90E889F9898189803D59F46B
:102190008281811108C0C8010E94AC1B8F5FA88991
:1021A000B98951968C93E889F9898189082E000CA8
:1021B000990BAA81BB818D939C93C8010E94AC1B93
:1021C000E889F989818B99279F938F9388E491E01F
:1021D0009F938F931F9282E08F930E947F1D0F9099
:1021E0000F900F900F900F900F90A889B98951967A
:1021F0008C915197803D59F412968C91811107C0B2
:10220000C8010E94AC1B8F5FE889F989818BC801E6
:102210000E94AC1BA889B98951968C9399279F93EA
:102220008F9388E491E09F938F931F9282E08F9326
:102230000E947F1D0F900F900F900F900F900F90A6
:10224000E889F9898189803D09F093CA82818111E9
:1022500090CAC8010E94AC1B8F5FA889B9895196AA
:102260008C9387CAC8010E94AC1BE889F989818BCD
:1022700099279F938F9388E491E09F938F931F9268
:1022800082E08F930E947F1D0F900F900F900F9010
:102290000F900F90A889B98951968C915197803DE4
:1022A00059F412968C91811107C0C8010E94AC1B91
:1022B0008F5FE889F989818B66E375E081E090E0C2
:1022C0000E942F1EC8010E94AC1BA889B989519693
:1022D0008C9399279F938F9388E491E09F938F939A
:1022E0001F9282E08F930E947F1D0F900F900F909E
:1022F0000F900F900F90E889F9898189803D59F4FA
:102300008281811108C0C8010E94AC1B8F5FA8891F
:10231000B98951968C93C8010E94AC1BE889F98950
:10232000818B99279F938F9388E491E09F938F935C
:102330001F9282E08F930E947F1D0F900F900F904D
:102340000F900F900F90A889B98951968C91519751
:10235000803D09F00ECA12968C9181110ACAC801FB
:102360000E94AC1B8F5FE889F989818B02CAC80182
:102370000E94AC1BA889B98951968C9399279F9389
:102380008F9388E491E09F938F931F9282E08F93C5
:102390000E947F1D0F900F900F900F900F900F9045
:1023A000E889F9898189803D59F48281811108C0C9
:1023B000C8010E94AC1B8F5FA889B98951968C9384
:1023C00069EB71E082E090E00E94171E89816196BE
:1023D0000FB6F894DEBF0FBECDBFDF91CF911F9136
:1023E0000F91FF90EF90DF90CF90BF90AF909F90B4
:1023F0008F907F906F905F904F903F902F900895B7
:10240000EF92FF920F931F93CF93DF93EC016BE05A
:1024100071E082E090E00E942F1E0FB6F894809148
:10242000C4029091C502A091C602B091C7020FBE2E
:102430008D879E87AF87B88B11E08B819C81DC01F3
:10244000ED91FC910084F185E02D0995892B19F41B
:102450008A81882389F011E08A81811140C08B81B3
:102460009C81DC01ED91FC910284F385E02D0995BE
:10247000803E9105D1F433C00FB6F8948091C40228
:102480009091C502A091C602B091C7020FBE4D85C2
:102490005E856F857889841B950BA60BB70BC29759
:1024A000A105B10550F21A83C8CF0FB6F8948091F8
:1024B000C4029091C502A091C602B091C7020FBE9E
:1024C0004D855E856F857889841B950BA60BB70BB0
:1024D000C297A105B10508F4BFCF1A83BDCF8A8189
:1024E000811136C061EF70E082E090E00E942F1E03
:1024F0000FB6F8948091C4029091C502A091C602D3
:10250000B091C7020FBE8D879E87AF87B88B11E051
:102510008B819C81DC01ED91FC910084F185E02DA3
:102520000995892B19F48A818823A9F011E08A8101
:1025300081110BC08B819C81DC01ED91FC910284A7
:10254000F385E02D0995892BF9F48A818823B1F16F
:1025500080E090E057C00FB6F8948091C40290914B
:10256000C502A091C602B091C7020FBE4D855E851F
:102570006F857889841B950BA60BB70BC297A105B5
:10258000B10530F21A83C4CF0FB6F8948091C4021B
:102590009091C502A091C602B091C7020FBE4D85B1
:1025A0005E856F857889841B950BA60BB70BC29748
:1025B000A105B10508F4BBCF1A83B9CF7E01B2E003
:1025C000EB0EF11CC7010E94AC1B8C011F938F9373
:1025D00088ED90E09F938F931F9282E08F930E94EB
:1025E000CB1DC7010E94AC1B682FCE0109D40F90F0
:1025F0000F900F900F900F900F90882309F4A8CFA1
:10260000C8010197DF91CF911F910F91FF90EF903B
:1026100008952F923F924F925F926F927F928F9286
:102620009F92AF92BF92CF92DF92EF92FF920F9361
:102630001F93CF93DF9300D0CDB7DEB78C01FB01A2
:10264000E853FF4FEE0FFF1FE00FF11F6080718016
:1026500082E2898313018FE7280E311CF10180810A
:102660008A839EE1C92ED12C5801F2E0AF0EB11C35
:1026700028E4422E21E0522E62E370E080E090E0F8
:102680000E94282822E030E0AE014F5F5F4FF30147
:102690006081C5010E94AF1CC801B2DE892B09F41C
:1026A0004EC07301F1ECEF0EF11C812C912CF10165
:1026B00080819181881699060CF041C0C5010E9465
:1026C000AC1BF801818B99279F938F935F924F9258
:1026D0001F92F2E0FF930E947F1D0F900F900F90CA
:1026E0000F900F900F90F8018189803D49F482810D
:1026F000811106C0C5010E94AC1B8F5FF801818B60
:10270000F8018189082E000C990BF7012081318195
:102710008217930724F402979183808309C0F701FD
:1027200022813381281739071CF402969383828310
:10273000FFEF8F1A9F0A84E0E80EF11CB8CFE1E0AA
:10274000CE1AD10809F098CF0F900F90DF91CF915A
:102750001F910F91FF90EF90DF90CF90BF90AF90BF
:102760009F908F907F906F905F904F903F902F90B1
:1027700008952F923F924F925F926F927F928F9225
:102780009F92AF92BF92CF92DF92EF92FF920F9300
:102790001F93CF93DF9300D000D0CDB7DEB79C83DB
:1027A0008B836C0120E7C21A2EEFD20A5C013FE452
:1027B000A30EB11C612C712C00E010E03324339483
:1027C00081579E4F9A8389838B809C8082E0880EFC
:1027D000911C48E4442E41E0542E52E0252EA9815C
:1027E000BA818C9190E0681679060CF085C0332090
:1027F00009F484C0F60160817181FB01E554FF4F4B
:102800004081518169557F4FC4010E947E1C382E42
:102810008B819C81F5DD892B09F464C0750100E092
:1028200010E0D701ED91FC911197309739F4129691
:102830008D919C91139780FD29C02AC0332041F1CE
:10284000D70112968D919C91139780FF0EC0DC01E9
:10285000B595A7952B813C81A20FB31F2D913C917B
:10286000E20FF31F0190F081E02DD6016D917C9174
:10287000959587952B813C81820F931F0995382E62
:102880000F5F1F4F34E0E30EF11CCBCF3110DFCFD1
:10289000C40162D7AB81BC8151968C9399279F93D9
:1028A0008F935F924F921F922F920E947F1D0F90E5
:1028B0000F900F900F900F900F90EB81FC8181890A
:1028C000803D51F48281811107C0C40145D78F5FDB
:1028D000AB81BC8151968C9369EB71E082E090E012
:1028E0000E94171EBFEF6B1A7B0AE2E0CE0ED11CCE
:1028F000F8E2AF0EB11C73CF311012C01F930F93CB
:1029000085E894E09F938F931F9281E08F930E94BC
:10291000CB1D0F900F900F900F900F900F90312CB8
:10292000832D0F900F900F900F90DF91CF911F91FB
:102930000F91FF90EF90DF90CF90BF90AF909F905E
:102940008F907F906F905F904F903F902F90089561
:10295000EF92FF920F931F93CF93DF931F92CDB708
:10296000DEB77C0184E189838B01000F111F0E0DFE
:102970001F1D00571E4FD801ED91FC9121E030E062
:10298000AE014F5F5F4F6081C7010296E8D7C70174
:1029900037DD892B39F0F80160817181C7010E9410
:1029A000330B01C080E00F90DF91CF911F910F9109
:1029B000FF90EF9008957F928F929F92AF92BF9277
:1029C000CF92DF92EF92FF920F931F93CF93DF93FB
:1029D0007C014C0182E0880E911CC401C0D7C70164
:1029E0000FDDEC01892B09F43EC0680188E4A82EB4
:1029F00081E0B82E92E0792EC601801B910B8C17D6
:102A00009D072CF5C401A8D6F701818B99279F93C8
:102A10008F93BF92AF921F927F920E947F1D0F9063
:102A20000F900F900F900F900F90F7018189803DCC
:102A300041F48281811105C0C4018ED68F5FF701F8
:102A4000818BF7018189F60181936F01D5CFC00F8A
:102A5000D11F2197188268EB71E082E090E00E941C
:102A6000171E81E001C080E0DF91CF911F910F918F
:102A7000FF90EF90DF90CF90BF90AF909F908F909E
:102A80007F900895AF92BF92CF92DF92EF92FF9224
:102A90000F931F93CF93DF93CDB7DEB7C656D109FF
:102AA0000FB6F894DEBF0FBECDBF6C015C0181E7AD
:102AB000A81A8EEFB80AF50190819F3109F441C040
:102AC00081EFA6968FAFA6979F5FA7969FAFA79718
:102AD000E12CF12C8E010F5F1F4F22E030E0AE01A0
:102AE0004B595F4F6FEFC60166DF8823D9F081E055
:102AF00091E00E948E268C01F501608170E06F5F8D
:102B00007F4F0E94BC06F50180819601280F311D80
:102B1000280F311DF901E057FE4F118300838F5FAD
:102B2000F501808368EE73E080E090E00E94282841
:102B30008DE00E94E226C39724F0F601828188236B
:102B400011F080E001C081E0CA59DF4F0FB6F89460
:102B5000DEBF0FBECDBFDF91CF911F910F91FF90D0
:102B6000EF90DF90CF90BF90AF9008958F929F929B
:102B7000AF92BF92CF92DF92EF92FF920F931F938B
:102B8000CF93DF93CDB7DEB7C856D1090FB6F8940F
:102B9000DEBF0FBECDBF4C0180E1A9968FAFA997D4
:102BA0006B01CC0CDD1CC80CD91C20E7C21A2EEF1F
:102BB000D20AD601ED91FC91E12CF12C8E010F5F30
:102BC0001F4F21E030E0AE0148595F4F6081C401E2
:102BD000F2DE811102C0912CABC0F601808191819F
:102BE000BE016F5F7F4F02960E949C2881E1A896EC
:102BF0008FAFA897D601ED91FC91E12CF12C8E01BD
:102C00000F5F1F4F21E030E0AE0149595F4F6081F7
:102C1000C401D1DE8823F9F28A81982F9F701F9218
:102C20009F93082E000C990B807F992744E095957F
:102C300087954A95E1F79F938F935BEBA52E51E023
:102C4000B52EBF92AF92F6018081918183599F4F3B
:102C50009F938F930E94A32882E1A7968FAFA79797
:102C6000D601ED91FC9121E030E0AE014A595F4F71
:102C70006081C401A0DE0FB6F894DEBF0FBECDBFE9
:102C8000882309F4A8CF8A81982F9F701F929F9361
:102C9000082E000C990B807F992734E09595879535
:102CA0003A95E1F79F938F93BF92AF92D6018D91A2
:102CB0009C9188599F4F9F938F930E94A32883E1F3
:102CC000A6968FAFA697D601ED91FC9121E030E05A
:102CD000AE014B595F4F6081C4016DDE982E0FB677
:102CE000F894DEBF0FBECDBF882309F474CF8A816C
:102CF000982F9F701F929F93082E000C990B807F36
:102D0000992724E0959587952A95E1F79F938F93CE
:102D1000BF92AF92D6018D919C918E589F4F9F93F9
:102D20008F930E94A3280FB6F894DEBF0FBECDBFCD
:102D3000892DC859DF4F0FB6F894DEBF0FBECDBF47
:102D4000DF91CF911F910F91FF90EF90DF90CF9087
:102D5000BF90AF909F908F900895CF93DF93EC0139
:102D60000296F0D483ED91E0998388831A8ADF91EB
:102D7000CF9108959F92AF92BF92CF92DF92EF9240
:102D8000FF920F931F93CF93DF93EC015B0100E061
:102D900010E07C0182E0E80EF11C88E4C82E81E09E
:102DA000D82E92E0992E0A151B05F4F4C701D4D44D
:102DB000898B99279F938F93DF92CF921F929F9237
:102DC0009ED60F900F900F900F900F900F908989C3
:102DD000803D39F48A81811104C0C701BDD48F5F61
:102DE000898B0F5F1F4FDFCFDF91CF911F910F9125
:102DF000FF90EF90DF90CF90BF90AF909F9008959D
:102E0000613091F0623019F460E876E009C0633017
:102E100019F46BE576E004C0643041F463E276E0D7
:102E200081E090E01CD702C081E0089580E0089521
:102E3000613091F0623019F461EF75E009C06330E0
:102E400019F469EB75E004C0643041F46DE775E096
:102E500081E090E004D702C081E0089580E0089509
:102E600081E00895009719F041110C948321089591
:102E70008F929F92AF92BF92CF92DF92EF92FF928A
:102E80000F931F93CF93DF93FB01E958FF4F2081EE
:102E900020FD02C081E09CC26B01EC017C0182E05C
:102EA000E80EF11CC70158D4898B99279F938F9303
:102EB00088E491E09F938F931F9282E08F931FD6B7
:102EC0000F900F900F900F900F900F908989803D79
:102ED00039F48A81811104C0C7013ED48F5F898B88
:102EE0006989CE01A5DF882309F472C21B8A1C8A76
:102EF0001D8A1E8AC70130D4898B99279F938F938F
:102F000088E491E09F938F931F9282E08F93F7D58F
:102F10000F900F900F900F900F900F908989803D28
:102F200039F48A81811104C0C70116D48F5F898B5F
:102F3000D601ED91FC91EE0FFF1FEE0FFF1FE45D38
:102F4000FE4F80819181009739F04989441F4427C1
:102F5000441F6BE370EF86DFD601ED91FC91EE0F1D
:102F6000FF1FEE0FFF1FE45DFE4F00811181011571
:102F7000110529F462E070E0CE01FCDED3C0C70188
:102F8000EBD3898B99279F938F9388E491E09F934C
:102F90008F931F9282E08F93B2D50F900F900F9076
:102FA0000F900F900F908989803D39F48A818111AB
:102FB00004C0C701D1D38F5F898B4989842F90E0EA
:102FC000A0E0B0E08B8B9C8BAD8BBE8B842F81708F
:102FD000942F9370933051F447FF10C06BEC76E060
:102FE00081E090E03CD681E08A8B3BC0882341F0B1
:102FF00047FF0CC041E06BE370EF31C0811106C0A8
:1030000047FF04C041E061E370E029C0469541708C
:1030100061E070EEC80126DF4989417064E070EE1E
:10302000C80120DF49894295417061E570EFC80110
:1030300019DF498942FB442740F96FE470EFC8016A
:1030400011DF498943FB442740F960E570EFC8016F
:1030500009DF498945FB442740F962E570EFC80163
:1030600001DFC70179D3898B99279F938F9388E4D8
:1030700091E09F938F931F9282E08F9340D50F90A2
:103080000F900F900F900F900F908989803D39F429
:103090008A81811104C0C7015FD38F5F898B498901
:1030A000842F90E0982F8827092E000CAA0BBB0BC9
:1030B0008B889C88AD88BE8888299929AA29BB2934
:1030C0008B8B9C8BAD8BBE8B441F4427441F6CE2C3
:1030D00070EFC801C7DE498946FB442740F962E02A
:1030E00070EEC801BFDE498945FB442740F96AE715
:1030F00070E0C801B7DE49894295417068E770E029
:10310000C801B0DE498943FB442740F963E670E01B
:10311000C801A8DE498942FB442740F966E770E010
:10312000C801A0DED601ED91FC91EE0FFF1FEE0F5E
:10313000FF1FE45DFE4F028113810115110539F077
:10314000F601E758FF4F80819181019729F462E0F1
:1031500070E0CE010FDEE2C0C701FED2898B992755
:103160009F938F9388E491E09F938F931F9282E0C7
:103170008F93C5D40F900F900F900F900F900F90DA
:103180008989803D39F48A81811104C0C701E4D264
:103190008F5F898B4989842F042E000C990BAA0B11
:1031A000BB0BDC01992788278B889C88AD88BE885B
:1031B00088299929AA29BB298B8B9C8BAD8BBE8B27
:1031C000842F8170942F9370933051F447FF10C077
:1031D0006AE976E081E090E042D581E08A8B3BC0ED
:1031E000882341F047FF0CC041E06BE370EF31C032
:1031F000811106C047FF04C041E062E370E029C0CE
:103200004695417061E670E0C8012CDE4989417045
:1032100063E770E0C80126DE49894295417066E6A1
:1032200070E0C8011FDE498942FB442740F967E688
:1032300070E0C80117DE498943FB442740F964E682
:1032400070E0C8010FDE498945FB442740F962E779
:1032500070E0C80107DEC7017FD2898B99279F9351
:103260008F9388E491E09F938F931F9282E08F93D6
:1032700046D40F900F900F900F900F900F90898968
:10328000803D39F48A81811104C0C70165D28F5F06
:10329000898B4989842F042E000C990BAA0BBB0B38
:1032A000B82FAA2799278827CB88DC88ED88FE8845
:1032B0008C299D29AE29BF298B8B9C8BAD8BBE8B16
:1032C000441F4427441F61E770E0C801CBDD4989F2
:1032D00046FB442740F967E770E0C801C3DD498930
:1032E00045FB442740F969E670E0C801BBDD498928
:1032F000429541706BE670E0C801B4DD498943FB3B
:10330000442740F96AE670E0C801ACDD498942FB18
:10331000442740F96CE670E0C801A4DD61E070E08C
:1033200080E090E00E94282880E0C82E81E0D82E1E
:103330007E015E01BCE0AB0EB11CF6014081518103
:10334000628173818B899C89AD89BE898423952391
:10335000A623B723481759076A077B0749F5D70102
:1033600057968D919C915897009701F564817581CE
:1033700088E0E2E3F2E0AEEDB2E001900D928A95D2
:10338000E1F788E0E2E3F2E0A6EDB2E001900D9211
:103390008A95E1F741E0C80165DDF60186819781F4
:1033A000D70158969C938E93579707C0019702C0F8
:1033B00086819781F701908F878BF8E0CF0ED11C23
:1033C00082E0E80EF11CAE14BF0409F0B6CF62CD66
:1033D000DF91CF911F910F91FF90EF90DF90CF90F1
:1033E000BF90AF909F908F900895AF92BF92DF9261
:1033F000EF92FF920F931F93CF93DF93FB01E95856
:10340000FF4F208121FD03C0DD24D39417C18B0120
:10341000EC017C0122E0E20EF11CC7019DD1898BF9
:1034200099279F938F9388E491E09F938F931F92A6
:1034300082E08F9364D30F900F900F900F900F90B6
:103440000F908989803D39F48A81811104C0C701B8
:1034500083D18F5F898B6989CE01EADCD82E8823DE
:1034600009F4ECC0D801ED91FC91EE0FFF1FEE0FB7
:10347000FF1FE45DFE4F80819181892B29F462E07A
:1034800070E0CE0177DC60C0C70166D1898B9927D7
:103490009F938F9388E491E09F938F931F9282E094
:1034A0008F932DD30F900F900F900F900F900F9040
:1034B0008989803D39F48A81811104C0C7014CD1CA
:1034C0008F5F898BC70148D1898B99279F938F93F1
:1034D00088E491E09F938F931F9282E08F930FD3A4
:1034E0000F900F900F900F900F900F908989803D53
:1034F00039F48A81811104C0C7012ED18F5F898B75
:103500008989082E000C990B5801BDEBAB0EB11C3C
:10351000F5012081318128173907B4F4D801ED91E4
:10352000FC91EE0FFF1FEE0FFF1FE45DFE4F41E029
:1035300065E370E08081918195DC8989082E000C1B
:10354000990BF50191838083D801ED91FC91EE0FE9
:10355000FF1FEE0FFF1FE45DFE4F82819381892BD9
:1035600039F0F801E358FF4F80819181019729F4E8
:1035700062E070E0CE01FEDB61C0C701EDD0898B57
:1035800099279F938F9388E491E09F938F931F9245
:1035900082E08F93B4D20F900F900F900F900F9006
:1035A0000F908989803D39F48A81811104C0C70157
:1035B000D3D08F5F898BC701CFD0898B99279F93F9
:1035C0008F9388E491E09F938F931F9282E08F9373
:1035D00096D20F900F900F900F900F900F908989B7
:1035E000803D39F48A81811104C0C701B5D08F5F55
:1035F000898B8989082E000C990B7801BFEBEB0EA3
:10360000F11CF70120813181281739070CF0FCCE1D
:10361000D801ED91FC91EE0FFF1FEE0FFF1FE45D4F
:10362000FE4F41E066E370E0828193811BDC898973
:10363000082E000C990BF701918380838D2DDF916B
:10364000CF911F910F91FF90EF90DF90BF90AF90BF
:1036500008950F931F93CF93DF93EC018C01015CCE
:103660001F4F48E050E06EED72E0C8010E948F28C5
:10367000892BB9F08EE392E09AD588E0E2E3F2E09C
:10368000AEEDB2E001900D928A95E1F78EE392E003
:103690008ED588E0EEEDF2E0D80101900D928A958A
:1036A000E1F7C95BDF4F48E050E066ED72E0CE0124
:1036B0000E948F28892BB9F08AE392E078D588E0C0
:1036C000E2E3F2E0A6EDB2E001900D928A95E1F717
:1036D0008AE392E06CD588E0E6EDF2E0DE0101904D
:1036E0000D928A95E1F7DF91CF911F910F91089587
:1036F000CF93DF93EC0131DB81EE91E099838883F6
:103700001B8A1C8A1D8A1E8A88E0FE01FF96DF0143
:10371000982F1D929A95E9F73896DF011D928A95A8
:10372000E9F7A0E0B1E0F097A39616968D919C91F1
:103730001797819391931896EC17FD07B1F7DF91D6
:10374000CF910895FC017283618384E690E09087B5
:103750008783928781870895FC0198EC915000003F
:10376000E9F781819281DC01ED91FC910284F3857E
:10377000E02D09942F923F924F925F926F927F9229
:103780008F929F92AF92BF92CF92DF92EF92FF9271
:103790000F931F93CF93DF93E62E5A01E9016BEE4F
:1037A00071E082E090E043D280EEF80180836CEF1C
:1037B00071E082E090E03BD2F801E1828E2D0E2C88
:1037C000000C990B9F93EF9298E4C92E91E0D92EAB
:1037D000DF92CF921F9222E0922E9F9290D1FC2EE8
:1037E000F394F801F282CE0101969F938F93DF92BA
:1037F000CF921F929F9283D18E2D8F0D4801F3E0BF
:103800008F0E911C2DB73EB7245F3F4F0FB6F89433
:103810003EBF0FBE2DBF75013601212C33243394DA
:10382000C82E082E000CDD0897012A193B092C1719
:103830003D071CF52701F7018081F40181934F01B9
:10384000F70181917F011F928F937F926F921F9258
:10385000F2E0FF9354D1F20180819601280F311DCF
:1038600087FD3A95C901B1010E9462280F900F901F
:103870000F900F900F900F90D3CFD7FF02C0C0E0F2
:10388000D0E00C0F1D1FF8018383C60160E071E0DA
:103890000E94622899279F938F9388E491E09F93D9
:1038A0008F931F9282E0F82EFF9229D1F8011482A3
:1038B0002496DF93CF938CEF96E09F938F931F9284
:1038C000FF9269D18DB79EB70C960FB6F8949EBF44
:1038D0000FBE8DBFCE01DF91CF911F910F91FF9051
:1038E000EF90DF90CF90BF90AF909F908F907F90A0
:1038F0006F905F904F903F902F900895CF92DF92FE
:10390000EF92FF920F931F93CF93DF937C018B0174
:103910006A01EB01D70111968D919C9112979E013E
:10392000201B310B2C153D054CF46991DC01ED9108
:10393000FC910190F081E02D0995ECCFDC01ED9137
:10394000FC910680F781E02D099581E0DF91CF9110
:103950001F910F91FF90EF90DF90CF9008954F92BD
:103960005F926F927F928F929F92AF92BF92CF920F
:10397000DF92EF92FF920F931F93CF93DF93DA01C1
:103980007C91772309F4A9C069017A01162FEC0113
:1039900060E072E082E090E04AD189819A81DC01A6
:1039A000ED91FC910190F081E02D60EE09956CEFB6
:1039B00071E082E090E03BD189819A81DC01ED9158
:1039C000FC910190F081E02D612F09951F921F93CA
:1039D00088E4A82E81E0B82EBF92AF921F9202E039
:1039E0000F938DD089819A81442443944C0CDC013F
:1039F000ED91FC910190F081E02D642D09951F92CD
:103A00001F93BF92AF921F920F9379D0410EEDB7E3
:103A1000FEB73C960FB6F894FEBF0FBEEDBF870110
:103A200092E0592E612C7724739489819A819801B0
:103A30002E193F092C153D0544F54801DC01ED9197
:103A4000FC910190F081E02DD8016C910995F8016D
:103A500081918F011F928F93BF92AF921F925F92BD
:103A60004ED0D4012C91842D440C990B820F911DC2
:103A700027FD9A95B3010E946228482E0F900F905F
:103A80000F900F900F900F90D0CFDC01ED91FC9133
:103A90000190F081E02D642D09951F924F9288E4EA
:103AA00091E09F938F931F9282E08F9328D089811A
:103AB0009A81DC01ED91FC910680F781E02D09955A
:103AC00060E172E082E090E0B2D00F900F900F9032
:103AD0000F900F900F9081E001C080E0DF91CF91B7
:103AE0001F910F91FF90EF90DF90CF90BF90AF901C
:103AF0009F908F907F906F905F904F900895CF929E
:103B0000DF92EF92FF920F931F93CF93DF93CDB786
:103B1000DEB7C456D1090FB6F894DEBF0FBECDBFD5
:103B2000E1968EAD9FADE19703972CF5AE014D5810
:103B30005F4FE3966EAD7FADE397CE0101960E9495
:103B4000E1288E010F5F1F4F7E0185E6E80EF11C14
:103B50000E151F0579F06801F8018081882351F066
:103B60008A3011F48DE013D10F5F1F4FF601808171
:103B70000ED1EECF4ED1CC59DF4F0FB6F894DEBF49
:103B80000FBECDBFDF91CF911F910F91FF90EF90AE
:103B9000DF90CF900895CF92DF92EF92FF920F9334
:103BA0001F93CF93DF93CDB7DEB7C456D1090FB6BD
:103BB000F894DEBF0FBECDBFE1968EAD9FADE1970D
:103BC00003972CF5AE014D585F4FE3966EAD7FAD78
:103BD000E397CE0101960E94FA288E010F5F1F4FD6
:103BE0007E0185E6E80EF11C0E151F0579F06801CF
:103BF000F8018081882351F08A3011F48DE0C7D01C
:103C00000F5F1F4FF6018081C2D0EECF02D1CC5999
:103C1000DF4F0FB6F894DEBF0FBECDBFDF91CF915F
:103C20001F910F91FF90EF90DF90CF9008951F9319
:103C3000CF93DF9303977CF4EB011991112339F0B3
:103C40001A3011F48DE0A3D0812FA1D0F6CFDF91EF
:103C5000CF911F91DEC0DF91CF911F910895CF9238
:103C6000DF92EF92FF920F931F93CF93DF93CDB725
:103C7000DEB7C456D1090FB6F894DEBF0FBECDBF74
:103C8000039724F57F936F938E010F5F1F4F1F9350
:103C90000F930E94C2287E0185E6E80EF11C0F906A
:103CA0000F900F900F900E151F0579F06801F80125
:103CB0008081882351F08A3011F48DE068D00F5F45
:103CC0001F4FF601808163D0EECFA3D0CC59DF4FD8
:103CD0000FB6F894DEBF0FBECDBFDF91CF911F911D
:103CE0000F91FF90EF90DF90CF9008958091E800C2
:103CF00080FFFCCF089581E08093D70080EA809315
:103D0000D80082E189BD09B400FEFDCF80E980932F
:103D1000D8001092E0001092E7021092DE0210929A
:103D2000DF021092E0021092E1021092E202109281
:103D3000E3021092E4021092E50291E09093D50222
:103D40008DE78093D3021092D1021092CF0210928D
:103D5000D6021092D7021092D8021092D902109275
:103D6000DA021092DB021092DC021092DD029093D4
:103D7000D4028093D2021092D0021092CE028CE034
:103D80008093E200789408958091E70208959091DD
:103D9000E702992371F09FB7F89423E02093E9009C
:103DA00020913002222349F02091E80025FD03C034
:103DB0009FBF8FEF0895109230022091E4002C5F96
:103DC00033E04091E80045FD12C09FBF9091E400B0
:103DD000291304C081E080933002EBCF9091E70279
:103DE000992339F39FB7F8943093E900EACF809391
:103DF000F1008091E80085FD06C08AE38093E80029
:103E00001092310203C082E0809331029FBF80E0B4
:103E100008958FB7F89490913102992379F093E047
:103E20009093E9009091E80095FF03C01092F10093
:103E3000F9CF9AE39093E800109231028FBF089572
:103E40001F920F920FB60F9211248F938091E10071
:103E50001092E10083FF0FC01092E90081E080938F
:103E6000EB001092EC0082E38093ED0088E08093F9
:103E7000F0001092E7028F910F900FBE0F901F90ED
:103E800018951F920F920FB60F921124FF920F9365
:103E90001F932F933F934F935F936F937F938F93D2
:103EA0009F93AF93BF93CF93DF93EF93FF931092C2
:103EB000E9008091E80083FF59C1F090F100809102
:103EC000F100C091F1009091F100D0E0D92B009168
:103ED000F1009091F10010E0192B2091F100609118
:103EE000F10092EF9093E800863009F048C080E23C
:103EF00097E0FC0145915491C417D507D9F4FC0112
:103F000032964591549104171507A1F4FC0134969B
:103F100045915491FC013696849130E0362B2F3F29
:103F2000310519F010F02FEF30E0281708F4822F38
:103F30003EEF0DC0079637E082389307D1F616C1E1
:103F4000490F511D891B3093E8008823A9F09091F7
:103F5000E800292F2570D9F392FD0BC1982F8134E9
:103F600008F090E4FA01292F222351F36491609321
:103F7000F10021503196F8CF903449F3FAC08530E2
:103F800041F48EEF8093E800B1DEC068C093E30097
:103F9000F0C0893039F5F1106AC0C093E7028EEFA6
:103FA0008093E80041E08CEF98E04093E9009C01A9
:103FB0002F5F3F4FFC0154915093EB00552359F074
:103FC000F90124912093EC009C012D5F3F4F319625
:103FD000E491E093ED004F5F443011F0C901E5CF6B
:103FE0008EE140C0883039F4F0E8FF1240C07EDE38
:103FF0008091E70298C0811114C078DE32E8F31294
:104000000AC00093E9008091EB0085FB882780F9C6
:104010001092E90001C080E08093F1001092F1005D
:10402000A1C0982F9D7F913011F592E0F9121FC029
:10403000CD2B09F09BC00F779FEF900F943008F0C5
:1040400095C09EEF9093E8000093E900833009F457
:104050008DC089E18093EB0081E090E001C0880F82
:104060000A95EAF78093EA001092EA0082C00115EF
:104070001105C9F5E1EAFE121BC0813061F436DE9C
:10408000EEEDF2E086EE92E021912093F1008E17A2
:104090009F07D1F767C0823021F428DE8091D302D8
:1040A00042C0833009F062C021DE8091D5023BC05E
:1040B000F1E2FF125BC0893049F48091E80082FF91
:1040C000FCCF8091F1008093CF023DC08A3029F46B
:1040D000D093D3021092D10245C08B3009F046C074
:1040E000C093D5023FC00130110509F03FC091EAED
:1040F000F9121CC0813061F4F9DDE6EDF2E08EEDDD
:1041000092E021912093F1008E179F07D1F72AC0EA
:10411000823021F4EBDD8091D20205C0833031F58D
:10412000E5DD8091D4028093F1001CC0E1E2FE1233
:104130001DC0893061F48091E80082FFFCCF80913E
:10414000F1008093CE028BEF8093E8000BC08A30A1
:1041500029F4D093D2021092D00204C08B3031F4F3
:10416000C093D4028EEF8093E80003C081E2809375
:10417000EB00FF91EF91DF91CF91BF91AF919F91B4
:104180008F917F916F915F914F913F912F911F91EF
:104190000F91FF900F900FBE0F901F90189566FF24
:1041A00002C082E001C080E067FD80640895FC01E8
:1041B0008091E702882309F450C08FB7F894928168
:1041C0009093E9009091E4009E5C2091E80025FD29
:1041D00010C08FBF8091E702882309F43EC0809110
:1041E000E4009817D1F18FB7F89422812093E90069
:1041F000ECCFA081B1819C919093F100A081B1811D
:1042000011969C919093F100A081B18112969C919E
:104210009093F100A081B18113969C919093F1004D
:10422000A081B18114969C919093F100A081B181FD
:1042300015969C919093F100A081B18116969C9166
:104240009093F100A081B18117969C919093F10019
:104250009AE39093E80013828FBF0895603271054E
:1042600040F46A30710519F16B30710511F58BE27C
:1042700021C06038710530F4FB01EE0FFF1FE952D9
:10428000F44F0CC0613A7105A0F06F3F710509F061
:1042900040F4FB01EE0FFF1FE95EF54F859194910D
:1042A00008956C3A704229F488E890E3089588E212
:1042B00001C080E090E00895FC01442349F0A08112
:1042C000B1819C91842F8923481711F0942B9C93E2
:1042D0006623C1F0808191819C012E5F3F4F08963B
:1042E000F9014191641771F0E817F907D1F7F90165
:1042F0002F5F3F4F4081411102C06083089528170E
:104300003907A9F708950F931F93CF93DF938C017B
:10431000872F9927823CB8F0803E60F46F7377272F
:104320008F71992726E0880F991F2A95E1F7682B4E
:10433000792B09C0803F11F440E013C0803EB9F4EE
:10434000462F60E00EC0C80189DFEC01009779F0CC
:10435000BC01C80124DF6C2F6F736F3309F464E66E
:10436000482FC801DF91CF911F910F91A5CFDF9109
:10437000CF911F910F9108958091D102EEE3F2E069
:104380002EED32E03183208391E09283838380910C
:10439000D002EAE3F2E026ED32E03183208392E0BE
:1043A0009283838308959F92AF92BF92CF92DF92C0
:1043B000EF92FF920F931F93CF93DF935C01EA017B
:1043C000922E5E9800E010E06B01770FEE08FF0878
:1043D0000A151B055CF4C701B6013AD65E9AC701FF
:1043E000B60136D65E980F5F1F4FF2CF992011F0BD
:1043F0005E9A01C05E98BE01DD0F880B990BDF91BC
:10440000CF911F910F91FF90EF90DF90CF90BF90D1
:10441000AF909F901DC6CF93DF936DDCB5DC8823F2
:10442000E9F36CED75E080E090E012D61F921F92E8
:104430001F9281E08F9322E43BE03F932F931F92E2
:104440008F93A9DB60E37BE081E090E008DC64E12E
:104450007BE081E090E003DC64E07BE081E090E0E1
:10446000FEDB569A63EF7AE081E090E0F8DB20E033
:1044700030E044EF51E069E170E081E090E093DFEB
:1044800041E161E170E084E492E040D28EEC91E0A1
:1044900045D4EC0164E472E00E94EA06D093430242
:1044A000C09342026BED7AE081E090E0D8DB249A81
:1044B000249A2C9A8DB79EB708960FB6F8949EBF93
:1044C0000FBE8DBFDF91CF910895BF92CF92DF9243
:1044D000EF92FF920F931F93CF93DF9369EB7AE0F4
:1044E00081E090E0BCDB8DE06DD48538934054F0E2
:1044F00020E030E040E050E064EF71E082E090E0E6
:1045000052DFF1CF68EA7AE081E090E0A8DB6EE864
:104510007AE081E090E0A3DB20E030E044EF51E07E
:1045200069E170E082E090E03EDF8091420290918C
:1045300043020E94110764E87AE081E090E08FDB9B
:104540008DE040D49F938F938AE59AE09F938F9359
:104550001F9282E08F931FDB63E47AE081E090E0BA
:104560007EDB0F900F900F900F900F900F90809127
:104570004202909143020E9442158111F8CFE091CE
:104580004202F0914302828181110CC1E157FE4F3A
:104590008081882309F406C18DE014D49F938F9302
:1045A00084E39AE09F938F931F9282E08F93F3DAD4
:1045B000E0914202F0914302E157FE4F80811F9249
:1045C0008F9381E29AE09F938F931F9281E08F9364
:1045D000E2DA8DB79EB70C960FB6F8949EBF0FBE69
:1045E0008DBFC0E0D0E039E0C32E3AE0D32EBB242B
:1045F000B39442EAE42E49E0F42EE0914202F091B5
:104600004302E157FE4F808190E0C817D9070CF0B4
:1046100089C08E010F5F1F4F1F930F93DF92CF92C0
:104620001F92BF92B8DA63EF79E081E090E017DB88
:10463000BE0180914202909143020E94B6150F90F4
:104640000F900F900F900F900F90882309F45CC08B
:10465000BE0180914202909143020E946F07BE0109
:1046600080914202909143020E94A814882309F489
:104670004BC0BE0180914202909143020E946809A2
:1046800062EE79E082E090E0EADABE0180914202D7
:10469000909143020E941C08809142029091430233
:1046A000FE01E853FF4FEE0FFF1FE80FF91F0190C7
:1046B000F081E02DE158FF4F81818F9380818F93AE
:1046C0001F930F93FF92EF921F92BF9264DABE0185
:1046D00080914202909143020E940913BE01809191
:1046E0004202909143020E94C60768E979E081E0A6
:1046F00090E0B5DAADB7BEB718960FB6F894BEBF66
:104700000FBEADBFE80179CF6DE679E081E090E0C2
:10471000DF91CF911F910F91FF90EF90DF90CF909D
:10472000BF909DCA67E579E081E090E098DA21E0EA
:1047300030E048EE53E069E170E083E090E033DE82
:10474000C0E0D0E08DE03ED3C39764F58091420293
:1047500090914302FC012289222331F063E479E045
:1047600081E090E07CDA17D40E94B91381110EC069
:10477000219668EE73E080E090E06AD4C330D10502
:1047800009F765E079E082E090E0C2CF80914202D3
:1047900090914302DC01ED91FC910084F185E02DC4
:1047A0000995CECFDF91CF911F910F91FF90EF90A0
:1047B000DF90CF90BF900895E4E4F2E088E0DF015D
:1047C0001D928A95E9F788EE93E0A0E0B0E083833C
:1047D0009483A583B68382E292E0918380830895D7
:1047E0005091800240917F02852F90E0242F30E08D
:1047F000541710F4805C9F4F821B930B08955091C7
:10480000800240917F02252F30E0842F90E0821BB0
:10481000930B541710F0879608950197089580918F
:104820008002E0917F028E1751F0EF5FE03408F0D4
:10483000E0E0F0E0EF57FD4F808190E008958FEFCA
:104840009FEF08959091800280917F02981779F0F0
:1048500090917F029F5F903408F090E0E92FF0E0A4
:10486000EF57FD4F808190937F0290E008958FEF86
:104870009FEF0895809154028111FCCF08952091FB
:10488000C90023FD06C021E0FC01228380E090E006
:104890000895809134018F3F21F080915402882344
:1048A00099F09091560280915502981312C0809110
:1048B000C80085FF0EC08FB7F8946093CE0091E0DA
:1048C000909354028FBF1DC0E0913401F0E0CAD232
:1048D000E8CF809156028F5F8832B0F490915502F4
:1048E0009817E1F3E82FF0E0E95AFD4F608391E07B
:1048F00090935402809356028091C9008062809305
:10490000C90081E090E0089580E0E8CF1F93CF9345
:10491000DF93EB01142F409334014F3F29F0842F94
:1049200090D2E12FF0E0A4D2C0FF08C0C13080E1F6
:10493000D80720F482E08093C80004C01092C80019
:10494000D695C7952197D093CD00C093CC00809188
:10495000C90083FD10C01092800210927F02109255
:104960005602109255021092540286E08093CA00BB
:1049700088ED8093C900DF91CF911F9108951F9218
:104980000F920FB60F9211242F938F939F93EF9353
:10499000FF939091CE00809180028F5F803408F069
:1049A00080E020917F02821739F0E82FF0E0EF5786
:1049B000FD4F908380938002FF91EF919F918F91A3
:1049C0002F910F900FBE0F901F9018951F920F926E
:1049D0000FB60F9211248F939F93EF93FF939091B3
:1049E000560280915502981306C08091C9008F7DB0
:1049F0008093C9000FC0809155028F5F883208F004
:104A000080E0E82FF0E0E95AFD4F90819093CE00CE
:104A100080935502FF91EF919F918F910F900FBE60
:104A20000F901F9018951F920F920FB60F9211249E
:104A30008F93EF93FF9310925402809134018F3F34
:104A400021F0E0913401F0E013D2FF91EF918F91CA
:104A50000F900FBE0F901F901895ECE4F2E01282B9
:104A600088EE93E0A0E0B0E083839483A583B683CF
:104A7000178282E292E0918380830895CF92DF9241
:104A8000EF92FF920F931F93CF93DF936C01EB0193
:104A90007B01E40EF51E00E010E0CE15DF0561F0AD
:104AA0006991D601ED91FC910190F081E02DC60154
:104AB0000995080F191FF1CFC801DF91CF911F9100
:104AC0000F91FF90EF90DF90CF9008954BD1A3DC32
:104AD000FCDCFECF0F931F93CF93DF9382309105C1
:104AE00010F482E090E0E091CC02F091CD0220E061
:104AF00030E060E070E0A0E0B0E0C0E0D0E03097EF
:104B000001F1408151810281138148175907B0F0AA
:104B10008417950751F4209719F00A831B8329C045
:104B20000093CC021093CD0224C02115310519F059
:104B30004217530718F49A01BE01DF01EF01F80193
:104B4000DECF2115310509F1281B390B2430310541
:104B500090F412968D919C9113976115710521F037
:104B6000FB019383828304C09093CD028093CC0297
:104B7000FD01329644C0FD01E20FF31F8193919332
:104B8000225031092D933C933AC02091C1023091BB
:104B9000C202232B41F42091370130913801309328
:104BA000C2022093C10220913501309136012115B6
:104BB000310541F42DB73EB74091390150913A018A
:104BC000241B350BE091C102F091C202E217F307FA
:104BD000A0F42E1B3F0B2817390778F0AC014E5F6D
:104BE0005F4F2417350748F04E0F5F1F5093C202E6
:104BF0004093C1028193919302C0E0E0F0E0CF01C5
:104C0000DF91CF911F910F910895CF93DF9300977C
:104C100009F481C0FC01329713821282A091CC0268
:104C2000B091CD02109781F420813181820F931FC2
:104C30002091C1023091C2022817390751F5F09333
:104C4000C202E093C10267C0ED0120E030E0CE1760
:104C5000DF0740F44A815B819E0141155105F1F067
:104C6000EA01F5CFD383C28340815181840F951F20
:104C7000C817D90759F488819981840F951F029626
:104C8000918380838A819B8193838283211531055F
:104C900029F4F093CD02E093CC023DC0E901FB83FF
:104CA000EA8349915991C40FD51FEC17FD0761F4B0
:104CB00080819181840F951F0296E90199838883F1
:104CC000828193819B838A83E0E0F0E012968D914C
:104CD0009C911397009719F0FD01DC01F7CF8D919E
:104CE0009C9111979D012E5F3F4F820F931F209142
:104CF000C1023091C2022817390769F4309729F4AC
:104D00001092CD021092CC0202C013821282B09394
:104D1000C202A093C102DF91CF910895DBCE75CF7F
:104D200008951DBA109268001CBC10BE1FBA1092E4
:104D30007A0010926E0010926F0010927100109223
:104D400072001092C900ECEBF0E0108214B817B8B2
:104D50001AB81DB810BA108215B818B81BB81EB80A
:104D600011BA0895F894E1E6F0E020E8208310827B
:104D700083E084BD85BDEEE6F0E0808181608083C4
:104D800081E08093800092E0909381008093900076
:104D9000909391009093C00094E09093C100809311
:104DA000C2008093C3001092C40086E880937A000A
:104DB00020937B0010927E0010927D000E947B1E4B
:104DC000789408958731D0F5E82FF0E0E75FF24F4F
:104DD000E491E83070F420917E0081E090E00E2EA6
:104DE00001C0880F0A94EAF7822B80937E0080E846
:104DF0000EC0E85020917D0081E090E00E2E01C0B1
:104E0000880F0A94EAF7822B80937D0080EA8093D2
:104E10007B0080913B01E82BE0937C0080917A003D
:104E2000806480937A0080917A0086FDFCCF809127
:104E300078002091790090E0922B089580E090E036
:104E40000895893170F4E7EDFCE0880FE80FF11D5B
:104E50002591E491F0E09FB7F8948181822B8183C2
:104E60009FBF0895E93150F4EE0FE15CF84D0994CD
:104E7000E93120F4EE0FEF58F84D09940895289A7F
:104E80000895299A08952A9A08952B9A08952F9A99
:104E90006AC0589A58C0599A08955A9A08955B9AC8
:104EA0000895469A66C0479A6AC05E9A08955F9AC6
:104EB0006CC02C9A08952D9A4AC02E9A4EC08F9A93
:104EC00008958E9A08958D9A08958C9A0895899AD6
:104ED0000895889A08955C9A08955D9A0895769A3F
:104EE000089528980895299808952A9808952B9848
:104EF00008952F9838C0589826C0599808955A9800
:104F000008955B980895469834C0479838C05E98D5
:104F100008955F983AC02C9808952D9818C02E983F
:104F20001CC08F9808958E9808958D9808958C9838
:104F3000089589980895889808955C9808955D98D3
:104F4000089576980895E4B5EF7DE4BD0895E09165
:104F50008000EF77E09380000895E0918000EF7D7E
:104F6000E09380000895E0918000E77FE093800067
:104F70000895E0919000EF77E09390000895E0911C
:104F8000C000EF77E093C0000895E091C200E77F92
:104F9000E093C2000895F89484B7877F84BF80911E
:104FA00060008061809360001092600080E29EE467
:104FB0000197F1F781E08093E00080E28093D800D0
:104FC00080E69AEE0197F1F7ACDE0C94003FFFCF3C
:104FD0008F938FB78F938091C3028D5F8D37D0F4FD
:104FE0008093C3028091C4028F5F8093C402D8F083
:104FF0008091C5028F4F8093C502A8F08091C602B0
:105000008F4F8093C60278F08091C7028F4F8093B4
:10501000C70209C08D578093C3028091C4028E5F7E
:105020008093C40228F78091C8028C5F8093C802E5
:1050300058F08091C9028F4F8093C90228F0809167
:10504000CA028F4F8093CA028F918FBF8F9118959C
:10505000CF92DF92EF92FF926B017C0119D09B01FE
:10506000C114D104E104F10471F012D0621B730B7E
:10507000683E7340A8F381E0C81AD108E108F1083E
:1050800028513C4FEDCFFF90EF90DF90CF900895E7
:105090000FB6F89466B515B27091C8028091C90236
:1050A0009091CA020FBE10FE05C06F3F19F07C5FE1
:1050B0008F4F9F4F11240024660F001C660F001CA9
:1050C0007029089597FB072E16F4009406D077FDFB
:1050D00008D011D007FC05D03EF4909581959F4FE4
:1050E0000895709561957F4F0895EE0FFF1F05900D
:1050F000F491E02D0994AA1BBB1B51E107C0AA1F24
:10510000BB1FA617B70710F0A61BB70B881F991F68
:105110005A95A9F780959095BC01CD010895FB01A2
:10512000DC0104C08D910190801921F44150504060
:10513000C8F7881B990B0895FB01DC0101900D92C3
:105140000020E1F70895AEE0B0E0E8EAF8E2FBC243
:105150000D891E8986E08C831A8309838FEF9FE770
:105160009E838D83AE01475E5F4F6F89788DCE0140
:10517000019659D0EF81F885E00FF11F10822E962D
:10518000E4E0FDC2AEE0B0E0E7ECF8E2DCC20D899D
:105190001E898EE08C831A8309838FEF9FE79E839D
:1051A0008D83AE01475E5F4F6F89788DCE0101968A
:1051B0003AD0EF81F885E00FF11F10822E96E4E0DF
:1051C000DEC2AEE0B0E0E6EEF8E2BDC28C0186E001
:1051D0008C831A8309838FEF9FE79E838D83CE0193
:1051E000019621D0EF81F885E00FF11F10822E96F5
:1051F000E4E0C5C2AEE0B0E0EFEFF8E2A4C28C019B
:105200008EE08C831A8309838FEF9FE79E838D83C3
:10521000CE01019608D0EF81F885E00FF11F1082D2
:105220002E96E4E0ACC2ABE0B0E0E8E1F9E27DC28A
:105230006C017B018A01FC0117821682838181FF48
:10524000BFC1CE0101963C01F6019381F70193FDA8
:10525000859193FF81917F01882309F4ADC1853247
:1052600039F493FD859193FF81917F01853221F47B
:10527000B60190E0C0D1E8CF912C212C312CFFE178
:10528000F315D8F08B3279F038F4803279F083322C
:10529000A1F4232D20611DC08D3261F0803369F4AB
:1052A000232D216016C0832D8260382EE32DE4600B
:1052B0003E2E2AC0F32DF8601DC037FC2DC020ED16
:1052C000280F2A3040F08E32B9F436FC75C1232DF8
:1052D0002064322E19C036FE06C08AE0989E200D4A
:1052E0001124922E11C0EAE02E9E200D1124222EB0
:1052F000F32DF0623F2E08C08C3621F4832D806898
:10530000382E02C0883641F4F70193FD859193FF52
:1053100081917F018111B3CF982F9F7D9554933058
:1053200028F40C5F1F4F9FE399830DC0833631F043
:10533000833771F0833509F055C020C0F8018081B2
:1053400089830E5F1F4F88248394912C530112C0D0
:105350002801F2E04F0E511CF801A080B18036FE0A
:1053600003C0692D70E002C06FEF7FEFC50138D137
:105370004C018201F32DFF773F2E15C0280122E05A
:10538000420E511CF801A080B18036FE03C0692D89
:1053900070E002C06FEF7FEFC50117D14C01F32D14
:1053A000F0683F2E820133FC19C0822D90E08816F0
:1053B0009906A0F4B60180E290E01DD12A94F5CFC1
:1053C000F50137FC859137FE81915F01B60190E0D0
:1053D00012D121102A9421E0821A9108811491049B
:1053E00079F7E1C0843611F0893639F5F80137FED6
:1053F00007C060817181828193810C5F1F4F08C05B
:1054000060817181072E000C880B990B0E5F1F4F76
:10541000F32DFF763F2E97FF09C0909580957095EC
:1054200061957F4F8F4F9F4FF0683F2E2AE030E00D
:10543000A3011DD1882E861844C0853731F4232D51
:105440002F7EB22E2AE030E025C0932D997FB92E11
:105450008F36C1F018F4883579F0AEC0803719F076
:10546000883721F0A9C0E92FE061BE2EB4FE0DC03F
:10547000FB2DF460BF2E09C034FE0AC0292F266020
:10548000B22E06C028E030E005C020E130E002C0C6
:1054900020E132E0F801B7FE07C0608171818281AE
:1054A00093810C5F1F4F06C06081718180E090E0A6
:1054B0000E5F1F4FA301DBD0882E8618FB2DFF77D0
:1054C0003F2E36FE0DC0232D2E7FA22E891458F4B8
:1054D00034FE0BC032FC09C0832D8E7EA82E05C081
:1054E000B82CA32C03C0B82C01C0B92CA4FE0FC04B
:1054F000FE01E80DF11D8081803321F49A2D997E03
:10550000A92E09C0A2FE06C0B394B39404C08A2D8C
:10551000867809F0B394A3FC10C0A0FE06C0B214B4
:1055200080F4280C922C9B180DC0B21458F4B601CC
:1055300080E290E060D0B394F8CFB21418F42B1846
:1055400002C0982C212CA4FE0FC0B60180E390E08D
:1055500052D0A2FE16C0A1FC03C088E790E002C0B2
:1055600088E590E0B6010CC08A2D867851F0A1FE46
:1055700002C08BE201C080E2A7FC8DE2B60190E0A0
:105580003AD0891430F4B60180E390E034D09A9494
:10559000F8CF8A94F301E80DF11D8081B60190E007
:1055A0002AD08110F6CF222009F44ECEB60180E237
:1055B00090E021D02A94F7CFF6018681978102C02E
:1055C0008FEF9FEF2B96E2E1CCC0FC01059061507C
:1055D00070400110D8F7809590958E0F9F1F089509
:1055E000FC016150704001900110D8F780959095B2
:1055F0008E0F9F1F08950F931F93CF93DF93FB018F
:10560000238121FD03C08FEF9FEF2CC022FF16C026
:1056100046815781248135814217530744F4A08184
:10562000B1819D012F5F3F4F318320838C93268171
:1056300037812F5F3F4F3783268314C08B01EC01E6
:10564000FB010084F185E02D0995892BE1F6D80155
:1056500016968D919C911797019617969C938E9311
:105660001697CE01DF91CF911F910F910895FA0106
:10567000AA27283051F1203181F1E8946F936E7F91
:105680006E5F7F4F8F4F9F4FAF4FB1E03ED0B4E082
:105690003CD0670F781F891F9A1FA11D680F791FC3
:1056A0008A1F911DA11D6A0F711D811D911DA11DD4
:1056B00020D009F468943F912AE0269F11243019E4
:1056C000305D3193DEF6CF010895462F4770405D7F
:1056D0004193B3E00FD0C9F7F6CF462F4F70405D2E
:1056E0004A3318F0495D31FD4052419302D0A9F789
:1056F000EACFB4E0A6959795879577956795BA9583
:10570000C9F700976105710508959B01AC010A2E48
:1057100006945795479537952795BA95C9F7620F1F
:10572000731F841F951FA01D08952F923F924F92C3
:105730005F926F927F928F929F92AF92BF92CF9221
:10574000DF92EF92FF920F931F93CF93DF93CDB72A
:10575000DEB7CA1BDB0B0FB6F894DEBF0FBECDBFA2
:1057600009942A88398848885F846E847D848C8473
:105770009B84AA84B984C884DF80EE80FD800C817C
:105780001B81AA81B981CE0FD11D0FB6F894DEBF5F
:0C5790000FBECDBFED010895F894FFCFCF
:10579C0082000000350014008100000029F02C016B
:1057AC008800000028F02C01840000002BF02C0154
:1057BC009000000070002C010200800036001400E4
:1057CC003E023A02FF0000E80280004002000100A5
:1057DC0004000100060001002025303258006265EB
:1057EC00666F7265206275696C645261775265717F
:1057FC00756573745061636B65742C2069647843B0
:10580C006F6D6D616E643A25642C2073697A656FD7
:10581C00662862756C6B436F6D6D616E6473293AAB
:10582C0025642C207374726C656E2862756C6B43E6
:10583C006F6D6D616E6473293A25640A004665616B
:10584C0074757265733A0A000A0A0025642E256481
:10585C0000000000003817F51930173017291B000D
:10586C00000000902690269026902690260000009E
:10587C00003817F51930173017291B4275696C64FD
:10588C00696E67205061636B65743A002045300087
:10589C0053656E64696E67205061636B65743A0082
:1058AC000A5061636B65742073656E740A000000A6
:1058BC0000003F243E25FF233A24F02322240F240A
:00000001FF
