:1000000051C6000077C6000075C6000073C6000028
:1000100071C600006FC600006DC600006BC6000010
:1000200069C6000067C600000C94111E0C94321EB5
:1000300061C600005FC600005DC600005BC6000030
:1000400059C6000057C6000055C6000053C6000040
:1000500051C600004FC600004DC600000C94352765
:1000600049C600000C940C240C9433240C94602496
:1000700041C600003FC600003DC600003BC6000070
:1000800039C6000037C6000035C6000033C6000080
:1000900031C600002FC600002DC600002BC6000090
:1000A00029C6000027C6000025C600006311A00B6A
:1000B000090C3E0CB00CEE0C8D0D320EDE10DE1075
:1000C000DE10DE10DE10DE10DE10DE10CF0E060FAA
:1000D0003E0F760FAE0F5010202D3E205265636507
:1000E000697665643A20453020303020253032581A
:1000F00000436865636B20696620666F7220486FF5
:100100007374202830783030290A005761697420D0
:10011000554152542073796E632028307845302938
:100120000A00202D204261636B75703A206861736C
:1001300020646174612020202020202020202020A5
:1001400020202020202020202020202020202D3E84
:100150002025640A00202D20446973706C61792089
:100160006F75747075743A20747970652020202042
:10017000202020202020202020202020202020207F
:10018000202D3E2025640A00202D20446973706CC8
:100190006179206F75747075743A20686569676855
:1001A00074202020202020202020202020202020FB
:1001B000202020202D3E2025640A00202D20446987
:1001C00073706C6179206F75747075743A207769FB
:1001D000647468202020202020202020202020203F
:1001E000202020202020202D3E2025640A00202DC4
:1001F00020416E616C6F67206F75747075743A2062
:100200004E756D626572206F66206368616E6E6503
:100210006C7320202020202020202D3E2025640AE1
:1002200000202D2047656E6572616C2070757270BC
:100230006F7365206F75747075743A204E756D62BA
:100240006572206F6620736C6F747320202D3E20C2
:1002500025640A00202D204D6564616C20686F7054
:100260007065723A204E756D626572206F66206D02
:100270006564616C20686F70706572732020202047
:100280002D3E2025640A00202D20436172642053F6
:10029000797374656D3A204E756D626572206F6674
:1002A000206361726420736C6F747320202020209F
:1002B0002020202D3E2025640A00202D204C696737
:1002C000687467756E3A204E756D626572206F6650
:1002D000206566666563746976652062697473205B
:1002E000666F722059202D3E2025640A00202D20A3
:1002F0004C6967687467756E3A204E756D626572F9
:10030000206F66206566666563746976652062693C
:10031000747320666F722058202D3E2025640A00D9
:10032000202D204C6967687467756E3A204E756D94
:10033000626572206F66206368616E6E656C732003
:100340002020202020202020202020202D3E20257D
:10035000640A00202D20526F746172793A4E756DD7
:10036000626572206F6620726F7461727920656EAB
:10037000636F646572732020202020202020202DB0
:100380003E2025640A00202D20416E616C6F67209D
:10039000696E7075743A20426974732070657220BA
:1003A0006368616E6E656C20202020202020202054
:1003B00020202D3E2025640A00202D20416E616CF6
:1003C0006F6720696E7075743A204E756D62657244
:1003D000206F66206368616E6E656C73202020203C
:1003E00020202020202D3E2025640A00202D20439F
:1003F0006F696E733A204E756D626572206F66206C
:10040000736C6F7473202020202020202020202057
:1004100020202020202020202D3E2025640A00209E
:100420002D20506C61796572733A204E756D62654E
:1004300072206F6620627574746F6E7320706572BF
:1004400020706C61796572202020202D3E2025646B
:100450000A00202D20506C61796572733A204E7528
:100460006D626572206F6620506C617965727320D1
:1004700020202020202020202020202020202D3E51
:100480002025640A004552524F5220647572696EED
:10049000672070617273696E672066756E63696F3D
:1004A0006E2069647820256420210A00416E616C09
:1004B0006F672046757A7A20666F7220636C696573
:1004C0006E742025643A2000202D20436F6D6D61ED
:1004D0006E64207265766973696F6E3A2025730ABF
:1004E00000202D20436F6D6D616E64207665727300
:1004F000696F6E3A202025730A00202D204A56533A
:100500002076657273696F6E3A20202020202025A6
:10051000730A00202D20494F206964656E74697448
:10052000793A20202020202025730A0047656E6537
:1005300072616C3A0A005761726E696E672C206EA8
:100540006F6E2D7374616E6461726420696E707574
:10055000742F6F75747075742066756E6374696F2F
:100560006E2072657475726E65642062792074689D
:100570006520494F20426F617264210A0045525242
:100580004F522C20736C61766520697320746F6FF5
:1005900020627573792C2069742063616E27742042
:1005A00070726F6365737320746865207375622061
:1005B000636F6D6D616E640A005761726E696E677C
:1005C0002C20636F6D6D616E6420706172616D656A
:1005D000746572206572726F722C20706172616D29
:1005E000657465722069732069676E6F7265640A4D
:1005F000005761726E696E672C20636F6D6D616E5E
:100600006420706172616D65746572206572726FCD
:10061000722C206E6F2072657475726E2064617426
:10062000610A004552524F522C20736C617665204E
:10063000697320746F6F20627573792C2069742040
:1006400063616E27742070726F63657373207468C2
:100650006520636F6D6D616E640A005761726E692B
:100660006E672C20736C61766520646574656374B5
:10067000656420612053554D204572726F720A00E7
:100680005761726E696E672C20636F6D6D616E6469
:1006900020756E6B6E6F776E0A0053746F72696EA1
:1006A000672064617461206B6579626F6172642098
:1006B0003220666F72206E65787420696E74657280
:1006C000727570742D696E207265706F72740A0095
:1006D00053746F72696E672064617461206B657911
:1006E000626F617264203120666F72206E6578746B
:1006F00020696E746572727570742D696E207265F2
:10070000706F72740A000A5354415254202B2042D5
:100710007574746F6E2031202B20427574746F6E67
:100720002032202D3E20526573746172742054650E
:10073000656E7379210A000A5354415254202B20CC
:10074000427574746F6E2031202B20427574746F63
:100750006E2032202D3E20526573746172742054D5
:1007600065656E7379210A000A202D3E2062756945
:100770006C6420646F6E652C20726571756573748E
:10078000206C656E6774682025640A000001000013
:100790005609120002000098085400210000AA081F
:1007A0000900220000EC085500210100C3080900DF
:1007B000220100EC085500210200DC080900220299
:1007C0000041091500030000940804010309048294
:1007D00008100203090462081E03030904400820EC
:1007E000040309041C082205030904EE072C2C034A
:1007F0004A005600530032005800200044004500D3
:10080000420055004700200049006E00740065005A
:1008100072006600610063006500000022034A0068
:10082000560053003200580020004B00650079004C
:1008300062006F006100720064002E002E00000054
:1008400020034A00560053003200580020004B009D
:100850006500790062006F006100720064002E0084
:1008600000001E034A0056005300320058002000CA
:100870004B006500790062006F0061007200640047
:1008800000001003470065006E00650072006900FB
:1008900063000000040309040902540003010080FE
:1008A00032090400000103010103092111011301B0
:1008B0002255000705810308000109040100010316
:1008C00001010409211101130122550007058203CA
:1008D00008000109040200010300000509211101BB
:1008E0000001221500070583032000010501090608
:1008F000A10175019508050719E029E715002501F3
:1009000081029508750115002501050C09E909EA20
:1009100009E209CD09B509B609B709B881029505FB
:1009200075010508190129059102950175039103C7
:10093000950675081500257F05071900297F810098
:10094000C00631FF0974A1537508150026FF0095F4
:100950002009758102C01201100100000040C0167C
:10096000870400010102000101C10601C10601C1A5
:100970002670726573736B65793A206B65793D25D6
:10098000642C206D6F6469666965723D25640A0098
:1009900070726573733A206B6579636F64653D258A
:1009A000640A000A546F6F206D616E79206572725F
:1009B0006F72732067657474696E67204A5653209E
:1009C000436C69656E74207265706F7274732C204D
:1009D00077696C6C207265737461727420210A0AE5
:1009E000000A52657175657374207265626F6F7469
:1009F00020210A0A000A4A565320696E697420733E
:100A000075636365737320210A0A000A4572726F69
:100A10007220647572696E6720696E6974207068EF
:100A20006173652C2077696C6C20726573746172D8
:100A30007420210A0A00202D3E20646F6E650A0092
:100A40000A5374617274696E672046757A7A2063FE
:100A5000616C63756C6174696F6E20666F72206380
:100A60006C69656E743A2025642C206E6272206F6A
:100A700066206368616E6E656C733A2025640A00B7
:100A80000A73657442756C6B436F6D6D616E640AB9
:100A9000002D2D2D2D2D2D2D2D2D2D2D2D2D2D2DB3
:100AA0002D2D2D2D2D0A000A436C69656E74206969
:100AB0006E666F726D6174696F6E2025640A0054F2
:100AC0006F74616C20636C69656E74733A20256481
:100AD0000A0053454E53452070696E3A2025640A3A
:100AE00000486F7374207365747320616464726569
:100AF0007373286573290A0053454E534520706966
:100B00006E206265666F72652073657474696E67C6
:100B10002061646472657373286573293A202564C3
:100B20000A00202D3E20646F6E650A00486F7374C2
:100B30002073656E647320726573657420636F6DD6
:100B40006D616E640A004361626C6520636F6E6E56
:100B500065637465640A0057616974696E6720662D
:100B60006F72204A5653204361626C6520636F6E3A
:100B70006E656374696F6E0A005365742073656EE9
:100B80007365206C696E6520746F20484947480A78
:100B90000041637469766174696E672055415254EF
:100BA0000A0041637469766174696E67204C45443C
:100BB0000A0055534220696E697469616C697A61F3
:100BC00074696F6E202D3E20646F6E650A003D3D96
:100BD0003D3D3D3D3D3D3D3D3D3D3D3D3D3D0A00B5
:100BE0000A4A565332582025642E256420547261D7
:100BF0006365730A002C5E746061626434666765C5
:100C00006E362D3738271E1F2021222324252673D8
:100C100033762E77785F4445464748494A4B4C4DDA
:100C20004E4F505152535455565758595A5B5C5D6C
:100C30002F3130636D350405060708090A0B0C0DCA
:100C40000E0F101112131415161718191A1B1C1D4C
:100C50006F7170752A012302230423082380230166
:100C600029022904290829402680264029802910A4
:100C70002320234023802F402F202F102F022F01CD
:100C80002F10292029402C0001040506070D0C0B0C
:100C90000A09080A0B0C0D070605040100080921C2
:100CA00029237A2411241FBECFEFDAE0DEBFCDBFA7
:100CB00012E0A0E0B1E0E6E3F6E502C005900D9297
:100CC000A030B107D9F722E0A0E0B2E001C01D9248
:100CD000A639B207E1F716E0C2E5D6E004C02197D5
:100CE000FE010E94C227CF34D107C9F70E94B32466
:100CF0000C94192B85C9FC01329626E6DF011D9262
:100D00002A95E9F7EA59FF4F25E0DF01322F1D92BE
:100D10003A95E9F73596DF01322F1D923A95E9F7BA
:100D20003596DF011D922A95E9F7359611821082DA
:100D3000EA5BFF4F2FEF3FEF318320833296318301
:100D40002083329620E4DF011D922A95E9F7FC0109
:100D5000718360830895CF93DF93EC010E947B1A27
:100D600085E991E099838883FE01B39680E491E060
:100D7000DF019C011D9221503040E1F7E05CFE4F05
:100D80001082CC59DE4F8EE3DE011D928A95E9F781
:100D90005198599A5098589A27982F9ADF91CF9145
:100DA0000895CF92DF92EF92FF920F931F93CF930C
:100DB000DF9300D0CDB7DEB78C0160ED77E080E047
:100DC00090E00E94752780EF898389ED8A837801FE
:100DD00082E0E80EF11C22E030E0AE014F5F5F4F91
:100DE0006FEFC7010E94A01B68EE73E080E090E007
:100DF0000E94752722E030E0AE014F5F5F4F6FEF3A
:100E0000C7010E94A01B68EE73E080E090E00E94A2
:100E100075277801ECE9EE1AEEEFFE0A6801FEE5AF
:100E2000CF1AFEEFDF0AF701819191917F010097C0
:100E300011F00E94DC25EC14FD04A9F7F801ED592E
:100E4000FE4F1082F80112820F900F90DF91CF9128
:100E50001F910F91FF90EF90DF90CF9008950F9327
:100E60001F93CF93DF93EC018B016CE275E081E07F
:100E700090E00E94201D000F111FC00FD11FCC5900
:100E8000DE4F8881998102969F938F9383E195E04D
:100E90009F938F931F9211E01F930E94BC1C888127
:100EA000998188599F4F9F938F938AEF94E09F93E6
:100EB0008F931F921F930E94BC1C88819981835934
:100EC0009F4F9F938F9381EE94E09F938F931F92F8
:100ED0001F930E94BC1C888199818E589F4F9F93BD
:100EE0008F9388EC94E09F938F931F921F930E949F
:100EF000BC1C8DB79EB748960FB6F8949EBF0FBE28
:100F00008DBFDF91CF911F910F910895DF92EF92E6
:100F1000FF920F931F93CF93DF93660F771F860F78
:100F2000971FEC01CC59DE4FE881F98181818F93C5
:100F300080818F938CEA94E09F938F931F9282E03D
:100F40008F930E94BC1C0F900F900F900F900F90EA
:100F50000F90E12CF12C08E111E042E0D42EC70102
:100F6000880F991F880F991F8F539F4F28813981B0
:100F7000820F931F9F938F931F930F931F92DF9264
:100F80000E94701C8FEFE81AF80A0F900F900F90D4
:100F90000F900F900F9088E0E816F10401F769E8D0
:100FA00071E082E090E0DF91CF911F910F91FF906F
:100FB000EF90DF900C94081D2F923F924F925F921A
:100FC0006F927F929F92AF92BF92CF92DF92EF92F9
:100FD000FF920F931F93CF93DF93CDB7DEB7649744
:100FE0000FB6F894DEBF0FBECDBFFC01ED59FE4F2A
:100FF000208130E0621773070CF007C1FB01EE544B
:10100000FF4FEE0FFF1FE80FF91FC080D180D60100
:10101000A958BF4F2C9120FF1EC020E22983F60162
:10102000E758FF4F20812A8322E02B8328E2269F66
:10103000F001279FF00D1124B396E80FF91F1182DC
:10104000108221E030E03383228343E0E42EF12C50
:1010500001E010E004C0E12CF12C00E010E02C9144
:10106000AE014F5F5F4F5A0121FF30C0FA01EE0D14
:10107000FF1D21E22083F7013196AF014A0D5B1D70
:10108000E2E0EE0EF11C960123583F4FF90120815A
:10109000FA01208340900C0150900D0160900E01E8
:1010A00070900F012AE0269FF001279FF00D112478
:1010B000E00FF11FEE0FFF1FEE0FFF1FE80FF91FEC
:1010C00043A254A265A276A20F5F1F4F2C9122FF6C
:1010D00030C0F501EE0DFF1D22E22083F7013196AD
:1010E000AF014A0D5B1DF2E0EF0EF11C9601215895
:1010F0003F4FF9012081FA01208340901001509068
:10110000110160901201709013012AE0269FF001F6
:10111000279FF00D1124E00FF11FEE0FFF1FEE0FC0
:10112000FF1FE80FF91F43A254A265A276A20F5F2A
:101130001F4F2C9125FF3CC0F501EE0DFF1D4AE02D
:10114000469F9001479F300D1124020F131F000F7F
:10115000111F000F111F40E050E020E030E0B60109
:1011600061577F4FA5E29A2E4090140150901501CF
:1011700060901601709017014C5F5F4FDB012D905E
:101180003C9022153305A4F49082B2E0EB0EF11CE2
:101190002183DA01A00FB11FA80FB91F5F964D92EE
:1011A0005D926D927C9292972F5F3F4F3296E4CF83
:1011B0003C01F50101900020E9F73197EA19FB099C
:1011C000FF93EF931F9284E18F93FF92EF928EE152
:1011D00091E09F938F931F9282E08F930E94701CE7
:1011E000860109551F4F9701A501F6016081C301D2
:1011F00002960E94AB1AF601E554FF4F918380835B
:101200000FB6F894DEBF0FBECDBF64960FB6F8944C
:10121000DEBF0FBECDBFDF91CF911F910F91FF9029
:10122000EF90DF90CF90BF90AF909F907F906F90A6
:101230005F904F903F902F900895DF92EF92FF9232
:101240000F931F93CF93DF93660F771F860F971F20
:10125000EC01CC59DE4FE880F9806DE771E081E068
:1012600090E00E94081D870109581F4FF8018081F6
:1012700080FF2AC0E881F981E758FF4F81818F9371
:1012800080818F9382E594E09F938F931F92DD245A
:10129000D394DF920E94BC1CE881F981E558FF4F8E
:1012A00081818F9380818F938FE194E09F938F93BF
:1012B0001F92DF920E94BC1C8DB79EB70C960FB692
:1012C000F8949EBF0FBE8DBFF801808181FF17C0CB
:1012D000E881F981E358FF4F81818F9380818F935B
:1012E0008CEE93E09F938F931F9281E08F930E94E7
:1012F000BC1C0F900F900F900F900F900F90F80163
:10130000808182FF2AC0E881F981E158FF4F818105
:101310008F9380818F9389EB93E09F938F931F929C
:10132000DD24D394DF920E94BC1CE881F981EF5741
:10133000FF4F81818F9380818F9386E893E09F9305
:101340008F931F92DF920E94BC1C8DB79EB70C96A4
:101350000FB6F8949EBF0FBE8DBFF801808183FF4A
:1013600017C0E881F981ED57FF4F81818F9380810C
:101370008F9383E593E09F938F931F9281E08F93E8
:101380000E94BC1C0F900F900F900F900F900F9029
:10139000F801808185FF3AC0E881F981E157FF4F6C
:1013A00081818F9380818F9380E293E09F938F93CD
:1013B0001F92DD24D394DF920E94BC1CE881F98146
:1013C000E557FF4F81818F9380818F938DEE92E05F
:1013D0009F938F931F92DF920E94BC1CE881F9813A
:1013E000E357FF4F81818F9380818F938AEB92E047
:1013F0009F938F931F92DF920E94BC1C8DB79EB764
:1014000042960FB6F8949EBF0FBE8DBFF801808143
:1014100087FF17C0E881F981E956FF4F81818F93DB
:1014200080818F9387E892E09F938F931F9281E052
:101430008F930E94BC1C0F900F900F900F900F90F5
:101440000F90F8018081918190FF17C0E881F981A8
:10145000E756FF4F81818F9380818F9384E592E0DF
:101460009F938F931F9281E08F930E94BC1C0F90DB
:101470000F900F900F900F900F90F701E958FF4FCA
:101480008081918191FF17C0E881F981E556FF4F76
:1014900081818F9380818F9381E292E09F938F93DC
:1014A0001F9281E08F930E94BC1C0F900F900F90B1
:1014B0000F900F900F90F8018081918192FF17C0DB
:1014C000E881F981E356FF4F81818F9380818F936B
:1014D0008EEE91E09F938F931F9281E08F930E94F5
:1014E000BC1C0F900F900F900F900F900F90F80171
:1014F0008081918193FF3AC0E881F981E156FF4FE5
:1015000081818F9380818F938BEB91E09F938F9359
:101510001F92FF24F394FF920E94BC1CE881F98182
:10152000EF55FF4F81818F9380818F9388E891E001
:101530009F938F931F92FF920E94BC1CE881F981B8
:10154000ED55FF4F81818F9380818F9385E591E0E9
:101550009F938F931F92FF920E94BC1C8DB79EB7E2
:1015600042960FB6F8949EBF0FBE8DBFF8018081E2
:10157000918194FF17C0E881F981EB55FF4F81817C
:101580008F9380818F9382E291E09F938F931F923C
:1015900081E08F930E94BC1C0F900F900F900F90D2
:1015A0000F900F9064EF71E080E090E0DF91CF91B9
:1015B0001F910F91FF90EF90DF900C9475272F9261
:1015C0003F924F925F926F927F928F929F92AF92D3
:1015D000BF92CF92DF92EF92FF920F931F93CF9320
:1015E000DF93CDB7DEB761970FB6F894DEBF0FBEBD
:1015F000CDBF998B888B6B018C010E5F1F4FC8018B
:101600000E949D1AA889B98951968C9399279F9316
:101610008F9388E191E09F938F931F9282E08F9345
:101620000E94701C0F900F900F900F900F900F90D2
:10163000E889F9898189803D59F48281811108C046
:10164000C8010E949D1A8F5FA889B98951968C9311
:10165000E889F9896189CF010E94A41689838823CA
:1016600009F460C67601F7E7EF0EF11CC6018B5551
:101670009F4F9B838A83D601A156BF4FBD83AC8306
:10168000F601EF55FF4FFF83EE8302979987888716
:101690001297BB87AA873697FD87EC870A979F87A3
:1016A0008E87160197E9290E311C2601A1E94A0E01
:1016B000511C3601B3E96B0E711C5601E5E9AE0E03
:1016C000B11C4601FBE88F0E911CC8010E949D1AB7
:1016D000A889B98951968C9399279F938F9388E114
:1016E00091E09F938F931F9282E08F930E94701CD2
:1016F0000F900F900F900F900F900F90E889F9893D
:101700008189803D59F48281811108C0C8010E94FD
:101710009D1A8F5FA889B98951968C93A889B98938
:101720005196EC918E2FEE0F990BAA0BBB0B8631C5
:10173000910508F043C5FC01EA5AFF4F0C94C227FB
:10174000F70180819181816091838083C8010E942B
:101750009D1AA889B98951968C9399279F938F9345
:1017600088E191E09F938F931F9282E08F930E9474
:10177000701C0F900F900F900F900F900F90E889B2
:10178000F9898189803D59F48281811108C0C8019D
:101790000E949D1A8F5FA889B98951968C93F60192
:1017A000E758FF4FA889B98951968C91082E000CF3
:1017B000990B91838083C8010E949D1AE889F98959
:1017C000818B99279F938F9388E191E09F938F93CB
:1017D0001F9282E08F930E94701C0F900F900F90C9
:1017E0000F900F900F90A889B98951968C915197BD
:1017F000803D59F412968C91811107C0C8010E9456
:101800009D1A8F5FE889F989818BF601E558FF4FB2
:101810009DC0D7018D919C91119782608D939C936F
:10182000C8010E949D1AE889F989818B99279F93A5
:101830008F9388E191E09F938F931F9282E08F9323
:101840000E94701C0F900F900F900F900F900F90B0
:10185000A889B98951968C915197803D59F4129677
:101860008C91811107C0C8010E949D1A8F5FE88981
:10187000F989818BF601E358FF4FA6C0F7018081FB
:101880009181846091838083C8010E949D1AA889F8
:10189000B98951968C9399279F938F9388E191E012
:1018A0009F938F931F9282E08F930E94701C0F90E2
:1018B0000F900F900F900F900F90E889F989818910
:1018C000803D59F48281811108C0C8010E949D1A8F
:1018D0008F5FA889B98951968C93F601E158FF4F23
:1018E000A889B98951968C91082E000C990B918387
:1018F0008083C8010E949D1AE889F989818B992704
:101900009F938F9388E191E09F938F931F9282E042
:101910008F930E94701C0F900F900F900F900F905C
:101920000F90A889B98951968C915197803D59F4AF
:1019300012968C91811107C0C8010E949D1A8F5F79
:10194000E889F989818BF601EF57FF4FA889B9899A
:1019500051968C91082E000C990B9183808387C43B
:10196000D7018D919C91119788608D939C93C801AC
:101970000E949D1AE889F989818B99279F938F93FB
:1019800088E191E09F938F931F9282E08F930E9452
:10199000701C0F900F900F900F900F900F90A889D0
:1019A000B98951968C915197803D59F412968C913A
:1019B000811107C0C8010E949D1A8F5FE889F989CB
:1019C000818BF601ED57FF4FA889B98951968C910B
:1019D000082E000C990B918380839BC3F7018081B3
:1019E0009181806191838083C8010E949D1AA8899A
:1019F000B98951968C9399279F938F9388E191E0B1
:101A00009F938F931F9282E08F930E94701C0F9080
:101A10000F900F900F900F900F90E889F9898189AE
:101A2000803D59F48281811108C0C8010E949D1A2D
:101A30008F5FA889B98951968C93F601EB57FF4FB8
:101A4000A889B98951968C91082E000C990B918325
:101A50008083C8010E949D1AE889F989818B9927A2
:101A60009F938F9388E191E09F938F931F9282E0E1
:101A70008F930E94701C0F900F900F900F900F90FB
:101A80000F90A889B98951968C915197803D59F44E
:101A900012968C91811107C0C8010E949D1A8F5F18
:101AA000E889F989818BF601E957FF4FA889B9893F
:101AB00051968C91082E000C990B91838083C8015C
:101AC0000E949D1AE889F989818B99279F938F93AA
:101AD00088E191E09F938F931F9282E08F930E9401
:101AE000701C0F900F900F900F900F900F90A8897F
:101AF000B98951968C915197803D59F412968C91E9
:101B0000811107C0C8010E949D1A8F5FE889F98979
:101B1000818BF601E757FF4F9BC0F70180819181D0
:101B2000806291838083C8010E949D1AA889B98927
:101B300051968C9399279F938F9388E191E09F937F
:101B40008F931F9282E08F930E94701C0F900F90D2
:101B50000F900F900F900F90E889F9898189803D4F
:101B600059F48281811108C0C8010E949D1A8F5FBB
:101B7000A889B98951968C93E889F9898189082EB9
:101B8000000C990BD4018D939C93C8010E949D1A5F
:101B9000E889F989818B99279F938F9388E191E058
:101BA0009F938F931F9282E08F930E94701C0F90DF
:101BB0000F900F900F900F900F90A889B9895196B0
:101BC0008C915197803D59F412968C91811107C0E8
:101BD000C8010E949D1A8F5FE889F989818BF601FF
:101BE000E357FF4FA889B98951968C91082E000CB4
:101BF000990B91838083C8010E949D1AE889F98915
:101C0000818B99279F938F9388E191E09F938F9386
:101C10001F9282E08F930E94701C0F900F900F9084
:101C20000F900F900F90A889B98951968C91519778
:101C3000803D59F412968C91811107C0C8010E9411
:101C40009D1A8F5FE889F989818BF601E157FF4F73
:101C5000A889B98951968C91082E000C990B918313
:101C6000808333CDF701808191818064918380836B
:101C7000C8010E949D1AA889B98951968C93992709
:101C80009F938F9388E191E09F938F931F9282E0BF
:101C90008F930E94701C0F900F900F900F900F90D9
:101CA0000F90E889F9898189803D59F482818111F9
:101CB00008C0C8010E949D1A8F5FA889B9895196F2
:101CC0008C93E889F9898189082E000C990BD2013F
:101CD0008D939C93C8010E949D1AE889F989818B94
:101CE00099279F938F9388E191E09F938F931F9201
:101CF00082E08F930E94701C0F900F900F900F90B6
:101D00000F900F90A889B98951968C915197803D79
:101D100059F412968C91811107C0C8010E949D1A36
:101D20008F5FE889F989818BA889B98951968C914F
:101D3000082E000C990BF30191838083C8010E9447
:101D40009D1AA889B98951968C9399279F938F934F
:101D500088E191E09F938F931F9282E08F930E947E
:101D6000701C0F900F900F900F900F900F90E889BC
:101D7000F9898189803D59F48281811108C0C801A7
:101D80000E949D1A8F5FA889B98951968C93E88922
:101D9000F9898189082E000C990BD5017EC1F701C4
:101DA00080819181806891838083C8010E949D1AFF
:101DB000A889B98951968C9399279F938F9388E12D
:101DC00091E09F938F931F9282E08F930E94701CEB
:101DD0000F900F900F900F900F900F90E889F98956
:101DE0008189803D59F48281811108C0C8010E9417
:101DF0009D1A8F5FA889B98951968C93E889F989D2
:101E00008189082E000C990BD10181C1F7018081D5
:101E10009181916091838083C8010E949D1AA88955
:101E2000B98951968C9399279F938F9388E191E07C
:101E30009F938F931F9282E08F930E94701C0F904C
:101E40000F900F900F900F900F90E889F98981897A
:101E5000803D59F48281811108C0C8010E949D1AF9
:101E60008F5FA889B98951968C93E889F98981890E
:101E7000082E000C990BAE85BF8549C1F701808102
:101E80009181926091838083C8010E949D1AA889E4
:101E9000B98951968C9399279F938F9388E191E00C
:101EA0009F938F931F9282E08F930E94701C0F90DC
:101EB0000F900F900F900F900F90E889F98981890A
:101EC000803D59F48281811108C0C8010E949D1A89
:101ED0008F5FA889B98951968C93E889F98981899E
:101EE000082E000C990BAC85BD8511C1F7018081CE
:101EF0009181946091838083C8010E949D1AA88972
:101F0000B98951968C9399279F938F9388E191E09B
:101F10009F938F931F9282E08F930E94701C0F906B
:101F20000F900F900F900F900F90E889F989818999
:101F3000803D59F48281811108C0C8010E949D1A18
:101F40008F5FA889B98951968C93E889F98981892D
:101F5000082E000C990BAA85BB85D9C0F70180819A
:101F60009181986091838083C8010E949D1AA889FD
:101F7000B98951968C9399279F938F9388E191E02B
:101F80009F938F931F9282E08F930E94701C0F90FB
:101F90000F900F900F900F900F90E889F989818929
:101FA000803D59F48281811108C0C8010E949D1AA8
:101FB0008F5FA889B98951968C93E889F9898189BD
:101FC000082E000C990BAC81BD818D939C93C801A8
:101FD0000E949D1AE889F989818B99279F938F9395
:101FE00088E191E09F938F931F9282E08F930E94EC
:101FF000701C0F900F900F900F900F900F90A8896A
:10200000B98951968C915197803D59F412968C91D3
:10201000811107C0C8010E949D1A8F5FE889F98964
:10202000818BA889B98951968C91082E000C990B47
:10203000EE81FF8191838083C8010E949D1AA88947
:10204000B98951968C9399279F938F9388E191E05A
:102050009F938F931F9282E08F930E94701C0F902A
:102060000F900F900F900F900F90E889F989818958
:10207000803D59F48281811108C0C8010E949D1AD7
:102080008F5FA889B98951968C93E889F9898189EC
:10209000082E000C990BA885B9858D939C9315CBC0
:1020A000F70180819181906191838083C8010E94B2
:1020B0009D1AA889B98951968C9399279F938F93DC
:1020C00088E191E09F938F931F9282E08F930E940B
:1020D000701C0F900F900F900F900F900F90E88949
:1020E000F9898189803D59F48281811108C0C80134
:1020F0000E949D1A8F5FA889B98951968C93E889AF
:10210000F9898189082E000C990BAA81BB818D93D6
:102110009C93C8010E949D1AE889F989818B9927AF
:102120009F938F9388E191E09F938F931F9282E01A
:102130008F930E94701C0F900F900F900F900F9034
:102140000F90A889B98951968C915197803D59F487
:1021500012968C91811107C0C8010E949D1A8F5F51
:10216000E889F989818BC8010E949D1AA889B989DB
:1021700051968C9399279F938F9388E191E09F9339
:102180008F931F9282E08F930E94701C0F900F908C
:102190000F900F900F900F90E889F9898189803D09
:1021A00009F093CA8281811190CAC8010E949D1AC8
:1021B0008F5FA889B98951968C9387CAC8010E94FC
:1021C0009D1AE889F989818B99279F938F9388E1DC
:1021D00091E09F938F931F9282E08F930E94701CD7
:1021E0000F900F900F900F900F900F90A889B989C2
:1021F00051968C915197803D59F412968C91811192
:1022000007C0C8010E949D1A8F5FE889F989818BF8
:1022100066E375E081E090E00E94201DC8010E9405
:102220009D1AA889B98951968C9399279F938F936A
:1022300088E191E09F938F931F9282E08F930E9499
:10224000701C0F900F900F900F900F900F90E889D7
:10225000F9898189803D59F48281811108C0C801C2
:102260000E949D1A8F5FA889B98951968C93C801E5
:102270000E949D1AE889F989818B99279F938F93F2
:1022800088E191E09F938F931F9282E08F930E9449
:10229000701C0F900F900F900F900F900F90A889C7
:1022A000B98951968C915197803D09F00ECA1296CA
:1022B0008C9181110ACAC8010E949D1A8F5FE8891A
:1022C000F989818B02CAC8010E949D1AA889B9891F
:1022D00051968C9399279F938F9388E191E09F93D8
:1022E0008F931F9282E08F930E94701C0F900F902B
:1022F0000F900F900F900F90E889F9898189803DA8
:1023000059F48281811108C0C8010E949D1A8F5F13
:10231000A889B98951968C9369E871E082E090E0D0
:102320000E94081D898161960FB6F894DEBF0FBE2A
:10233000CDBFDF91CF911F910F91FF90EF90DF9074
:10234000CF90BF90AF909F908F907F906F905F9055
:102350004F903F902F900895EF92FF920F931F930D
:10236000CF93DF93EC016BE071E082E090E00E949C
:10237000201D0FB6F89480918C0290918D02A0914F
:102380008E02B0918F020FBE8D879E87AF87B88B6C
:1023900011E08B819C81DC01ED91FC910084F18541
:1023A000E02D0995892B19F48A81882389F011E0A1
:1023B0008A81811140C08B819C81DC01ED91FC916F
:1023C0000284F385E02D0995803E9105D1F433C058
:1023D0000FB6F89480918C0290918D02A0918E029C
:1023E000B0918F020FBE4D855E856F857889841B05
:1023F000950BA60BB70BC297A105B10550F21A8336
:10240000C8CF0FB6F89480918C0290918D02A09164
:102410008E02B0918F020FBE4D855E856F857889E3
:10242000841B950BA60BB70BC297A105B10508F449
:10243000BFCF1A83BDCF8A81811136C061EF70E0B2
:1024400082E090E00E94201D0FB6F89480918C02EB
:1024500090918D02A0918E02B0918F020FBE8D8758
:102460009E87AF87B88B11E08B819C81DC01ED9159
:10247000FC910084F185E02D0995892B19F48A815E
:102480008823A9F011E08A8181110BC08B819C8186
:10249000DC01ED91FC910284F385E02D0995892BF7
:1024A000F9F48A818823B1F180E090E056C00FB63C
:1024B000F89480918C0290918D02A0918E02B0913F
:1024C0008F020FBE4D855E856F857889841B950BC5
:1024D000A60BB70BC297A105B10530F21A83C4CF82
:1024E0000FB6F89480918C0290918D02A0918E028B
:1024F000B0918F020FBE4D855E856F857889841BF4
:10250000950BA60BB70BC297A105B10508F4BBCF7D
:102510001A83B9CF7E01B2E0EB0EF11CC7010E9415
:102520009D1A8C011F938F9388ED90E09F938F935A
:102530001F9282E08F930E94BC1CC701FED7682FB8
:10254000CE0102D40F900F900F900F900F900F902C
:10255000882309F4A9CFC8010197DF91CF911F917A
:102560000F91FF90EF9008952F923F924F925F92BC
:102570006F927F928F929F92AF92BF92CF92DF9293
:10258000EF92FF920F931F93CF93DF9300D0CDB7BD
:10259000DEB78C01FB01EE54FF4FEE0FFF1FE00F83
:1025A000F11F6080718082E2898313018FE7280E1A
:1025B000311CF10180818A839EE1C92ED12C580102
:1025C000F2E0AF0EB11C28E1422E21E0522E62E370
:1025D00070E080E090E00E94752722E030E0AE01DC
:1025E0004F5F5F4FF3016081C5010E94A01BC801CE
:1025F000B3DE892B09F44CC07301F1ECEF0EF11C32
:10260000812C912CF10180819181881699060CF022
:102610003FC0C50192D7F801818B99279F938F9373
:102620005F924F921F92F2E0FF930E94701C0F90F6
:102630000F900F900F900F900F90F8018189803DBF
:1026400041F48281811105C0C50177D78F5FF80100
:10265000818BF8018189082E000C990BF7012081EC
:1026600031818217930724F402979183808309C0F4
:10267000F70122813381281739071CF402969383CE
:102680008283FFEF8F1A9F0A84E0E80EF11CBACF15
:10269000E1E0CE1AD10809F09ACF0F900F90DF91A8
:1026A000CF911F910F91FF90EF90DF90CF90BF904F
:1026B000AF909F908F907F906F905F904F903F90E2
:1026C0002F9008952F923F924F925F926F927F9238
:1026D0008F929F92AF92BF92CF92DF92EF92FF9232
:1026E0000F931F93CF93DF9300D000D0CDB7DEB709
:1026F0009C838B836C012CE9C21A2EEFD20A5C01F9
:10270000612C712C00E010E0332433948D599E4FDE
:102710009A838983450132E0830E911C48E1442E5F
:1027200041E0542E52E0252EA981BA818C9190E08F
:10273000681679060CF085C0332009F484C0F601D0
:1027400060817181FB01E554FF4F408151816955E2
:102750007F4FC401C4D7382E8B819C81FDDD892B2E
:1027600009F465C0750100E010E0D7019396ED9182
:10277000FC919497309739F495968D919C9196970A
:1027800080FD29C02AC0332041F1D70195968D9153
:102790009C91969780FF0EC0DC01B595A7952B8183
:1027A0003C81A20FB31F2D913C91E20FF31F0190CA
:1027B000F081E02DD6016D917C91959587952B81C7
:1027C0003C81820F931F0995382E0F5F1F4F34E015
:1027D000E30EF11CCACF3110DFCFC401AED6AB81FE
:1027E000BC8151968C9399279F938F935F924F92C0
:1027F0001F922F920E94701C0F900F900F900F90BD
:102800000F900F90EB81FC818189803D51F4828192
:10281000811107C0C40191D68F5FAB81BC815196F5
:102820008C9369E871E082E090E00E94081DBFEFA0
:102830006B1A7B0AE2E0CE0ED11CF8E2AF0EB11C9F
:1028400073CF311012C01F930F9385E894E09F93CC
:102850008F931F9281E08F930E94BC1C0F900F906A
:102860000F900F900F900F90312C832D0F900F90A1
:102870000F900F90DF91CF911F910F91FF90EF90EC
:10288000DF90CF90BF90AF909F908F907F906F9090
:102890005F904F903F902F900895EF92FF920F938B
:1028A0001F93CF93DF931F92CDB7DEB77C0184E1F6
:1028B00089838B01000F111F0E0D1F1D0C591E4F18
:1028C000D801ED91FC9121E030E0AE014F5F5F4F08
:1028D0006081C701029634D7C7013EDD892B39F0EC
:1028E000F80160817181C7010E94DF0A01C080E0A8
:1028F0000F90DF91CF911F910F91FF90EF9008956E
:102900007F928F929F92AF92BF92CF92DF92EF927F
:10291000FF920F931F93CF93DF937C014C0182E0D2
:10292000880E911CC4010CD7C70116DDEC01892B60
:1029300009F43DC0680188E1A82E81E0B82E92E03C
:10294000792EC601801B910B8C179D0724F5C401BD
:10295000F4D5F701818B99279F938F93BF92AF9204
:102960001F927F92BDD70F900F900F900F900F90F6
:102970000F90F7018189803D41F48281811105C06A
:10298000C401DBD58F5FF701818BF7018189F601E7
:1029900081936F01D6CFC00FD11F2197188268E8AD
:1029A00071E082E090E00E94081D81E001C080E0BB
:1029B000DF91CF911F910F91FF90EF90DF90CF901B
:1029C000BF90AF909F908F907F900895AF92BF92ED
:1029D000CF92DF92EF92FF920F931F93CF93DF93EB
:1029E000CDB7DEB7C656D1090FB6F894DEBF0FBE1D
:1029F000CDBF6C015C018DE9A81A8EEFB80AF50114
:102A000090819F3109F441C081EFA6968FAFA697C0
:102A10009F5FA7969FAFA797E12CF12C8E010F5FC8
:102A20001F4F22E030E0AE014B595F4F6FEFC60100
:102A300067DF8823D9F081E091E00E94DB258C01DB
:102A4000F501608170E06F5F7F4F0E947B06F501AA
:102A500080819601280F311D280F311DF901EC5995
:102A6000FE4F118300838F5FF501808368EE73E072
:102A700080E090E00E9475278DE00E942F26C3978A
:102A800024F0F6018281882311F080E001C081E00A
:102A9000CA59DF4F0FB6F894DEBF0FBECDBFDF912E
:102AA000CF911F910F91FF90EF90DF90CF90BF904B
:102AB000AF9008958F929F92AF92BF92CF92DF9284
:102AC000EF92FF920F931F93CF93DF93CDB7DEB7B3
:102AD000C856D1090FB6F894DEBF0FBECDBF4C016A
:102AE00080E1A9968FAFA9976B01CC0CDD1CC80CB7
:102AF000D91C2CE9C21A2EEFD20AD601ED91FC9115
:102B0000E12CF12C8E010F5F1F4F21E030E0AE0170
:102B100048595F4F6081C401F3DE811102C0912CDE
:102B2000ABC0F60180819181BE016F5F7F4F02963D
:102B30000E94E92781E1A8968FAFA897D601ED9171
:102B4000FC91E12CF12C8E010F5F1F4F21E030E052
:102B5000AE0149595F4F6081C401D2DE8823F9F28A
:102B60008A81982F9F701F929F93082E000C990BBB
:102B7000807F992744E0959587954A95E1F79F9343
:102B80008F935BE8A52E51E0B52EBF92AF92F60170
:102B90008081918183599F4F9F938F930E94F0274B
:102BA00082E1A7968FAFA797D601ED91FC9121E026
:102BB00030E0AE014A595F4F6081C401A1DE0FB61B
:102BC000F894DEBF0FBECDBF882309F4A8CF8A8159
:102BD000982F9F701F929F93082E000C990B807F57
:102BE000992734E0959587953A95E1F79F938F93D0
:102BF000BF92AF92D6018D919C9188599F4F9F9320
:102C00008F930E94F02783E1A6968FAFA697D601F7
:102C1000ED91FC9121E030E0AE014B595F4F6081B6
:102C2000C4016EDE982E0FB6F894DEBF0FBECDBF86
:102C3000882309F474CF8A81982F9F701F929F93E5
:102C4000082E000C990B807F992724E09595879595
:102C50002A95E1F79F938F93BF92AF92D6018D9102
:102C60009C918E589F4F9F938F930E94F0270FB691
:102C7000F894DEBF0FBECDBF892DC859DF4F0FB608
:102C8000F894DEBF0FBECDBFDF91CF911F910F91A2
:102C9000FF90EF90DF90CF90BF90AF909F908F907C
:102CA0000895CF93DF93EC0102963DD483EA91E03F
:102CB000998388831A8ADF91CF9108959F92AF926A
:102CC000BF92CF92DF92EF92FF920F931F93CF9319
:102CD000DF93EC015B0100E010E07C0182E0E80E94
:102CE000F11C88E1C82E81E0D82E92E0992E0A15B9
:102CF0001B05F4F4C70121D4898B99279F938F93E7
:102D0000DF92CF921F929F92EBD50F900F900F9072
:102D10000F900F900F908989803D39F48A8181113D
:102D200004C0C7010AD48F5F898B0F5F1F4FDFCFAD
:102D3000DF91CF911F910F91FF90EF90DF90CF9097
:102D4000BF90AF909F900895613091F0623019F478
:102D500060E876E009C0633019F46BE576E004C002
:102D6000643041F463E276E081E090E069D602C02D
:102D700081E0089580E00895613091F0623019F4A7
:102D800061EF75E009C0633019F469EB75E004C0C8
:102D9000643041F46DE775E081E090E051D602C007
:102DA00081E0089580E0089581E00895009729F07A
:102DB00041110C9475200C94D9200895BF92CF92A4
:102DC000DF92EF92FF920F931F93CF93DF93FB015C
:102DD000E958FF4F208120FF17C26B01EC017C01F5
:102DE00082E0E80EF11CC701A8D3898B99279F9335
:102DF0008F9388E191E09F938F931F9282E08F934E
:102E00006FD50F900F900F900F900F900F908989B2
:102E1000803D39F48A81811104C0C7018ED38F5F50
:102E2000898B6989CE01A8DFB82E882309F4EEC109
:102E3000C70183D3898B99279F938F9388E191E072
:102E40009F938F931F9282E08F934AD50F900F909C
:102E50000F900F900F900F908989803D39F48A81EF
:102E6000811104C0C70169D38F5F898BD601ED91B1
:102E7000FC91EE0FFF1FEE0FFF1FE450FF4F80810C
:102E80009181009739F04989441F4427441F6BE31F
:102E900070EF8CDFD601ED91FC91EE0FFF1FEE0F6E
:102EA000FF1FE450FF4F008111810115110529F426
:102EB00062E070E0CE0102DFC6C040E06BE370EF7D
:102EC000C80174DF40E061E370E0C8016FDFC70153
:102ED00034D3898B99279F938F9388E191E09F93B7
:102EE0008F931F9282E08F93FBD40F900F900F90DF
:102EF0000F900F900F908989803D39F48A8181115C
:102F000004C0C7011AD38F5F898B4989842F8170D0
:102F1000942F9370933051F447FF15C067E377E027
:102F200081E090E08DD581E08A8B40C0882369F0F4
:102F300047FF11C040E064E070EEC80137DF41E0B8
:102F40006BE370EF31C0811106C047FF04C041E060
:102F500061E370E029C04695417061E070EEC80100
:102F600025DF4989417064E070EEC8011FDF49899F
:102F70004295417061E570EFC80118DF498942FB55
:102F8000442740F96FE470EFC80110DF498943FB23
:102F9000442740F960E570EFC80108DF498945FB27
:102FA000442740F962E570EFC80100DFC701C5D2D0
:102FB000898B99279F938F9388E191E09F938F93BB
:102FC0001F9282E08F938CD40F900F900F900F90F0
:102FD0000F900F908989803D39F48A81811104C056
:102FE000C701ABD28F5F898B4989441F4427441F97
:102FF0006CE270EFC801DADE498946FB442740F9EC
:1030000062E070EEC801D2DE498945FB442740F9F1
:103010006AE770E0C801CADE49894295417068E7F5
:1030200070E0C801C3DE498943FB442740F963E6E9
:1030300070E0C801BBDE498942FB442740F966E7DE
:1030400070E0C801B3DED601ED91FC91EE0FFF1FD9
:10305000EE0FFF1FE450FF4F028113810115110590
:1030600039F0F601E758FF4F80819181019729F4EB
:1030700062E070E0CE0122DEC9C040E06BE370EF99
:10308000C80194DE40E062E370E0C8018FDEC70152
:1030900054D2898B99279F938F9388E191E09F93D6
:1030A0008F931F9282E08F931BD40F900F900F90FD
:1030B0000F900F900F908989803D39F48A8181119A
:1030C00004C0C7013AD28F5F898B4989842F8170F0
:1030D000942F9370933051F447FF15C066E077E06A
:1030E00081E090E0ADD481E08A8B40C0882369F014
:1030F00047FF11C040E063E770E0C80157DE41E0E0
:103100006BE370EF31C0811106C047FF04C041E09E
:1031100062E370E029C04695417061E670E0C80145
:1031200045DE4989417063E770E0C8013FDE4989A7
:103130004295417066E670E0C80138DE498942FB7D
:10314000442740F967E670E0C80130DE498943FB57
:10315000442740F964E670E0C80128DE498945FB50
:10316000442740F962E770E0C80120DEC701E5D1DD
:10317000898B99279F938F9388E191E09F938F93F9
:103180001F9282E08F93ACD30F900F900F900F900F
:103190000F900F908989803D39F48A81811104C094
:1031A000C701CBD18F5F898B4989441F4427441FB6
:1031B00061E770E0C801FADD498946FB442740F920
:1031C00067E770E0C801F2DD498945FB442740F913
:1031D00069E670E0C801EADD4989429541706BE615
:1031E00070E0C801E3DD498943FB442740F96AE602
:1031F00070E0C801DBDD498942FB442740F96CE6F9
:1032000070E0C801D3DD02C0BB24B3948B2DDF91E5
:10321000CF911F910F91FF90EF90DF90CF90BF90D3
:103220000895DF92EF92FF920F931F93CF93DF9356
:10323000FB01E958FF4F208121FD03C0DD24D39419
:1032400010C18B01EC017C0182E0E80EF11CC7018A
:1032500074D1898B99279F938F9388E191E09F93F5
:103260008F931F9282E08F933BD30F900F900F901C
:103270000F900F900F908989803D39F48A818111D8
:1032800004C0C7015AD18F5F898B6989CE0174DD73
:10329000D82E882309F4E5C0D801ED91FC91EE0FFA
:1032A000FF1FEE0FFF1FE450FF4F80819181892B9C
:1032B00029F462E070E0CE0101DD5CC0C7013DD1C0
:1032C000898B99279F938F9388E191E09F938F93A8
:1032D0001F9282E08F9304D30F900F900F900F9066
:1032E0000F900F908989803D39F48A81811104C043
:1032F000C70123D18F5F898BC7011FD1898B992784
:103300009F938F9388E191E09F938F931F9282E028
:103310008F93E6D20F900F900F900F900F900F9019
:103320008989803D39F48A81811104C0C70105D1A2
:103330008F5F898B8989082E000C990BF801E35463
:10334000FF4F2081318128173907A4F491838083AE
:10335000181619067CF4D801ED91FC91EE0FFF1FB1
:10336000EE0FFF1FE450FF4F41E065E370E0808106
:1033700091811CDDD801ED91FC91EE0FFF1FEE0F46
:10338000FF1FE450FF4F82819381892B39F0F801B0
:10339000E358FF4F80819181019729F462E070E04A
:1033A000CE018CDC5EC0C701C8D0898B99279F9362
:1033B0008F9388E191E09F938F931F9282E08F9388
:1033C0008FD20F900F900F900F900F900F908989D0
:1033D000803D39F48A81811104C0C701AED08F5F6E
:1033E000898BC701AAD0898B99279F938F9388E1F6
:1033F00091E09F938F931F9282E08F9371D20F90F1
:103400000F900F900F900F900F908989803D39F4A5
:103410008A81811104C0C70190D08F5F898B89890F
:10342000082E000C990BF801E154FF4F20813181E7
:10343000281739070CF002CF9183808318161906DC
:103440000CF0FCCED801ED91FC91EE0FFF1FEE0FBA
:10345000FF1FE450FF4F41E066E370E082819381FB
:10346000A5DC8D2DDF91CF911F910F91FF90EF90F3
:10347000DF9008950F931F93CF93DF93EC018C019E
:103480000D5E1F4F48E050E066EA72E0C8010E94FE
:10349000DC27892B81F060ED76E082E090E0D0D2ED
:1034A00086E092E06DD588E0E6EAF2E0D80101908E
:1034B0000D928A95E1F76B9648E050E06EE972E074
:1034C000CE010E94DC27892B81F06AE976E082E058
:1034D00090E0B6D282E092E053D588E0EEE9F2E0E7
:1034E000DE0101900D928A95E1F781E0DF91CF91A5
:1034F0001F910F910895CF93DF93EC01D2DB81EB05
:1035000091E09983888388E0FE017396DF01982F0C
:103510001D929A95E9F76B96DE011D928A95E9F75F
:10352000DF91CF910895FC017283618384E690E07E
:1035300090878783928781870895FC0198EC91504A
:103540000000E9F781819281DC01ED91FC91028418
:10355000F385E02D09942F923F924F925F926F92E4
:103560007F928F929F92AF92BF92CF92DF92EF9213
:10357000FF920F931F93CF93DF93E62E5A01E90139
:103580006BEB71E082E090E043D280EEF801808343
:103590006CEC71E082E090E03BD2F801E1828E2D8C
:1035A0000E2C000C990B9F93EF9298E1C92E91E09D
:1035B000D92EDF92CF921F9222E0922E9F9290D12D
:1035C000FC2EF394F801F282CE0101969F938F9323
:1035D000DF92CF921F929F9283D18E2D8F0D480143
:1035E000F3E08F0E911C2DB73EB7245F3F4F0FB60F
:1035F000F8943EBF0FBE2DBF75013601212C332438
:103600003394C82E082E000CDD0897012A193B09B7
:103610002C173D071CF52701F7018081F4018193E8
:103620004F01F70181917F011F928F937F926F92DB
:103630001F92F2E0FF9354D1F20180819601280F8E
:10364000311D87FD3A95C901B1010E94AF270F9046
:103650000F900F900F900F900F90D3CFD7FF02C015
:10366000C0E0D0E00C0F1D1FF8018383C60160E0AD
:1036700071E00E94AF2799279F938F9388E191E093
:103680009F938F931F9282E0F82EFF9229D1F80129
:1036900014822496DF93CF9388E697E09F938F93CD
:1036A0001F92FF9269D18DB79EB70C960FB6F89412
:1036B0009EBF0FBE8DBFCE01DF91CF911F910F91A5
:1036C000FF90EF90DF90CF90BF90AF909F908F9042
:1036D0007F906F905F904F903F902F900895CF9282
:1036E000DF92EF92FF920F931F93CF93DF937C01B2
:1036F0008B016A01EB01D70111968D919C91129774
:103700009E01201B310B2C153D054CF46991DC0109
:10371000ED91FC910190F081E02D0995ECCFDC0159
:10372000ED91FC910680F781E02D099581E0DF9114
:10373000CF911F910F91FF90EF90DF90CF90089560
:103740004F925F926F927F928F929F92AF92BF92B1
:10375000CF92DF92EF92FF920F931F93CF93DF935D
:10376000DA017C91772309F4A9C069017A01162F47
:10377000EC0160ED71E082E090E04AD189819A81AC
:10378000DC01ED91FC910190F081E02D60EE099556
:103790006CEC71E082E090E03BD189819A81DC01A0
:1037A000ED91FC910190F081E02D612F09951F9220
:1037B0001F9388E1A82E81E0B82EBF92AF921F928E
:1037C00002E00F938DD089819A81442443944C0C5C
:1037D000DC01ED91FC910190F081E02D642D0995C3
:1037E0001F921F93BF92AF921F920F9379D0410EF9
:1037F000EDB7FEB73C960FB6F894FEBF0FBEEDBF17
:10380000870192E0592E612C7724739489819A81E3
:1038100098012E193F092C153D0544F54801DC019E
:10382000ED91FC910190F081E02DD8016C9109950A
:10383000F80181918F011F928F93BF92AF921F92D7
:103840005F924ED0D4012C91842D440C990B820FA1
:10385000911D27FD9A95B3010E94AF27482E0F9026
:103860000F900F900F900F900F90D0CFDC01ED9143
:10387000FC910190F081E02D642D09951F924F92EB
:1038800088E191E09F938F931F9282E08F9328D0DD
:1038900089819A81DC01ED91FC910680F781E02D10
:1038A000099560EE71E082E090E0B2D00F900F9049
:1038B0000F900F900F900F9081E001C080E0DF919A
:1038C000CF911F910F91FF90EF90DF90CF90BF901D
:1038D000AF909F908F907F906F905F904F900895E2
:1038E000CF92DF92EF92FF920F931F93CF93DF93CC
:1038F000CDB7DEB7C456D1090FB6F894DEBF0FBE00
:10390000CDBFE1968EAD9FADE19703972CF5AE014B
:103910004D585F4FE3966EAD7FADE397CE010196B4
:103920000E942E288E010F5F1F4F7E0185E6E80E54
:10393000F11C0E151F0579F06801F80180818823BC
:1039400051F08A3011F48DE013D10F5F1F4FF60153
:1039500080810ED1EECF4ED1CC59DF4F0FB6F89407
:10396000DEBF0FBECDBFDF91CF911F910F91FF90B2
:10397000EF90DF90CF900895CF92DF92EF92FF9279
:103980000F931F93CF93DF93CDB7DEB7C456D10902
:103990000FB6F894DEBF0FBECDBFE1968EAD9FADE2
:1039A000E19703972CF5AE014D585F4FE3966EAD4E
:1039B0007FADE397CE0101960E9447288E010F5FED
:1039C0001F4F7E0185E6E80EF11C0E151F0579F0EC
:1039D0006801F8018081882351F08A3011F48DE06C
:1039E000C7D00F5F1F4FF6018081C2D0EECF02D14A
:1039F000CC59DF4F0FB6F894DEBF0FBECDBFDF91BD
:103A0000CF911F910F91FF90EF90DF90CF9008958D
:103A10001F93CF93DF9303977CF4EB01199111234C
:103A200039F01A3011F48DE0A3D0812FA1D0F6CF58
:103A3000DF91CF911F91DEC0DF91CF911F9108954B
:103A4000CF92DF92EF92FF920F931F93CF93DF936A
:103A5000CDB7DEB7C456D1090FB6F894DEBF0FBE9E
:103A6000CDBF039724F57F936F938E010F5F1F4F98
:103A70001F930F930E940F287E0185E6E80EF11C2C
:103A80000F900F900F900F900E151F0579F06801A1
:103A9000F8018081882351F08A3011F48DE068D0DC
:103AA0000F5F1F4FF601808163D0EECFA3D0CC59BA
:103AB000DF4F0FB6F894DEBF0FBECDBFDF91CF91C1
:103AC0001F910F91FF90EF90DF90CF90089580911C
:103AD000E80080FFFCCF089581E08093D70080EA62
:103AE0008093D80082E189BD09B400FEFDCF80E952
:103AF0008093D8001092E0001092AF021092A602BC
:103B00001092A7021092A8021092A9021092AA0283
:103B10001092AB021092AC021092AD0291E0909321
:103B20009D028DE780939B0210929902109297025A
:103B300010929E0210929F021092A0021092A10277
:103B40001092A2021092A3021092A4021092A50257
:103B500090939C0280939A0210929802109296027F
:103B60008CE08093E200789408958091AF020895EC
:103B70009091AF02992371F09FB7F89423E02093BE
:103B8000E90020910002222349F02091E80025FD60
:103B900003C09FBF8FEF0895109200022091E400B0
:103BA0002C5F33E04091E80045FD12C09FBF90912B
:103BB000E400291304C081E080930002EBCF9091D0
:103BC000AF02992339F39FB7F8943093E900EACF15
:103BD0008093F1008091E80085FD06C08AE3809320
:103BE000E8001092010203C082E0809301029FBFAF
:103BF00080E008958FB7F89490910102992379F0AD
:103C000093E09093E9009091E80095FF03C0109233
:103C1000F100F9CF9AE39093E800109201028FBF70
:103C200008951F920F920FB60F9211248F938091D7
:103C3000E1001092E10083FF0FC01092E90081E0E3
:103C40008093EB001092EC0082E38093ED0088E01B
:103C50008093F0001092AF028F910F900FBE0F90E3
:103C60001F9018951F920F920FB60F921124FF927A
:103C70000F931F932F933F934F935F936F937F9374
:103C80008F939F93AF93BF93CF93DF93EF93FF9364
:103C90001092E9008091E80083FF59C1F090F10093
:103CA0008091F100C091F1009091F100D0E0D92B0A
:103CB0000091F1009091F10010E0192B2091F1009A
:103CC0006091F10092EF9093E800863009F048C0CF
:103CD0008CE897E0FC0145915491C417D507D9F4BD
:103CE000FC0132964591549104171507A1F4FC018B
:103CF000349645915491FC013696849130E0362BF0
:103D00002F3F310519F010F02FEF30E0281708F49D
:103D1000822F3EEF0DC0079637E08E3E9307D1F617
:103D200016C1490F511D891B3093E8008823A9F063
:103D30009091E800292F2570D9F392FD0BC1982F9F
:103D4000813408F090E4FA01292F222351F3649181
:103D50006093F10021503196F8CF903449F3FAC0C6
:103D6000853041F48EEF8093E800B1DEC068C093E7
:103D7000E300F0C0893039F5F1106AC0C093AF029A
:103D80008EEF8093E80041E088E699E04093E900F7
:103D90009C012F5F3F4FFC0154915093EB00552342
:103DA00059F0F90124912093EC009C012D5F3F4FC5
:103DB0003196E491E093ED004F5F443011F0C9017A
:103DC000E5CF8EE140C0883039F4F0E8FF1240C002
:103DD0007EDE8091AF0298C0811114C078DE32E897
:103DE000F3120AC00093E9008091EB0085FB88275D
:103DF00080F91092E90001C080E08093F1001092F8
:103E0000F100A1C0982F9D7F913011F592E0F91239
:103E10001FC0CD2B09F09BC00F779FEF900F943000
:103E200008F095C09EEF9093E8000093E90083307E
:103E300009F48DC089E18093EB0081E090E001C03E
:103E4000880F0A95EAF78093EA001092EA0082C090
:103E500001151105C9F5E1EAFE121BC0813061F4BC
:103E600036DEE6EAF2E08EEA92E021912093F1005C
:103E70008E179F07D1F767C0823021F428DE80912A
:103E80009B0242C0833009F062C021DE80919D0216
:103E90003BC0F1E2FF125BC0893049F48091E80039
:103EA00082FFFCCF8091F100809397023DC08A3061
:103EB00029F4D0939B021092990245C08B3009F0EF
:103EC00046C0C0939D023FC00130110509F03FC0BC
:103ED00091EAF9121CC0813061F4F9DDEEE9F2E0FB
:103EE00086EA92E021912093F1008E179F07D1F787
:103EF0002AC0823021F4EBDD80919A0205C0833024
:103F000031F5E5DD80919C028093F1001CC0E1E277
:103F1000FE121DC0893061F48091E80082FFFCCF61
:103F20008091F100809396028BEF8093E8000BC0A4
:103F30008A3029F4D0939A021092980204C08B30F0
:103F400031F4C0939C028EEF8093E80003C081E2BD
:103F50008093EB00FF91EF91DF91CF91BF91AF91F3
:103F60009F918F917F916F915F914F913F912F9191
:103F70001F910F91FF900F900FBE0F901F901895FB
:103F8000FC018091AF02882309F450C08FB7F894E8
:103F900092819093E9009091E4009E5C2091E8006A
:103FA00025FD10C08FBF8091AF02882309F43EC069
:103FB0008091E4009817D1F18FB7F8942281209373
:103FC000E900ECCFA081B1819C919093F100A08198
:103FD000B18111969C919093F100A081B1811296CC
:103FE0009C919093F100A081B18113969C91909344
:103FF000F100A081B18114969C919093F100A08171
:10400000B18115969C919093F100A081B181169693
:104010009C919093F100A081B18117969C9190930F
:10402000F1009AE39093E80013828FBF0895603205
:10403000710540F46A30710569F06B30710561F407
:104040008BE208956038710538F4FB01EB52F44FB0
:104050008491089588E2089580E008950F931F9356
:10406000CF93DF938C01D62FC42F1F924F931F92B3
:104070006F9381E799E09F938F931F9281E08F93D5
:104080007BDC8DB79EB708960FB6F8949EBF0FBE27
:104090008DBFCC2351F0D801ED91FC9180819C2FF4
:1040A0009823C91711F0C82BC083DD23C9F0F8018C
:1040B000808191819C012E5F3F4F0896F9014191CB
:1040C000D41771F0E817F907D1F7F9012F5F3F4FC7
:1040D0004081411102C0D08303C028173907A9F7D6
:1040E000DF91CF911F910F9108950F931F93CF935D
:1040F0008C01872F9927823CB8F0803E60F46F7363
:1041000077278F71992726E0880F991F2A95E1F765
:10411000682B792B09C0803F11F440E021C0803E1C
:1041200021F5462F60E01CC0C80181DFC82F88231D
:10413000E1F01F928F9380E999E09F938F931F92F4
:1041400081E08F9319DC0F900F900F900F900F90DC
:104150000F90C6FF02C042E001C040E06C2F6F73B9
:10416000C801CF911F910F9179CFCF911F910F91DE
:104170000895DC01442351F0ED91FC911197908159
:10418000842F892319F0409549234083662381F0C9
:1041900022E030E0ED91FC911197E20FF31F808156
:1041A000681301C010822F5F3F4F2830310591F70F
:1041B0000895CF93DF93EC01872F9927823CB8F0C5
:1041C000803E60F46F7377278F71992726E0880F00
:1041D000991F2A95E1F7682B792B09C0803F11F4CC
:1041E00040E010C0803E91F4462F60E00BC0CE014D
:1041F0001EDF882359F086FF02C042E001C040E084
:10420000682F6F73CE01DF91CF91B3CFDF91CF9144
:10421000089580919902E6E0F2E026EA32E03183E7
:10422000208391E09283838380919802E2E0F2E020
:104230002EE932E03183208392E0928383830895D4
:104240009F92AF92BF92CF92DF92EF92FF920F9325
:104250001F93CF93DF935C01EA01922E5E9800E0FA
:1042600010E06B01770FEE08FF080A151B055CF4E0
:10427000C701B6013AD65E9AC701B60136D65E9836
:104280000F5F1F4FF2CF992011F05E9A01C05E9828
:10429000BE01DD0F880B990BDF91CF911F910F911C
:1042A000FF90EF90DF90CF90BF90AF909F901DC692
:1042B000CF93DF9311DC59DC8823E9F36CED75E0D3
:1042C00080E090E012D61F921F921F9281E08F93A0
:1042D00020EE3BE03F932F931F928F934DDB6EECCC
:1042E0007BE081E090E0ACDB62EB7BE081E090E0A2
:1042F000A7DB62EA7BE081E090E0A2DB569A61E90D
:104300007BE081E090E09CDB20E030E044EF51E096
:1043100069E170E081E090E093DF41E161E170E00C
:104320008CE092E040D282EA91E045D4EC016CE06E
:1043300072E00E94AB06D0930B02C0930A0269E7B9
:104340007BE081E090E07CDB249A249A2C9A8DB764
:104350009EB708960FB6F8949EBF0FBE8DBFDF9133
:10436000CF910895BF92CF92DF92EF92FF920F9379
:104370001F93CF93DF9367E57BE081E090E060DB04
:104380008DE06DD48538934054F020E030E040E07B
:1043900050E064EF71E082E090E052DFF1CF66E43C
:1043A0007BE081E090E04CDB6CE27BE081E090E040
:1043B00047DB20E030E044EF51E069E170E082E06B
:1043C00090E03EDF80910A0290910B020E94D1069C
:1043D00062E27BE081E090E033DB8DE040D49F93AC
:1043E0008F9388EF9AE09F938F931F9282E08F9331
:1043F000C3DA61EE7AE081E090E022DB0F900F906B
:104400000F900F900F900F9080910A0290910B02E5
:104410000E94E6148111F8CFE0910A02F0910B029C
:10442000828181110CC1ED59FE4F8081882309F4EE
:1044300006C18DE014D49F938F9382ED9AE09F93F1
:104440008F931F9282E08F9397DAE0910A02F091A6
:104450000B02ED59FE4F80811F928F938FEB9AE0F4
:104460009F938F931F9281E08F9386DA8DB79EB7CB
:104470000C960FB6F8949EBF0FBE8DBFC0E0D0E083
:1044800037EAC32E3AE0D32EBB24B39440E4E42EA3
:104490004AE0F42EE0910A02F0910B02ED59FE4F32
:1044A000808190E0C817D9070CF089C08E010F5F9A
:1044B0001F4F1F930F93DF92CF921F92BF925CDA30
:1044C00061E97AE081E090E0BBDABE0180910A0206
:1044D00090910B020E945A150F900F900F900F9021
:1044E0000F900F90882309F45CC0BE0180910A02EE
:1044F00090910B020E942F07BE0180910A029091B9
:104500000B020E944D14882309F44BC0BE01809118
:104510000A0290910B020E941D0960E87AE082E095
:1045200090E08EDABE0180910A0290910B020E9407
:10453000DC0780910A0290910B02FE01EE54FF4FBE
:10454000EE0FFF1FE80FF91F0190F081E02DE158F9
:10455000FF4F81818F9380818F931F930F93FF92E1
:10456000EF921F92BF9208DABE0180910A029091E9
:104570000B020E94B412BE0180910A0290910B02BC
:104580000E94860766E37AE081E090E059DAADB7F1
:10459000BEB718960FB6F894BEBF0FBEADBFE80108
:1045A00079CF6BE07AE081E090E0DF91CF911F91CD
:1045B0000F91FF90EF90DF90CF90BF9041CA65EFD1
:1045C00079E081E090E03CDA21E030E048EE53E031
:1045D00069E170E083E090E033DEC0E0D0E08DE0A0
:1045E0003ED3C39764F580910A0290910B02FC01BF
:1045F0002289222331F061EE79E081E090E020DA37
:1046000017D40E94621381110EC0219668EE73E0E8
:1046100080E090E06AD4C330D10509F763EA79E01D
:1046200082E090E0C2CF80910A0290910B02DC01FF
:10463000ED91FC910084F185E02D0995CECFDF91BD
:10464000CF911F910F91FF90EF90DF90CF90BF908F
:104650000895ECE0F2E088E0DF011D928A95E9F729
:1046600088EE93E0A0E0B0E083839483A583B683D3
:1046700082EF91E0918380830895509148024091A8
:104680004702852F90E0242F30E0541710F4805C0F
:104690009F4F821B930B089550914802409147020F
:1046A000252F30E0842F90E0821B930B541710F0DD
:1046B000879608950197089580914802E0914702F6
:1046C0008E1751F0EF5FE03408F0E0E0F0E0E75BD8
:1046D000FD4F808190E008958FEF9FEF08959091B6
:1046E000480280914702981779F0909147029F5FA6
:1046F000903408F090E0E92FF0E0E75BFD4F808117
:104700009093470290E008958FEF9FEF0895809176
:104710001C028111FCCF08952091C90023FD06C021
:1047200021E0FC01228380E090E008958091040163
:104730008F3F21F080911C02882399F090911E02F6
:1047400080911D02981312C08091C80085FF0EC091
:104750008FB7F8946093CE0091E090931C028FBFC6
:104760001DC0E0910401F0E0CAD2E8CF80911E02A2
:104770008F5F8832B0F490911D029817E1F3E82F13
:10478000F0E0E15EFD4F608391E090931C02809326
:104790001E028091C90080628093C90081E090E090
:1047A000089580E0E8CF1F93CF93DF93EB01142FA0
:1047B000409304014F3F29F0842F90D2E12FF0E085
:1047C000A4D2C0FF08C0C13080E1D80720F482E045
:1047D0008093C80004C01092C800D695C795219751
:1047E000D093CD00C093CC008091C90083FD10C050
:1047F000109248021092470210921E0210921D025F
:1048000010921C0286E08093CA0088ED8093C90054
:10481000DF91CF911F9108951F920F920FB60F92C3
:1048200011242F938F939F93EF93FF939091CE003A
:10483000809148028F5F803408F080E02091470229
:10484000821739F0E82FF0E0E75BFD4F908380930B
:104850004802FF91EF919F918F912F910F900FBE82
:104860000F901F9018951F920F920FB60F92112460
:104870008F939F93EF93FF9390911E0280911D025F
:10488000981306C08091C9008F7D8093C9000FC026
:1048900080911D028F5F883208F080E0E82FF0E001
:1048A000E15EFD4F90819093CE0080931D02FF91B9
:1048B000EF919F918F910F900FBE0F901F901895C1
:1048C0001F920F920FB60F9211248F93EF93FF93C5
:1048D00010921C02809104018F3F21F0E0910401AD
:1048E000F0E013D2FF91EF918F910F900FBE0F90D8
:1048F0001F901895E4E1F2E0128288EE93E0A0E0C8
:10490000B0E083839483A583B683178282EF91E01E
:10491000918380830895CF92DF92EF92FF920F935D
:104920001F93CF93DF936C01EB017B01E40EF51E27
:1049300000E010E0CE15DF0561F06991D601ED9140
:10494000FC910190F081E02DC6010995080F191F17
:10495000F1CFC801DF91CF911F910F91FF90EF90A0
:10496000DF90CF9008954BD1A3DCFCDCFECF0F93FA
:104970001F93CF93DF938230910510F482E090E093
:10498000E0919402F091950220E030E060E070E068
:10499000A0E0B0E0C0E0D0E0309701F1408151816B
:1049A0000281138148175907B0F08417950751F415
:1049B000209719F00A831B8329C000939402109357
:1049C000950224C02115310519F04217530718F438
:1049D0009A01BE01DF01EF01F801DECF211531059B
:1049E00009F1281B390B2430310590F412968D9172
:1049F0009C9113976115710521F0FB0193838283CC
:104A000004C09093950280939402FD01329644C0B5
:104A1000FD01E20FF31F81939193225031092D93F1
:104A20003C933AC02091890230918A02232B41F4B1
:104A3000209107013091080130938A022093890266
:104A400020910501309106012115310541F42DB762
:104A50003EB74091090150910A01241B350BE091AA
:104A60008902F0918A02E217F307A0F42E1B3F0B94
:104A70002817390778F0AC014E5F5F4F24173507D0
:104A800048F04E0F5F1F50938A0240938902819332
:104A9000919302C0E0E0F0E0CF01DF91CF911F9150
:104AA0000F910895CF93DF93009709F481C0FC0123
:104AB000329713821282A0919402B09195021097BE
:104AC00081F420813181820F931F209189023091DE
:104AD0008A022817390751F5F0938A02E093890278
:104AE00067C0ED0120E030E0CE17DF0740F44A81D7
:104AF0005B819E0141155105F1F0EA01F5CFD383A9
:104B0000C28340815181840F951FC817D90759F47A
:104B100088819981840F951F0296918380838A8171
:104B20009B81938382832115310529F4F0939502AB
:104B3000E09394023DC0E901FB83EA8349915991D6
:104B4000C40FD51FEC17FD0761F480819181840F9C
:104B5000951F0296E90199838883828193819B83C3
:104B60008A83E0E0F0E012968D919C911397009774
:104B700019F0FD01DC01F7CF8D919C9111979D01FA
:104B80002E5F3F4F820F931F2091890230918A023E
:104B90002817390769F4309729F41092950210927A
:104BA000940202C013821282B0938A02A0938902F7
:104BB000DF91CF910895DBCE75CF08951DBA109285
:104BC00068001CBC10BE1FBA10927A0010926E00D2
:104BD00010926F0010927100109272001092C90032
:104BE000ECEBF0E0108214B817B81AB81DB810BA80
:104BF000108215B818B81BB81EB811BA0895F894E9
:104C0000E1E6F0E020E82083108283E084BD85BDEA
:104C1000EEE6F0E080818160808381E08093800017
:104C200092E09093810080939000909391009093F4
:104C3000C00094E09093C1008093C2008093C300B1
:104C40001092C40086E880937A0020937B00109233
:104C50007E0010927D000E946C1D7894089587312B
:104C6000D0F5E82FF0E0E957F34FE491E83070F425
:104C700020917E0081E090E00E2E01C0880F0A9402
:104C8000EAF7822B80937E0080E80EC0E8502091E6
:104C90007D0081E090E00E2E01C0880F0A94EAF7B3
:104CA000822B80937D0080EA80937B0080910B01B2
:104CB000E82BE0937C0080917A00806480937A00F6
:104CC00080917A0086FDFCCF809178002091790058
:104CD00090E0922B089580E090E00895893170F47F
:104CE000E5E5FCE0880FE80FF11D2591E491F0E087
:104CF0009FB7F8948181822B81839FBF0895E9310A
:104D000050F4EE0FE457F94D0994E93120F4EE0F19
:104D1000E254F94D09940895289A0895299A08951E
:104D20002A9A08952B9A08952F9A6AC0589A58C0C3
:104D3000599A08955A9A08955B9A0895469A66C0BA
:104D4000479A6AC05E9A08955F9A6CC02C9A08953B
:104D50002D9A4AC02E9A4EC08F9A08958E9A089521
:104D60008D9A08958C9A0895899A0895889A08953D
:104D70005C9A08955D9A0895769A08952898089502
:104D8000299808952A9808952B9808952F9838C047
:104D9000589826C0599808955A9808955B98089590
:104DA000469834C0479838C05E9808955F983AC0D6
:104DB0002C9808952D9818C02E981CC08F9808958F
:104DC0008E9808958D9808958C98089589980895DF
:104DD000889808955C9808955D9808957698089548
:104DE000E4B5EF7DE4BD0895E0918000EF77E093B6
:104DF00080000895E0918000EF7DE09380000895A9
:104E0000E0918000E77FE09380000895E0919000BA
:104E1000EF77E09390000895E091C000EF77E09382
:104E2000C0000895E091C200E77FE093C2000895BA
:104E3000F89484B7877F84BF8091600080618093FD
:104E400060001092600080E29EE40197F1F781E03B
:104E50008093E00080E28093D80080E69AEE01978C
:104E6000F1F7ACDE0C94003FFFCF8F938FB78F9399
:104E700080918B028D5F8D37D0F480938B0280916F
:104E80008C028F5F80938C02D8F080918D028F4FBF
:104E900080938D02A8F080918E028F4F80938E02B6
:104EA00078F080918F028F4F80938F0209C08D57C9
:104EB00080938B0280918C028E5F80938C0228F706
:104EC000809190028C5F8093900258F080919102C3
:104ED0008F4F8093910228F0809192028F4F8093A0
:104EE00092028F918FBF8F911895CF92DF92EF92A0
:104EF000FF926B017C0119D09B01C114D104E10424
:104F0000F10471F012D0621B730B683E7340A8F37A
:104F100081E0C81AD108E108F10828513C4FEDCFD3
:104F2000FF90EF90DF90CF9008950FB6F89466B59C
:104F300015B27091900280919102909192020FBEF1
:104F400010FE05C06F3F19F07C5F8F4F9F4F1124FB
:104F50000024660F001C660F001C7029089597FB43
:104F6000072E16F4009406D077FD08D011D007FC68
:104F700005D03EF4909581959F4F08957095619569
:104F80007F4F0895EE0FFF1F0590F491E02D0994D7
:104F9000AA1BBB1B51E107C0AA1FBB1FA617B7075F
:104FA00010F0A61BB70B881F991F5A95A9F780957B
:104FB0009095BC01CD010895FB01DC0104C08D91E9
:104FC0000190801921F441505040C8F7881B990B7B
:104FD0000895FB01DC0101900D920020E1F7089596
:104FE000AEE0B0E0E5EFF7E2FBC20D891E8986E096
:104FF0008C831A8309838FEF9FE79E838D83AE0195
:10500000475E5F4F6F89788DCE01019659D0EF8151
:10501000F885E00FF11F10822E96E4E0FDC2AEE0AD
:10502000B0E0E4E1F8E2DCC20D891E898EE08C83F9
:105030001A8309838FEF9FE79E838D83AE01475EBE
:105040005F4F6F89788DCE0101963AD0EF81F88558
:10505000E00FF11F10822E96E4E0DEC2AEE0B0E079
:10506000E3E3F8E2BDC28C0186E08C831A830983F6
:105070008FEF9FE79E838D83CE01019621D0EF8134
:10508000F885E00FF11F10822E96E4E0C5C2AEE075
:10509000B0E0ECE4F8E2A4C28C018EE08C831A83C9
:1050A00009838FEF9FE79E838D83CE01019608D001
:1050B000EF81F885E00FF11F10822E96E4E0ACC27C
:1050C000ABE0B0E0E5E6F8E27DC26C017B018A016D
:1050D000FC0117821682838181FFBFC1CE01019638
:1050E0003C01F6019381F70193FD859193FF819136
:1050F0007F01882309F4ADC1853239F493FD859190
:1051000093FF81917F01853221F4B60190E0C0D1F7
:10511000E8CF912C212C312CFFE1F315D8F08B3204
:1051200079F038F4803279F08332A1F4232D2061B4
:105130001DC08D3261F0803369F4232D216016C0CB
:10514000832D8260382EE32DE4603E2E2AC0F32D9D
:10515000F8601DC037FC2DC020ED280F2A3040F02C
:105160008E32B9F436FC75C1232D2064322E19C05D
:1051700036FE06C08AE0989E200D1124922E11C0A2
:10518000EAE02E9E200D1124222EF32DF0623F2EF8
:1051900008C08C3621F4832D8068382E02C08836F2
:1051A00041F4F70193FD859193FF81917F01811176
:1051B000B3CF982F9F7D9554933028F40C5F1F4FE9
:1051C0009FE399830DC0833631F0833771F08335C7
:1051D00009F055C020C0F801808189830E5F1F4F00
:1051E00088248394912C530112C02801F2E04F0EC1
:1051F000511CF801A080B18036FE03C0692D70E01B
:1052000002C06FEF7FEFC50138D14C018201F32D51
:10521000FF773F2E15C0280122E0420E511CF801F5
:10522000A080B18036FE03C0692D70E002C06FEF30
:105230007FEFC50117D14C01F32DF0683F2E82019D
:1052400033FC19C0822D90E088169906A0F4B601AF
:1052500080E290E01DD12A94F5CFF50137FC8591CD
:1052600037FE81915F01B60190E012D121102A949E
:1052700021E0821A91088114910479F7E1C0843603
:1052800011F0893639F5F80137FE07C06081718168
:10529000828193810C5F1F4F08C060817181072E4E
:1052A000000C880B990B0E5F1F4FF32DFF763F2EDE
:1052B00097FF09C090958095709561957F4F8F4FAE
:1052C0009F4FF0683F2E2AE030E0A3011DD1882EC9
:1052D000861844C0853731F4232D2F7EB22E2AE064
:1052E00030E025C0932D997FB92E8F36C1F018F488
:1052F000883579F0AEC0803719F0883721F0A9C021
:10530000E92FE061BE2EB4FE0DC0FB2DF460BF2E70
:1053100009C034FE0AC0292F2660B22E06C028E03C
:1053200030E005C020E130E002C020E132E0F801C9
:10533000B7FE07C060817181828193810C5F1F4F2E
:1053400006C06081718180E090E00E5F1F4FA30175
:10535000DBD0882E8618FB2DFF773F2E36FE0DC042
:10536000232D2E7FA22E891458F434FE0BC032FC5C
:1053700009C0832D8E7EA82E05C0B82CA32C03C097
:10538000B82C01C0B92CA4FE0FC0FE01E80DF11D20
:105390008081803321F49A2D997EA92E09C0A2FE26
:1053A00006C0B394B39404C08A2D867809F0B394F0
:1053B000A3FC10C0A0FE06C0B21480F4280C922CEE
:1053C0009B180DC0B21458F4B60180E290E060D092
:1053D000B394F8CFB21418F42B1802C0982C212CD7
:1053E000A4FE0FC0B60180E390E052D0A2FE16C02A
:1053F000A1FC03C088E790E002C088E590E0B60118
:105400000CC08A2D867851F0A1FE02C08BE201C04B
:1054100080E2A7FC8DE2B60190E03AD0891430F426
:10542000B60180E390E034D09A94F8CF8A94F301E7
:10543000E80DF11D8081B60190E02AD08110F6CFF1
:10544000222009F44ECEB60180E290E021D02A94C9
:10545000F7CFF6018681978102C08FEF9FEF2B96E1
:10546000E2E1CCC0FC010590615070400110D8F71A
:10547000809590958E0F9F1F0895FC01615070409C
:1054800001900110D8F7809590958E0F9F1F089579
:105490000F931F93CF93DF93FB01238121FD03C063
:1054A0008FEF9FEF2CC022FF16C0468157812481C9
:1054B00035814217530744F4A081B1819D012F5FCC
:1054C0003F4F318320838C93268137812F5F3F4F5D
:1054D0003783268314C08B01EC01FB010084F18526
:1054E000E02D0995892BE1F6D80116968D919C91B6
:1054F0001797019617969C938E931697CE01DF917E
:10550000CF911F910F910895FA01AA27283051F1E8
:10551000203181F1E8946F936E7F6E5F7F4F8F4FE4
:105520009F4FAF4FB1E03ED0B4E03CD0670F781F43
:10553000891F9A1FA11D680F791F8A1F911DA11D28
:105540006A0F711D811D911DA11D20D009F4689461
:105550003F912AE0269F11243019305D3193DEF609
:10556000CF010895462F4770405D4193B3E00FD0BF
:10557000C9F7F6CF462F4F70405D4A3318F0495DAA
:1055800031FD4052419302D0A9F7EACFB4E0A6958D
:105590009795879577956795BA95C9F700976105AF
:1055A000710508959B01AC010A2E06945795479505
:1055B00037952795BA95C9F7620F731F841F951FFA
:1055C000A01D08952F923F924F925F926F927F920B
:1055D0008F929F92AF92BF92CF92DF92EF92FF9203
:1055E0000F931F93CF93DF93CDB7DEB7CA1BDB0BAF
:1055F0000FB6F894DEBF0FBECDBF09942A88398854
:1056000048885F846E847D848C849B84AA84B9845A
:10561000C884DF80EE80FD800C811B81AA81B98166
:10562000CE0FD11D0FB6F894DEBF0FBECDBFED017A
:065630000895F894FFCF7D
:1056360006020000FF0000B00280004002000100E8
:105646000400010006000100202530325800626582
:10565600666F7265206275696C6452617752657116
:10566600756573745061636B65742C206964784347
:105676006F6D6D616E643A25642C2073697A656F6F
:10568600662862756C6B436F6D6D616E6473293A43
:1056960025642C207374726C656E2862756C6B437E
:1056A6006F6D6D616E6473293A25640A0046656103
:1056B60074757265733A0A000A0A0025642E256419
:1056C6000000000000DE161119D416D4163A1A008E
:1056D600000000DD25DD25DD25DD25DD25000000BA
:1056E60000DE161119D416D4163A1A4275696C647E
:1056F600696E67205061636B65743A00204530001F
:1057060053656E64696E67205061636B65743A0019
:105716000A5061636B65742073656E740A0000003D
:1057260000008C238B244C2387233D236F235C238B
:00000001FF
