:10000000A2C10000C8C10000C6C10000C4C10000F8
:10001000C2C10000C0C10000BEC10000BCC10000E0
:10002000BAC10000B8C100000C94E1100C94021198
:10003000B2C10000B0C10000AEC10000ACC1000000
:10004000AAC10000A8C10000A6C10000A4C1000010
:10005000A2C10000A0C100009EC100000C94D918EC
:100060009AC100000C94B1150C94D8150C94051687
:1000700092C1000090C100008EC100008CC1000040
:100080008AC1000088C1000086C1000084C1000050
:1000900082C1000080C100007EC100007CC1000060
:1000A0007AC1000078C1000076C10000B4074604A0
:1000B0008404A304EA0412056F05D50576077607C4
:1000C00076077607760776077607760738065A06A4
:1000D0007F06CB06F0064F07000100007F021200EA
:1000E000020000D6015400210000E80109002200AE
:1000F000002A025500210100010209002201002A04
:10010000025500030000D2010401030904C00110DC
:1001100002030904A0011E030309047E0120040355
:1001200009045A0122050309042C012C2C034A005E
:1001300056005300320058002000440045004200A1
:1001400055004700200049006E00740065007200F1
:100150006600610063006500000022034A0056004B
:1001600053003200580020004B0065007900620007
:100170006F006100720064002E002E00000020035A
:100180004A00560053003200580020004B00650022
:10019000790062006F006100720064002E000000B0
:1001A0001E034A00560053003200580020004B0046
:1001B0006500790062006F00610072006400000059
:1001C0001003470065006E0065007200690063005F
:1001D00000000403090409025400020100803209EE
:1001E000040000010301010309211101130122553B
:1001F0000007058103080001090401000103010152
:10020000040921110113012255000705820308008A
:1002100001000000000000000000000000000000DD
:100220000000000000000000000005010906A10117
:1002300075019508050719E029E7150025018102D8
:100240009508750115002501050C09E909EA09E27F
:1002500009CD09B509B609B709B881029505750137
:100260000508190129059102950175039103950669
:1002700075081500257F05071900297F8100C01228
:1002800001100100000040C01687040001010200B7
:100290000101C10601C1062C5E74606162643466AE
:1002A00067656E362D3738271E1F2021222324250F
:1002B000267333762E77785F4445464748494A4B44
:1002C0004C4D4E4F505152535455565758595A5BF6
:1002D0005C5D2F3130636D350405060708090A0B94
:1002E0000C0D0E0F101112131415161718191A1BD6
:1002F0001C1D6F7170752A012302230423082380BB
:100300002301290229042908294026802640298022
:1003100029102320234023802F402F202F102F022D
:100320002F012F10292029402C0001040506070D5C
:100330000C0B0A09080A0B0C0D070605040100083E
:10034000A513CE141F1611241FBECFEFDAE0DEBFB7
:10035000CDBF11E0A0E0B1E0ECEDF8E302C0059004
:100360000D92AE37B107D9F722E0AEE7B1E001C098
:100370001D92A231B207E1F711E0C3EAD1E004C057
:100380002197FE010E946619C03AD107C9F70E9461
:1003900058160C946C1C34CEFC01329626E6DF0114
:1003A0001D922A95E9F7EA59FF4F25E0DF01322F28
:1003B0001D923A95E9F73596DF01322F1D923A9555
:1003C000E9F73596DF011D922A95E9F735961182F6
:1003D0001082EA5BFF4F2FEF3FEF3183208332968D
:1003E00031832083329620E4DF011D922A95E9F7BC
:1003F000FC01718360830895CF93DF93EC010E9429
:10040000680F86E491E099838883FE01B79680E4C3
:1004100091E0DF019C011D9221503040E1F7E05C4A
:10042000FE4F1082C859DE4F8EE3DE011D928A9581
:10043000E9F75198599A5098589A27982F9ADF912E
:10044000CF910895CF92DF92EF92FF920F931F9377
:10045000CF93DF9300D0CDB7DEB78C0160ED77E0AE
:1004600080E090E00E94191980EF898389ED8A83EA
:10047000780182E0E80EF11C22E030E0AE014F5F2F
:100480005F4F6FEFC7010E94111068EE73E080E0CC
:1004900090E00E94191922E030E0AE014F5F5F4FFB
:1004A0006FEFC7010E94111068EE73E080E090E0EA
:1004B0000E9419197801E8E9EE1AEEEFFE0A6801C8
:1004C000FAE5CF1AFEEFDF0AF701819191917F01E2
:1004D000009711F00E948117EC14FD04A9F7F801B0
:1004E000E959FE4F1082F80112820F900F90DF91B0
:1004F000CF911F910F91FF90EF90DF90CF900895D3
:10050000089508954F925F926F927F928F929F927B
:10051000AF92BF92CF92DF92EF92FF920F931F9311
:10052000CF93DF93CDB7DEB764970FB6F894DEBFF5
:100530000FBECDBFFC01E959FE4F208130E06217AC
:1005400073070CF0F4C0FB01EC54FF4FEE0FFF1FDC
:10055000E80FF91FE080F180D701A958BF4F2C9117
:1005600020FF1DC020E22983F701E758FF4F2081BB
:100570002A8322E02B8328E2269FF001279FF00D9B
:100580001124B796E80FF91F1182108221E030E0A4
:100590003383228323E030E041E050E004C020E0D8
:1005A00030E040E050E0EC91E1FF36C0E1E0F0E007
:1005B000EC0FFD1FE20FF31F11E21083F9013196DA
:1005C000AA24A394B12CAC0EBD1EAE0EBF1E2E5F8E
:1005D0003F4F870103581F4FF8011081F501108329
:1005E0008090300190903101A0903201B0903301A1
:1005F0001AE0169FF001179FF00D1124E40FF51F6C
:10060000EE0FFF1FEE0FFF1FE80FF91F87A290A646
:10061000A1A6B2A64F5F5F4FEC91E2FF36C0E1E0CA
:10062000F0E0EC0FFD1FE20FF31F12E21083F9015F
:100630003196AA24A394B12CAC0EBD1EAE0EBF1EE3
:100640002E5F3F4F870101581F4FF8011081F501C0
:1006500010838090340190903501A0903601B090C5
:1006600037011AE0169FF001179FF00D1124E40FD7
:10067000F51FEE0FFF1FEE0FFF1FE80FF91F87A2F8
:1006800090A6A1A6B2A64F5F5F4FEC91E5FF3FC0D9
:10069000E1E0F0E0EC0FFD1FE20FF31F1AE0169F00
:1006A000D001179FB00D11244A0F5B1F440F551F37
:1006B000440F551F00E010E060E070E05701AFE824
:1006C000AA0EB11CA5E29A2E409038015090390133
:1006D00060903A0170903B010C5F1F4FD501CD90A7
:1006E000DC906C157D059CF490822E5F3F4F6183FA
:1006F000D801A40FB51FA80FB91F93964D925D9214
:100700006D927C9296976F5F7F4F3296E5CF87010F
:1007100009551F4FAE014F5F5F4FF7016081029691
:100720000E949E0FF701E554FF4F918380836496EA
:100730000FB6F894DEBF0FBECDBFDF91CF911F91F2
:100740000F91FF90EF90DF90CF90BF90AF909F9070
:100750008F907F906F905F904F90089508952F92A3
:100760003F924F925F926F927F928F929F92BF9231
:10077000CF92DF92EF92FF920F931F93CF93DF936D
:10078000CDB7DEB762970FB6F894DEBF0FBECDBF10
:100790009A8B898B6B018C010E5F1F4FC8010E94E1
:1007A0008E0FA989BA8951968C935197803D59F43F
:1007B00012968C91811107C0C8010E948E0F8F5F25
:1007C000E989FA89818BA989BA8951966C915197E7
:1007D000CD010E94110CB82E882309F4DAC37601EA
:1007E000B7E7EB0EF11CF601EB55FF4FFA83E983F7
:1007F000C60181569F4F9C838B83D601AF55BF4F57
:10080000BE83AD833297F887EF8302979A878987F3
:100810001697BC87AB873A97FE87ED871601F7E9F5
:100820002F0E311C260181E9480E511C360193E937
:10083000690E711C1697B88BAF874601BBE88B0E0B
:10084000911CC8010E948E0FE989FA89818B803D35
:1008500059F48281811108C0C8010E948E0F8F5FF8
:10086000A989BA8951968C93A989BA895196EC9134
:100870008E2FEE0F990BAA0BBB0B8631910508F05A
:1008800035C3FC01EA5AFF4F0C946619F7018081C9
:100890009181816091838083C8010E948E0FA98914
:1008A000BA8951968C935197803D59F412968C9148
:1008B000811107C0C8010E948E0F8F5FE989FA89F4
:1008C000818BF601E758FF4FA989BA8951968C911F
:1008D000082E000C990B91838083C8010E948E0F13
:1008E000E989FA89818B803D59F48281811108C0A0
:1008F000C8010E948E0F8F5FA989BA8951968C9387
:10090000F601E558FF4F5CC0F7018081918182605C
:1009100091838083C8010E948E0FA989BA8951965C
:100920008C935197803D59F412968C91811107C098
:10093000C8010E948E0F8F5FE989FA89818BF601C9
:10094000E358FF4F65C0F7018081918184609183F6
:100950008083C8010E948E0FA989BA8951968C9311
:100960005197803D59F412968C91811107C0C801AE
:100970000E948E0F8F5FE989FA89818BF601E15819
:10098000FF4FA989BA8951968C91082E000C990BBA
:1009900091838083C8010E948E0FE989FA89818B37
:1009A000803D59F48281811108C0C8010E948E0FD8
:1009B0008F5FA989BA8951968C93F601EF57FF4F43
:1009C000A989BA8951968C91082E000C990B9183B4
:1009D0008083CCC1F701808191818860918380837D
:1009E000C8010E948E0FA989BA8951968C9351979C
:1009F000803D59F412968C91811107C0C8010E9464
:100A00008E0F8F5FE989FA89818BF601ED57FF4FD1
:100A1000A989BA8951968C91082E000C990B918363
:100A2000808391C1F701808191818061918380836E
:100A3000C8010E948E0FA989BA8951968C9351974B
:100A4000803D59F412968C91811107C0C8010E9413
:100A50008E0F8F5FE989FA89818BF601EB57FF4F83
:100A6000A989BA8951968C91082E000C990B918313
:100A70008083C8010E948E0FE989FA89818B803DAD
:100A800059F48281811108C0C8010E948E0F8F5FC6
:100A9000A989BA8951968C93F601E957FF4FA98924
:100AA000BA8951968C91082E000C990B9183808302
:100AB000C8010E948E0FE989FA89818B803D59F423
:100AC0008281811108C0C8010E948E0F8F5FA989A1
:100AD000BA8951968C93F601E757FF4F5CC0F70136
:100AE00080819181806291838083C8010E948E0FF2
:100AF000A989BA8951968C935197803D59F41296E1
:100B00008C91811107C0C8010E948E0F8F5FE98907
:100B1000FA89818BA989BA8951968C91082E000C8B
:100B2000990BF40191838083C8010E948E0FA989DB
:100B3000BA8951968C935197803D59F412968C91B5
:100B4000811107C0C8010E948E0F8F5FE989FA8961
:100B5000818BF601E357FF4FA989BA8951968C9191
:100B6000082E000C990B91838083C8010E948E0F80
:100B7000E989FA89818B803D59F48281811108C00D
:100B8000C8010E948E0F8F5FA989BA8951968C93F4
:100B9000F601E157FF4FA989BA8951968C91082E29
:100BA000000C990B918380834CCEF7018081918159
:100BB000806491838083C8010E948E0FA989BA89BD
:100BC00051968C935197803D59F412968C918111D6
:100BD00007C0C8010E948E0F8F5FE989FA89818B57
:100BE000A989BA8951968C91082E000C990BF201B3
:100BF00091838083C8010E948E0FA989BA8951967A
:100C00008C935197803D59F412968C91811107C0B5
:100C1000C8010E948E0F8F5FE989FA89818BA989AB
:100C2000BA8951968C91082E000C990BF30191838F
:100C30008083C8010E948E0FA989BA8951968C932E
:100C40005197803D59F412968C91811107C0C801CB
:100C50000E948E0F8F5FE989FA89818BA989BA89F1
:100C600051968C91082E000C990BEF85F8899ACF3C
:100C7000D7018D919C91119780688D939C93C801A9
:100C80000E948E0FE989FA89818B803D59F4828117
:100C9000811108C0C8010E948E0F8F5FA989BA898F
:100CA00051968C93E989FA898189082E000C990B59
:100CB000D10147C0F7018081918191609183808348
:100CC000C8010E948E0FA989BA8951968C935197B9
:100CD000803D59F412968C91811107C0C8010E9481
:100CE0008E0F8F5FE989FA89818BA989BA8951961C
:100CF0008C91082E000C990BED85FE85F4C0D70170
:100D00008D919C91119792608D939C93C8010E9444
:100D10008E0FE989FA89818B803D59F48281811196
:100D200008C0C8010E948E0F8F5FA989BA895196A9
:100D30008C93E989FA898189082E000C990BAB857F
:100D4000BC858D939C93C8010E948E0FE989FA8916
:100D5000818B803D59F48281811108C0C8010E94B5
:100D60008E0F8F5FA989BA8951968C93C8010E9412
:100D70008E0FE989FA89818B803D09F062CD8281ED
:100D800081115FCDC8010E948E0F8F5FA989BA893A
:100D900051968C9356CDF701808191819460918317
:100DA0008083C8010E948E0FA989BA8951968C93BD
:100DB0005197803D59F412968C91811107C0C8015A
:100DC0000E948E0F8F5FE989FA89818BA989BA8980
:100DD00051968C91082E000C990BE985FA8583C0F9
:100DE000D7018D919C91119798608D939C93C80128
:100DF0000E948E0FE989FA89818B803D59F48281A6
:100E0000811108C0C8010E948E0F8F5FA989BA891D
:100E100051968C93E989FA898189082E000C990BE7
:100E2000AB81BC818D939C93C8010E948E0FE98990
:100E3000FA89818B803D59F48281811108C0C801F3
:100E40000E948E0F8F5FA989BA8951968C93E98988
:100E5000FA898189082E000C990BAD81BE818D9392
:100E60009C93C8010E948E0FE989FA89818B803D8D
:100E700059F48281811108C0C8010E948E0F8F5FD2
:100E8000A989BA8951968C93E989FA898189082EB2
:100E9000000C990BAF81B8858D939C93D2CCF70150
:100EA00080819181906191838083C8010E948E0F1F
:100EB000A989BA8951968C935197803D59F412961D
:100EC0008C91811107C0C8010E948E0F8F5FE98944
:100ED000FA89818BA989BA8951968C91082E000CC8
:100EE000990BE981FA819183808315C0C8010E9422
:100EF0008E0FA989BA8951968C935197803D59F4E8
:100F000012968C91811107C0C8010E948E0F8F5FCD
:100F1000E989FA89818BC8010E948E0FA989BA8953
:100F200051968C935197803D51F412968C9181117A
:100F300006C0C801F3D78F5FE989FA89818BC801A0
:100F4000EDD7A989BA8951968C935197803D09F0C4
:100F500078CC12968C91811174CCC801DFD78F5F49
:100F6000E989FA89818B6DCCC801D8D7A989BA895A
:100F700051968C935197803D61F412968C9181111A
:100F800007C0C801CBD78F5FE989FA89818B01C07F
:100F9000B82E8B2D62960FB6F894DEBF0FBECDBF74
:100FA000DF91CF911F910F91FF90EF90DF90CF9045
:100FB000BF909F908F907F906F905F904F903F90E9
:100FC0002F900895EF92FF920F931F93CF93DF938B
:100FD000EC010FB6F8948091080290910902A0915B
:100FE0000A02B0910B020FBE8D879E87AF87B88B28
:100FF00011E08B819C81DC01ED91FC910084F185F5
:10100000E02D0995892B19F48A81882389F011E054
:101010008A81811142C08B819C81DC01ED91FC9120
:101020000284F385E02D0995803E9105D9F435C001
:101030000FB6F8948091080290910902A0910A02DB
:10104000B0910B020FBE4D855E856F857889841B3C
:10105000950BA60BB70B88379105A105B10548F292
:101060001A83C7CF0FB6F8948091080290910902B5
:10107000A0910A02B0910B020FBE4D855E856F856F
:101080007889841B950BA60BB70B88379105A105B2
:10109000B10508F4BDCF1A83BBCF8A81811130C05E
:1010A0000FB6F8948091080290910902A0910A026B
:1010B000B0910B020FBE8D879E87AF87B88B11E072
:1010C0008B819C81DC01ED91FC910084F185E02D08
:1010D0000995892B19F48A818823A9F011E08A8166
:1010E00081110BC08B819C81DC01ED91FC9102840C
:1010F000F385E02D0995892B01F58A818823C1F1BB
:1011000080E090E046C00FB6F8948091080290917C
:101110000902A0910A02B0910B020FBE4D855E85B7
:101120006F857889841B950BA60BB70B88379105C3
:10113000A105B10528F21A83C3CF0FB6F8948091A8
:10114000080290910902A0910A02B0910B020FBE11
:101150004D855E856F857889841B950BA60BB70B33
:1011600088379105A105B10508F4B9CF1A83B7CF27
:101170007E01B2E0EB0EF11CC701D0D68C01C70195
:10118000CDD6682FCE014DD3882309F4B9CFC8013D
:101190000197DF91CF911F910F91FF90EF900895EC
:1011A0004F925F926F927F928F929F92AF92BF9277
:1011B000CF92DF92EF92FF920F931F93CF93DF9323
:1011C00000D0CDB7DEB78C01FB01EC54FF4FEE0F22
:1011D000FF1FE00FF11F6080718082E2898323018D
:1011E0008FE7480E511CF20180818A839EE1C92E4F
:1011F000D12C5801F2E0AF0EB11C62E370E080E048
:1012000090E00E94191922E030E0AE014F5F5F4F7D
:10121000F3016081C50105D7C801D4DE892BC9F16E
:101220007301F1ECEF0EF11C812C912CF201808105
:101230009181881699066CF5C50170D6F801818BED
:10124000803D41F48281811105C0C50167D68F5F61
:10125000F801818BF8018189082E000C990BF701A8
:10126000208131818217930724F402979183808330
:1012700009C0F70122813381281739071CF402962F
:1012800093838283FFEF8F1A9F0A84E0E80EF11C9C
:10129000CDCFE1E0CE1AD10809F0AFCF0F900F907B
:1012A000DF91CF911F910F91FF90EF90DF90CF9042
:1012B000BF90AF909F908F907F906F905F904F9076
:1012C00008955F926F927F928F929F92AF92BF929A
:1012D000CF92DF92EF92FF920F931F93CF93DF9302
:1012E000EC017C0188E9E81A8EEFF80A5E01C12C56
:1012F000D12C552453943E01A9E96A1AAEEF7A0A1B
:101300004E01B2E08B0E911CF301808190E0C81673
:10131000D9060CF05DC0552009F45AC0D7016D9173
:101320007C91FB01E554FF4F4081518169557F4F0E
:10133000C40146D6582ECE0145DE892B09F43EC0A5
:101340008501D8019796ED91FC919897309739F4E3
:1013500099968D919C919A9780FD22C023C055202B
:1013600009F1D80199968D919C919A9780FF0CC0B4
:10137000DC01B595A795AC0FBD1F2D913C91E20FF7
:10138000F31F0190F081E02DD7016D917C9195952F
:1013900087958C0F9D1F0995582E0C5F1F4FD1CF3D
:1013A0005110E6CFC401BAD5898B803D39F48A81CA
:1013B000811104C0C401B2D58F5F898BBFEFCB1AF6
:1013C000DB0AE2E0EE0EF11CF8E2AF0EB11C9CCF9E
:1013D000852DDF91CF911F910F91FF90EF90DF90BE
:1013E000CF90BF90AF909F908F907F906F905F90C5
:1013F0000895EF92FF920F931F93CF93DF931F9265
:10140000CDB7DEB77C0184E189838B01000F111F0A
:101410000E0D1F1D08591E4FD801ED91FC9121E0C2
:1014200030E0AE014F5F5F4F6081C7010296F9D592
:10143000C701C8DD892B31F0F80160817181C701D6
:101440008ED901C080E00F90DF91CF911F910F9155
:10145000FF90EF900895AF92BF92CF92DF92EF92FC
:10146000FF920F931F93CF93DF937C015C0182E087
:10147000A80EB11CC501D5D5C701A4DDEC01892B8F
:1014800009F16801C601801B910B8C179D07A4F41C
:10149000C50144D5F701818B803D41F482818111E2
:1014A00005C0C5013BD58F5FF701818BF7018189AD
:1014B000F60181936F01E6CFC00FD11F21971882EB
:1014C00081E001C080E0DF91CF911F910F91FF90EB
:1014D000EF90DF90CF90BF90AF900895AF92BF9202
:1014E000CF92DF92EF92FF920F931F93CF93DF93F0
:1014F000CDB7DEB7C656D1090FB6F894DEBF0FBE22
:10150000CDBF6C015C0189E9A81A8EEFB80AF5011C
:1015100090819F3109F441C081EFA6968FAFA697C5
:101520009F5FA7969FAFA797E12CF12C8E010F5FCD
:101530001F4F22E030E0AE014B595F4F6FEFC60105
:101540008ADF8823D9F081E091E00E9480178C0126
:10155000F501608170E06F5F7F4F0E94CC01F50163
:1015600080819601280F311D280F311DF901E8599E
:10157000FE4F118300838F5FF501808368EE73E077
:1015800080E090E00E9419198DE00E94D317C39764
:1015900024F0F6018281882311F080E001C081E00F
:1015A000CA59DF4F0FB6F894DEBF0FBECDBFDF9133
:1015B000CF911F910F91FF90EF90DF90CF90BF9050
:1015C000AF9008958F929F92AF92BF92CF92DF9289
:1015D000EF92FF920F931F93CF93DF93CDB7DEB7B8
:1015E000C856D1090FB6F894DEBF0FBECDBF4C016F
:1015F00080E1A9968FAFA9976B01CC0CDD1CC80CBC
:10160000D91C28E9C21A2EEFD20AD601ED91FC911D
:10161000E12CF12C8E010F5F1F4F21E030E0AE0175
:1016200048595F4F6081C40116DF811102C0912CBF
:10163000ABC0F60180819181BE016F5F7F4F029642
:101640000E948D1981E1A8968FAFA897D601ED91E0
:10165000FC91E12CF12C8E010F5F1F4F21E030E057
:10166000AE0149595F4F6081C401F5DE8823F9F26C
:101670008A81982F9F701F929F93082E000C990BC0
:10168000807F992744E0959587954A95E1F79F9348
:101690008F935CE3A52E51E0B52EBF92AF92F60179
:1016A0008081918183599F4F9F938F930E949419BA
:1016B00082E1A7968FAFA797D601ED91FC9121E02B
:1016C00030E0AE014A595F4F6081C401C4DE0FB6FD
:1016D000F894DEBF0FBECDBF882309F4A8CF8A815E
:1016E000982F9F701F929F93082E000C990B807F5C
:1016F000992734E0959587953A95E1F79F938F93D5
:10170000BF92AF92D6018D919C9188599F4F9F9324
:101710008F930E94941983E1A6968FAFA697D60166
:10172000ED91FC9121E030E0AE014B595F4F6081BB
:10173000C40191DE982E0FB6F894DEBF0FBECDBF68
:10174000882309F474CF8A81982F9F701F929F93EA
:10175000082E000C990B807F992724E0959587959A
:101760002A95E1F79F938F93BF92AF92D6018D9107
:101770009C918E589F4F9F938F930E9494190FB600
:10178000F894DEBF0FBECDBF892DC859DF4F0FB60D
:10179000F894DEBF0FBECDBFDF91CF911F910F91A7
:1017A000FF90EF90DF90CF90BF90AF909F908F9081
:1017B0000895CF93DF93EC010296A6D384E591E0E0
:1017C000998388831A8ADF91CF910895CF92DF920F
:1017D000EF92FF920F931F93CF93DF93EC016B0176
:1017E00000E010E07C0182E0E80EF11C0C151D0504
:1017F0007CF4C70193D3898B803D39F48A818111B0
:1018000004C0C7018BD38F5F898B0F5F1F4FEECF53
:10181000DF91CF911F910F91FF90EF90DF90CF90CC
:10182000089581E0613009F080E0089581E0613041
:1018300009F080E0089581E00895009719F04111C2
:1018400004C753C708958F929F92AF92BF92CF92D1
:10185000DF92EF92FF920F931F93CF93DF93FB01E1
:10186000E958FF4F208120FD02C081E01EC26B01BC
:10187000EC017C0182E0E80EF11CC7014FD3898B9B
:10188000803D39F48A81811104C0C70147D38F5F3D
:10189000898B6989CE01CADF882309F406C2C70192
:1018A0003DD3898B803D39F48A81811104C0C70101
:1018B00035D38F5F898BD601ED91FC91EE0FFF1F21
:1018C000EE0FFF1FE450FF4F80819181009739F0A8
:1018D0004989441F4427441F6BE370EFAEDFD601F4
:1018E000ED91FC91EE0FFF1FEE0FFF1FE450FF4F35
:1018F000008111810115110529F462E070E0CE012B
:1019000065DFC5C040E06BE370EFC80196DF40E0E3
:1019100061E370E0C80191DFC70100D3898B803D8E
:1019200039F48A81811104C0C701F8D28F5F898B95
:101930004989842F042E000C990BAA0BBB0B8B88B2
:101940009C88AD88BE8888299929AA29BB298B8BB8
:101950009C8BAD8BBE8B842F8170942F93709330B2
:1019600029F447FF10C081E08A8B40C0882369F0CA
:1019700047FF11C040E064E070EEC8015EDF41E067
:101980006BE370EF31C0811106C047FF04C041E036
:1019900061E370E029C04695417061E070EEC801D6
:1019A0004CDF4989417064E070EEC80146DF498927
:1019B0004295417061E570EFC8013FDF498942FB04
:1019C000442740F96FE470EFC80137DF498943FBD2
:1019D000442740F960E570EFC8012FDF498945FBD6
:1019E000442740F962E570EFC80127DFC70196D2AE
:1019F000898B803D39F48A81811104C0C7018ED260
:101A00008F5F898B4989842F042E000C990B982FA6
:101A10008827092E000CAA0BBB0B8B889C88AD88ED
:101A2000BE8888299929AA29BB298B8B9C8BAD8BD1
:101A3000BE8B441F4427441F6CE270EFC801FDDEDB
:101A4000498946FB442740F962E070EEC801F5DEA3
:101A5000498945FB442740F96AE770E0C801EDDE9B
:101A600049894295417068E770E0C801E6DE49891E
:101A700043FB442740F963E670E0C801DEDE498994
:101A800042FB442740F966E770E0C801D6DED60184
:101A9000ED91FC91EE0FFF1FEE0FFF1FE450FF4F83
:101AA000028113810115110539F0F601E758FF4F46
:101AB00080819181019769F462E070E0CE0186DE59
:101AC00044E0E42E41E0F42E58E2C52E51E0D52E3C
:101AD000D7C040E06BE370EFC801AFDE40E062E3E7
:101AE00070E0C801AADEC70119D2898B803D39F4A4
:101AF0008A81811104C0C70111D28F5F898B498906
:101B0000842F042E000C990BAA0BBB0BDC01992728
:101B100088278B889C88AD88BE8888299929AA291E
:101B2000BB298B8B9C8BAD8BBE8B842F8170942FAC
:101B30009370933029F447FF10C081E08A8B40C036
:101B4000882369F047FF11C040E063E770E0C801F7
:101B500074DE41E06BE370EF31C0811106C047FFD6
:101B600004C041E062E370E029C04695417061E63F
:101B700070E0C80162DE4989417063E770E0C80126
:101B80005CDE49894295417066E670E0C80155DE29
:101B9000498942FB442740F967E670E0C8014DDE01
:101BA000498943FB442740F964E670E0C80145DEFB
:101BB000498945FB442740F962E770E0C8013DDEF2
:101BC000C701ACD1898B803D39F48A81811104C071
:101BD000C701A4D18F5F898B4989842F042E000C03
:101BE000990BAA0BBB0BB82FAA2799278827CB885C
:101BF000DC88ED88FE888C299D29AE29BF298B8B36
:101C00009C8BAD8BBE8B441F4427441F61E770E063
:101C1000C80113DE498946FB442740F967E770E0B5
:101C2000C8010BDE498945FB442740F969E670E0AD
:101C3000C80103DE4989429541706BE670E0C80136
:101C4000FCDD498943FB442740F96AE670E0C8019E
:101C5000F4DD498942FB442740F96CE670E0C80195
:101C6000ECDD2ECFD70114966D917C911597C801AC
:101C7000E4DDB6E0EB0EF11CCE14DF0409F4F5CD83
:101C8000F70180809180A280B3808B899C89AD8987
:101C9000BE8988219921AA21BB2141E08815990597
:101CA000AA05BB05F9F240E0DDCFDF91CF911F918E
:101CB0000F91FF90EF90DF90CF90BF90AF909F90EB
:101CC0008F900895DF92EF92FF920F931F93CF931F
:101CD000DF93FB01E958FF4F208121FD03C0DD2484
:101CE000D394B6C08B01EC017C0182E0E80EF11CBC
:101CF000C70114D1898B803D39F48A81811104C0D8
:101D0000C7010CD18F5F898B6989CE018FDDD82EF9
:101D1000882309F49DC0D801ED91FC91EE0FFF1FBF
:101D2000EE0FFF1FE450FF4F80819181892B29F432
:101D300062E070E0CE014ADD38C0C701EFD0898B88
:101D4000803D39F48A81811104C0C701E7D08F5FDB
:101D5000898BC701E3D0898B803D39F48A81811159
:101D600004C0C701DBD08F5F898B8989082E000CE6
:101D7000990BF801E354FF4F20813181281739076F
:101D8000A4F491838083181619067CF4D801ED9190
:101D9000FC91EE0FFF1FEE0FFF1FE450FF4F41E0DD
:101DA00065E370E08081918148DDD801ED91FC917F
:101DB000EE0FFF1FEE0FFF1FE450FF4F8281938154
:101DC000892B39F0F801E358FF4F80819181019709
:101DD00029F462E070E0CE01F9DC3AC0C7019ED080
:101DE000898B803D39F48A81811104C0C70196D066
:101DF0008F5F898BC70192D0898B803D39F48A81AE
:101E0000811104C0C7018AD08F5F898B8989082E10
:101E1000000C990BF801E154FF4F20813181281704
:101E200039070CF05CCF91838083181619060CF0EB
:101E300056CFD801ED91FC91EE0FFF1FEE0FFF1F63
:101E4000E450FF4F41E066E370E082819381F5DC6E
:101E50008D2DDF91CF911F910F91FF90EF90DF902B
:101E600008950F931F93CF93DF93EC018C01095ECC
:101E70001F4F48E050E062E272E0C8010E94801902
:101E8000892B59F082E891E04BD388E0E2E2F2E05E
:101E9000D80101900D928A95E1F76F9648E050E0E5
:101EA0006AE172E0CE010E948019892B59F08EE719
:101EB00091E036D388E0EAE1F2E0DE0101900D9294
:101EC0008A95E1F781E0DF91CF911F910F910895FD
:101ED000CF93DF93EC016DDC82E691E099838883F8
:101EE0001B8A1C8A1D8A1E8A88E0FE017796DF0104
:101EF000982F1D929A95E9F76F96DE011D928A95AB
:101F0000E9F7DF91CF910895FC017283618384E644
:101F100090E090878783928781870895E0EEF1E0D3
:101F20003197F1F7DC0111968D919C911297DC01AC
:101F3000ED91FC910284F385E02D0994CF92DF921C
:101F4000EF92FF920F931F93CF93DF937A01F801E3
:101F500080EE8083618381E0820F8283860F0D5F34
:101F60001F4FEA01C12CDD24D394AE014E195F0945
:101F70004217530794F4AE019991D8019D938D01B6
:101F8000DA014C91082E000C990B840F911D47FD2E
:101F90009A95B6010E945319E8CF37FF02C020E09E
:101FA00030E0E20FF31F83831482C9010496DF91AE
:101FB000CF911F910F91FF90EF90DF90CF900895F8
:101FC000CF92DF92EF92FF920F931F93CF93DF9305
:101FD0007C018B016A01EB01D70111968D919C91D7
:101FE00012979E01201B310B2C153D054CF4699175
:101FF000DC01ED91FC910190F081E02D0995ECCF91
:10200000DC01ED91FC910680F781E02D099581E0DE
:10201000DF91CF911F910F91FF90EF90DF90CF90C4
:1020200008957F928F929F92AF92BF92CF92DF924C
:10203000EF92FF920F931F93CF93DF93DA017C917E
:10204000772309F45EC069018A01F62EEC018981CB
:102050009A81DC01ED91FC910190F081E02D60EE20
:10206000099589819A81DC01ED91FC910190F081C3
:10207000E02D6F2D099589819A81772473947C0CCA
:10208000DC01ED91FC910190F081E02D672D099527
:102090007F0C7801A12CBB24B39489819A8197018C
:1020A000201B310B2C153D05CCF44701DC01ED91D3
:1020B000FC910190F081E02DD7016D917D01099592
:1020C000F4012081872D770C990B820F911D27FD3C
:1020D0009A95B5010E945319782EDFCFDC01ED915E
:1020E000FC910190F081E02D672D099589819A81FD
:1020F000DC01ED91FC910680F781E02D099581E0EE
:1021000001C080E0DF91CF911F910F91FF90EF9080
:10211000DF90CF90BF90AF909F908F907F90089569
:102120008091E80080FFFCCF089581E08093D70084
:1021300080EA8093D80082E189BD09B400FEFDCF1A
:1021400080E98093D8001092E00010922B02109248
:102150002202109223021092240210922502109261
:10216000260210922702109228021092290291E072
:10217000909319028DE78093170210921502109226
:10218000130210921A0210921B0210921C0210925B
:102190001D0210921E0210921F0210922002109235
:1021A000210290931802809316021092140210924A
:1021B00012028CE08093E2007894089580912B02C3
:1021C00008951F920F920FB60F9211248F93809152
:1021D000E1001092E10083FF0FC01092E90081E05E
:1021E0008093EB001092EC0082E38093ED0088E096
:1021F0008093F00010922B028F910F900FBE0F90E2
:102200001F9018951F920F920FB60F921124FF92F4
:102210000F931F932F933F934F935F936F937F93EE
:102220008F939F93AF93BF93CF93DF93EF93FF93DE
:102230001092E9008091E80083FF59C1F090F1000D
:102240008091F100C091F1009091F100D0E0D92B84
:102250000091F1009091F10010E0192B2091F10014
:102260006091F10092EF9093E800863009F048C049
:1022700088ED90E0FC0145915491C417D507D9F43D
:10228000FC0132964591549104171507A1F4FC0105
:10229000349645915491FC013696849130E0362B6A
:1022A0002F3F310519F010F02FEF30E0281708F418
:1022B000822F3EEF0DC0079631E08C329307D1F6A6
:1022C00016C1490F511D891B3093E8008823A9F0DE
:1022D0009091E800292F2570D9F392FD0BC1982F1A
:1022E000813408F090E4FA01292F222351F36491FC
:1022F0006093F10021503196F8CF903449F3FAC041
:10230000853041F48EEF8093E8000ADFC068C09307
:10231000E300F0C0893039F5F1106AC0C0932B0298
:102320008EEF8093E80041E081E992E04093E9007C
:102330009C012F5F3F4FFC0154915093EB005523BC
:1023400059F0F90124912093EC009C012D5F3F4F3F
:102350003196E491E093ED004F5F433011F0C901F5
:10236000E5CF8EE140C0883039F4F0E8FF1240C07C
:10237000D7DE80912B0298C0811114C0D1DE32E8E3
:10238000F3120AC00093E9008091EB0085FB8827D7
:1023900080F91092E90001C080E08093F100109272
:1023A000F100A1C0982F9D7F913011F592E0F912B4
:1023B0001FC0CD2B09F09BC00F779FEF900F94307B
:1023C00008F095C09EEF9093E8000093E9008330F9
:1023D00009F48DC089E18093EB0081E090E001C0B9
:1023E000880F0A95EAF78093EA001092EA0082C00B
:1023F00001151105C9F5E1EAFE121BC0813061F437
:102400008FDEE2E2F2E08AE292E021912093F10095
:102410008E179F07D1F767C0823021F481DE80914B
:10242000170242C0833009F062C07ADE809119023F
:102430003BC0F1E2FF125BC0893049F48091E800B3
:1024400082FFFCCF8091F100809313023DC08A305F
:1024500029F4D09317021092150245C08B3009F071
:1024600046C0C09319023FC00130110509F03FC0BA
:1024700091EAF9121CC0813061F452DEEAE1F2E027
:1024800082E292E021912093F1008E179F07D1F70D
:102490002AC0823021F444DE8091160205C08330C8
:1024A00031F53EDE809118028093F1001CC0E1E21C
:1024B000FE121DC0893061F48091E80082FFFCCFDC
:1024C0008091F100809312028BEF8093E8000BC0A3
:1024D0008A3029F4D09316021092140204C08B3073
:1024E00031F4C09318028EEF8093E80003C081E2BC
:1024F0008093EB00FF91EF91DF91CF91BF91AF916E
:102500009F918F917F916F915F914F913F912F910B
:102510001F910F91FF900F900FBE0F901F90189575
:10252000FC0180912B02882309F450C08FB7F894E6
:1025300092819093E9009091E4009E5C2091E800E4
:1025400025FD10C08FBF80912B02882309F43EC067
:102550008091E4009817D1F18FB7F89422812093ED
:10256000E900ECCFA081B1819C919093F100A08112
:10257000B18111969C919093F100A081B181129646
:102580009C919093F100A081B18113969C919093BE
:10259000F100A081B18114969C919093F100A081EB
:1025A000B18115969C919093F100A081B18116960E
:1025B0009C919093F100A081B18117969C9190938A
:1025C000F1009AE39093E80013828FBF0895603280
:1025D000710540F46A30710569F06B30710561F482
:1025E0008BE208956038710538F4FB01E958FD4F1E
:1025F0008491089588E2089580E00895FC014423C1
:1026000049F0A081B1819C91842F8923481711F052
:10261000942B9C936623C1F0808191819C012E5F55
:102620003F4F0896F9014191641771F0E817F907D7
:10263000D1F7F9012F5F3F4F4081411102C0608304
:10264000089528173907A9F70895CF93DF93EC0170
:10265000872F9927823CB8F0803E60F46F7377270C
:102660008F71992726E0880F991F2A95E1F7682B2B
:10267000792B09C0803F11F440E010C0803E91F4F6
:10268000462F60E00BC0CE01A2DF882359F086FF01
:1026900002C042E001C040E0682F6F73CE01DF91BD
:1026A000CF91ACCFDF91CF910895DC01442351F05D
:1026B000ED91FC9111979081842F892319F0409519
:1026C00049234083662381F022E030E0ED91FC91C4
:1026D0001197E20FF31F8081681301C010822F5FF2
:1026E0003F4F2830310591F70895CF93DF93EC01E8
:1026F000872F9927823CB8F0803E60F46F7377276C
:102700008F71992726E0880F991F2A95E1F7682B8A
:10271000792B09C0803F11F440E010C0803E91F455
:10272000462F60E00BC0CE0152DF882359F086FFB0
:1027300002C042E001C040E0682F6F73CE01DF911C
:10274000CF91B3CFDF91CF91089580911502E2E848
:10275000F1E022E232E03183208391E092838383AF
:1027600080911402EEE7F1E02AE132E03183208328
:1027700092E09283838308959F92AF92BF92CF920B
:10278000DF92EF92FF920F931F93CF93DF935C0141
:10279000EA01922E5E9800E010E06B01770FEE08E0
:1027A000FF080A151B055CF4C701B60142D55E9A05
:1027B000C701B6013ED55E980F5F1F4FF2CF99203B
:1027C00011F05E9A01C05E98BE01DD0F880B990B77
:1027D000DF91CF911F910F91FF90EF90DF90CF90FD
:1027E000BF90AF909F9025C5CF93DF939EDCE6DC32
:1027F0008823E9F36CED75E080E090E01AD5569AF5
:1028000020E030E044EF51E069E170E081E090E0E9
:10281000B3DF41E161E170E088E891E069D186EAE7
:1028200091E06ED3EC0168E871E00E94FC01D09366
:102830008701C0938601249A249A2C9ADF91CF9124
:102840000895CF93DF938DE0AED38538934054F055
:1028500020E030E040E050E064EF71E082E090E0A2
:102860008BDFF1CF20E030E044EF51E069E170E030
:1028700082E090E081DF80918601909187010E9443
:10288000220280918601909187010E946E0A811137
:10289000F8CFE0918601F0918701828181117BC0A0
:1028A000E959FE4F8081882309F475C0C0E0D0E06B
:1028B0008091860190918701FC01E959FE4F2081AA
:1028C00030E0C217D307ACF5BE010E94E20A8823AC
:1028D00009F461C0BE0180918601909187010E9438
:1028E0008002BE0180918601909187010E94F909C2
:1028F000882309F450C0BE01809186019091870120
:102900000E94AE03BE0180918601909187010E94D2
:102910008202BE0180918601909187010E94D008B9
:10292000BE0180918601909187010E9481022196CB
:10293000BFCF21E030E048EE53E069E170E083E092
:1029400090E01ADFC0E0D0E08DE02DD3C3971CF5F6
:102950008091860190918701DC0152962C91211182
:102960000BD40E94610981110AC0219668EE73E0C0
:1029700080E090E05ED4C330D10531F70CC0809187
:10298000860190918701DC01ED91FC910084F18535
:10299000E02D0995D7CFDF91CF910895E8E8F1E0D8
:1029A00088E0DF011D928A95E9F788EE93E0A0E0C8
:1029B000B0E083839483A583B68380E791E091831D
:1029C000808308955091C4014091C301852F90E008
:1029D000242F30E0541710F4805C9F4F821B930B20
:1029E00008955091C4014091C301252F30E0842FF8
:1029F00090E0821B930B541710F08796089501976F
:102A000008958091C401E091C3018E1751F0EF5FEA
:102A1000E03408F0E0E0F0E0EB53FE4F808190E01E
:102A200008958FEF9FEF08959091C4018091C301A5
:102A3000981779F09091C3019F5F903408F090E06F
:102A4000E92FF0E0EB53FE4F80819093C30190E0BB
:102A500008958FEF9FEF0895809198018111FCCF29
:102A600008952091C90023FD06C021E0FC012283C6
:102A700080E090E00895809128018F3F21F08091BF
:102A80009801882399F090919A0180919901981367
:102A900012C08091C80085FF0EC08FB7F894609374
:102AA000CE0091E0909398018FBF1DC0E091280166
:102AB000F0E0C9D2E8CF80919A018F5F8832B0F4FC
:102AC000909199019817E1F3E82FF0E0E556FE4F59
:102AD000608391E09093980180939A018091C9005E
:102AE00080628093C90081E090E0089580E0E8CFA3
:102AF0001F93CF93DF93EB01142F409328014F3F97
:102B000029F0842F8FD2E12FF0E0A3D2C0FF08C0BC
:102B1000C13080E1D80720F482E08093C80004C06F
:102B20001092C800D695C7952197D093CD00C09339
:102B3000CC008091C90083FD10C01092C401109296
:102B4000C30110929A01109299011092980186E0A7
:102B50008093CA0088ED8093C900DF91CF911F91C7
:102B600008951F920F920FB60F9211242F938F93F7
:102B70009F93EF93FF939091CE008091C4018F5F5C
:102B8000803408F080E02091C301821739F0E82FEB
:102B9000F0E0EB53FE4F90838093C401FF91EF91DF
:102BA0009F918F912F910F900FBE0F901F901895AE
:102BB0001F920F920FB60F9211248F939F93EF9352
:102BC000FF9390919A0180919901981306C080918A
:102BD000C9008F7D8093C9000FC0809199018F5FDC
:102BE000883208F080E0E82FF0E0E556FE4F908153
:102BF0009093CE0080939901FF91EF919F918F91D7
:102C00000F900FBE0F901F9018951F920F920FB646
:102C10000F9211248F93EF93FF931092980180915C
:102C200028018F3F21F0E0912801F0E012D2FF91BE
:102C3000EF918F910F900FBE0F901F901895E0E9C4
:102C4000F1E0128288EE93E0A0E0B0E08383948309
:102C5000A583B683178280E791E0918380830895EE
:102C6000CF92DF92EF92FF920F931F93CF93DF9358
:102C70006C01EB017B01E40EF51E00E010E0CE15C7
:102C8000DF0561F06991D601ED91FC910190F08131
:102C9000E02DC6010995080F191FF1CFC801DF917A
:102CA000CF911F910F91FF90EF90DF90CF900895FB
:102CB0004BD19ADDC6DDFECF0F931F93CF93DF93E9
:102CC0008230910510F482E090E0E0911002F091E2
:102CD000110220E030E060E070E0A0E0B0E0C0E091
:102CE000D0E0309701F14081518102811381481772
:102CF0005907B0F08417950751F4209719F00A830B
:102D00001B8329C0009310021093110224C02115C7
:102D1000310519F04217530718F49A01BE01DF017B
:102D2000EF01F801DECF2115310509F1281B390B20
:102D30002430310590F412968D919C911397611572
:102D4000710521F0FB019383828304C090931102EB
:102D500080931002FD01329644C0FD01E20FF31F83
:102D600081939193225031092D933C933AC0209145
:102D7000050230910602232B41F420912B01309162
:102D80002C013093060220930502209129013091F5
:102D90002A012115310541F42DB73EB740912D018F
:102DA00050912E01241B350BE0910502F091060293
:102DB000E217F307A0F42E1B3F0B2817390778F012
:102DC000AC014E5F5F4F2417350748F04E0F5F1F71
:102DD00050930602409305028193919302C0E0E074
:102DE000F0E0CF01DF91CF911F910F910895CF9324
:102DF000DF93009709F481C0FC013297138212829D
:102E0000A0911002B0911102109781F420813181BC
:102E1000820F931F2091050230910602281739076F
:102E200051F5F0930602E093050267C0ED0120E042
:102E300030E0CE17DF0740F44A815B819E014115E7
:102E40005105F1F0EA01F5CFD383C283408151816E
:102E5000840F951FC817D90759F488819981840F69
:102E6000951F0296918380838A819B8193838283BD
:102E70002115310529F4F0931102E09310023DC0B1
:102E8000E901FB83EA8349915991C40FD51FEC17DF
:102E9000FD0761F480819181840F951F0296E901FD
:102EA00099838883828193819B838A83E0E0F0E029
:102EB00012968D919C911397009719F0FD01DC01FA
:102EC000F7CF8D919C9111979D012E5F3F4F820FFF
:102ED000931F20910502309106022817390769F4E3
:102EE000309729F4109211021092100202C013823E
:102EF0001282B0930602A0930502DF91CF9108954C
:102F0000DBCE75CF08951DBA109268001CBC10BEB0
:102F10001FBA10927A0010926E0010926F001092F9
:102F20007100109272001092C900ECEBF0E0108278
:102F300014B817B81AB81DB810BA108215B818B856
:102F40001BB81EB811BA0895F894E1E6F0E020E845
:102F50002083108283E084BD85BDEEE6F0E08081B1
:102F60008160808381E08093800092E09093810073
:102F700080939000909391009093C00094E0909380
:102F8000C1008093C2008093C3001092C40086E801
:102F900080937A0020937B0010927E0010927D0037
:102FA000C4D8789408958731D0F5E82FF0E0E75D34
:102FB000FC4FE491E83070F420917E0081E090E0D5
:102FC0000E2E01C0880F0A94EAF7822B80937E00B0
:102FD00080E80EC0E85020917D0081E090E00E2E48
:102FE00001C0880F0A94EAF7822B80937D0080EA63
:102FF00080937B0080912F01E82BE0937C008091EF
:103000007A00806480937A0080917A0086FDFCCFFC
:10301000809178002091790090E0922B089580E0D3
:1030200090E00895893170F4E7EFF2E0880FE80F3F
:10303000F11D2591E491F0E09FB7F8948181822BF6
:1030400081839FBF0895E93150F4EE0FE05DF74EA4
:103050000994E93120F4EE0FEE59F74E09940895E2
:10306000289A0895299A08952A9A08952B9A0895DE
:103070002F9A6AC0589A58C0599A08955A9A089532
:103080005B9A0895469A66C0479A6AC05E9A089508
:103090005F9A6CC02C9A08952D9A4AC02E9A4EC001
:1030A0008F9A08958E9A08958D9A08958C9A08950E
:1030B000899A0895889A08955C9A08955D9A08956A
:1030C000769A089528980895299808952A98089539
:1030D0002B9808952F9838C0589826C0599808956D
:1030E0005A9808955B980895469834C0479838C018
:1030F0005E9808955F983AC02C9808952D9818C04E
:103100002E981CC08F9808958E9808958D980895D4
:103110008C98089589980895889808955C980895E2
:103120005D98089576980895E4B5EF7DE4BD08951F
:10313000E0918000EF77E09380000895E0918000B7
:10314000EF7DE09380000895E0918000E77FE093B9
:1031500080000895E0919000EF77E093900008954B
:10316000E091C000EF77E093C0000895E091C200C5
:10317000E77FE093C2000895F89484B7877F84BF07
:10318000809160008061809360001092600080E216
:103190009EE40197F1F781E08093E00080E2809364
:1031A000D80080E69AEE0197F1F7ADDE0C94003F6F
:1031B000FFCF8F938FB78F93809107028D5F8D37ED
:1031C000D0F480930702809108028F5F80930802F9
:1031D000D8F0809109028F4F80930902A8F0809166
:1031E0000A028F4F80930A0278F080910B028F4F72
:1031F00080930B0209C08D578093070280910802CB
:103200008E5F8093080228F780910C028C5F809378
:103210000C0258F080910D028F4F80930D0228F020
:1032200080910E028F4F80930E028F918FBF8F91EE
:103230001895CF92DF92EF92FF926B017C0119D02B
:103240009B01C114D104E104F10471F012D0621B9E
:10325000730B683E7340A8F381E0C81AD108E108F7
:10326000F10828513C4FEDCFFF90EF90DF90CF90C9
:1032700008950FB6F89466B515B270910C0280915E
:103280000D0290910E020FBE10FE05C06F3F19F0A7
:103290007C5F8F4F9F4F11240024660F001C660F28
:1032A000001C7029089597FB072E16F4009406D091
:1032B00077FD08D011D007FC05D03EF4909581959C
:1032C0009F4F0895709561957F4F0895EE0FFF1FF2
:1032D0000590F491E02D0994AA1BBB1B51E107C096
:1032E000AA1FBB1FA617B70710F0A61BB70B881F96
:1032F000991F5A95A9F780959095BC01CD01089525
:10330000FB01DC0104C08D910190801921F4415032
:103310005040C8F7881B990B0895FB01DC01019010
:103320000D920020E1F70895AEE0B0E0E9E9F9E19F
:10333000AAC20D891E8986E08C831A8309838FEFC8
:103340009FE79E838D83AE01475E5F4F6F89788DC7
:10335000CE01019608D0EF81F885E00FF11F1082B1
:103360002E96E4E0ACC2ABE0B0E0E8EBF9E17DC260
:103370006C017B018A01FC0117821682838181FF27
:10338000BFC1CE0101963C01F6019381F70193FD87
:10339000859193FF81917F01882309F4ADC1853226
:1033A00039F493FD859193FF81917F01853221F45A
:1033B000B60190E0C0D1E8CF912C212C312CFFE157
:1033C000F315D8F08B3279F038F4803279F083320B
:1033D000A1F4232D20611DC08D3261F0803369F48A
:1033E000232D216016C0832D8260382EE32DE460EA
:1033F0003E2E2AC0F32DF8601DC037FC2DC020EDF5
:10340000280F2A3040F08E32B9F436FC75C1232DD6
:103410002064322E19C036FE06C08AE0989E200D28
:103420001124922E11C0EAE02E9E200D1124222E8E
:10343000F32DF0623F2E08C08C3621F4832D806876
:10344000382E02C0883641F4F70193FD859193FF31
:1034500081917F018111B3CF982F9F7D9554933037
:1034600028F40C5F1F4F9FE399830DC0833631F022
:10347000833771F0833509F055C020C0F801808191
:1034800089830E5F1F4F88248394912C530112C0AF
:103490002801F2E04F0E511CF801A080B18036FEE9
:1034A00003C0692D70E002C06FEF7FEFC50138D116
:1034B0004C018201F32DFF773F2E15C0280122E039
:1034C000420E511CF801A080B18036FE03C0692D68
:1034D00070E002C06FEF7FEFC50117D14C01F32DF3
:1034E000F0683F2E820133FC19C0822D90E08816CF
:1034F0009906A0F4B60180E290E01DD12A94F5CFA0
:10350000F50137FC859137FE81915F01B60190E0AE
:1035100012D121102A9421E0821A91088114910479
:1035200079F7E1C0843611F0893639F5F80137FEB4
:1035300007C060817181828193810C5F1F4F08C039
:1035400060817181072E000C880B990B0E5F1F4F55
:10355000F32DFF763F2E97FF09C0909580957095CB
:1035600061957F4F8F4F9F4FF0683F2E2AE030E0EC
:10357000A3011DD1882E861844C0853731F4232D30
:103580002F7EB22E2AE030E025C0932D997FB92EF0
:103590008F36C1F018F4883579F0AEC0803719F055
:1035A000883721F0A9C0E92FE061BE2EB4FE0DC01E
:1035B000FB2DF460BF2E09C034FE0AC0292F2660FF
:1035C000B22E06C028E030E005C020E130E002C0A5
:1035D00020E132E0F801B7FE07C06081718182818D
:1035E00093810C5F1F4F06C06081718180E090E085
:1035F0000E5F1F4FA301DBD0882E8618FB2DFF77AF
:103600003F2E36FE0DC0232D2E7FA22E891458F496
:1036100034FE0BC032FC09C0832D8E7EA82E05C05F
:10362000B82CA32C03C0B82C01C0B92CA4FE0FC029
:10363000FE01E80DF11D8081803321F49A2D997EE1
:10364000A92E09C0A2FE06C0B394B39404C08A2D6B
:10365000867809F0B394A3FC10C0A0FE06C0B21493
:1036600080F4280C922C9B180DC0B21458F4B601AB
:1036700080E290E060D0B394F8CFB21418F42B1825
:1036800002C0982C212CA4FE0FC0B60180E390E06C
:1036900052D0A2FE16C0A1FC03C088E790E002C091
:1036A00088E590E0B6010CC08A2D867851F0A1FE25
:1036B00002C08BE201C080E2A7FC8DE2B60190E07F
:1036C0003AD0891430F4B60180E390E034D09A9473
:1036D000F8CF8A94F301E80DF11D8081B60190E0E6
:1036E0002AD08110F6CF222009F44ECEB60180E216
:1036F00090E021D02A94F7CFF6018681978102C00D
:103700008FEF9FEF2B96E2E1CCC0FC01059061505A
:1037100070400110D8F7809590958E0F9F1F0895E7
:10372000FC016150704001900110D8F78095909590
:103730008E0F9F1F08950F931F93CF93DF93FB016D
:10374000238121FD03C08FEF9FEF2CC022FF16C005
:1037500046815781248135814217530744F4A08163
:10376000B1819D012F5F3F4F318320838C93268150
:1037700037812F5F3F4F3783268314C08B01EC01C5
:10378000FB010084F185E02D0995892BE1F6D80134
:1037900016968D919C911797019617969C938E93F0
:1037A0001697CE01DF91CF911F910F910895FA01E5
:1037B000AA27283051F1203181F1E8946F936E7F70
:1037C0006E5F7F4F8F4F9F4FAF4FB1E03ED0B4E061
:1037D0003CD0670F781F891F9A1FA11D680F791FA2
:1037E0008A1F911DA11D6A0F711D811D911DA11DB3
:1037F00020D009F468943F912AE0269F11243019C3
:10380000305D3193DEF6CF010895462F4770405D5D
:103810004193B3E00FD0C9F7F6CF462F4F70405D0C
:103820004A3318F0495D31FD4052419302D0A9F767
:10383000EACFB4E0A6959795879577956795BA9561
:10384000C9F700976105710508959B01AC010A2E27
:1038500006945795479537952795BA95C9F7620FFE
:10386000731F841F951FA01D08952F923F924F92A2
:103870005F926F927F928F929F92AF92BF92CF9200
:10388000DF92EF92FF920F931F93CF93DF93CDB709
:10389000DEB7CA1BDB0B0FB6F894DEBF0FBECDBF81
:1038A00009942A88398848885F846E847D848C8452
:1038B0009B84AA84B984C884DF80EE80FD800C815B
:1038C0001B81AA81B981CE0FD11D0FB6F894DEBF3E
:0C38D0000FBECDBFED010895F894FFCFAE
:1038DC00820100000000000035000000000029F00B
:1038EC000000000028F0000000002BF00000000099
:1038FC007000000000003600FF00002C0280004029
:10390C0002000100040001000600010025642E25C0
:10391C00640000000000230C620E1B0C1B0C310F0A
:10392C00000000008217821782178217821700008E
:10393C000000230C620E1B0C1B0C310F000000004E
:0E394C0031153016F1142C15E2141415011566
:00000001FF
